{
	"contracts/CurveGateway.sol": {
		"CurveDepositWithdraw": {
			"abi": [
				{
					"inputs": [
						{
							"internalType": "address",
							"name": "_curvePool",
							"type": "address"
						},
						{
							"internalType": "address",
							"name": "_treasury",
							"type": "address"
						}
					],
					"stateMutability": "nonpayable",
					"type": "constructor"
				},
				{
					"inputs": [],
					"name": "Treasury",
					"outputs": [
						{
							"internalType": "address",
							"name": "",
							"type": "address"
						}
					],
					"stateMutability": "view",
					"type": "function"
				},
				{
					"inputs": [],
					"name": "curvePool",
					"outputs": [
						{
							"internalType": "address",
							"name": "",
							"type": "address"
						}
					],
					"stateMutability": "view",
					"type": "function"
				},
				{
					"inputs": [
						{
							"internalType": "address",
							"name": "tokenAddress",
							"type": "address"
						},
						{
							"internalType": "uint256",
							"name": "amount",
							"type": "uint256"
						}
					],
					"name": "deposit",
					"outputs": [],
					"stateMutability": "nonpayable",
					"type": "function"
				},
				{
					"inputs": [
						{
							"internalType": "address",
							"name": "tokenAddress",
							"type": "address"
						}
					],
					"name": "getBalance",
					"outputs": [
						{
							"internalType": "uint256",
							"name": "",
							"type": "uint256"
						}
					],
					"stateMutability": "view",
					"type": "function"
				},
				{
					"inputs": [],
					"name": "owner",
					"outputs": [
						{
							"internalType": "address",
							"name": "",
							"type": "address"
						}
					],
					"stateMutability": "view",
					"type": "function"
				},
				{
					"inputs": [
						{
							"internalType": "address",
							"name": "tokenAddress",
							"type": "address"
						},
						{
							"internalType": "uint256",
							"name": "amount",
							"type": "uint256"
						}
					],
					"name": "withdraw",
					"outputs": [],
					"stateMutability": "nonpayable",
					"type": "function"
				}
			],
			"devdoc": {
				"kind": "dev",
				"methods": {},
				"version": 1
			},
			"evm": {
				"assembly": "    /* \"contracts/CurveGateway.sol\":120:1535  contract CurveDepositWithdraw {... */\n  mstore(0x40, 0x80)\n    /* \"contracts/CurveGateway.sol\":323:445  constructor(address _curvePool,address _treasury) {... */\n  callvalue\n  dup1\n  iszero\n  tag_1\n  jumpi\n  0x00\n  dup1\n  revert\ntag_1:\n  pop\n  mload(0x40)\n  sub(codesize, bytecodeSize)\n  dup1\n  bytecodeSize\n  dup4\n  codecopy\n  dup2\n  dup2\n  add\n  0x40\n  mstore\n  dup2\n  add\n  swap1\n  tag_2\n  swap2\n  swap1\n  tag_3\n  jump\t// in\ntag_2:\n    /* \"contracts/CurveGateway.sol\":396:406  _curvePool */\n  dup2\n    /* \"contracts/CurveGateway.sol\":384:393  curvePool */\n  0x00\n  dup1\n    /* \"contracts/CurveGateway.sol\":384:406  curvePool = _curvePool */\n  0x0100\n  exp\n  dup2\n  sload\n  dup2\n  0xffffffffffffffffffffffffffffffffffffffff\n  mul\n  not\n  and\n  swap1\n  dup4\n  0xffffffffffffffffffffffffffffffffffffffff\n  and\n  mul\n  or\n  swap1\n  sstore\n  pop\n    /* \"contracts/CurveGateway.sol\":428:437  _treasury */\n  dup1\n    /* \"contracts/CurveGateway.sol\":417:425  Treasury */\n  0x02\n  0x00\n    /* \"contracts/CurveGateway.sol\":417:437  Treasury = _treasury */\n  0x0100\n  exp\n  dup2\n  sload\n  dup2\n  0xffffffffffffffffffffffffffffffffffffffff\n  mul\n  not\n  and\n  swap1\n  dup4\n  0xffffffffffffffffffffffffffffffffffffffff\n  and\n  mul\n  or\n  swap1\n  sstore\n  pop\n    /* \"contracts/CurveGateway.sol\":323:445  constructor(address _curvePool,address _treasury) {... */\n  pop\n  pop\n    /* \"contracts/CurveGateway.sol\":120:1535  contract CurveDepositWithdraw {... */\n  jump(tag_6)\n    /* \"#utility.yul\":88:205   */\ntag_8:\n    /* \"#utility.yul\":197:198   */\n  0x00\n    /* \"#utility.yul\":194:195   */\n  dup1\n    /* \"#utility.yul\":187:199   */\n  revert\n    /* \"#utility.yul\":334:460   */\ntag_10:\n    /* \"#utility.yul\":371:378   */\n  0x00\n    /* \"#utility.yul\":411:453   */\n  0xffffffffffffffffffffffffffffffffffffffff\n    /* \"#utility.yul\":404:409   */\n  dup3\n    /* \"#utility.yul\":400:454   */\n  and\n    /* \"#utility.yul\":389:454   */\n  swap1\n  pop\n    /* \"#utility.yul\":334:460   */\n  swap2\n  swap1\n  pop\n  jump\t// out\n    /* \"#utility.yul\":466:562   */\ntag_11:\n    /* \"#utility.yul\":503:510   */\n  0x00\n    /* \"#utility.yul\":532:556   */\n  tag_20\n    /* \"#utility.yul\":550:555   */\n  dup3\n    /* \"#utility.yul\":532:556   */\n  tag_10\n  jump\t// in\ntag_20:\n    /* \"#utility.yul\":521:556   */\n  swap1\n  pop\n    /* \"#utility.yul\":466:562   */\n  swap2\n  swap1\n  pop\n  jump\t// out\n    /* \"#utility.yul\":568:690   */\ntag_12:\n    /* \"#utility.yul\":641:665   */\n  tag_22\n    /* \"#utility.yul\":659:664   */\n  dup2\n    /* \"#utility.yul\":641:665   */\n  tag_11\n  jump\t// in\ntag_22:\n    /* \"#utility.yul\":634:639   */\n  dup2\n    /* \"#utility.yul\":631:666   */\n  eq\n    /* \"#utility.yul\":621:684   */\n  tag_23\n  jumpi\n    /* \"#utility.yul\":680:681   */\n  0x00\n    /* \"#utility.yul\":677:678   */\n  dup1\n    /* \"#utility.yul\":670:682   */\n  revert\n    /* \"#utility.yul\":621:684   */\ntag_23:\n    /* \"#utility.yul\":568:690   */\n  pop\n  jump\t// out\n    /* \"#utility.yul\":696:839   */\ntag_13:\n    /* \"#utility.yul\":753:758   */\n  0x00\n    /* \"#utility.yul\":784:790   */\n  dup2\n    /* \"#utility.yul\":778:791   */\n  mload\n    /* \"#utility.yul\":769:791   */\n  swap1\n  pop\n    /* \"#utility.yul\":800:833   */\n  tag_25\n    /* \"#utility.yul\":827:832   */\n  dup2\n    /* \"#utility.yul\":800:833   */\n  tag_12\n  jump\t// in\ntag_25:\n    /* \"#utility.yul\":696:839   */\n  swap3\n  swap2\n  pop\n  pop\n  jump\t// out\n    /* \"#utility.yul\":845:1352   */\ntag_3:\n    /* \"#utility.yul\":924:930   */\n  0x00\n    /* \"#utility.yul\":932:938   */\n  dup1\n    /* \"#utility.yul\":981:983   */\n  0x40\n    /* \"#utility.yul\":969:978   */\n  dup4\n    /* \"#utility.yul\":960:967   */\n  dup6\n    /* \"#utility.yul\":956:979   */\n  sub\n    /* \"#utility.yul\":952:984   */\n  slt\n    /* \"#utility.yul\":949:1068   */\n  iszero\n  tag_27\n  jumpi\n    /* \"#utility.yul\":987:1066   */\n  tag_28\n  tag_8\n  jump\t// in\ntag_28:\n    /* \"#utility.yul\":949:1068   */\ntag_27:\n    /* \"#utility.yul\":1107:1108   */\n  0x00\n    /* \"#utility.yul\":1132:1196   */\n  tag_29\n    /* \"#utility.yul\":1188:1195   */\n  dup6\n    /* \"#utility.yul\":1179:1185   */\n  dup3\n    /* \"#utility.yul\":1168:1177   */\n  dup7\n    /* \"#utility.yul\":1164:1186   */\n  add\n    /* \"#utility.yul\":1132:1196   */\n  tag_13\n  jump\t// in\ntag_29:\n    /* \"#utility.yul\":1122:1196   */\n  swap3\n  pop\n    /* \"#utility.yul\":1078:1206   */\n  pop\n    /* \"#utility.yul\":1245:1247   */\n  0x20\n    /* \"#utility.yul\":1271:1335   */\n  tag_30\n    /* \"#utility.yul\":1327:1334   */\n  dup6\n    /* \"#utility.yul\":1318:1324   */\n  dup3\n    /* \"#utility.yul\":1307:1316   */\n  dup7\n    /* \"#utility.yul\":1303:1325   */\n  add\n    /* \"#utility.yul\":1271:1335   */\n  tag_13\n  jump\t// in\ntag_30:\n    /* \"#utility.yul\":1261:1335   */\n  swap2\n  pop\n    /* \"#utility.yul\":1216:1345   */\n  pop\n    /* \"#utility.yul\":845:1352   */\n  swap3\n  pop\n  swap3\n  swap1\n  pop\n  jump\t// out\n    /* \"contracts/CurveGateway.sol\":120:1535  contract CurveDepositWithdraw {... */\ntag_6:\n  dataSize(sub_0)\n  dup1\n  dataOffset(sub_0)\n  0x00\n  codecopy\n  0x00\n  return\nstop\n\nsub_0: assembly {\n        /* \"contracts/CurveGateway.sol\":120:1535  contract CurveDepositWithdraw {... */\n      mstore(0x40, 0x80)\n      callvalue\n      dup1\n      iszero\n      tag_1\n      jumpi\n      0x00\n      dup1\n      revert\n    tag_1:\n      pop\n      jumpi(tag_2, lt(calldatasize, 0x04))\n      shr(0xe0, calldataload(0x00))\n      dup1\n      0x218751b2\n      eq\n      tag_3\n      jumpi\n      dup1\n      0x47e7ef24\n      eq\n      tag_4\n      jumpi\n      dup1\n      0x563df32f\n      eq\n      tag_5\n      jumpi\n      dup1\n      0x8da5cb5b\n      eq\n      tag_6\n      jumpi\n      dup1\n      0xf3fef3a3\n      eq\n      tag_7\n      jumpi\n      dup1\n      0xf8b2cb4f\n      eq\n      tag_8\n      jumpi\n    tag_2:\n      0x00\n      dup1\n      revert\n        /* \"contracts/CurveGateway.sol\":157:181  address public curvePool */\n    tag_3:\n      tag_9\n      tag_10\n      jump\t// in\n    tag_9:\n      mload(0x40)\n      tag_11\n      swap2\n      swap1\n      tag_12\n      jump\t// in\n    tag_11:\n      mload(0x40)\n      dup1\n      swap2\n      sub\n      swap1\n      return\n        /* \"contracts/CurveGateway.sol\":508:937  function deposit(address tokenAddress, uint256 amount) public  {... */\n    tag_4:\n      tag_13\n      0x04\n      dup1\n      calldatasize\n      sub\n      dup2\n      add\n      swap1\n      tag_14\n      swap2\n      swap1\n      tag_15\n      jump\t// in\n    tag_14:\n      tag_16\n      jump\t// in\n    tag_13:\n      stop\n        /* \"contracts/CurveGateway.sol\":286:309  address public Treasury */\n    tag_5:\n      tag_17\n      tag_18\n      jump\t// in\n    tag_17:\n      mload(0x40)\n      tag_19\n      swap2\n      swap1\n      tag_12\n      jump\t// in\n    tag_19:\n      mload(0x40)\n      dup1\n      swap2\n      sub\n      swap1\n      return\n        /* \"contracts/CurveGateway.sol\":226:246  address public owner */\n    tag_6:\n      tag_20\n      tag_21\n      jump\t// in\n    tag_20:\n      mload(0x40)\n      tag_22\n      swap2\n      swap1\n      tag_12\n      jump\t// in\n    tag_22:\n      mload(0x40)\n      dup1\n      swap2\n      sub\n      swap1\n      return\n        /* \"contracts/CurveGateway.sol\":1001:1314  function withdraw(address tokenAddress, uint256 amount) public  {... */\n    tag_7:\n      tag_23\n      0x04\n      dup1\n      calldatasize\n      sub\n      dup2\n      add\n      swap1\n      tag_24\n      swap2\n      swap1\n      tag_15\n      jump\t// in\n    tag_24:\n      tag_25\n      jump\t// in\n    tag_23:\n      stop\n        /* \"contracts/CurveGateway.sol\":1389:1532  function getBalance(address tokenAddress) public view returns (uint256) {... */\n    tag_8:\n      tag_26\n      0x04\n      dup1\n      calldatasize\n      sub\n      dup2\n      add\n      swap1\n      tag_27\n      swap2\n      swap1\n      tag_28\n      jump\t// in\n    tag_27:\n      tag_29\n      jump\t// in\n    tag_26:\n      mload(0x40)\n      tag_30\n      swap2\n      swap1\n      tag_31\n      jump\t// in\n    tag_30:\n      mload(0x40)\n      dup1\n      swap2\n      sub\n      swap1\n      return\n        /* \"contracts/CurveGateway.sol\":157:181  address public curvePool */\n    tag_10:\n      0x00\n      dup1\n      sload\n      swap1\n      0x0100\n      exp\n      swap1\n      div\n      0xffffffffffffffffffffffffffffffffffffffff\n      and\n      dup2\n      jump\t// out\n        /* \"contracts/CurveGateway.sol\":508:937  function deposit(address tokenAddress, uint256 amount) public  {... */\n    tag_16:\n        /* \"contracts/CurveGateway.sol\":669:681  tokenAddress */\n      dup2\n        /* \"contracts/CurveGateway.sol\":662:695  IERC20(tokenAddress).transferFrom */\n      0xffffffffffffffffffffffffffffffffffffffff\n      and\n      0x23b872dd\n        /* \"contracts/CurveGateway.sol\":696:706  msg.sender */\n      caller\n        /* \"contracts/CurveGateway.sol\":716:720  this */\n      address\n        /* \"contracts/CurveGateway.sol\":723:729  amount */\n      dup5\n        /* \"contracts/CurveGateway.sol\":662:730  IERC20(tokenAddress).transferFrom(msg.sender, address(this), amount) */\n      mload(0x40)\n      dup5\n      0xffffffff\n      and\n      0xe0\n      shl\n      dup2\n      mstore\n      0x04\n      add\n      tag_33\n      swap4\n      swap3\n      swap2\n      swap1\n      tag_34\n      jump\t// in\n    tag_33:\n      0x20\n      mload(0x40)\n      dup1\n      dup4\n      sub\n      dup2\n      0x00\n      dup8\n      gas\n      call\n      iszero\n      dup1\n      iszero\n      tag_36\n      jumpi\n      returndatasize\n      0x00\n      dup1\n      returndatacopy\n      revert(0x00, returndatasize)\n    tag_36:\n      pop\n      pop\n      pop\n      pop\n      mload(0x40)\n      returndatasize\n      not(0x1f)\n      0x1f\n      dup3\n      add\n      and\n      dup3\n      add\n      dup1\n      0x40\n      mstore\n      pop\n      dup2\n      add\n      swap1\n      tag_37\n      swap2\n      swap1\n      tag_38\n      jump\t// in\n    tag_37:\n      pop\n        /* \"contracts/CurveGateway.sol\":748:760  tokenAddress */\n      dup2\n        /* \"contracts/CurveGateway.sol\":741:769  IERC20(tokenAddress).approve */\n      0xffffffffffffffffffffffffffffffffffffffff\n      and\n      0x095ea7b3\n        /* \"contracts/CurveGateway.sol\":770:779  curvePool */\n      0x00\n      dup1\n      sload\n      swap1\n      0x0100\n      exp\n      swap1\n      div\n      0xffffffffffffffffffffffffffffffffffffffff\n      and\n        /* \"contracts/CurveGateway.sol\":781:787  amount */\n      dup4\n        /* \"contracts/CurveGateway.sol\":741:788  IERC20(tokenAddress).approve(curvePool, amount) */\n      mload(0x40)\n      dup4\n      0xffffffff\n      and\n      0xe0\n      shl\n      dup2\n      mstore\n      0x04\n      add\n      tag_39\n      swap3\n      swap2\n      swap1\n      tag_40\n      jump\t// in\n    tag_39:\n      0x20\n      mload(0x40)\n      dup1\n      dup4\n      sub\n      dup2\n      0x00\n      dup8\n      gas\n      call\n      iszero\n      dup1\n      iszero\n      tag_42\n      jumpi\n      returndatasize\n      0x00\n      dup1\n      returndatacopy\n      revert(0x00, returndatasize)\n    tag_42:\n      pop\n      pop\n      pop\n      pop\n      mload(0x40)\n      returndatasize\n      not(0x1f)\n      0x1f\n      dup3\n      add\n      and\n      dup3\n      add\n      dup1\n      0x40\n      mstore\n      pop\n      dup2\n      add\n      swap1\n      tag_43\n      swap2\n      swap1\n      tag_38\n      jump\t// in\n    tag_43:\n      pop\n        /* \"contracts/CurveGateway.sol\":867:876  curvePool */\n      0x00\n      dup1\n      sload\n      swap1\n      0x0100\n      exp\n      swap1\n      div\n      0xffffffffffffffffffffffffffffffffffffffff\n      and\n        /* \"contracts/CurveGateway.sol\":856:891  ICurvePool(curvePool).add_liquidity */\n      0xffffffffffffffffffffffffffffffffffffffff\n      and\n      0x4515cef3\n        /* \"contracts/CurveGateway.sol\":856:910  ICurvePool(curvePool).add_liquidity([amount, 0, 0], 0) */\n      mload(0x40)\n      dup1\n      0x60\n      add\n      0x40\n      mstore\n      dup1\n        /* \"contracts/CurveGateway.sol\":893:899  amount */\n      dup5\n        /* \"contracts/CurveGateway.sol\":856:910  ICurvePool(curvePool).add_liquidity([amount, 0, 0], 0) */\n      dup2\n      mstore\n      0x20\n      add\n        /* \"contracts/CurveGateway.sol\":901:902  0 */\n      0x00\n        /* \"contracts/CurveGateway.sol\":856:910  ICurvePool(curvePool).add_liquidity([amount, 0, 0], 0) */\n      dup2\n      mstore\n      0x20\n      add\n        /* \"contracts/CurveGateway.sol\":904:905  0 */\n      0x00\n        /* \"contracts/CurveGateway.sol\":856:910  ICurvePool(curvePool).add_liquidity([amount, 0, 0], 0) */\n      dup2\n      mstore\n      pop\n        /* \"contracts/CurveGateway.sol\":908:909  0 */\n      0x00\n        /* \"contracts/CurveGateway.sol\":856:910  ICurvePool(curvePool).add_liquidity([amount, 0, 0], 0) */\n      mload(0x40)\n      dup4\n      0xffffffff\n      and\n      0xe0\n      shl\n      dup2\n      mstore\n      0x04\n      add\n      tag_44\n      swap3\n      swap2\n      swap1\n      tag_45\n      jump\t// in\n    tag_44:\n      0x20\n      mload(0x40)\n      dup1\n      dup4\n      sub\n      dup2\n      0x00\n      dup8\n      gas\n      call\n      iszero\n      dup1\n      iszero\n      tag_47\n      jumpi\n      returndatasize\n      0x00\n      dup1\n      returndatacopy\n      revert(0x00, returndatasize)\n    tag_47:\n      pop\n      pop\n      pop\n      pop\n      mload(0x40)\n      returndatasize\n      not(0x1f)\n      0x1f\n      dup3\n      add\n      and\n      dup3\n      add\n      dup1\n      0x40\n      mstore\n      pop\n      dup2\n      add\n      swap1\n      tag_48\n      swap2\n      swap1\n      tag_38\n      jump\t// in\n    tag_48:\n        /* \"contracts/CurveGateway.sol\":848:929  require(ICurvePool(curvePool).add_liquidity([amount, 0, 0], 0), \"Deposit failed\") */\n      tag_49\n      jumpi\n      mload(0x40)\n      0x08c379a000000000000000000000000000000000000000000000000000000000\n      dup2\n      mstore\n      0x04\n      add\n      tag_50\n      swap1\n      tag_51\n      jump\t// in\n    tag_50:\n      mload(0x40)\n      dup1\n      swap2\n      sub\n      swap1\n      revert\n    tag_49:\n        /* \"contracts/CurveGateway.sol\":508:937  function deposit(address tokenAddress, uint256 amount) public  {... */\n      pop\n      pop\n      jump\t// out\n        /* \"contracts/CurveGateway.sol\":286:309  address public Treasury */\n    tag_18:\n      0x02\n      0x00\n      swap1\n      sload\n      swap1\n      0x0100\n      exp\n      swap1\n      div\n      0xffffffffffffffffffffffffffffffffffffffff\n      and\n      dup2\n      jump\t// out\n        /* \"contracts/CurveGateway.sol\":226:246  address public owner */\n    tag_21:\n      0x01\n      0x00\n      swap1\n      sload\n      swap1\n      0x0100\n      exp\n      swap1\n      div\n      0xffffffffffffffffffffffffffffffffffffffff\n      and\n      dup2\n      jump\t// out\n        /* \"contracts/CurveGateway.sol\":1001:1314  function withdraw(address tokenAddress, uint256 amount) public  {... */\n    tag_25:\n        /* \"contracts/CurveGateway.sol\":1135:1144  curvePool */\n      0x00\n      dup1\n      sload\n      swap1\n      0x0100\n      exp\n      swap1\n      div\n      0xffffffffffffffffffffffffffffffffffffffff\n      and\n        /* \"contracts/CurveGateway.sol\":1124:1171  ICurvePool(curvePool).remove_liquidity_one_coin */\n      0xffffffffffffffffffffffffffffffffffffffff\n      and\n      0x1a4d01d2\n        /* \"contracts/CurveGateway.sol\":1172:1178  amount */\n      dup3\n        /* \"contracts/CurveGateway.sol\":1180:1181  0 */\n      0x00\n        /* \"contracts/CurveGateway.sol\":1183:1184  0 */\n      dup1\n        /* \"contracts/CurveGateway.sol\":1124:1185  ICurvePool(curvePool).remove_liquidity_one_coin(amount, 0, 0) */\n      mload(0x40)\n      dup5\n      0xffffffff\n      and\n      0xe0\n      shl\n      dup2\n      mstore\n      0x04\n      add\n      tag_53\n      swap4\n      swap3\n      swap2\n      swap1\n      tag_54\n      jump\t// in\n    tag_53:\n      0x20\n      mload(0x40)\n      dup1\n      dup4\n      sub\n      dup2\n      0x00\n      dup8\n      gas\n      call\n      iszero\n      dup1\n      iszero\n      tag_56\n      jumpi\n      returndatasize\n      0x00\n      dup1\n      returndatacopy\n      revert(0x00, returndatasize)\n    tag_56:\n      pop\n      pop\n      pop\n      pop\n      mload(0x40)\n      returndatasize\n      not(0x1f)\n      0x1f\n      dup3\n      add\n      and\n      dup3\n      add\n      dup1\n      0x40\n      mstore\n      pop\n      dup2\n      add\n      swap1\n      tag_57\n      swap2\n      swap1\n      tag_58\n      jump\t// in\n    tag_57:\n      pop\n        /* \"contracts/CurveGateway.sol\":1269:1281  tokenAddress */\n      dup2\n        /* \"contracts/CurveGateway.sol\":1262:1291  IERC20(tokenAddress).transfer */\n      0xffffffffffffffffffffffffffffffffffffffff\n      and\n      0xa9059cbb\n        /* \"contracts/CurveGateway.sol\":1292:1297  owner */\n      0x01\n      0x00\n      swap1\n      sload\n      swap1\n      0x0100\n      exp\n      swap1\n      div\n      0xffffffffffffffffffffffffffffffffffffffff\n      and\n        /* \"contracts/CurveGateway.sol\":1299:1305  amount */\n      dup4\n        /* \"contracts/CurveGateway.sol\":1262:1306  IERC20(tokenAddress).transfer(owner, amount) */\n      mload(0x40)\n      dup4\n      0xffffffff\n      and\n      0xe0\n      shl\n      dup2\n      mstore\n      0x04\n      add\n      tag_59\n      swap3\n      swap2\n      swap1\n      tag_40\n      jump\t// in\n    tag_59:\n      0x20\n      mload(0x40)\n      dup1\n      dup4\n      sub\n      dup2\n      0x00\n      dup8\n      gas\n      call\n      iszero\n      dup1\n      iszero\n      tag_61\n      jumpi\n      returndatasize\n      0x00\n      dup1\n      returndatacopy\n      revert(0x00, returndatasize)\n    tag_61:\n      pop\n      pop\n      pop\n      pop\n      mload(0x40)\n      returndatasize\n      not(0x1f)\n      0x1f\n      dup3\n      add\n      and\n      dup3\n      add\n      dup1\n      0x40\n      mstore\n      pop\n      dup2\n      add\n      swap1\n      tag_62\n      swap2\n      swap1\n      tag_38\n      jump\t// in\n    tag_62:\n      pop\n        /* \"contracts/CurveGateway.sol\":1001:1314  function withdraw(address tokenAddress, uint256 amount) public  {... */\n      pop\n      pop\n      jump\t// out\n        /* \"contracts/CurveGateway.sol\":1389:1532  function getBalance(address tokenAddress) public view returns (uint256) {... */\n    tag_29:\n        /* \"contracts/CurveGateway.sol\":1452:1459  uint256 */\n      0x00\n        /* \"contracts/CurveGateway.sol\":1486:1498  tokenAddress */\n      dup2\n        /* \"contracts/CurveGateway.sol\":1479:1509  IERC20(tokenAddress).balanceOf */\n      0xffffffffffffffffffffffffffffffffffffffff\n      and\n      0x70a08231\n        /* \"contracts/CurveGateway.sol\":1518:1522  this */\n      address\n        /* \"contracts/CurveGateway.sol\":1479:1524  IERC20(tokenAddress).balanceOf(address(this)) */\n      mload(0x40)\n      dup3\n      0xffffffff\n      and\n      0xe0\n      shl\n      dup2\n      mstore\n      0x04\n      add\n      tag_64\n      swap2\n      swap1\n      tag_12\n      jump\t// in\n    tag_64:\n      0x20\n      mload(0x40)\n      dup1\n      dup4\n      sub\n      dup2\n      dup7\n      gas\n      staticcall\n      iszero\n      dup1\n      iszero\n      tag_66\n      jumpi\n      returndatasize\n      0x00\n      dup1\n      returndatacopy\n      revert(0x00, returndatasize)\n    tag_66:\n      pop\n      pop\n      pop\n      pop\n      mload(0x40)\n      returndatasize\n      not(0x1f)\n      0x1f\n      dup3\n      add\n      and\n      dup3\n      add\n      dup1\n      0x40\n      mstore\n      pop\n      dup2\n      add\n      swap1\n      tag_67\n      swap2\n      swap1\n      tag_58\n      jump\t// in\n    tag_67:\n        /* \"contracts/CurveGateway.sol\":1472:1524  return IERC20(tokenAddress).balanceOf(address(this)) */\n      swap1\n      pop\n        /* \"contracts/CurveGateway.sol\":1389:1532  function getBalance(address tokenAddress) public view returns (uint256) {... */\n      swap2\n      swap1\n      pop\n      jump\t// out\n        /* \"#utility.yul\":7:133   */\n    tag_68:\n        /* \"#utility.yul\":44:51   */\n      0x00\n        /* \"#utility.yul\":84:126   */\n      0xffffffffffffffffffffffffffffffffffffffff\n        /* \"#utility.yul\":77:82   */\n      dup3\n        /* \"#utility.yul\":73:127   */\n      and\n        /* \"#utility.yul\":62:127   */\n      swap1\n      pop\n        /* \"#utility.yul\":7:133   */\n      swap2\n      swap1\n      pop\n      jump\t// out\n        /* \"#utility.yul\":139:235   */\n    tag_69:\n        /* \"#utility.yul\":176:183   */\n      0x00\n        /* \"#utility.yul\":205:229   */\n      tag_104\n        /* \"#utility.yul\":223:228   */\n      dup3\n        /* \"#utility.yul\":205:229   */\n      tag_68\n      jump\t// in\n    tag_104:\n        /* \"#utility.yul\":194:229   */\n      swap1\n      pop\n        /* \"#utility.yul\":139:235   */\n      swap2\n      swap1\n      pop\n      jump\t// out\n        /* \"#utility.yul\":241:359   */\n    tag_70:\n        /* \"#utility.yul\":328:352   */\n      tag_106\n        /* \"#utility.yul\":346:351   */\n      dup2\n        /* \"#utility.yul\":328:352   */\n      tag_69\n      jump\t// in\n    tag_106:\n        /* \"#utility.yul\":323:326   */\n      dup3\n        /* \"#utility.yul\":316:353   */\n      mstore\n        /* \"#utility.yul\":241:359   */\n      pop\n      pop\n      jump\t// out\n        /* \"#utility.yul\":365:587   */\n    tag_12:\n        /* \"#utility.yul\":458:462   */\n      0x00\n        /* \"#utility.yul\":496:498   */\n      0x20\n        /* \"#utility.yul\":485:494   */\n      dup3\n        /* \"#utility.yul\":481:499   */\n      add\n        /* \"#utility.yul\":473:499   */\n      swap1\n      pop\n        /* \"#utility.yul\":509:580   */\n      tag_108\n        /* \"#utility.yul\":577:578   */\n      0x00\n        /* \"#utility.yul\":566:575   */\n      dup4\n        /* \"#utility.yul\":562:579   */\n      add\n        /* \"#utility.yul\":553:559   */\n      dup5\n        /* \"#utility.yul\":509:580   */\n      tag_70\n      jump\t// in\n    tag_108:\n        /* \"#utility.yul\":365:587   */\n      swap3\n      swap2\n      pop\n      pop\n      jump\t// out\n        /* \"#utility.yul\":674:791   */\n    tag_72:\n        /* \"#utility.yul\":783:784   */\n      0x00\n        /* \"#utility.yul\":780:781   */\n      dup1\n        /* \"#utility.yul\":773:785   */\n      revert\n        /* \"#utility.yul\":920:1042   */\n    tag_74:\n        /* \"#utility.yul\":993:1017   */\n      tag_113\n        /* \"#utility.yul\":1011:1016   */\n      dup2\n        /* \"#utility.yul\":993:1017   */\n      tag_69\n      jump\t// in\n    tag_113:\n        /* \"#utility.yul\":986:991   */\n      dup2\n        /* \"#utility.yul\":983:1018   */\n      eq\n        /* \"#utility.yul\":973:1036   */\n      tag_114\n      jumpi\n        /* \"#utility.yul\":1032:1033   */\n      0x00\n        /* \"#utility.yul\":1029:1030   */\n      dup1\n        /* \"#utility.yul\":1022:1034   */\n      revert\n        /* \"#utility.yul\":973:1036   */\n    tag_114:\n        /* \"#utility.yul\":920:1042   */\n      pop\n      jump\t// out\n        /* \"#utility.yul\":1048:1187   */\n    tag_75:\n        /* \"#utility.yul\":1094:1099   */\n      0x00\n        /* \"#utility.yul\":1132:1138   */\n      dup2\n        /* \"#utility.yul\":1119:1139   */\n      calldataload\n        /* \"#utility.yul\":1110:1139   */\n      swap1\n      pop\n        /* \"#utility.yul\":1148:1181   */\n      tag_116\n        /* \"#utility.yul\":1175:1180   */\n      dup2\n        /* \"#utility.yul\":1148:1181   */\n      tag_74\n      jump\t// in\n    tag_116:\n        /* \"#utility.yul\":1048:1187   */\n      swap3\n      swap2\n      pop\n      pop\n      jump\t// out\n        /* \"#utility.yul\":1193:1270   */\n    tag_76:\n        /* \"#utility.yul\":1230:1237   */\n      0x00\n        /* \"#utility.yul\":1259:1264   */\n      dup2\n        /* \"#utility.yul\":1248:1264   */\n      swap1\n      pop\n        /* \"#utility.yul\":1193:1270   */\n      swap2\n      swap1\n      pop\n      jump\t// out\n        /* \"#utility.yul\":1276:1398   */\n    tag_77:\n        /* \"#utility.yul\":1349:1373   */\n      tag_119\n        /* \"#utility.yul\":1367:1372   */\n      dup2\n        /* \"#utility.yul\":1349:1373   */\n      tag_76\n      jump\t// in\n    tag_119:\n        /* \"#utility.yul\":1342:1347   */\n      dup2\n        /* \"#utility.yul\":1339:1374   */\n      eq\n        /* \"#utility.yul\":1329:1392   */\n      tag_120\n      jumpi\n        /* \"#utility.yul\":1388:1389   */\n      0x00\n        /* \"#utility.yul\":1385:1386   */\n      dup1\n        /* \"#utility.yul\":1378:1390   */\n      revert\n        /* \"#utility.yul\":1329:1392   */\n    tag_120:\n        /* \"#utility.yul\":1276:1398   */\n      pop\n      jump\t// out\n        /* \"#utility.yul\":1404:1543   */\n    tag_78:\n        /* \"#utility.yul\":1450:1455   */\n      0x00\n        /* \"#utility.yul\":1488:1494   */\n      dup2\n        /* \"#utility.yul\":1475:1495   */\n      calldataload\n        /* \"#utility.yul\":1466:1495   */\n      swap1\n      pop\n        /* \"#utility.yul\":1504:1537   */\n      tag_122\n        /* \"#utility.yul\":1531:1536   */\n      dup2\n        /* \"#utility.yul\":1504:1537   */\n      tag_77\n      jump\t// in\n    tag_122:\n        /* \"#utility.yul\":1404:1543   */\n      swap3\n      swap2\n      pop\n      pop\n      jump\t// out\n        /* \"#utility.yul\":1549:2023   */\n    tag_15:\n        /* \"#utility.yul\":1617:1623   */\n      0x00\n        /* \"#utility.yul\":1625:1631   */\n      dup1\n        /* \"#utility.yul\":1674:1676   */\n      0x40\n        /* \"#utility.yul\":1662:1671   */\n      dup4\n        /* \"#utility.yul\":1653:1660   */\n      dup6\n        /* \"#utility.yul\":1649:1672   */\n      sub\n        /* \"#utility.yul\":1645:1677   */\n      slt\n        /* \"#utility.yul\":1642:1761   */\n      iszero\n      tag_124\n      jumpi\n        /* \"#utility.yul\":1680:1759   */\n      tag_125\n      tag_72\n      jump\t// in\n    tag_125:\n        /* \"#utility.yul\":1642:1761   */\n    tag_124:\n        /* \"#utility.yul\":1800:1801   */\n      0x00\n        /* \"#utility.yul\":1825:1878   */\n      tag_126\n        /* \"#utility.yul\":1870:1877   */\n      dup6\n        /* \"#utility.yul\":1861:1867   */\n      dup3\n        /* \"#utility.yul\":1850:1859   */\n      dup7\n        /* \"#utility.yul\":1846:1868   */\n      add\n        /* \"#utility.yul\":1825:1878   */\n      tag_75\n      jump\t// in\n    tag_126:\n        /* \"#utility.yul\":1815:1878   */\n      swap3\n      pop\n        /* \"#utility.yul\":1771:1888   */\n      pop\n        /* \"#utility.yul\":1927:1929   */\n      0x20\n        /* \"#utility.yul\":1953:2006   */\n      tag_127\n        /* \"#utility.yul\":1998:2005   */\n      dup6\n        /* \"#utility.yul\":1989:1995   */\n      dup3\n        /* \"#utility.yul\":1978:1987   */\n      dup7\n        /* \"#utility.yul\":1974:1996   */\n      add\n        /* \"#utility.yul\":1953:2006   */\n      tag_78\n      jump\t// in\n    tag_127:\n        /* \"#utility.yul\":1943:2006   */\n      swap2\n      pop\n        /* \"#utility.yul\":1898:2016   */\n      pop\n        /* \"#utility.yul\":1549:2023   */\n      swap3\n      pop\n      swap3\n      swap1\n      pop\n      jump\t// out\n        /* \"#utility.yul\":2029:2358   */\n    tag_28:\n        /* \"#utility.yul\":2088:2094   */\n      0x00\n        /* \"#utility.yul\":2137:2139   */\n      0x20\n        /* \"#utility.yul\":2125:2134   */\n      dup3\n        /* \"#utility.yul\":2116:2123   */\n      dup5\n        /* \"#utility.yul\":2112:2135   */\n      sub\n        /* \"#utility.yul\":2108:2140   */\n      slt\n        /* \"#utility.yul\":2105:2224   */\n      iszero\n      tag_129\n      jumpi\n        /* \"#utility.yul\":2143:2222   */\n      tag_130\n      tag_72\n      jump\t// in\n    tag_130:\n        /* \"#utility.yul\":2105:2224   */\n    tag_129:\n        /* \"#utility.yul\":2263:2264   */\n      0x00\n        /* \"#utility.yul\":2288:2341   */\n      tag_131\n        /* \"#utility.yul\":2333:2340   */\n      dup5\n        /* \"#utility.yul\":2324:2330   */\n      dup3\n        /* \"#utility.yul\":2313:2322   */\n      dup6\n        /* \"#utility.yul\":2309:2331   */\n      add\n        /* \"#utility.yul\":2288:2341   */\n      tag_75\n      jump\t// in\n    tag_131:\n        /* \"#utility.yul\":2278:2341   */\n      swap2\n      pop\n        /* \"#utility.yul\":2234:2351   */\n      pop\n        /* \"#utility.yul\":2029:2358   */\n      swap3\n      swap2\n      pop\n      pop\n      jump\t// out\n        /* \"#utility.yul\":2364:2482   */\n    tag_79:\n        /* \"#utility.yul\":2451:2475   */\n      tag_133\n        /* \"#utility.yul\":2469:2474   */\n      dup2\n        /* \"#utility.yul\":2451:2475   */\n      tag_76\n      jump\t// in\n    tag_133:\n        /* \"#utility.yul\":2446:2449   */\n      dup3\n        /* \"#utility.yul\":2439:2476   */\n      mstore\n        /* \"#utility.yul\":2364:2482   */\n      pop\n      pop\n      jump\t// out\n        /* \"#utility.yul\":2488:2710   */\n    tag_31:\n        /* \"#utility.yul\":2581:2585   */\n      0x00\n        /* \"#utility.yul\":2619:2621   */\n      0x20\n        /* \"#utility.yul\":2608:2617   */\n      dup3\n        /* \"#utility.yul\":2604:2622   */\n      add\n        /* \"#utility.yul\":2596:2622   */\n      swap1\n      pop\n        /* \"#utility.yul\":2632:2703   */\n      tag_135\n        /* \"#utility.yul\":2700:2701   */\n      0x00\n        /* \"#utility.yul\":2689:2698   */\n      dup4\n        /* \"#utility.yul\":2685:2702   */\n      add\n        /* \"#utility.yul\":2676:2682   */\n      dup5\n        /* \"#utility.yul\":2632:2703   */\n      tag_79\n      jump\t// in\n    tag_135:\n        /* \"#utility.yul\":2488:2710   */\n      swap3\n      swap2\n      pop\n      pop\n      jump\t// out\n        /* \"#utility.yul\":2716:3158   */\n    tag_34:\n        /* \"#utility.yul\":2865:2869   */\n      0x00\n        /* \"#utility.yul\":2903:2905   */\n      0x60\n        /* \"#utility.yul\":2892:2901   */\n      dup3\n        /* \"#utility.yul\":2888:2906   */\n      add\n        /* \"#utility.yul\":2880:2906   */\n      swap1\n      pop\n        /* \"#utility.yul\":2916:2987   */\n      tag_137\n        /* \"#utility.yul\":2984:2985   */\n      0x00\n        /* \"#utility.yul\":2973:2982   */\n      dup4\n        /* \"#utility.yul\":2969:2986   */\n      add\n        /* \"#utility.yul\":2960:2966   */\n      dup7\n        /* \"#utility.yul\":2916:2987   */\n      tag_70\n      jump\t// in\n    tag_137:\n        /* \"#utility.yul\":2997:3069   */\n      tag_138\n        /* \"#utility.yul\":3065:3067   */\n      0x20\n        /* \"#utility.yul\":3054:3063   */\n      dup4\n        /* \"#utility.yul\":3050:3068   */\n      add\n        /* \"#utility.yul\":3041:3047   */\n      dup6\n        /* \"#utility.yul\":2997:3069   */\n      tag_70\n      jump\t// in\n    tag_138:\n        /* \"#utility.yul\":3079:3151   */\n      tag_139\n        /* \"#utility.yul\":3147:3149   */\n      0x40\n        /* \"#utility.yul\":3136:3145   */\n      dup4\n        /* \"#utility.yul\":3132:3150   */\n      add\n        /* \"#utility.yul\":3123:3129   */\n      dup5\n        /* \"#utility.yul\":3079:3151   */\n      tag_79\n      jump\t// in\n    tag_139:\n        /* \"#utility.yul\":2716:3158   */\n      swap5\n      swap4\n      pop\n      pop\n      pop\n      pop\n      jump\t// out\n        /* \"#utility.yul\":3164:3254   */\n    tag_80:\n        /* \"#utility.yul\":3198:3205   */\n      0x00\n        /* \"#utility.yul\":3241:3246   */\n      dup2\n        /* \"#utility.yul\":3234:3247   */\n      iszero\n        /* \"#utility.yul\":3227:3248   */\n      iszero\n        /* \"#utility.yul\":3216:3248   */\n      swap1\n      pop\n        /* \"#utility.yul\":3164:3254   */\n      swap2\n      swap1\n      pop\n      jump\t// out\n        /* \"#utility.yul\":3260:3376   */\n    tag_81:\n        /* \"#utility.yul\":3330:3351   */\n      tag_142\n        /* \"#utility.yul\":3345:3350   */\n      dup2\n        /* \"#utility.yul\":3330:3351   */\n      tag_80\n      jump\t// in\n    tag_142:\n        /* \"#utility.yul\":3323:3328   */\n      dup2\n        /* \"#utility.yul\":3320:3352   */\n      eq\n        /* \"#utility.yul\":3310:3370   */\n      tag_143\n      jumpi\n        /* \"#utility.yul\":3366:3367   */\n      0x00\n        /* \"#utility.yul\":3363:3364   */\n      dup1\n        /* \"#utility.yul\":3356:3368   */\n      revert\n        /* \"#utility.yul\":3310:3370   */\n    tag_143:\n        /* \"#utility.yul\":3260:3376   */\n      pop\n      jump\t// out\n        /* \"#utility.yul\":3382:3519   */\n    tag_82:\n        /* \"#utility.yul\":3436:3441   */\n      0x00\n        /* \"#utility.yul\":3467:3473   */\n      dup2\n        /* \"#utility.yul\":3461:3474   */\n      mload\n        /* \"#utility.yul\":3452:3474   */\n      swap1\n      pop\n        /* \"#utility.yul\":3483:3513   */\n      tag_145\n        /* \"#utility.yul\":3507:3512   */\n      dup2\n        /* \"#utility.yul\":3483:3513   */\n      tag_81\n      jump\t// in\n    tag_145:\n        /* \"#utility.yul\":3382:3519   */\n      swap3\n      swap2\n      pop\n      pop\n      jump\t// out\n        /* \"#utility.yul\":3525:3870   */\n    tag_38:\n        /* \"#utility.yul\":3592:3598   */\n      0x00\n        /* \"#utility.yul\":3641:3643   */\n      0x20\n        /* \"#utility.yul\":3629:3638   */\n      dup3\n        /* \"#utility.yul\":3620:3627   */\n      dup5\n        /* \"#utility.yul\":3616:3639   */\n      sub\n        /* \"#utility.yul\":3612:3644   */\n      slt\n        /* \"#utility.yul\":3609:3728   */\n      iszero\n      tag_147\n      jumpi\n        /* \"#utility.yul\":3647:3726   */\n      tag_148\n      tag_72\n      jump\t// in\n    tag_148:\n        /* \"#utility.yul\":3609:3728   */\n    tag_147:\n        /* \"#utility.yul\":3767:3768   */\n      0x00\n        /* \"#utility.yul\":3792:3853   */\n      tag_149\n        /* \"#utility.yul\":3845:3852   */\n      dup5\n        /* \"#utility.yul\":3836:3842   */\n      dup3\n        /* \"#utility.yul\":3825:3834   */\n      dup6\n        /* \"#utility.yul\":3821:3843   */\n      add\n        /* \"#utility.yul\":3792:3853   */\n      tag_82\n      jump\t// in\n    tag_149:\n        /* \"#utility.yul\":3782:3853   */\n      swap2\n      pop\n        /* \"#utility.yul\":3738:3863   */\n      pop\n        /* \"#utility.yul\":3525:3870   */\n      swap3\n      swap2\n      pop\n      pop\n      jump\t// out\n        /* \"#utility.yul\":3876:4208   */\n    tag_40:\n        /* \"#utility.yul\":3997:4001   */\n      0x00\n        /* \"#utility.yul\":4035:4037   */\n      0x40\n        /* \"#utility.yul\":4024:4033   */\n      dup3\n        /* \"#utility.yul\":4020:4038   */\n      add\n        /* \"#utility.yul\":4012:4038   */\n      swap1\n      pop\n        /* \"#utility.yul\":4048:4119   */\n      tag_151\n        /* \"#utility.yul\":4116:4117   */\n      0x00\n        /* \"#utility.yul\":4105:4114   */\n      dup4\n        /* \"#utility.yul\":4101:4118   */\n      add\n        /* \"#utility.yul\":4092:4098   */\n      dup6\n        /* \"#utility.yul\":4048:4119   */\n      tag_70\n      jump\t// in\n    tag_151:\n        /* \"#utility.yul\":4129:4201   */\n      tag_152\n        /* \"#utility.yul\":4197:4199   */\n      0x20\n        /* \"#utility.yul\":4186:4195   */\n      dup4\n        /* \"#utility.yul\":4182:4200   */\n      add\n        /* \"#utility.yul\":4173:4179   */\n      dup5\n        /* \"#utility.yul\":4129:4201   */\n      tag_79\n      jump\t// in\n    tag_152:\n        /* \"#utility.yul\":3876:4208   */\n      swap4\n      swap3\n      pop\n      pop\n      pop\n      jump\t// out\n        /* \"#utility.yul\":4214:4318   */\n    tag_83:\n        /* \"#utility.yul\":4279:4285   */\n      0x00\n        /* \"#utility.yul\":4307:4311   */\n      0x03\n        /* \"#utility.yul\":4297:4311   */\n      swap1\n      pop\n        /* \"#utility.yul\":4214:4318   */\n      swap2\n      swap1\n      pop\n      jump\t// out\n        /* \"#utility.yul\":4324:4467   */\n    tag_84:\n        /* \"#utility.yul\":4421:4432   */\n      0x00\n        /* \"#utility.yul\":4458:4461   */\n      dup2\n        /* \"#utility.yul\":4443:4461   */\n      swap1\n      pop\n        /* \"#utility.yul\":4324:4467   */\n      swap3\n      swap2\n      pop\n      pop\n      jump\t// out\n        /* \"#utility.yul\":4473:4571   */\n    tag_85:\n        /* \"#utility.yul\":4538:4542   */\n      0x00\n        /* \"#utility.yul\":4561:4564   */\n      dup2\n        /* \"#utility.yul\":4553:4564   */\n      swap1\n      pop\n        /* \"#utility.yul\":4473:4571   */\n      swap2\n      swap1\n      pop\n      jump\t// out\n        /* \"#utility.yul\":4577:4685   */\n    tag_86:\n        /* \"#utility.yul\":4654:4678   */\n      tag_157\n        /* \"#utility.yul\":4672:4677   */\n      dup2\n        /* \"#utility.yul\":4654:4678   */\n      tag_76\n      jump\t// in\n    tag_157:\n        /* \"#utility.yul\":4649:4652   */\n      dup3\n        /* \"#utility.yul\":4642:4679   */\n      mstore\n        /* \"#utility.yul\":4577:4685   */\n      pop\n      pop\n      jump\t// out\n        /* \"#utility.yul\":4691:4870   */\n    tag_87:\n        /* \"#utility.yul\":4760:4770   */\n      0x00\n        /* \"#utility.yul\":4781:4827   */\n      tag_159\n        /* \"#utility.yul\":4823:4826   */\n      dup4\n        /* \"#utility.yul\":4815:4821   */\n      dup4\n        /* \"#utility.yul\":4781:4827   */\n      tag_86\n      jump\t// in\n    tag_159:\n        /* \"#utility.yul\":4859:4863   */\n      0x20\n        /* \"#utility.yul\":4854:4857   */\n      dup4\n        /* \"#utility.yul\":4850:4864   */\n      add\n        /* \"#utility.yul\":4836:4864   */\n      swap1\n      pop\n        /* \"#utility.yul\":4691:4870   */\n      swap3\n      swap2\n      pop\n      pop\n      jump\t// out\n        /* \"#utility.yul\":4876:4987   */\n    tag_88:\n        /* \"#utility.yul\":4944:4948   */\n      0x00\n        /* \"#utility.yul\":4976:4980   */\n      0x20\n        /* \"#utility.yul\":4971:4974   */\n      dup3\n        /* \"#utility.yul\":4967:4981   */\n      add\n        /* \"#utility.yul\":4959:4981   */\n      swap1\n      pop\n        /* \"#utility.yul\":4876:4987   */\n      swap2\n      swap1\n      pop\n      jump\t// out\n        /* \"#utility.yul\":5025:5719   */\n    tag_89:\n        /* \"#utility.yul\":5161:5213   */\n      tag_162\n        /* \"#utility.yul\":5207:5212   */\n      dup2\n        /* \"#utility.yul\":5161:5213   */\n      tag_83\n      jump\t// in\n    tag_162:\n        /* \"#utility.yul\":5229:5313   */\n      tag_163\n        /* \"#utility.yul\":5306:5312   */\n      dup2\n        /* \"#utility.yul\":5301:5304   */\n      dup5\n        /* \"#utility.yul\":5229:5313   */\n      tag_84\n      jump\t// in\n    tag_163:\n        /* \"#utility.yul\":5222:5313   */\n      swap3\n      pop\n        /* \"#utility.yul\":5337:5391   */\n      tag_164\n        /* \"#utility.yul\":5385:5390   */\n      dup3\n        /* \"#utility.yul\":5337:5391   */\n      tag_85\n      jump\t// in\n    tag_164:\n        /* \"#utility.yul\":5414:5421   */\n      dup1\n        /* \"#utility.yul\":5445:5446   */\n      0x00\n        /* \"#utility.yul\":5430:5712   */\n    tag_165:\n        /* \"#utility.yul\":5455:5461   */\n      dup4\n        /* \"#utility.yul\":5452:5453   */\n      dup2\n        /* \"#utility.yul\":5449:5462   */\n      lt\n        /* \"#utility.yul\":5430:5712   */\n      iszero\n      tag_167\n      jumpi\n        /* \"#utility.yul\":5531:5537   */\n      dup2\n        /* \"#utility.yul\":5525:5538   */\n      mload\n        /* \"#utility.yul\":5558:5621   */\n      tag_168\n        /* \"#utility.yul\":5617:5620   */\n      dup8\n        /* \"#utility.yul\":5602:5615   */\n      dup3\n        /* \"#utility.yul\":5558:5621   */\n      tag_87\n      jump\t// in\n    tag_168:\n        /* \"#utility.yul\":5551:5621   */\n      swap7\n      pop\n        /* \"#utility.yul\":5644:5702   */\n      tag_169\n        /* \"#utility.yul\":5695:5701   */\n      dup4\n        /* \"#utility.yul\":5644:5702   */\n      tag_88\n      jump\t// in\n    tag_169:\n        /* \"#utility.yul\":5634:5702   */\n      swap3\n      pop\n        /* \"#utility.yul\":5490:5712   */\n      pop\n        /* \"#utility.yul\":5477:5478   */\n      0x01\n        /* \"#utility.yul\":5474:5475   */\n      dup2\n        /* \"#utility.yul\":5470:5479   */\n      add\n        /* \"#utility.yul\":5465:5479   */\n      swap1\n      pop\n        /* \"#utility.yul\":5430:5712   */\n      jump(tag_165)\n    tag_167:\n        /* \"#utility.yul\":5434:5448   */\n      pop\n        /* \"#utility.yul\":5137:5719   */\n      pop\n      pop\n      pop\n        /* \"#utility.yul\":5025:5719   */\n      pop\n      pop\n      jump\t// out\n        /* \"#utility.yul\":5725:5810   */\n    tag_90:\n        /* \"#utility.yul\":5770:5777   */\n      0x00\n        /* \"#utility.yul\":5799:5804   */\n      dup2\n        /* \"#utility.yul\":5788:5804   */\n      swap1\n      pop\n        /* \"#utility.yul\":5725:5810   */\n      swap2\n      swap1\n      pop\n      jump\t// out\n        /* \"#utility.yul\":5816:5876   */\n    tag_91:\n        /* \"#utility.yul\":5844:5847   */\n      0x00\n        /* \"#utility.yul\":5865:5870   */\n      dup2\n        /* \"#utility.yul\":5858:5870   */\n      swap1\n      pop\n        /* \"#utility.yul\":5816:5876   */\n      swap2\n      swap1\n      pop\n      jump\t// out\n        /* \"#utility.yul\":5882:6040   */\n    tag_92:\n        /* \"#utility.yul\":5940:5949   */\n      0x00\n        /* \"#utility.yul\":5973:6034   */\n      tag_173\n        /* \"#utility.yul\":5991:6033   */\n      tag_174\n        /* \"#utility.yul\":6000:6032   */\n      tag_175\n        /* \"#utility.yul\":6026:6031   */\n      dup5\n        /* \"#utility.yul\":6000:6032   */\n      tag_90\n      jump\t// in\n    tag_175:\n        /* \"#utility.yul\":5991:6033   */\n      tag_91\n      jump\t// in\n    tag_174:\n        /* \"#utility.yul\":5973:6034   */\n      tag_76\n      jump\t// in\n    tag_173:\n        /* \"#utility.yul\":5960:6034   */\n      swap1\n      pop\n        /* \"#utility.yul\":5882:6040   */\n      swap2\n      swap1\n      pop\n      jump\t// out\n        /* \"#utility.yul\":6046:6193   */\n    tag_93:\n        /* \"#utility.yul\":6141:6186   */\n      tag_177\n        /* \"#utility.yul\":6180:6185   */\n      dup2\n        /* \"#utility.yul\":6141:6186   */\n      tag_92\n      jump\t// in\n    tag_177:\n        /* \"#utility.yul\":6136:6139   */\n      dup3\n        /* \"#utility.yul\":6129:6187   */\n      mstore\n        /* \"#utility.yul\":6046:6193   */\n      pop\n      pop\n      jump\t// out\n        /* \"#utility.yul\":6199:6640   */\n    tag_45:\n        /* \"#utility.yul\":6374:6378   */\n      0x00\n        /* \"#utility.yul\":6412:6415   */\n      0x80\n        /* \"#utility.yul\":6401:6410   */\n      dup3\n        /* \"#utility.yul\":6397:6416   */\n      add\n        /* \"#utility.yul\":6389:6416   */\n      swap1\n      pop\n        /* \"#utility.yul\":6426:6543   */\n      tag_179\n        /* \"#utility.yul\":6540:6541   */\n      0x00\n        /* \"#utility.yul\":6529:6538   */\n      dup4\n        /* \"#utility.yul\":6525:6542   */\n      add\n        /* \"#utility.yul\":6516:6522   */\n      dup6\n        /* \"#utility.yul\":6426:6543   */\n      tag_89\n      jump\t// in\n    tag_179:\n        /* \"#utility.yul\":6553:6633   */\n      tag_180\n        /* \"#utility.yul\":6629:6631   */\n      0x60\n        /* \"#utility.yul\":6618:6627   */\n      dup4\n        /* \"#utility.yul\":6614:6632   */\n      add\n        /* \"#utility.yul\":6605:6611   */\n      dup5\n        /* \"#utility.yul\":6553:6633   */\n      tag_93\n      jump\t// in\n    tag_180:\n        /* \"#utility.yul\":6199:6640   */\n      swap4\n      swap3\n      pop\n      pop\n      pop\n      jump\t// out\n        /* \"#utility.yul\":6646:6815   */\n    tag_94:\n        /* \"#utility.yul\":6730:6741   */\n      0x00\n        /* \"#utility.yul\":6764:6770   */\n      dup3\n        /* \"#utility.yul\":6759:6762   */\n      dup3\n        /* \"#utility.yul\":6752:6771   */\n      mstore\n        /* \"#utility.yul\":6804:6808   */\n      0x20\n        /* \"#utility.yul\":6799:6802   */\n      dup3\n        /* \"#utility.yul\":6795:6809   */\n      add\n        /* \"#utility.yul\":6780:6809   */\n      swap1\n      pop\n        /* \"#utility.yul\":6646:6815   */\n      swap3\n      swap2\n      pop\n      pop\n      jump\t// out\n        /* \"#utility.yul\":6821:6985   */\n    tag_95:\n        /* \"#utility.yul\":6961:6977   */\n      0x4465706f736974206661696c6564000000000000000000000000000000000000\n        /* \"#utility.yul\":6957:6958   */\n      0x00\n        /* \"#utility.yul\":6949:6955   */\n      dup3\n        /* \"#utility.yul\":6945:6959   */\n      add\n        /* \"#utility.yul\":6938:6978   */\n      mstore\n        /* \"#utility.yul\":6821:6985   */\n      pop\n      jump\t// out\n        /* \"#utility.yul\":6991:7357   */\n    tag_96:\n        /* \"#utility.yul\":7133:7136   */\n      0x00\n        /* \"#utility.yul\":7154:7221   */\n      tag_184\n        /* \"#utility.yul\":7218:7220   */\n      0x0e\n        /* \"#utility.yul\":7213:7216   */\n      dup4\n        /* \"#utility.yul\":7154:7221   */\n      tag_94\n      jump\t// in\n    tag_184:\n        /* \"#utility.yul\":7147:7221   */\n      swap2\n      pop\n        /* \"#utility.yul\":7230:7323   */\n      tag_185\n        /* \"#utility.yul\":7319:7322   */\n      dup3\n        /* \"#utility.yul\":7230:7323   */\n      tag_95\n      jump\t// in\n    tag_185:\n        /* \"#utility.yul\":7348:7350   */\n      0x20\n        /* \"#utility.yul\":7343:7346   */\n      dup3\n        /* \"#utility.yul\":7339:7351   */\n      add\n        /* \"#utility.yul\":7332:7351   */\n      swap1\n      pop\n        /* \"#utility.yul\":6991:7357   */\n      swap2\n      swap1\n      pop\n      jump\t// out\n        /* \"#utility.yul\":7363:7782   */\n    tag_51:\n        /* \"#utility.yul\":7529:7533   */\n      0x00\n        /* \"#utility.yul\":7567:7569   */\n      0x20\n        /* \"#utility.yul\":7556:7565   */\n      dup3\n        /* \"#utility.yul\":7552:7570   */\n      add\n        /* \"#utility.yul\":7544:7570   */\n      swap1\n      pop\n        /* \"#utility.yul\":7616:7625   */\n      dup2\n        /* \"#utility.yul\":7610:7614   */\n      dup2\n        /* \"#utility.yul\":7606:7626   */\n      sub\n        /* \"#utility.yul\":7602:7603   */\n      0x00\n        /* \"#utility.yul\":7591:7600   */\n      dup4\n        /* \"#utility.yul\":7587:7604   */\n      add\n        /* \"#utility.yul\":7580:7627   */\n      mstore\n        /* \"#utility.yul\":7644:7775   */\n      tag_187\n        /* \"#utility.yul\":7770:7774   */\n      dup2\n        /* \"#utility.yul\":7644:7775   */\n      tag_96\n      jump\t// in\n    tag_187:\n        /* \"#utility.yul\":7636:7775   */\n      swap1\n      pop\n        /* \"#utility.yul\":7363:7782   */\n      swap2\n      swap1\n      pop\n      jump\t// out\n        /* \"#utility.yul\":7788:7880   */\n    tag_97:\n        /* \"#utility.yul\":7824:7831   */\n      0x00\n        /* \"#utility.yul\":7868:7873   */\n      dup2\n        /* \"#utility.yul\":7864:7866   */\n      0x0f\n        /* \"#utility.yul\":7853:7874   */\n      signextend\n        /* \"#utility.yul\":7842:7874   */\n      swap1\n      pop\n        /* \"#utility.yul\":7788:7880   */\n      swap2\n      swap1\n      pop\n      jump\t// out\n        /* \"#utility.yul\":7886:8042   */\n    tag_98:\n        /* \"#utility.yul\":7943:7952   */\n      0x00\n        /* \"#utility.yul\":7976:8036   */\n      tag_190\n        /* \"#utility.yul\":7993:8035   */\n      tag_191\n        /* \"#utility.yul\":8002:8034   */\n      tag_192\n        /* \"#utility.yul\":8028:8033   */\n      dup5\n        /* \"#utility.yul\":8002:8034   */\n      tag_90\n      jump\t// in\n    tag_192:\n        /* \"#utility.yul\":7993:8035   */\n      tag_91\n      jump\t// in\n    tag_191:\n        /* \"#utility.yul\":7976:8036   */\n      tag_97\n      jump\t// in\n    tag_190:\n        /* \"#utility.yul\":7963:8036   */\n      swap1\n      pop\n        /* \"#utility.yul\":7886:8042   */\n      swap2\n      swap1\n      pop\n      jump\t// out\n        /* \"#utility.yul\":8048:8193   */\n    tag_99:\n        /* \"#utility.yul\":8142:8186   */\n      tag_194\n        /* \"#utility.yul\":8180:8185   */\n      dup2\n        /* \"#utility.yul\":8142:8186   */\n      tag_98\n      jump\t// in\n    tag_194:\n        /* \"#utility.yul\":8137:8140   */\n      dup3\n        /* \"#utility.yul\":8130:8187   */\n      mstore\n        /* \"#utility.yul\":8048:8193   */\n      pop\n      pop\n      jump\t// out\n        /* \"#utility.yul\":8199:8671   */\n    tag_54:\n        /* \"#utility.yul\":8363:8367   */\n      0x00\n        /* \"#utility.yul\":8401:8403   */\n      0x60\n        /* \"#utility.yul\":8390:8399   */\n      dup3\n        /* \"#utility.yul\":8386:8404   */\n      add\n        /* \"#utility.yul\":8378:8404   */\n      swap1\n      pop\n        /* \"#utility.yul\":8414:8485   */\n      tag_196\n        /* \"#utility.yul\":8482:8483   */\n      0x00\n        /* \"#utility.yul\":8471:8480   */\n      dup4\n        /* \"#utility.yul\":8467:8484   */\n      add\n        /* \"#utility.yul\":8458:8464   */\n      dup7\n        /* \"#utility.yul\":8414:8485   */\n      tag_79\n      jump\t// in\n    tag_196:\n        /* \"#utility.yul\":8495:8574   */\n      tag_197\n        /* \"#utility.yul\":8570:8572   */\n      0x20\n        /* \"#utility.yul\":8559:8568   */\n      dup4\n        /* \"#utility.yul\":8555:8573   */\n      add\n        /* \"#utility.yul\":8546:8552   */\n      dup6\n        /* \"#utility.yul\":8495:8574   */\n      tag_99\n      jump\t// in\n    tag_197:\n        /* \"#utility.yul\":8584:8664   */\n      tag_198\n        /* \"#utility.yul\":8660:8662   */\n      0x40\n        /* \"#utility.yul\":8649:8658   */\n      dup4\n        /* \"#utility.yul\":8645:8663   */\n      add\n        /* \"#utility.yul\":8636:8642   */\n      dup5\n        /* \"#utility.yul\":8584:8664   */\n      tag_93\n      jump\t// in\n    tag_198:\n        /* \"#utility.yul\":8199:8671   */\n      swap5\n      swap4\n      pop\n      pop\n      pop\n      pop\n      jump\t// out\n        /* \"#utility.yul\":8677:8820   */\n    tag_100:\n        /* \"#utility.yul\":8734:8739   */\n      0x00\n        /* \"#utility.yul\":8765:8771   */\n      dup2\n        /* \"#utility.yul\":8759:8772   */\n      mload\n        /* \"#utility.yul\":8750:8772   */\n      swap1\n      pop\n        /* \"#utility.yul\":8781:8814   */\n      tag_200\n        /* \"#utility.yul\":8808:8813   */\n      dup2\n        /* \"#utility.yul\":8781:8814   */\n      tag_77\n      jump\t// in\n    tag_200:\n        /* \"#utility.yul\":8677:8820   */\n      swap3\n      swap2\n      pop\n      pop\n      jump\t// out\n        /* \"#utility.yul\":8826:9177   */\n    tag_58:\n        /* \"#utility.yul\":8896:8902   */\n      0x00\n        /* \"#utility.yul\":8945:8947   */\n      0x20\n        /* \"#utility.yul\":8933:8942   */\n      dup3\n        /* \"#utility.yul\":8924:8931   */\n      dup5\n        /* \"#utility.yul\":8920:8943   */\n      sub\n        /* \"#utility.yul\":8916:8948   */\n      slt\n        /* \"#utility.yul\":8913:9032   */\n      iszero\n      tag_202\n      jumpi\n        /* \"#utility.yul\":8951:9030   */\n      tag_203\n      tag_72\n      jump\t// in\n    tag_203:\n        /* \"#utility.yul\":8913:9032   */\n    tag_202:\n        /* \"#utility.yul\":9071:9072   */\n      0x00\n        /* \"#utility.yul\":9096:9160   */\n      tag_204\n        /* \"#utility.yul\":9152:9159   */\n      dup5\n        /* \"#utility.yul\":9143:9149   */\n      dup3\n        /* \"#utility.yul\":9132:9141   */\n      dup6\n        /* \"#utility.yul\":9128:9150   */\n      add\n        /* \"#utility.yul\":9096:9160   */\n      tag_100\n      jump\t// in\n    tag_204:\n        /* \"#utility.yul\":9086:9160   */\n      swap2\n      pop\n        /* \"#utility.yul\":9042:9170   */\n      pop\n        /* \"#utility.yul\":8826:9177   */\n      swap3\n      swap2\n      pop\n      pop\n      jump\t// out\n\n    auxdata: 0xa2646970667358221220226698daad789bd43ac7cff6c0aae35f314978ab8dafe5e71d7987a6ffc4605b64736f6c634300080a0033\n}\n",
				"bytecode": {
					"linkReferences": {},
					"object": "608060405234801561001057600080fd5b50604051610b8f380380610b8f8339818101604052810190610032919061011d565b816000806101000a81548173ffffffffffffffffffffffffffffffffffffffff021916908373ffffffffffffffffffffffffffffffffffffffff16021790555080600260006101000a81548173ffffffffffffffffffffffffffffffffffffffff021916908373ffffffffffffffffffffffffffffffffffffffff160217905550505061015d565b600080fd5b600073ffffffffffffffffffffffffffffffffffffffff82169050919050565b60006100ea826100bf565b9050919050565b6100fa816100df565b811461010557600080fd5b50565b600081519050610117816100f1565b92915050565b60008060408385031215610134576101336100ba565b5b600061014285828601610108565b925050602061015385828601610108565b9150509250929050565b610a238061016c6000396000f3fe608060405234801561001057600080fd5b50600436106100625760003560e01c8063218751b21461006757806347e7ef2414610085578063563df32f146100a15780638da5cb5b146100bf578063f3fef3a3146100dd578063f8b2cb4f146100f9575b600080fd5b61006f610129565b60405161007c91906105c2565b60405180910390f35b61009f600480360381019061009a9190610644565b61014d565b005b6100a961036b565b6040516100b691906105c2565b60405180910390f35b6100c7610391565b6040516100d491906105c2565b60405180910390f35b6100f760048036038101906100f29190610644565b6103b7565b005b610113600480360381019061010e9190610684565b6104fe565b60405161012091906106c0565b60405180910390f35b60008054906101000a900473ffffffffffffffffffffffffffffffffffffffff1681565b8173ffffffffffffffffffffffffffffffffffffffff166323b872dd3330846040518463ffffffff1660e01b815260040161018a939291906106db565b6020604051808303816000875af11580156101a9573d6000803e3d6000fd5b505050506040513d601f19601f820116820180604052508101906101cd919061074a565b508173ffffffffffffffffffffffffffffffffffffffff1663095ea7b360008054906101000a900473ffffffffffffffffffffffffffffffffffffffff16836040518363ffffffff1660e01b8152600401610229929190610777565b6020604051808303816000875af1158015610248573d6000803e3d6000fd5b505050506040513d601f19601f8201168201806040525081019061026c919061074a565b5060008054906101000a900473ffffffffffffffffffffffffffffffffffffffff1673ffffffffffffffffffffffffffffffffffffffff16634515cef3604051806060016040528084815260200160008152602001600081525060006040518363ffffffff1660e01b81526004016102e5929190610890565b6020604051808303816000875af1158015610304573d6000803e3d6000fd5b505050506040513d601f19601f82011682018060405250810190610328919061074a565b610367576040517f08c379a000000000000000000000000000000000000000000000000000000000815260040161035e90610916565b60405180910390fd5b5050565b600260009054906101000a900473ffffffffffffffffffffffffffffffffffffffff1681565b600160009054906101000a900473ffffffffffffffffffffffffffffffffffffffff1681565b60008054906101000a900473ffffffffffffffffffffffffffffffffffffffff1673ffffffffffffffffffffffffffffffffffffffff16631a4d01d2826000806040518463ffffffff1660e01b815260040161041593929190610974565b6020604051808303816000875af1158015610434573d6000803e3d6000fd5b505050506040513d601f19601f8201168201806040525081019061045891906109c0565b508173ffffffffffffffffffffffffffffffffffffffff1663a9059cbb600160009054906101000a900473ffffffffffffffffffffffffffffffffffffffff16836040518363ffffffff1660e01b81526004016104b6929190610777565b6020604051808303816000875af11580156104d5573d6000803e3d6000fd5b505050506040513d601f19601f820116820180604052508101906104f9919061074a565b505050565b60008173ffffffffffffffffffffffffffffffffffffffff166370a08231306040518263ffffffff1660e01b815260040161053991906105c2565b602060405180830381865afa158015610556573d6000803e3d6000fd5b505050506040513d601f19601f8201168201806040525081019061057a91906109c0565b9050919050565b600073ffffffffffffffffffffffffffffffffffffffff82169050919050565b60006105ac82610581565b9050919050565b6105bc816105a1565b82525050565b60006020820190506105d760008301846105b3565b92915050565b600080fd5b6105eb816105a1565b81146105f657600080fd5b50565b600081359050610608816105e2565b92915050565b6000819050919050565b6106218161060e565b811461062c57600080fd5b50565b60008135905061063e81610618565b92915050565b6000806040838503121561065b5761065a6105dd565b5b6000610669858286016105f9565b925050602061067a8582860161062f565b9150509250929050565b60006020828403121561069a576106996105dd565b5b60006106a8848285016105f9565b91505092915050565b6106ba8161060e565b82525050565b60006020820190506106d560008301846106b1565b92915050565b60006060820190506106f060008301866105b3565b6106fd60208301856105b3565b61070a60408301846106b1565b949350505050565b60008115159050919050565b61072781610712565b811461073257600080fd5b50565b6000815190506107448161071e565b92915050565b6000602082840312156107605761075f6105dd565b5b600061076e84828501610735565b91505092915050565b600060408201905061078c60008301856105b3565b61079960208301846106b1565b9392505050565b600060039050919050565b600081905092915050565b6000819050919050565b6107c98161060e565b82525050565b60006107db83836107c0565b60208301905092915050565b6000602082019050919050565b6107fd816107a0565b61080781846107ab565b9250610812826107b6565b8060005b8381101561084357815161082a87826107cf565b9650610835836107e7565b925050600181019050610816565b505050505050565b6000819050919050565b6000819050919050565b600061087a6108756108708461084b565b610855565b61060e565b9050919050565b61088a8161085f565b82525050565b60006080820190506108a560008301856107f4565b6108b26060830184610881565b9392505050565b600082825260208201905092915050565b7f4465706f736974206661696c6564000000000000000000000000000000000000600082015250565b6000610900600e836108b9565b915061090b826108ca565b602082019050919050565b6000602082019050818103600083015261092f816108f3565b9050919050565b600081600f0b9050919050565b600061095e6109596109548461084b565b610855565b610936565b9050919050565b61096e81610943565b82525050565b600060608201905061098960008301866106b1565b6109966020830185610965565b6109a36040830184610881565b949350505050565b6000815190506109ba81610618565b92915050565b6000602082840312156109d6576109d56105dd565b5b60006109e4848285016109ab565b9150509291505056fea2646970667358221220226698daad789bd43ac7cff6c0aae35f314978ab8dafe5e71d7987a6ffc4605b64736f6c634300080a0033",
					"opcodes": "PUSH1 0x80 PUSH1 0x40 MSTORE CALLVALUE DUP1 ISZERO PUSH2 0x10 JUMPI PUSH1 0x0 DUP1 REVERT JUMPDEST POP PUSH1 0x40 MLOAD PUSH2 0xB8F CODESIZE SUB DUP1 PUSH2 0xB8F DUP4 CODECOPY DUP2 DUP2 ADD PUSH1 0x40 MSTORE DUP2 ADD SWAP1 PUSH2 0x32 SWAP2 SWAP1 PUSH2 0x11D JUMP JUMPDEST DUP2 PUSH1 0x0 DUP1 PUSH2 0x100 EXP DUP2 SLOAD DUP2 PUSH20 0xFFFFFFFFFFFFFFFFFFFFFFFFFFFFFFFFFFFFFFFF MUL NOT AND SWAP1 DUP4 PUSH20 0xFFFFFFFFFFFFFFFFFFFFFFFFFFFFFFFFFFFFFFFF AND MUL OR SWAP1 SSTORE POP DUP1 PUSH1 0x2 PUSH1 0x0 PUSH2 0x100 EXP DUP2 SLOAD DUP2 PUSH20 0xFFFFFFFFFFFFFFFFFFFFFFFFFFFFFFFFFFFFFFFF MUL NOT AND SWAP1 DUP4 PUSH20 0xFFFFFFFFFFFFFFFFFFFFFFFFFFFFFFFFFFFFFFFF AND MUL OR SWAP1 SSTORE POP POP POP PUSH2 0x15D JUMP JUMPDEST PUSH1 0x0 DUP1 REVERT JUMPDEST PUSH1 0x0 PUSH20 0xFFFFFFFFFFFFFFFFFFFFFFFFFFFFFFFFFFFFFFFF DUP3 AND SWAP1 POP SWAP2 SWAP1 POP JUMP JUMPDEST PUSH1 0x0 PUSH2 0xEA DUP3 PUSH2 0xBF JUMP JUMPDEST SWAP1 POP SWAP2 SWAP1 POP JUMP JUMPDEST PUSH2 0xFA DUP2 PUSH2 0xDF JUMP JUMPDEST DUP2 EQ PUSH2 0x105 JUMPI PUSH1 0x0 DUP1 REVERT JUMPDEST POP JUMP JUMPDEST PUSH1 0x0 DUP2 MLOAD SWAP1 POP PUSH2 0x117 DUP2 PUSH2 0xF1 JUMP JUMPDEST SWAP3 SWAP2 POP POP JUMP JUMPDEST PUSH1 0x0 DUP1 PUSH1 0x40 DUP4 DUP6 SUB SLT ISZERO PUSH2 0x134 JUMPI PUSH2 0x133 PUSH2 0xBA JUMP JUMPDEST JUMPDEST PUSH1 0x0 PUSH2 0x142 DUP6 DUP3 DUP7 ADD PUSH2 0x108 JUMP JUMPDEST SWAP3 POP POP PUSH1 0x20 PUSH2 0x153 DUP6 DUP3 DUP7 ADD PUSH2 0x108 JUMP JUMPDEST SWAP2 POP POP SWAP3 POP SWAP3 SWAP1 POP JUMP JUMPDEST PUSH2 0xA23 DUP1 PUSH2 0x16C PUSH1 0x0 CODECOPY PUSH1 0x0 RETURN INVALID PUSH1 0x80 PUSH1 0x40 MSTORE CALLVALUE DUP1 ISZERO PUSH2 0x10 JUMPI PUSH1 0x0 DUP1 REVERT JUMPDEST POP PUSH1 0x4 CALLDATASIZE LT PUSH2 0x62 JUMPI PUSH1 0x0 CALLDATALOAD PUSH1 0xE0 SHR DUP1 PUSH4 0x218751B2 EQ PUSH2 0x67 JUMPI DUP1 PUSH4 0x47E7EF24 EQ PUSH2 0x85 JUMPI DUP1 PUSH4 0x563DF32F EQ PUSH2 0xA1 JUMPI DUP1 PUSH4 0x8DA5CB5B EQ PUSH2 0xBF JUMPI DUP1 PUSH4 0xF3FEF3A3 EQ PUSH2 0xDD JUMPI DUP1 PUSH4 0xF8B2CB4F EQ PUSH2 0xF9 JUMPI JUMPDEST PUSH1 0x0 DUP1 REVERT JUMPDEST PUSH2 0x6F PUSH2 0x129 JUMP JUMPDEST PUSH1 0x40 MLOAD PUSH2 0x7C SWAP2 SWAP1 PUSH2 0x5C2 JUMP JUMPDEST PUSH1 0x40 MLOAD DUP1 SWAP2 SUB SWAP1 RETURN JUMPDEST PUSH2 0x9F PUSH1 0x4 DUP1 CALLDATASIZE SUB DUP2 ADD SWAP1 PUSH2 0x9A SWAP2 SWAP1 PUSH2 0x644 JUMP JUMPDEST PUSH2 0x14D JUMP JUMPDEST STOP JUMPDEST PUSH2 0xA9 PUSH2 0x36B JUMP JUMPDEST PUSH1 0x40 MLOAD PUSH2 0xB6 SWAP2 SWAP1 PUSH2 0x5C2 JUMP JUMPDEST PUSH1 0x40 MLOAD DUP1 SWAP2 SUB SWAP1 RETURN JUMPDEST PUSH2 0xC7 PUSH2 0x391 JUMP JUMPDEST PUSH1 0x40 MLOAD PUSH2 0xD4 SWAP2 SWAP1 PUSH2 0x5C2 JUMP JUMPDEST PUSH1 0x40 MLOAD DUP1 SWAP2 SUB SWAP1 RETURN JUMPDEST PUSH2 0xF7 PUSH1 0x4 DUP1 CALLDATASIZE SUB DUP2 ADD SWAP1 PUSH2 0xF2 SWAP2 SWAP1 PUSH2 0x644 JUMP JUMPDEST PUSH2 0x3B7 JUMP JUMPDEST STOP JUMPDEST PUSH2 0x113 PUSH1 0x4 DUP1 CALLDATASIZE SUB DUP2 ADD SWAP1 PUSH2 0x10E SWAP2 SWAP1 PUSH2 0x684 JUMP JUMPDEST PUSH2 0x4FE JUMP JUMPDEST PUSH1 0x40 MLOAD PUSH2 0x120 SWAP2 SWAP1 PUSH2 0x6C0 JUMP JUMPDEST PUSH1 0x40 MLOAD DUP1 SWAP2 SUB SWAP1 RETURN JUMPDEST PUSH1 0x0 DUP1 SLOAD SWAP1 PUSH2 0x100 EXP SWAP1 DIV PUSH20 0xFFFFFFFFFFFFFFFFFFFFFFFFFFFFFFFFFFFFFFFF AND DUP2 JUMP JUMPDEST DUP2 PUSH20 0xFFFFFFFFFFFFFFFFFFFFFFFFFFFFFFFFFFFFFFFF AND PUSH4 0x23B872DD CALLER ADDRESS DUP5 PUSH1 0x40 MLOAD DUP5 PUSH4 0xFFFFFFFF AND PUSH1 0xE0 SHL DUP2 MSTORE PUSH1 0x4 ADD PUSH2 0x18A SWAP4 SWAP3 SWAP2 SWAP1 PUSH2 0x6DB JUMP JUMPDEST PUSH1 0x20 PUSH1 0x40 MLOAD DUP1 DUP4 SUB DUP2 PUSH1 0x0 DUP8 GAS CALL ISZERO DUP1 ISZERO PUSH2 0x1A9 JUMPI RETURNDATASIZE PUSH1 0x0 DUP1 RETURNDATACOPY RETURNDATASIZE PUSH1 0x0 REVERT JUMPDEST POP POP POP POP PUSH1 0x40 MLOAD RETURNDATASIZE PUSH1 0x1F NOT PUSH1 0x1F DUP3 ADD AND DUP3 ADD DUP1 PUSH1 0x40 MSTORE POP DUP2 ADD SWAP1 PUSH2 0x1CD SWAP2 SWAP1 PUSH2 0x74A JUMP JUMPDEST POP DUP2 PUSH20 0xFFFFFFFFFFFFFFFFFFFFFFFFFFFFFFFFFFFFFFFF AND PUSH4 0x95EA7B3 PUSH1 0x0 DUP1 SLOAD SWAP1 PUSH2 0x100 EXP SWAP1 DIV PUSH20 0xFFFFFFFFFFFFFFFFFFFFFFFFFFFFFFFFFFFFFFFF AND DUP4 PUSH1 0x40 MLOAD DUP4 PUSH4 0xFFFFFFFF AND PUSH1 0xE0 SHL DUP2 MSTORE PUSH1 0x4 ADD PUSH2 0x229 SWAP3 SWAP2 SWAP1 PUSH2 0x777 JUMP JUMPDEST PUSH1 0x20 PUSH1 0x40 MLOAD DUP1 DUP4 SUB DUP2 PUSH1 0x0 DUP8 GAS CALL ISZERO DUP1 ISZERO PUSH2 0x248 JUMPI RETURNDATASIZE PUSH1 0x0 DUP1 RETURNDATACOPY RETURNDATASIZE PUSH1 0x0 REVERT JUMPDEST POP POP POP POP PUSH1 0x40 MLOAD RETURNDATASIZE PUSH1 0x1F NOT PUSH1 0x1F DUP3 ADD AND DUP3 ADD DUP1 PUSH1 0x40 MSTORE POP DUP2 ADD SWAP1 PUSH2 0x26C SWAP2 SWAP1 PUSH2 0x74A JUMP JUMPDEST POP PUSH1 0x0 DUP1 SLOAD SWAP1 PUSH2 0x100 EXP SWAP1 DIV PUSH20 0xFFFFFFFFFFFFFFFFFFFFFFFFFFFFFFFFFFFFFFFF AND PUSH20 0xFFFFFFFFFFFFFFFFFFFFFFFFFFFFFFFFFFFFFFFF AND PUSH4 0x4515CEF3 PUSH1 0x40 MLOAD DUP1 PUSH1 0x60 ADD PUSH1 0x40 MSTORE DUP1 DUP5 DUP2 MSTORE PUSH1 0x20 ADD PUSH1 0x0 DUP2 MSTORE PUSH1 0x20 ADD PUSH1 0x0 DUP2 MSTORE POP PUSH1 0x0 PUSH1 0x40 MLOAD DUP4 PUSH4 0xFFFFFFFF AND PUSH1 0xE0 SHL DUP2 MSTORE PUSH1 0x4 ADD PUSH2 0x2E5 SWAP3 SWAP2 SWAP1 PUSH2 0x890 JUMP JUMPDEST PUSH1 0x20 PUSH1 0x40 MLOAD DUP1 DUP4 SUB DUP2 PUSH1 0x0 DUP8 GAS CALL ISZERO DUP1 ISZERO PUSH2 0x304 JUMPI RETURNDATASIZE PUSH1 0x0 DUP1 RETURNDATACOPY RETURNDATASIZE PUSH1 0x0 REVERT JUMPDEST POP POP POP POP PUSH1 0x40 MLOAD RETURNDATASIZE PUSH1 0x1F NOT PUSH1 0x1F DUP3 ADD AND DUP3 ADD DUP1 PUSH1 0x40 MSTORE POP DUP2 ADD SWAP1 PUSH2 0x328 SWAP2 SWAP1 PUSH2 0x74A JUMP JUMPDEST PUSH2 0x367 JUMPI PUSH1 0x40 MLOAD PUSH32 0x8C379A000000000000000000000000000000000000000000000000000000000 DUP2 MSTORE PUSH1 0x4 ADD PUSH2 0x35E SWAP1 PUSH2 0x916 JUMP JUMPDEST PUSH1 0x40 MLOAD DUP1 SWAP2 SUB SWAP1 REVERT JUMPDEST POP POP JUMP JUMPDEST PUSH1 0x2 PUSH1 0x0 SWAP1 SLOAD SWAP1 PUSH2 0x100 EXP SWAP1 DIV PUSH20 0xFFFFFFFFFFFFFFFFFFFFFFFFFFFFFFFFFFFFFFFF AND DUP2 JUMP JUMPDEST PUSH1 0x1 PUSH1 0x0 SWAP1 SLOAD SWAP1 PUSH2 0x100 EXP SWAP1 DIV PUSH20 0xFFFFFFFFFFFFFFFFFFFFFFFFFFFFFFFFFFFFFFFF AND DUP2 JUMP JUMPDEST PUSH1 0x0 DUP1 SLOAD SWAP1 PUSH2 0x100 EXP SWAP1 DIV PUSH20 0xFFFFFFFFFFFFFFFFFFFFFFFFFFFFFFFFFFFFFFFF AND PUSH20 0xFFFFFFFFFFFFFFFFFFFFFFFFFFFFFFFFFFFFFFFF AND PUSH4 0x1A4D01D2 DUP3 PUSH1 0x0 DUP1 PUSH1 0x40 MLOAD DUP5 PUSH4 0xFFFFFFFF AND PUSH1 0xE0 SHL DUP2 MSTORE PUSH1 0x4 ADD PUSH2 0x415 SWAP4 SWAP3 SWAP2 SWAP1 PUSH2 0x974 JUMP JUMPDEST PUSH1 0x20 PUSH1 0x40 MLOAD DUP1 DUP4 SUB DUP2 PUSH1 0x0 DUP8 GAS CALL ISZERO DUP1 ISZERO PUSH2 0x434 JUMPI RETURNDATASIZE PUSH1 0x0 DUP1 RETURNDATACOPY RETURNDATASIZE PUSH1 0x0 REVERT JUMPDEST POP POP POP POP PUSH1 0x40 MLOAD RETURNDATASIZE PUSH1 0x1F NOT PUSH1 0x1F DUP3 ADD AND DUP3 ADD DUP1 PUSH1 0x40 MSTORE POP DUP2 ADD SWAP1 PUSH2 0x458 SWAP2 SWAP1 PUSH2 0x9C0 JUMP JUMPDEST POP DUP2 PUSH20 0xFFFFFFFFFFFFFFFFFFFFFFFFFFFFFFFFFFFFFFFF AND PUSH4 0xA9059CBB PUSH1 0x1 PUSH1 0x0 SWAP1 SLOAD SWAP1 PUSH2 0x100 EXP SWAP1 DIV PUSH20 0xFFFFFFFFFFFFFFFFFFFFFFFFFFFFFFFFFFFFFFFF AND DUP4 PUSH1 0x40 MLOAD DUP4 PUSH4 0xFFFFFFFF AND PUSH1 0xE0 SHL DUP2 MSTORE PUSH1 0x4 ADD PUSH2 0x4B6 SWAP3 SWAP2 SWAP1 PUSH2 0x777 JUMP JUMPDEST PUSH1 0x20 PUSH1 0x40 MLOAD DUP1 DUP4 SUB DUP2 PUSH1 0x0 DUP8 GAS CALL ISZERO DUP1 ISZERO PUSH2 0x4D5 JUMPI RETURNDATASIZE PUSH1 0x0 DUP1 RETURNDATACOPY RETURNDATASIZE PUSH1 0x0 REVERT JUMPDEST POP POP POP POP PUSH1 0x40 MLOAD RETURNDATASIZE PUSH1 0x1F NOT PUSH1 0x1F DUP3 ADD AND DUP3 ADD DUP1 PUSH1 0x40 MSTORE POP DUP2 ADD SWAP1 PUSH2 0x4F9 SWAP2 SWAP1 PUSH2 0x74A JUMP JUMPDEST POP POP POP JUMP JUMPDEST PUSH1 0x0 DUP2 PUSH20 0xFFFFFFFFFFFFFFFFFFFFFFFFFFFFFFFFFFFFFFFF AND PUSH4 0x70A08231 ADDRESS PUSH1 0x40 MLOAD DUP3 PUSH4 0xFFFFFFFF AND PUSH1 0xE0 SHL DUP2 MSTORE PUSH1 0x4 ADD PUSH2 0x539 SWAP2 SWAP1 PUSH2 0x5C2 JUMP JUMPDEST PUSH1 0x20 PUSH1 0x40 MLOAD DUP1 DUP4 SUB DUP2 DUP7 GAS STATICCALL ISZERO DUP1 ISZERO PUSH2 0x556 JUMPI RETURNDATASIZE PUSH1 0x0 DUP1 RETURNDATACOPY RETURNDATASIZE PUSH1 0x0 REVERT JUMPDEST POP POP POP POP PUSH1 0x40 MLOAD RETURNDATASIZE PUSH1 0x1F NOT PUSH1 0x1F DUP3 ADD AND DUP3 ADD DUP1 PUSH1 0x40 MSTORE POP DUP2 ADD SWAP1 PUSH2 0x57A SWAP2 SWAP1 PUSH2 0x9C0 JUMP JUMPDEST SWAP1 POP SWAP2 SWAP1 POP JUMP JUMPDEST PUSH1 0x0 PUSH20 0xFFFFFFFFFFFFFFFFFFFFFFFFFFFFFFFFFFFFFFFF DUP3 AND SWAP1 POP SWAP2 SWAP1 POP JUMP JUMPDEST PUSH1 0x0 PUSH2 0x5AC DUP3 PUSH2 0x581 JUMP JUMPDEST SWAP1 POP SWAP2 SWAP1 POP JUMP JUMPDEST PUSH2 0x5BC DUP2 PUSH2 0x5A1 JUMP JUMPDEST DUP3 MSTORE POP POP JUMP JUMPDEST PUSH1 0x0 PUSH1 0x20 DUP3 ADD SWAP1 POP PUSH2 0x5D7 PUSH1 0x0 DUP4 ADD DUP5 PUSH2 0x5B3 JUMP JUMPDEST SWAP3 SWAP2 POP POP JUMP JUMPDEST PUSH1 0x0 DUP1 REVERT JUMPDEST PUSH2 0x5EB DUP2 PUSH2 0x5A1 JUMP JUMPDEST DUP2 EQ PUSH2 0x5F6 JUMPI PUSH1 0x0 DUP1 REVERT JUMPDEST POP JUMP JUMPDEST PUSH1 0x0 DUP2 CALLDATALOAD SWAP1 POP PUSH2 0x608 DUP2 PUSH2 0x5E2 JUMP JUMPDEST SWAP3 SWAP2 POP POP JUMP JUMPDEST PUSH1 0x0 DUP2 SWAP1 POP SWAP2 SWAP1 POP JUMP JUMPDEST PUSH2 0x621 DUP2 PUSH2 0x60E JUMP JUMPDEST DUP2 EQ PUSH2 0x62C JUMPI PUSH1 0x0 DUP1 REVERT JUMPDEST POP JUMP JUMPDEST PUSH1 0x0 DUP2 CALLDATALOAD SWAP1 POP PUSH2 0x63E DUP2 PUSH2 0x618 JUMP JUMPDEST SWAP3 SWAP2 POP POP JUMP JUMPDEST PUSH1 0x0 DUP1 PUSH1 0x40 DUP4 DUP6 SUB SLT ISZERO PUSH2 0x65B JUMPI PUSH2 0x65A PUSH2 0x5DD JUMP JUMPDEST JUMPDEST PUSH1 0x0 PUSH2 0x669 DUP6 DUP3 DUP7 ADD PUSH2 0x5F9 JUMP JUMPDEST SWAP3 POP POP PUSH1 0x20 PUSH2 0x67A DUP6 DUP3 DUP7 ADD PUSH2 0x62F JUMP JUMPDEST SWAP2 POP POP SWAP3 POP SWAP3 SWAP1 POP JUMP JUMPDEST PUSH1 0x0 PUSH1 0x20 DUP3 DUP5 SUB SLT ISZERO PUSH2 0x69A JUMPI PUSH2 0x699 PUSH2 0x5DD JUMP JUMPDEST JUMPDEST PUSH1 0x0 PUSH2 0x6A8 DUP5 DUP3 DUP6 ADD PUSH2 0x5F9 JUMP JUMPDEST SWAP2 POP POP SWAP3 SWAP2 POP POP JUMP JUMPDEST PUSH2 0x6BA DUP2 PUSH2 0x60E JUMP JUMPDEST DUP3 MSTORE POP POP JUMP JUMPDEST PUSH1 0x0 PUSH1 0x20 DUP3 ADD SWAP1 POP PUSH2 0x6D5 PUSH1 0x0 DUP4 ADD DUP5 PUSH2 0x6B1 JUMP JUMPDEST SWAP3 SWAP2 POP POP JUMP JUMPDEST PUSH1 0x0 PUSH1 0x60 DUP3 ADD SWAP1 POP PUSH2 0x6F0 PUSH1 0x0 DUP4 ADD DUP7 PUSH2 0x5B3 JUMP JUMPDEST PUSH2 0x6FD PUSH1 0x20 DUP4 ADD DUP6 PUSH2 0x5B3 JUMP JUMPDEST PUSH2 0x70A PUSH1 0x40 DUP4 ADD DUP5 PUSH2 0x6B1 JUMP JUMPDEST SWAP5 SWAP4 POP POP POP POP JUMP JUMPDEST PUSH1 0x0 DUP2 ISZERO ISZERO SWAP1 POP SWAP2 SWAP1 POP JUMP JUMPDEST PUSH2 0x727 DUP2 PUSH2 0x712 JUMP JUMPDEST DUP2 EQ PUSH2 0x732 JUMPI PUSH1 0x0 DUP1 REVERT JUMPDEST POP JUMP JUMPDEST PUSH1 0x0 DUP2 MLOAD SWAP1 POP PUSH2 0x744 DUP2 PUSH2 0x71E JUMP JUMPDEST SWAP3 SWAP2 POP POP JUMP JUMPDEST PUSH1 0x0 PUSH1 0x20 DUP3 DUP5 SUB SLT ISZERO PUSH2 0x760 JUMPI PUSH2 0x75F PUSH2 0x5DD JUMP JUMPDEST JUMPDEST PUSH1 0x0 PUSH2 0x76E DUP5 DUP3 DUP6 ADD PUSH2 0x735 JUMP JUMPDEST SWAP2 POP POP SWAP3 SWAP2 POP POP JUMP JUMPDEST PUSH1 0x0 PUSH1 0x40 DUP3 ADD SWAP1 POP PUSH2 0x78C PUSH1 0x0 DUP4 ADD DUP6 PUSH2 0x5B3 JUMP JUMPDEST PUSH2 0x799 PUSH1 0x20 DUP4 ADD DUP5 PUSH2 0x6B1 JUMP JUMPDEST SWAP4 SWAP3 POP POP POP JUMP JUMPDEST PUSH1 0x0 PUSH1 0x3 SWAP1 POP SWAP2 SWAP1 POP JUMP JUMPDEST PUSH1 0x0 DUP2 SWAP1 POP SWAP3 SWAP2 POP POP JUMP JUMPDEST PUSH1 0x0 DUP2 SWAP1 POP SWAP2 SWAP1 POP JUMP JUMPDEST PUSH2 0x7C9 DUP2 PUSH2 0x60E JUMP JUMPDEST DUP3 MSTORE POP POP JUMP JUMPDEST PUSH1 0x0 PUSH2 0x7DB DUP4 DUP4 PUSH2 0x7C0 JUMP JUMPDEST PUSH1 0x20 DUP4 ADD SWAP1 POP SWAP3 SWAP2 POP POP JUMP JUMPDEST PUSH1 0x0 PUSH1 0x20 DUP3 ADD SWAP1 POP SWAP2 SWAP1 POP JUMP JUMPDEST PUSH2 0x7FD DUP2 PUSH2 0x7A0 JUMP JUMPDEST PUSH2 0x807 DUP2 DUP5 PUSH2 0x7AB JUMP JUMPDEST SWAP3 POP PUSH2 0x812 DUP3 PUSH2 0x7B6 JUMP JUMPDEST DUP1 PUSH1 0x0 JUMPDEST DUP4 DUP2 LT ISZERO PUSH2 0x843 JUMPI DUP2 MLOAD PUSH2 0x82A DUP8 DUP3 PUSH2 0x7CF JUMP JUMPDEST SWAP7 POP PUSH2 0x835 DUP4 PUSH2 0x7E7 JUMP JUMPDEST SWAP3 POP POP PUSH1 0x1 DUP2 ADD SWAP1 POP PUSH2 0x816 JUMP JUMPDEST POP POP POP POP POP POP JUMP JUMPDEST PUSH1 0x0 DUP2 SWAP1 POP SWAP2 SWAP1 POP JUMP JUMPDEST PUSH1 0x0 DUP2 SWAP1 POP SWAP2 SWAP1 POP JUMP JUMPDEST PUSH1 0x0 PUSH2 0x87A PUSH2 0x875 PUSH2 0x870 DUP5 PUSH2 0x84B JUMP JUMPDEST PUSH2 0x855 JUMP JUMPDEST PUSH2 0x60E JUMP JUMPDEST SWAP1 POP SWAP2 SWAP1 POP JUMP JUMPDEST PUSH2 0x88A DUP2 PUSH2 0x85F JUMP JUMPDEST DUP3 MSTORE POP POP JUMP JUMPDEST PUSH1 0x0 PUSH1 0x80 DUP3 ADD SWAP1 POP PUSH2 0x8A5 PUSH1 0x0 DUP4 ADD DUP6 PUSH2 0x7F4 JUMP JUMPDEST PUSH2 0x8B2 PUSH1 0x60 DUP4 ADD DUP5 PUSH2 0x881 JUMP JUMPDEST SWAP4 SWAP3 POP POP POP JUMP JUMPDEST PUSH1 0x0 DUP3 DUP3 MSTORE PUSH1 0x20 DUP3 ADD SWAP1 POP SWAP3 SWAP2 POP POP JUMP JUMPDEST PUSH32 0x4465706F736974206661696C6564000000000000000000000000000000000000 PUSH1 0x0 DUP3 ADD MSTORE POP JUMP JUMPDEST PUSH1 0x0 PUSH2 0x900 PUSH1 0xE DUP4 PUSH2 0x8B9 JUMP JUMPDEST SWAP2 POP PUSH2 0x90B DUP3 PUSH2 0x8CA JUMP JUMPDEST PUSH1 0x20 DUP3 ADD SWAP1 POP SWAP2 SWAP1 POP JUMP JUMPDEST PUSH1 0x0 PUSH1 0x20 DUP3 ADD SWAP1 POP DUP2 DUP2 SUB PUSH1 0x0 DUP4 ADD MSTORE PUSH2 0x92F DUP2 PUSH2 0x8F3 JUMP JUMPDEST SWAP1 POP SWAP2 SWAP1 POP JUMP JUMPDEST PUSH1 0x0 DUP2 PUSH1 0xF SIGNEXTEND SWAP1 POP SWAP2 SWAP1 POP JUMP JUMPDEST PUSH1 0x0 PUSH2 0x95E PUSH2 0x959 PUSH2 0x954 DUP5 PUSH2 0x84B JUMP JUMPDEST PUSH2 0x855 JUMP JUMPDEST PUSH2 0x936 JUMP JUMPDEST SWAP1 POP SWAP2 SWAP1 POP JUMP JUMPDEST PUSH2 0x96E DUP2 PUSH2 0x943 JUMP JUMPDEST DUP3 MSTORE POP POP JUMP JUMPDEST PUSH1 0x0 PUSH1 0x60 DUP3 ADD SWAP1 POP PUSH2 0x989 PUSH1 0x0 DUP4 ADD DUP7 PUSH2 0x6B1 JUMP JUMPDEST PUSH2 0x996 PUSH1 0x20 DUP4 ADD DUP6 PUSH2 0x965 JUMP JUMPDEST PUSH2 0x9A3 PUSH1 0x40 DUP4 ADD DUP5 PUSH2 0x881 JUMP JUMPDEST SWAP5 SWAP4 POP POP POP POP JUMP JUMPDEST PUSH1 0x0 DUP2 MLOAD SWAP1 POP PUSH2 0x9BA DUP2 PUSH2 0x618 JUMP JUMPDEST SWAP3 SWAP2 POP POP JUMP JUMPDEST PUSH1 0x0 PUSH1 0x20 DUP3 DUP5 SUB SLT ISZERO PUSH2 0x9D6 JUMPI PUSH2 0x9D5 PUSH2 0x5DD JUMP JUMPDEST JUMPDEST PUSH1 0x0 PUSH2 0x9E4 DUP5 DUP3 DUP6 ADD PUSH2 0x9AB JUMP JUMPDEST SWAP2 POP POP SWAP3 SWAP2 POP POP JUMP INVALID LOG2 PUSH5 0x6970667358 0x22 SLT KECCAK256 0x22 PUSH7 0x98DAAD789BD43A 0xC7 0xCF 0xF6 0xC0 0xAA 0xE3 0x5F BALANCE 0x49 PUSH25 0xAB8DAFE5E71D7987A6FFC4605B64736F6C634300080A003300 "
				},
				"gasEstimates": {
					"creation": {
						"codeDepositCost": "519000",
						"executionCost": "infinite",
						"totalCost": "infinite"
					},
					"external": {
						"Treasury()": "2536",
						"curvePool()": "2489",
						"deposit(address,uint256)": "infinite",
						"getBalance(address)": "infinite",
						"owner()": "2558",
						"withdraw(address,uint256)": "infinite"
					}
				},
				"methodIdentifiers": {
					"Treasury()": "563df32f",
					"curvePool()": "218751b2",
					"deposit(address,uint256)": "47e7ef24",
					"getBalance(address)": "f8b2cb4f",
					"owner()": "8da5cb5b",
					"withdraw(address,uint256)": "f3fef3a3"
				}
			},
			"storageLayout": {
				"storage": [
					{
						"astId": 82,
						"contract": "contracts/CurveGateway.sol:CurveDepositWithdraw",
						"label": "curvePool",
						"offset": 0,
						"slot": "0",
						"type": "t_address"
					},
					{
						"astId": 84,
						"contract": "contracts/CurveGateway.sol:CurveDepositWithdraw",
						"label": "owner",
						"offset": 0,
						"slot": "1",
						"type": "t_address"
					},
					{
						"astId": 86,
						"contract": "contracts/CurveGateway.sol:CurveDepositWithdraw",
						"label": "Treasury",
						"offset": 0,
						"slot": "2",
						"type": "t_address"
					}
				],
				"types": {
					"t_address": {
						"encoding": "inplace",
						"label": "address",
						"numberOfBytes": "20"
					}
				}
			},
			"userdoc": {
				"kind": "user",
				"methods": {},
				"version": 1
			}
		}
	}
}