{
	"contracts/Treasury.sol": {
		"Treasury": {
			"abi": [
				{
					"inputs": [
						{
							"internalType": "uint256",
							"name": "initialRatio",
							"type": "uint256"
						}
					],
					"stateMutability": "nonpayable",
					"type": "constructor"
				},
				{
					"inputs": [
						{
							"components": [
								{
									"internalType": "enum Treasury.ProtocolType",
									"name": "Type",
									"type": "uint8"
								},
								{
									"internalType": "address",
									"name": "Gateway",
									"type": "address"
								},
								{
									"internalType": "string",
									"name": "ProtocolName",
									"type": "string"
								}
							],
							"internalType": "struct Treasury.Protocol",
							"name": "_protocol",
							"type": "tuple"
						}
					],
					"name": "AddingProtocol",
					"outputs": [],
					"stateMutability": "nonpayable",
					"type": "function"
				},
				{
					"inputs": [
						{
							"internalType": "address",
							"name": "",
							"type": "address"
						},
						{
							"internalType": "uint256",
							"name": "",
							"type": "uint256"
						}
					],
					"name": "Invests",
					"outputs": [
						{
							"internalType": "uint256",
							"name": "",
							"type": "uint256"
						}
					],
					"stateMutability": "view",
					"type": "function"
				},
				{
					"inputs": [
						{
							"internalType": "uint256",
							"name": "",
							"type": "uint256"
						}
					],
					"name": "ProtocolsInvestment",
					"outputs": [
						{
							"internalType": "enum Treasury.ProtocolType",
							"name": "Type",
							"type": "uint8"
						},
						{
							"internalType": "address",
							"name": "Gateway",
							"type": "address"
						},
						{
							"internalType": "string",
							"name": "ProtocolName",
							"type": "string"
						}
					],
					"stateMutability": "view",
					"type": "function"
				},
				{
					"inputs": [
						{
							"internalType": "address",
							"name": "_tokenAddress",
							"type": "address"
						},
						{
							"internalType": "uint256",
							"name": "amount",
							"type": "uint256"
						},
						{
							"internalType": "uint256",
							"name": "indexProtocol",
							"type": "uint256"
						}
					],
					"name": "WithdrawFromProtocol",
					"outputs": [],
					"stateMutability": "nonpayable",
					"type": "function"
				},
				{
					"inputs": [
						{
							"internalType": "uint256",
							"name": "_protocolRatio",
							"type": "uint256"
						}
					],
					"name": "adjustRatio",
					"outputs": [],
					"stateMutability": "nonpayable",
					"type": "function"
				},
				{
					"inputs": [
						{
							"internalType": "address",
							"name": "_tokenAddress",
							"type": "address"
						},
						{
							"internalType": "uint256",
							"name": "indexProtocol",
							"type": "uint256"
						}
					],
					"name": "allocateFundsInvest",
					"outputs": [],
					"stateMutability": "nonpayable",
					"type": "function"
				},
				{
					"inputs": [
						{
							"internalType": "address",
							"name": "_tokenAddress",
							"type": "address"
						},
						{
							"internalType": "uint256",
							"name": "_amount",
							"type": "uint256"
						}
					],
					"name": "deposit",
					"outputs": [],
					"stateMutability": "nonpayable",
					"type": "function"
				},
				{
					"inputs": [
						{
							"internalType": "address",
							"name": "_tokenAddress",
							"type": "address"
						},
						{
							"internalType": "uint256",
							"name": "indexProtocol",
							"type": "uint256"
						}
					],
					"name": "getDepositTokens",
					"outputs": [
						{
							"internalType": "uint256",
							"name": "",
							"type": "uint256"
						}
					],
					"stateMutability": "view",
					"type": "function"
				},
				{
					"inputs": [],
					"name": "getTokensList",
					"outputs": [
						{
							"internalType": "address[]",
							"name": "",
							"type": "address[]"
						}
					],
					"stateMutability": "view",
					"type": "function"
				},
				{
					"inputs": [],
					"name": "locked",
					"outputs": [
						{
							"internalType": "bool",
							"name": "",
							"type": "bool"
						}
					],
					"stateMutability": "view",
					"type": "function"
				},
				{
					"inputs": [],
					"name": "owner",
					"outputs": [
						{
							"internalType": "address",
							"name": "",
							"type": "address"
						}
					],
					"stateMutability": "view",
					"type": "function"
				},
				{
					"inputs": [],
					"name": "protocolRatio",
					"outputs": [
						{
							"internalType": "uint256",
							"name": "",
							"type": "uint256"
						}
					],
					"stateMutability": "view",
					"type": "function"
				},
				{
					"inputs": [
						{
							"internalType": "address",
							"name": "",
							"type": "address"
						}
					],
					"name": "userDepositIndexs",
					"outputs": [
						{
							"internalType": "uint256",
							"name": "",
							"type": "uint256"
						}
					],
					"stateMutability": "view",
					"type": "function"
				},
				{
					"inputs": [
						{
							"internalType": "address",
							"name": "",
							"type": "address"
						},
						{
							"internalType": "address",
							"name": "",
							"type": "address"
						}
					],
					"name": "userDeposits",
					"outputs": [
						{
							"internalType": "uint256",
							"name": "depositAmount",
							"type": "uint256"
						},
						{
							"internalType": "uint256",
							"name": "lastDeposit",
							"type": "uint256"
						}
					],
					"stateMutability": "view",
					"type": "function"
				},
				{
					"inputs": [
						{
							"internalType": "address",
							"name": "_tokenAddress",
							"type": "address"
						},
						{
							"internalType": "uint256",
							"name": "_amount",
							"type": "uint256"
						}
					],
					"name": "withdraw",
					"outputs": [],
					"stateMutability": "nonpayable",
					"type": "function"
				}
			],
			"devdoc": {
				"kind": "dev",
				"methods": {},
				"version": 1
			},
			"evm": {
				"assembly": "    /* \"contracts/Treasury.sol\":322:5561  contract Treasury {... */\n  mstore(0x40, 0x80)\n    /* \"contracts/Treasury.sol\":1368:1477  constructor(uint256 initialRatio) {... */\n  callvalue\n  dup1\n  iszero\n  tag_1\n  jumpi\n  0x00\n  dup1\n  revert\ntag_1:\n  pop\n  mload(0x40)\n  sub(codesize, bytecodeSize)\n  dup1\n  bytecodeSize\n  dup4\n  codecopy\n  dup2\n  dup2\n  add\n  0x40\n  mstore\n  dup2\n  add\n  swap1\n  tag_2\n  swap2\n  swap1\n  tag_3\n  jump\t// in\ntag_2:\n    /* \"contracts/Treasury.sol\":1421:1431  msg.sender */\n  caller\n    /* \"contracts/Treasury.sol\":1413:1418  owner */\n  0x00\n  dup1\n    /* \"contracts/Treasury.sol\":1413:1431  owner = msg.sender */\n  0x0100\n  exp\n  dup2\n  sload\n  dup2\n  0xffffffffffffffffffffffffffffffffffffffff\n  mul\n  not\n  and\n  swap1\n  dup4\n  0xffffffffffffffffffffffffffffffffffffffff\n  and\n  mul\n  or\n  swap1\n  sstore\n  pop\n    /* \"contracts/Treasury.sol\":1457:1469  initialRatio */\n  dup1\n    /* \"contracts/Treasury.sol\":1442:1455  protocolRatio */\n  0x07\n    /* \"contracts/Treasury.sol\":1442:1469  protocolRatio= initialRatio */\n  dup2\n  swap1\n  sstore\n  pop\n    /* \"contracts/Treasury.sol\":1368:1477  constructor(uint256 initialRatio) {... */\n  pop\n    /* \"contracts/Treasury.sol\":322:5561  contract Treasury {... */\n  jump(tag_6)\n    /* \"#utility.yul\":88:205   */\ntag_8:\n    /* \"#utility.yul\":197:198   */\n  0x00\n    /* \"#utility.yul\":194:195   */\n  dup1\n    /* \"#utility.yul\":187:199   */\n  revert\n    /* \"#utility.yul\":334:411   */\ntag_10:\n    /* \"#utility.yul\":371:378   */\n  0x00\n    /* \"#utility.yul\":400:405   */\n  dup2\n    /* \"#utility.yul\":389:405   */\n  swap1\n  pop\n    /* \"#utility.yul\":334:411   */\n  swap2\n  swap1\n  pop\n  jump\t// out\n    /* \"#utility.yul\":417:539   */\ntag_11:\n    /* \"#utility.yul\":490:514   */\n  tag_19\n    /* \"#utility.yul\":508:513   */\n  dup2\n    /* \"#utility.yul\":490:514   */\n  tag_10\n  jump\t// in\ntag_19:\n    /* \"#utility.yul\":483:488   */\n  dup2\n    /* \"#utility.yul\":480:515   */\n  eq\n    /* \"#utility.yul\":470:533   */\n  tag_20\n  jumpi\n    /* \"#utility.yul\":529:530   */\n  0x00\n    /* \"#utility.yul\":526:527   */\n  dup1\n    /* \"#utility.yul\":519:531   */\n  revert\n    /* \"#utility.yul\":470:533   */\ntag_20:\n    /* \"#utility.yul\":417:539   */\n  pop\n  jump\t// out\n    /* \"#utility.yul\":545:688   */\ntag_12:\n    /* \"#utility.yul\":602:607   */\n  0x00\n    /* \"#utility.yul\":633:639   */\n  dup2\n    /* \"#utility.yul\":627:640   */\n  mload\n    /* \"#utility.yul\":618:640   */\n  swap1\n  pop\n    /* \"#utility.yul\":649:682   */\n  tag_22\n    /* \"#utility.yul\":676:681   */\n  dup2\n    /* \"#utility.yul\":649:682   */\n  tag_11\n  jump\t// in\ntag_22:\n    /* \"#utility.yul\":545:688   */\n  swap3\n  swap2\n  pop\n  pop\n  jump\t// out\n    /* \"#utility.yul\":694:1045   */\ntag_3:\n    /* \"#utility.yul\":764:770   */\n  0x00\n    /* \"#utility.yul\":813:815   */\n  0x20\n    /* \"#utility.yul\":801:810   */\n  dup3\n    /* \"#utility.yul\":792:799   */\n  dup5\n    /* \"#utility.yul\":788:811   */\n  sub\n    /* \"#utility.yul\":784:816   */\n  slt\n    /* \"#utility.yul\":781:900   */\n  iszero\n  tag_24\n  jumpi\n    /* \"#utility.yul\":819:898   */\n  tag_25\n  tag_8\n  jump\t// in\ntag_25:\n    /* \"#utility.yul\":781:900   */\ntag_24:\n    /* \"#utility.yul\":939:940   */\n  0x00\n    /* \"#utility.yul\":964:1028   */\n  tag_26\n    /* \"#utility.yul\":1020:1027   */\n  dup5\n    /* \"#utility.yul\":1011:1017   */\n  dup3\n    /* \"#utility.yul\":1000:1009   */\n  dup6\n    /* \"#utility.yul\":996:1018   */\n  add\n    /* \"#utility.yul\":964:1028   */\n  tag_12\n  jump\t// in\ntag_26:\n    /* \"#utility.yul\":954:1028   */\n  swap2\n  pop\n    /* \"#utility.yul\":910:1038   */\n  pop\n    /* \"#utility.yul\":694:1045   */\n  swap3\n  swap2\n  pop\n  pop\n  jump\t// out\n    /* \"contracts/Treasury.sol\":322:5561  contract Treasury {... */\ntag_6:\n  dataSize(sub_0)\n  dup1\n  dataOffset(sub_0)\n  0x00\n  codecopy\n  0x00\n  return\nstop\n\nsub_0: assembly {\n        /* \"contracts/Treasury.sol\":322:5561  contract Treasury {... */\n      mstore(0x40, 0x80)\n      callvalue\n      dup1\n      iszero\n      tag_1\n      jumpi\n      0x00\n      dup1\n      revert\n    tag_1:\n      pop\n      jumpi(tag_2, lt(calldatasize, 0x04))\n      shr(0xe0, calldataload(0x00))\n      dup1\n      0x715ec5da\n      gt\n      tag_18\n      jumpi\n      dup1\n      0x8da5cb5b\n      gt\n      tag_19\n      jumpi\n      dup1\n      0x8da5cb5b\n      eq\n      tag_14\n      jumpi\n      dup1\n      0x9cec004d\n      eq\n      tag_15\n      jumpi\n      dup1\n      0xcf309012\n      eq\n      tag_16\n      jumpi\n      dup1\n      0xf3fef3a3\n      eq\n      tag_17\n      jumpi\n      jump(tag_2)\n    tag_19:\n      dup1\n      0x715ec5da\n      eq\n      tag_10\n      jumpi\n      dup1\n      0x7690cbeb\n      eq\n      tag_11\n      jumpi\n      dup1\n      0x7da5af32\n      eq\n      tag_12\n      jumpi\n      dup1\n      0x83c36433\n      eq\n      tag_13\n      jumpi\n      jump(tag_2)\n    tag_18:\n      dup1\n      0x466bca02\n      gt\n      tag_20\n      jumpi\n      dup1\n      0x466bca02\n      eq\n      tag_6\n      jumpi\n      dup1\n      0x47e7ef24\n      eq\n      tag_7\n      jumpi\n      dup1\n      0x50a1da0c\n      eq\n      tag_8\n      jumpi\n      dup1\n      0x61d92f2c\n      eq\n      tag_9\n      jumpi\n      jump(tag_2)\n    tag_20:\n      dup1\n      0x37a7a334\n      eq\n      tag_3\n      jumpi\n      dup1\n      0x3aa4c538\n      eq\n      tag_4\n      jumpi\n      dup1\n      0x436d8039\n      eq\n      tag_5\n      jumpi\n    tag_2:\n      0x00\n      dup1\n      revert\n        /* \"contracts/Treasury.sol\":3128:3375  function adjustRatio(uint256 _protocolRatio) external {... */\n    tag_3:\n      tag_21\n      0x04\n      dup1\n      calldatasize\n      sub\n      dup2\n      add\n      swap1\n      tag_22\n      swap2\n      swap1\n      tag_23\n      jump\t// in\n    tag_22:\n      tag_24\n      jump\t// in\n    tag_21:\n      stop\n        /* \"contracts/Treasury.sol\":1039:1091  mapping(uint => Protocol) public ProtocolsInvestment */\n    tag_4:\n      tag_25\n      0x04\n      dup1\n      calldatasize\n      sub\n      dup2\n      add\n      swap1\n      tag_26\n      swap2\n      swap1\n      tag_23\n      jump\t// in\n    tag_26:\n      tag_27\n      jump\t// in\n    tag_25:\n      mload(0x40)\n      tag_28\n      swap4\n      swap3\n      swap2\n      swap1\n      tag_29\n      jump\t// in\n    tag_28:\n      mload(0x40)\n      dup1\n      swap2\n      sub\n      swap1\n      return\n        /* \"contracts/Treasury.sol\":915:986  mapping(address => mapping(address => DepositUser)) public userDeposits */\n    tag_5:\n      tag_30\n      0x04\n      dup1\n      calldatasize\n      sub\n      dup2\n      add\n      swap1\n      tag_31\n      swap2\n      swap1\n      tag_32\n      jump\t// in\n    tag_31:\n      tag_33\n      jump\t// in\n    tag_30:\n      mload(0x40)\n      tag_34\n      swap3\n      swap2\n      swap1\n      tag_35\n      jump\t// in\n    tag_34:\n      mload(0x40)\n      dup1\n      swap2\n      sub\n      swap1\n      return\n        /* \"contracts/Treasury.sol\":5264:5550  function getTokensList() external view returns (address[] memory) {... */\n    tag_6:\n      tag_36\n      tag_37\n      jump\t// in\n    tag_36:\n      mload(0x40)\n      tag_38\n      swap2\n      swap1\n      tag_39\n      jump\t// in\n    tag_38:\n      mload(0x40)\n      dup1\n      swap2\n      sub\n      swap1\n      return\n        /* \"contracts/Treasury.sol\":1690:2294  function deposit(address _tokenAddress, uint256 _amount) external noReentrancy{... */\n    tag_7:\n      tag_40\n      0x04\n      dup1\n      calldatasize\n      sub\n      dup2\n      add\n      swap1\n      tag_41\n      swap2\n      swap1\n      tag_42\n      jump\t// in\n    tag_41:\n      tag_43\n      jump\t// in\n    tag_40:\n      stop\n        /* \"contracts/Treasury.sol\":5083:5258  function getDepositTokens(address _tokenAddress,uint256 indexProtocol) external view returns (uint256) {... */\n    tag_8:\n      tag_44\n      0x04\n      dup1\n      calldatasize\n      sub\n      dup2\n      add\n      swap1\n      tag_45\n      swap2\n      swap1\n      tag_42\n      jump\t// in\n    tag_45:\n      tag_46\n      jump\t// in\n    tag_44:\n      mload(0x40)\n      tag_47\n      swap2\n      swap1\n      tag_48\n      jump\t// in\n    tag_47:\n      mload(0x40)\n      dup1\n      swap2\n      sub\n      swap1\n      return\n        /* \"contracts/Treasury.sol\":1251:1279  uint256 public protocolRatio */\n    tag_9:\n      tag_49\n      tag_50\n      jump\t// in\n    tag_49:\n      mload(0x40)\n      tag_51\n      swap2\n      swap1\n      tag_48\n      jump\t// in\n    tag_51:\n      mload(0x40)\n      dup1\n      swap2\n      sub\n      swap1\n      return\n        /* \"contracts/Treasury.sol\":4504:5076  function WithdrawFromProtocol(address _tokenAddress,uint256 amount,uint256 indexProtocol) external noReentrancy{... */\n    tag_10:\n      tag_52\n      0x04\n      dup1\n      calldatasize\n      sub\n      dup2\n      add\n      swap1\n      tag_53\n      swap2\n      swap1\n      tag_54\n      jump\t// in\n    tag_53:\n      tag_55\n      jump\t// in\n    tag_52:\n      stop\n        /* \"contracts/Treasury.sol\":3714:4498  function allocateFundsInvest(address _tokenAddress,uint256 indexProtocol) external noReentrancy{... */\n    tag_11:\n      tag_56\n      0x04\n      dup1\n      calldatasize\n      sub\n      dup2\n      add\n      swap1\n      tag_57\n      swap2\n      swap1\n      tag_42\n      jump\t// in\n    tag_57:\n      tag_58\n      jump\t// in\n    tag_56:\n      stop\n        /* \"contracts/Treasury.sol\":3381:3611  function AddingProtocol(Protocol calldata _protocol) external {... */\n    tag_12:\n      tag_59\n      0x04\n      dup1\n      calldatasize\n      sub\n      dup2\n      add\n      swap1\n      tag_60\n      swap2\n      swap1\n      tag_61\n      jump\t// in\n    tag_60:\n      tag_62\n      jump\t// in\n    tag_59:\n      stop\n        /* \"contracts/Treasury.sol\":856:908  mapping(address => uint256) public userDepositIndexs */\n    tag_13:\n      tag_63\n      0x04\n      dup1\n      calldatasize\n      sub\n      dup2\n      add\n      swap1\n      tag_64\n      swap2\n      swap1\n      tag_65\n      jump\t// in\n    tag_64:\n      tag_66\n      jump\t// in\n    tag_63:\n      mload(0x40)\n      tag_67\n      swap2\n      swap1\n      tag_48\n      jump\t// in\n    tag_67:\n      mload(0x40)\n      dup1\n      swap2\n      sub\n      swap1\n      return\n        /* \"contracts/Treasury.sol\":347:367  address public owner */\n    tag_14:\n      tag_68\n      tag_69\n      jump\t// in\n    tag_68:\n      mload(0x40)\n      tag_70\n      swap2\n      swap1\n      tag_71\n      jump\t// in\n    tag_70:\n      mload(0x40)\n      dup1\n      swap2\n      sub\n      swap1\n      return\n        /* \"contracts/Treasury.sol\":1098:1157  mapping(address => mapping(uint => uint256)) public Invests */\n    tag_15:\n      tag_72\n      0x04\n      dup1\n      calldatasize\n      sub\n      dup2\n      add\n      swap1\n      tag_73\n      swap2\n      swap1\n      tag_42\n      jump\t// in\n    tag_73:\n      tag_74\n      jump\t// in\n    tag_72:\n      mload(0x40)\n      tag_75\n      swap2\n      swap1\n      tag_48\n      jump\t// in\n    tag_75:\n      mload(0x40)\n      dup1\n      swap2\n      sub\n      swap1\n      return\n        /* \"contracts/Treasury.sol\":374:392  bool public locked */\n    tag_16:\n      tag_76\n      tag_77\n      jump\t// in\n    tag_76:\n      mload(0x40)\n      tag_78\n      swap2\n      swap1\n      tag_79\n      jump\t// in\n    tag_78:\n      mload(0x40)\n      dup1\n      swap2\n      sub\n      swap1\n      return\n        /* \"contracts/Treasury.sol\":2393:3122  function withdraw(address _tokenAddress, uint256 _amount) external noReentrancy{... */\n    tag_17:\n      tag_80\n      0x04\n      dup1\n      calldatasize\n      sub\n      dup2\n      add\n      swap1\n      tag_81\n      swap2\n      swap1\n      tag_42\n      jump\t// in\n    tag_81:\n      tag_82\n      jump\t// in\n    tag_80:\n      stop\n        /* \"contracts/Treasury.sol\":3128:3375  function adjustRatio(uint256 _protocolRatio) external {... */\n    tag_24:\n        /* \"contracts/Treasury.sol\":3215:3220  owner */\n      0x00\n      dup1\n      sload\n      swap1\n      0x0100\n      exp\n      swap1\n      div\n      0xffffffffffffffffffffffffffffffffffffffff\n      and\n        /* \"contracts/Treasury.sol\":3201:3220  msg.sender == owner */\n      0xffffffffffffffffffffffffffffffffffffffff\n      and\n        /* \"contracts/Treasury.sol\":3201:3211  msg.sender */\n      caller\n        /* \"contracts/Treasury.sol\":3201:3220  msg.sender == owner */\n      0xffffffffffffffffffffffffffffffffffffffff\n      and\n      eq\n        /* \"contracts/Treasury.sol\":3193:3257  require(msg.sender == owner, \"Only the owner can adjust ratios\") */\n      tag_84\n      jumpi\n      mload(0x40)\n      0x08c379a000000000000000000000000000000000000000000000000000000000\n      dup2\n      mstore\n      0x04\n      add\n      tag_85\n      swap1\n      tag_86\n      jump\t// in\n    tag_85:\n      mload(0x40)\n      dup1\n      swap2\n      sub\n      swap1\n      revert\n    tag_84:\n        /* \"contracts/Treasury.sol\":3294:3297  100 */\n      0x64\n        /* \"contracts/Treasury.sol\":3276:3290  _protocolRatio */\n      dup2\n        /* \"contracts/Treasury.sol\":3276:3297  _protocolRatio <= 100 */\n      gt\n      iszero\n        /* \"contracts/Treasury.sol\":3268:3326  require(_protocolRatio <= 100, \"Ratio cannot exceed 100%\") */\n      tag_87\n      jumpi\n      mload(0x40)\n      0x08c379a000000000000000000000000000000000000000000000000000000000\n      dup2\n      mstore\n      0x04\n      add\n      tag_88\n      swap1\n      tag_89\n      jump\t// in\n    tag_88:\n      mload(0x40)\n      dup1\n      swap2\n      sub\n      swap1\n      revert\n    tag_87:\n        /* \"contracts/Treasury.sol\":3353:3367  _protocolRatio */\n      dup1\n        /* \"contracts/Treasury.sol\":3337:3350  protocolRatio */\n      0x07\n        /* \"contracts/Treasury.sol\":3337:3367  protocolRatio = _protocolRatio */\n      dup2\n      swap1\n      sstore\n      pop\n        /* \"contracts/Treasury.sol\":3128:3375  function adjustRatio(uint256 _protocolRatio) external {... */\n      pop\n      jump\t// out\n        /* \"contracts/Treasury.sol\":1039:1091  mapping(uint => Protocol) public ProtocolsInvestment */\n    tag_27:\n      mstore(0x20, 0x03)\n      dup1\n      0x00\n      mstore\n      keccak256(0x00, 0x40)\n      0x00\n      swap2\n      pop\n      swap1\n      pop\n      dup1\n      0x00\n      add\n      0x00\n      swap1\n      sload\n      swap1\n      0x0100\n      exp\n      swap1\n      div\n      0xff\n      and\n      swap1\n      dup1\n      0x00\n      add\n      0x01\n      swap1\n      sload\n      swap1\n      0x0100\n      exp\n      swap1\n      div\n      0xffffffffffffffffffffffffffffffffffffffff\n      and\n      swap1\n      dup1\n      0x01\n      add\n      dup1\n      sload\n      tag_90\n      swap1\n      tag_91\n      jump\t// in\n    tag_90:\n      dup1\n      0x1f\n      add\n      0x20\n      dup1\n      swap2\n      div\n      mul\n      0x20\n      add\n      mload(0x40)\n      swap1\n      dup2\n      add\n      0x40\n      mstore\n      dup1\n      swap3\n      swap2\n      swap1\n      dup2\n      dup2\n      mstore\n      0x20\n      add\n      dup3\n      dup1\n      sload\n      tag_92\n      swap1\n      tag_91\n      jump\t// in\n    tag_92:\n      dup1\n      iszero\n      tag_93\n      jumpi\n      dup1\n      0x1f\n      lt\n      tag_94\n      jumpi\n      0x0100\n      dup1\n      dup4\n      sload\n      div\n      mul\n      dup4\n      mstore\n      swap2\n      0x20\n      add\n      swap2\n      jump(tag_93)\n    tag_94:\n      dup3\n      add\n      swap2\n      swap1\n      0x00\n      mstore\n      keccak256(0x00, 0x20)\n      swap1\n    tag_95:\n      dup2\n      sload\n      dup2\n      mstore\n      swap1\n      0x01\n      add\n      swap1\n      0x20\n      add\n      dup1\n      dup4\n      gt\n      tag_95\n      jumpi\n      dup3\n      swap1\n      sub\n      0x1f\n      and\n      dup3\n      add\n      swap2\n    tag_93:\n      pop\n      pop\n      pop\n      pop\n      pop\n      swap1\n      pop\n      dup4\n      jump\t// out\n        /* \"contracts/Treasury.sol\":915:986  mapping(address => mapping(address => DepositUser)) public userDeposits */\n    tag_33:\n      mstore(0x20, 0x02)\n      dup2\n      0x00\n      mstore\n      mstore(0x20, keccak256(0x00, 0x40))\n      dup1\n      0x00\n      mstore\n      keccak256(0x00, 0x40)\n      0x00\n      swap2\n      pop\n      swap2\n      pop\n      pop\n      dup1\n      0x00\n      add\n      sload\n      swap1\n      dup1\n      0x01\n      add\n      sload\n      swap1\n      pop\n      dup3\n      jump\t// out\n        /* \"contracts/Treasury.sol\":5264:5550  function getTokensList() external view returns (address[] memory) {... */\n    tag_37:\n        /* \"contracts/Treasury.sol\":5312:5328  address[] memory */\n      0x60\n        /* \"contracts/Treasury.sol\":5341:5364  address[] memory tokens */\n      0x00\n        /* \"contracts/Treasury.sol\":5381:5393  indexTokensU */\n      sload(0x08)\n        /* \"contracts/Treasury.sol\":5367:5394  new address[](indexTokensU) */\n      0xffffffffffffffff\n      dup2\n      gt\n      iszero\n      tag_97\n      jumpi\n      tag_98\n      tag_99\n      jump\t// in\n    tag_98:\n    tag_97:\n      mload(0x40)\n      swap1\n      dup1\n      dup3\n      mstore\n      dup1\n      0x20\n      mul\n      0x20\n      add\n      dup3\n      add\n      0x40\n      mstore\n      dup1\n      iszero\n      tag_100\n      jumpi\n      dup2\n      0x20\n      add\n      0x20\n      dup3\n      mul\n      dup1\n      calldatasize\n      dup4\n      calldatacopy\n      dup1\n      dup3\n      add\n      swap2\n      pop\n      pop\n      swap1\n      pop\n    tag_100:\n      pop\n        /* \"contracts/Treasury.sol\":5341:5394  address[] memory tokens = new address[](indexTokensU) */\n      swap1\n      pop\n        /* \"contracts/Treasury.sol\":5420:5429  uint256 i */\n      0x00\n        /* \"contracts/Treasury.sol\":5415:5509  for (uint256 i = 0; i < indexTokensU ; i++) {... */\n    tag_101:\n        /* \"contracts/Treasury.sol\":5439:5451  indexTokensU */\n      sload(0x08)\n        /* \"contracts/Treasury.sol\":5435:5436  i */\n      dup2\n        /* \"contracts/Treasury.sol\":5435:5451  i < indexTokensU */\n      lt\n        /* \"contracts/Treasury.sol\":5415:5509  for (uint256 i = 0; i < indexTokensU ; i++) {... */\n      iszero\n      tag_102\n      jumpi\n        /* \"contracts/Treasury.sol\":5486:5493  TokensO */\n      0x05\n        /* \"contracts/Treasury.sol\":5486:5496  TokensO[i] */\n      0x00\n        /* \"contracts/Treasury.sol\":5494:5495  i */\n      dup3\n        /* \"contracts/Treasury.sol\":5486:5496  TokensO[i] */\n      dup2\n      mstore\n      0x20\n      add\n      swap1\n      dup2\n      mstore\n      0x20\n      add\n      0x00\n      keccak256\n      0x00\n      swap1\n      sload\n      swap1\n      0x0100\n      exp\n      swap1\n      div\n      0xffffffffffffffffffffffffffffffffffffffff\n      and\n        /* \"contracts/Treasury.sol\":5474:5480  tokens */\n      dup3\n        /* \"contracts/Treasury.sol\":5481:5482  i */\n      dup3\n        /* \"contracts/Treasury.sol\":5474:5483  tokens[i] */\n      dup2\n      mload\n      dup2\n      lt\n      tag_104\n      jumpi\n      tag_105\n      tag_106\n      jump\t// in\n    tag_105:\n    tag_104:\n      0x20\n      mul\n      0x20\n      add\n      add\n        /* \"contracts/Treasury.sol\":5474:5496  tokens[i] = TokensO[i] */\n      swap1\n      0xffffffffffffffffffffffffffffffffffffffff\n      and\n      swap1\n      dup2\n      0xffffffffffffffffffffffffffffffffffffffff\n      and\n      dup2\n      mstore\n      pop\n      pop\n        /* \"contracts/Treasury.sol\":5454:5457  i++ */\n      dup1\n      dup1\n      tag_107\n      swap1\n      tag_108\n      jump\t// in\n    tag_107:\n      swap2\n      pop\n      pop\n        /* \"contracts/Treasury.sol\":5415:5509  for (uint256 i = 0; i < indexTokensU ; i++) {... */\n      jump(tag_101)\n    tag_102:\n      pop\n        /* \"contracts/Treasury.sol\":5528:5534  tokens */\n      dup1\n        /* \"contracts/Treasury.sol\":5521:5534  return tokens */\n      swap2\n      pop\n      pop\n        /* \"contracts/Treasury.sol\":5264:5550  function getTokensList() external view returns (address[] memory) {... */\n      swap1\n      jump\t// out\n        /* \"contracts/Treasury.sol\":1690:2294  function deposit(address _tokenAddress, uint256 _amount) external noReentrancy{... */\n    tag_43:\n        /* \"contracts/Treasury.sol\":1527:1533  locked */\n      0x00\n      0x14\n      swap1\n      sload\n      swap1\n      0x0100\n      exp\n      swap1\n      div\n      0xff\n      and\n        /* \"contracts/Treasury.sol\":1526:1533  !locked */\n      iszero\n        /* \"contracts/Treasury.sol\":1518:1552  require(!locked, \"Reentrant call\") */\n      tag_110\n      jumpi\n      mload(0x40)\n      0x08c379a000000000000000000000000000000000000000000000000000000000\n      dup2\n      mstore\n      0x04\n      add\n      tag_111\n      swap1\n      tag_112\n      jump\t// in\n    tag_111:\n      mload(0x40)\n      dup1\n      swap2\n      sub\n      swap1\n      revert\n    tag_110:\n        /* \"contracts/Treasury.sol\":1572:1576  true */\n      0x01\n        /* \"contracts/Treasury.sol\":1563:1569  locked */\n      0x00\n      0x14\n        /* \"contracts/Treasury.sol\":1563:1576  locked = true */\n      0x0100\n      exp\n      dup2\n      sload\n      dup2\n      0xff\n      mul\n      not\n      and\n      swap1\n      dup4\n      iszero\n      iszero\n      mul\n      or\n      swap1\n      sstore\n      pop\n        /* \"contracts/Treasury.sol\":1797:1798  0 */\n      0x00\n        /* \"contracts/Treasury.sol\":1787:1794  _amount */\n      dup2\n        /* \"contracts/Treasury.sol\":1787:1798  _amount > 0 */\n      gt\n        /* \"contracts/Treasury.sol\":1779:1832  require(_amount > 0, \"Amount must be greater than 0\") */\n      tag_114\n      jumpi\n      mload(0x40)\n      0x08c379a000000000000000000000000000000000000000000000000000000000\n      dup2\n      mstore\n      0x04\n      add\n      tag_115\n      swap1\n      tag_116\n      jump\t// in\n    tag_115:\n      mload(0x40)\n      dup1\n      swap2\n      sub\n      swap1\n      revert\n    tag_114:\n        /* \"contracts/Treasury.sol\":1911:1923  IERC20 token */\n      0x00\n        /* \"contracts/Treasury.sol\":1933:1946  _tokenAddress */\n      dup3\n        /* \"contracts/Treasury.sol\":1911:1947  IERC20 token = IERC20(_tokenAddress) */\n      swap1\n      pop\n        /* \"contracts/Treasury.sol\":1958:1963  token */\n      dup1\n        /* \"contracts/Treasury.sol\":1958:1976  token.transferFrom */\n      0xffffffffffffffffffffffffffffffffffffffff\n      and\n      0x23b872dd\n        /* \"contracts/Treasury.sol\":1977:1987  msg.sender */\n      caller\n        /* \"contracts/Treasury.sol\":1997:2001  this */\n      address\n        /* \"contracts/Treasury.sol\":2004:2011  _amount */\n      dup6\n        /* \"contracts/Treasury.sol\":1958:2012  token.transferFrom(msg.sender, address(this), _amount) */\n      mload(0x40)\n      dup5\n      0xffffffff\n      and\n      0xe0\n      shl\n      dup2\n      mstore\n      0x04\n      add\n      tag_117\n      swap4\n      swap3\n      swap2\n      swap1\n      tag_118\n      jump\t// in\n    tag_117:\n      0x20\n      mload(0x40)\n      dup1\n      dup4\n      sub\n      dup2\n      0x00\n      dup8\n      gas\n      call\n      iszero\n      dup1\n      iszero\n      tag_120\n      jumpi\n      returndatasize\n      0x00\n      dup1\n      returndatacopy\n      revert(0x00, returndatasize)\n    tag_120:\n      pop\n      pop\n      pop\n      pop\n      mload(0x40)\n      returndatasize\n      not(0x1f)\n      0x1f\n      dup3\n      add\n      and\n      dup3\n      add\n      dup1\n      0x40\n      mstore\n      pop\n      dup2\n      add\n      swap1\n      tag_121\n      swap2\n      swap1\n      tag_122\n      jump\t// in\n    tag_121:\n      pop\n        /* \"contracts/Treasury.sol\":2135:2171  DepositUser(_amount,block.timestamp) */\n      mload(0x40)\n      dup1\n      0x40\n      add\n      0x40\n      mstore\n      dup1\n        /* \"contracts/Treasury.sol\":2147:2154  _amount */\n      dup4\n        /* \"contracts/Treasury.sol\":2135:2171  DepositUser(_amount,block.timestamp) */\n      dup2\n      mstore\n      0x20\n      add\n        /* \"contracts/Treasury.sol\":2155:2170  block.timestamp */\n      timestamp\n        /* \"contracts/Treasury.sol\":2135:2171  DepositUser(_amount,block.timestamp) */\n      dup2\n      mstore\n      pop\n        /* \"contracts/Treasury.sol\":2093:2105  userDeposits */\n      0x02\n        /* \"contracts/Treasury.sol\":2093:2117  userDeposits[msg.sender] */\n      0x00\n        /* \"contracts/Treasury.sol\":2106:2116  msg.sender */\n      caller\n        /* \"contracts/Treasury.sol\":2093:2117  userDeposits[msg.sender] */\n      0xffffffffffffffffffffffffffffffffffffffff\n      and\n      0xffffffffffffffffffffffffffffffffffffffff\n      and\n      dup2\n      mstore\n      0x20\n      add\n      swap1\n      dup2\n      mstore\n      0x20\n      add\n      0x00\n      keccak256\n        /* \"contracts/Treasury.sol\":2093:2132  userDeposits[msg.sender][_tokenAddress] */\n      0x00\n        /* \"contracts/Treasury.sol\":2118:2131  _tokenAddress */\n      dup6\n        /* \"contracts/Treasury.sol\":2093:2132  userDeposits[msg.sender][_tokenAddress] */\n      0xffffffffffffffffffffffffffffffffffffffff\n      and\n      0xffffffffffffffffffffffffffffffffffffffff\n      and\n      dup2\n      mstore\n      0x20\n      add\n      swap1\n      dup2\n      mstore\n      0x20\n      add\n      0x00\n      keccak256\n        /* \"contracts/Treasury.sol\":2093:2171  userDeposits[msg.sender][_tokenAddress] = DepositUser(_amount,block.timestamp) */\n      0x00\n      dup3\n      add\n      mload\n      dup2\n      0x00\n      add\n      sstore\n      0x20\n      dup3\n      add\n      mload\n      dup2\n      0x01\n      add\n      sstore\n      swap1\n      pop\n      pop\n        /* \"contracts/Treasury.sol\":2182:2199  userDepositIndexs */\n      0x01\n        /* \"contracts/Treasury.sol\":2182:2211  userDepositIndexs[msg.sender] */\n      0x00\n        /* \"contracts/Treasury.sol\":2200:2210  msg.sender */\n      caller\n        /* \"contracts/Treasury.sol\":2182:2211  userDepositIndexs[msg.sender] */\n      0xffffffffffffffffffffffffffffffffffffffff\n      and\n      0xffffffffffffffffffffffffffffffffffffffff\n      and\n      dup2\n      mstore\n      0x20\n      add\n      swap1\n      dup2\n      mstore\n      0x20\n      add\n      0x00\n      keccak256\n      0x00\n        /* \"contracts/Treasury.sol\":2182:2213  userDepositIndexs[msg.sender]++ */\n      dup2\n      sload\n      dup1\n      swap3\n      swap2\n      swap1\n      tag_123\n      swap1\n      tag_108\n      jump\t// in\n    tag_123:\n      swap2\n      swap1\n      pop\n      sstore\n      pop\n        /* \"contracts/Treasury.sol\":2248:2261  _tokenAddress */\n      dup3\n        /* \"contracts/Treasury.sol\":2224:2231  TokensO */\n      0x05\n        /* \"contracts/Treasury.sol\":2224:2245  TokensO[indexTokensU] */\n      0x00\n        /* \"contracts/Treasury.sol\":2232:2244  indexTokensU */\n      sload(0x08)\n        /* \"contracts/Treasury.sol\":2224:2245  TokensO[indexTokensU] */\n      dup2\n      mstore\n      0x20\n      add\n      swap1\n      dup2\n      mstore\n      0x20\n      add\n      0x00\n      keccak256\n      0x00\n        /* \"contracts/Treasury.sol\":2224:2261  TokensO[indexTokensU] = _tokenAddress */\n      0x0100\n      exp\n      dup2\n      sload\n      dup2\n      0xffffffffffffffffffffffffffffffffffffffff\n      mul\n      not\n      and\n      swap1\n      dup4\n      0xffffffffffffffffffffffffffffffffffffffff\n      and\n      mul\n      or\n      swap1\n      sstore\n      pop\n        /* \"contracts/Treasury.sol\":2272:2284  indexTokensU */\n      0x08\n      0x00\n        /* \"contracts/Treasury.sol\":2272:2286  indexTokensU++ */\n      dup2\n      sload\n      dup1\n      swap3\n      swap2\n      swap1\n      tag_124\n      swap1\n      tag_108\n      jump\t// in\n    tag_124:\n      swap2\n      swap1\n      pop\n      sstore\n      pop\n        /* \"contracts/Treasury.sol\":1768:2294  {... */\n      pop\n        /* \"contracts/Treasury.sol\":1608:1613  false */\n      0x00\n        /* \"contracts/Treasury.sol\":1599:1605  locked */\n      dup1\n      0x14\n        /* \"contracts/Treasury.sol\":1599:1613  locked = false */\n      0x0100\n      exp\n      dup2\n      sload\n      dup2\n      0xff\n      mul\n      not\n      and\n      swap1\n      dup4\n      iszero\n      iszero\n      mul\n      or\n      swap1\n      sstore\n      pop\n        /* \"contracts/Treasury.sol\":1690:2294  function deposit(address _tokenAddress, uint256 _amount) external noReentrancy{... */\n      pop\n      pop\n      jump\t// out\n        /* \"contracts/Treasury.sol\":5083:5258  function getDepositTokens(address _tokenAddress,uint256 indexProtocol) external view returns (uint256) {... */\n    tag_46:\n        /* \"contracts/Treasury.sol\":5177:5184  uint256 */\n      0x00\n        /* \"contracts/Treasury.sol\":5213:5220  Invests */\n      0x04\n        /* \"contracts/Treasury.sol\":5213:5235  Invests[_tokenAddress] */\n      0x00\n        /* \"contracts/Treasury.sol\":5221:5234  _tokenAddress */\n      dup5\n        /* \"contracts/Treasury.sol\":5213:5235  Invests[_tokenAddress] */\n      0xffffffffffffffffffffffffffffffffffffffff\n      and\n      0xffffffffffffffffffffffffffffffffffffffff\n      and\n      dup2\n      mstore\n      0x20\n      add\n      swap1\n      dup2\n      mstore\n      0x20\n      add\n      0x00\n      keccak256\n        /* \"contracts/Treasury.sol\":5213:5250  Invests[_tokenAddress][indexProtocol] */\n      0x00\n        /* \"contracts/Treasury.sol\":5236:5249  indexProtocol */\n      dup4\n        /* \"contracts/Treasury.sol\":5213:5250  Invests[_tokenAddress][indexProtocol] */\n      dup2\n      mstore\n      0x20\n      add\n      swap1\n      dup2\n      mstore\n      0x20\n      add\n      0x00\n      keccak256\n      sload\n        /* \"contracts/Treasury.sol\":5206:5250  return Invests[_tokenAddress][indexProtocol] */\n      swap1\n      pop\n        /* \"contracts/Treasury.sol\":5083:5258  function getDepositTokens(address _tokenAddress,uint256 indexProtocol) external view returns (uint256) {... */\n      swap3\n      swap2\n      pop\n      pop\n      jump\t// out\n        /* \"contracts/Treasury.sol\":1251:1279  uint256 public protocolRatio */\n    tag_50:\n      sload(0x07)\n      dup2\n      jump\t// out\n        /* \"contracts/Treasury.sol\":4504:5076  function WithdrawFromProtocol(address _tokenAddress,uint256 amount,uint256 indexProtocol) external noReentrancy{... */\n    tag_55:\n        /* \"contracts/Treasury.sol\":1527:1533  locked */\n      0x00\n      0x14\n      swap1\n      sload\n      swap1\n      0x0100\n      exp\n      swap1\n      div\n      0xff\n      and\n        /* \"contracts/Treasury.sol\":1526:1533  !locked */\n      iszero\n        /* \"contracts/Treasury.sol\":1518:1552  require(!locked, \"Reentrant call\") */\n      tag_127\n      jumpi\n      mload(0x40)\n      0x08c379a000000000000000000000000000000000000000000000000000000000\n      dup2\n      mstore\n      0x04\n      add\n      tag_128\n      swap1\n      tag_112\n      jump\t// in\n    tag_128:\n      mload(0x40)\n      dup1\n      swap2\n      sub\n      swap1\n      revert\n    tag_127:\n        /* \"contracts/Treasury.sol\":1572:1576  true */\n      0x01\n        /* \"contracts/Treasury.sol\":1563:1569  locked */\n      0x00\n      0x14\n        /* \"contracts/Treasury.sol\":1563:1576  locked = true */\n      0x0100\n      exp\n      dup2\n      sload\n      dup2\n      0xff\n      mul\n      not\n      and\n      swap1\n      dup4\n      iszero\n      iszero\n      mul\n      or\n      swap1\n      sstore\n      pop\n        /* \"contracts/Treasury.sol\":4648:4653  owner */\n      0x00\n      dup1\n      sload\n      swap1\n      0x0100\n      exp\n      swap1\n      div\n      0xffffffffffffffffffffffffffffffffffffffff\n      and\n        /* \"contracts/Treasury.sol\":4634:4653  msg.sender == owner */\n      0xffffffffffffffffffffffffffffffffffffffff\n      and\n        /* \"contracts/Treasury.sol\":4634:4644  msg.sender */\n      caller\n        /* \"contracts/Treasury.sol\":4634:4653  msg.sender == owner */\n      0xffffffffffffffffffffffffffffffffffffffff\n      and\n      eq\n        /* \"contracts/Treasury.sol\":4626:4691  require(msg.sender == owner, \"Only the owner can allocate funds\") */\n      tag_130\n      jumpi\n      mload(0x40)\n      0x08c379a000000000000000000000000000000000000000000000000000000000\n      dup2\n      mstore\n      0x04\n      add\n      tag_131\n      swap1\n      tag_132\n      jump\t// in\n    tag_131:\n      mload(0x40)\n      dup1\n      swap2\n      sub\n      swap1\n      revert\n    tag_130:\n        /* \"contracts/Treasury.sol\":4702:4724  address GatewayAddress */\n      0x00\n        /* \"contracts/Treasury.sol\":4727:4746  ProtocolsInvestment */\n      0x03\n        /* \"contracts/Treasury.sol\":4727:4761  ProtocolsInvestment[indexProtocol] */\n      0x00\n        /* \"contracts/Treasury.sol\":4747:4760  indexProtocol */\n      dup4\n        /* \"contracts/Treasury.sol\":4727:4761  ProtocolsInvestment[indexProtocol] */\n      dup2\n      mstore\n      0x20\n      add\n      swap1\n      dup2\n      mstore\n      0x20\n      add\n      0x00\n      keccak256\n        /* \"contracts/Treasury.sol\":4727:4769  ProtocolsInvestment[indexProtocol].Gateway */\n      0x00\n      add\n      0x01\n      swap1\n      sload\n      swap1\n      0x0100\n      exp\n      swap1\n      div\n      0xffffffffffffffffffffffffffffffffffffffff\n      and\n        /* \"contracts/Treasury.sol\":4702:4769  address GatewayAddress = ProtocolsInvestment[indexProtocol].Gateway */\n      swap1\n      pop\n        /* \"contracts/Treasury.sol\":4892:4917  ProtocolType.DeFiProtocol */\n      0x01\n        /* \"contracts/Treasury.sol\":4849:4917  ProtocolsInvestment[indexProtocol].Type == ProtocolType.DeFiProtocol */\n      dup1\n      dup2\n      gt\n      iszero\n      tag_133\n      jumpi\n      tag_134\n      tag_135\n      jump\t// in\n    tag_134:\n    tag_133:\n        /* \"contracts/Treasury.sol\":4849:4868  ProtocolsInvestment */\n      0x03\n        /* \"contracts/Treasury.sol\":4849:4883  ProtocolsInvestment[indexProtocol] */\n      0x00\n        /* \"contracts/Treasury.sol\":4869:4882  indexProtocol */\n      dup5\n        /* \"contracts/Treasury.sol\":4849:4883  ProtocolsInvestment[indexProtocol] */\n      dup2\n      mstore\n      0x20\n      add\n      swap1\n      dup2\n      mstore\n      0x20\n      add\n      0x00\n      keccak256\n        /* \"contracts/Treasury.sol\":4849:4888  ProtocolsInvestment[indexProtocol].Type */\n      0x00\n      add\n      0x00\n      swap1\n      sload\n      swap1\n      0x0100\n      exp\n      swap1\n      div\n      0xff\n      and\n        /* \"contracts/Treasury.sol\":4849:4917  ProtocolsInvestment[indexProtocol].Type == ProtocolType.DeFiProtocol */\n      0x01\n      dup2\n      gt\n      iszero\n      tag_136\n      jumpi\n      tag_137\n      tag_135\n      jump\t// in\n    tag_137:\n    tag_136:\n      eq\n        /* \"contracts/Treasury.sol\":4846:5011  if(ProtocolsInvestment[indexProtocol].Type == ProtocolType.DeFiProtocol)... */\n      iszero\n      tag_138\n      jumpi\n        /* \"contracts/Treasury.sol\":4953:4967  GatewayAddress */\n      dup1\n        /* \"contracts/Treasury.sol\":4939:4977  IProtocolDEFI(GatewayAddress).withdraw */\n      0xffffffffffffffffffffffffffffffffffffffff\n      and\n      0xf3fef3a3\n        /* \"contracts/Treasury.sol\":4978:4991  _tokenAddress */\n      dup6\n        /* \"contracts/Treasury.sol\":4992:4998  amount */\n      dup6\n        /* \"contracts/Treasury.sol\":4939:4999  IProtocolDEFI(GatewayAddress).withdraw(_tokenAddress,amount) */\n      mload(0x40)\n      dup4\n      0xffffffff\n      and\n      0xe0\n      shl\n      dup2\n      mstore\n      0x04\n      add\n      tag_139\n      swap3\n      swap2\n      swap1\n      tag_140\n      jump\t// in\n    tag_139:\n      0x00\n      mload(0x40)\n      dup1\n      dup4\n      sub\n      dup2\n      0x00\n      dup8\n      dup1\n      extcodesize\n      iszero\n      dup1\n      iszero\n      tag_141\n      jumpi\n      0x00\n      dup1\n      revert\n    tag_141:\n      pop\n      gas\n      call\n      iszero\n      dup1\n      iszero\n      tag_143\n      jumpi\n      returndatasize\n      0x00\n      dup1\n      returndatacopy\n      revert(0x00, returndatasize)\n    tag_143:\n      pop\n      pop\n      pop\n      pop\n        /* \"contracts/Treasury.sol\":4846:5011  if(ProtocolsInvestment[indexProtocol].Type == ProtocolType.DeFiProtocol)... */\n    tag_138:\n        /* \"contracts/Treasury.sol\":5062:5068  amount */\n      dup3\n        /* \"contracts/Treasury.sol\":5021:5028  Invests */\n      0x04\n        /* \"contracts/Treasury.sol\":5021:5043  Invests[_tokenAddress] */\n      0x00\n        /* \"contracts/Treasury.sol\":5029:5042  _tokenAddress */\n      dup7\n        /* \"contracts/Treasury.sol\":5021:5043  Invests[_tokenAddress] */\n      0xffffffffffffffffffffffffffffffffffffffff\n      and\n      0xffffffffffffffffffffffffffffffffffffffff\n      and\n      dup2\n      mstore\n      0x20\n      add\n      swap1\n      dup2\n      mstore\n      0x20\n      add\n      0x00\n      keccak256\n        /* \"contracts/Treasury.sol\":5021:5058  Invests[_tokenAddress][indexProtocol] */\n      0x00\n        /* \"contracts/Treasury.sol\":5044:5057  indexProtocol */\n      dup5\n        /* \"contracts/Treasury.sol\":5021:5058  Invests[_tokenAddress][indexProtocol] */\n      dup2\n      mstore\n      0x20\n      add\n      swap1\n      dup2\n      mstore\n      0x20\n      add\n      0x00\n      keccak256\n      0x00\n        /* \"contracts/Treasury.sol\":5021:5068  Invests[_tokenAddress][indexProtocol] -= amount */\n      dup3\n      dup3\n      sload\n      tag_144\n      swap2\n      swap1\n      tag_145\n      jump\t// in\n    tag_144:\n      swap3\n      pop\n      pop\n      dup2\n      swap1\n      sstore\n      pop\n        /* \"contracts/Treasury.sol\":4615:5076  {... */\n      pop\n        /* \"contracts/Treasury.sol\":1608:1613  false */\n      0x00\n        /* \"contracts/Treasury.sol\":1599:1605  locked */\n      dup1\n      0x14\n        /* \"contracts/Treasury.sol\":1599:1613  locked = false */\n      0x0100\n      exp\n      dup2\n      sload\n      dup2\n      0xff\n      mul\n      not\n      and\n      swap1\n      dup4\n      iszero\n      iszero\n      mul\n      or\n      swap1\n      sstore\n      pop\n        /* \"contracts/Treasury.sol\":4504:5076  function WithdrawFromProtocol(address _tokenAddress,uint256 amount,uint256 indexProtocol) external noReentrancy{... */\n      pop\n      pop\n      pop\n      jump\t// out\n        /* \"contracts/Treasury.sol\":3714:4498  function allocateFundsInvest(address _tokenAddress,uint256 indexProtocol) external noReentrancy{... */\n    tag_58:\n        /* \"contracts/Treasury.sol\":1527:1533  locked */\n      0x00\n      0x14\n      swap1\n      sload\n      swap1\n      0x0100\n      exp\n      swap1\n      div\n      0xff\n      and\n        /* \"contracts/Treasury.sol\":1526:1533  !locked */\n      iszero\n        /* \"contracts/Treasury.sol\":1518:1552  require(!locked, \"Reentrant call\") */\n      tag_147\n      jumpi\n      mload(0x40)\n      0x08c379a000000000000000000000000000000000000000000000000000000000\n      dup2\n      mstore\n      0x04\n      add\n      tag_148\n      swap1\n      tag_112\n      jump\t// in\n    tag_148:\n      mload(0x40)\n      dup1\n      swap2\n      sub\n      swap1\n      revert\n    tag_147:\n        /* \"contracts/Treasury.sol\":1572:1576  true */\n      0x01\n        /* \"contracts/Treasury.sol\":1563:1569  locked */\n      0x00\n      0x14\n        /* \"contracts/Treasury.sol\":1563:1576  locked = true */\n      0x0100\n      exp\n      dup2\n      sload\n      dup2\n      0xff\n      mul\n      not\n      and\n      swap1\n      dup4\n      iszero\n      iszero\n      mul\n      or\n      swap1\n      sstore\n      pop\n        /* \"contracts/Treasury.sol\":3842:3847  owner */\n      0x00\n      dup1\n      sload\n      swap1\n      0x0100\n      exp\n      swap1\n      div\n      0xffffffffffffffffffffffffffffffffffffffff\n      and\n        /* \"contracts/Treasury.sol\":3828:3847  msg.sender == owner */\n      0xffffffffffffffffffffffffffffffffffffffff\n      and\n        /* \"contracts/Treasury.sol\":3828:3838  msg.sender */\n      caller\n        /* \"contracts/Treasury.sol\":3828:3847  msg.sender == owner */\n      0xffffffffffffffffffffffffffffffffffffffff\n      and\n      eq\n        /* \"contracts/Treasury.sol\":3820:3885  require(msg.sender == owner, \"Only the owner can allocate funds\") */\n      tag_150\n      jumpi\n      mload(0x40)\n      0x08c379a000000000000000000000000000000000000000000000000000000000\n      dup2\n      mstore\n      0x04\n      add\n      tag_151\n      swap1\n      tag_132\n      jump\t// in\n    tag_151:\n      mload(0x40)\n      dup1\n      swap2\n      sub\n      swap1\n      revert\n    tag_150:\n        /* \"contracts/Treasury.sol\":3896:3916  uint256 tokenBalance */\n      0x00\n        /* \"contracts/Treasury.sol\":3926:3939  _tokenAddress */\n      dup3\n        /* \"contracts/Treasury.sol\":3919:3950  IERC20(_tokenAddress).balanceOf */\n      0xffffffffffffffffffffffffffffffffffffffff\n      and\n      0x70a08231\n        /* \"contracts/Treasury.sol\":3959:3963  this */\n      address\n        /* \"contracts/Treasury.sol\":3919:3965  IERC20(_tokenAddress).balanceOf(address(this)) */\n      mload(0x40)\n      dup3\n      0xffffffff\n      and\n      0xe0\n      shl\n      dup2\n      mstore\n      0x04\n      add\n      tag_152\n      swap2\n      swap1\n      tag_71\n      jump\t// in\n    tag_152:\n      0x20\n      mload(0x40)\n      dup1\n      dup4\n      sub\n      dup2\n      dup7\n      gas\n      staticcall\n      iszero\n      dup1\n      iszero\n      tag_154\n      jumpi\n      returndatasize\n      0x00\n      dup1\n      returndatacopy\n      revert(0x00, returndatasize)\n    tag_154:\n      pop\n      pop\n      pop\n      pop\n      mload(0x40)\n      returndatasize\n      not(0x1f)\n      0x1f\n      dup3\n      add\n      and\n      dup3\n      add\n      dup1\n      0x40\n      mstore\n      pop\n      dup2\n      add\n      swap1\n      tag_155\n      swap2\n      swap1\n      tag_156\n      jump\t// in\n    tag_155:\n        /* \"contracts/Treasury.sol\":3896:3965  uint256 tokenBalance = IERC20(_tokenAddress).balanceOf(address(this)) */\n      swap1\n      pop\n        /* \"contracts/Treasury.sol\":3976:3998  uint256 protocolAmount */\n      0x00\n        /* \"contracts/Treasury.sol\":4034:4037  100 */\n      0x64\n        /* \"contracts/Treasury.sol\":4017:4030  protocolRatio */\n      sload(0x07)\n        /* \"contracts/Treasury.sol\":4002:4014  tokenBalance */\n      dup4\n        /* \"contracts/Treasury.sol\":4002:4030  tokenBalance * protocolRatio */\n      tag_157\n      swap2\n      swap1\n      tag_158\n      jump\t// in\n    tag_157:\n        /* \"contracts/Treasury.sol\":4001:4037  (tokenBalance * protocolRatio) / 100 */\n      tag_159\n      swap2\n      swap1\n      tag_160\n      jump\t// in\n    tag_159:\n        /* \"contracts/Treasury.sol\":3976:4037  uint256 protocolAmount = (tokenBalance * protocolRatio) / 100 */\n      swap1\n      pop\n        /* \"contracts/Treasury.sol\":4048:4070  address GatewayAddress */\n      0x00\n        /* \"contracts/Treasury.sol\":4073:4092  ProtocolsInvestment */\n      0x03\n        /* \"contracts/Treasury.sol\":4073:4107  ProtocolsInvestment[indexProtocol] */\n      0x00\n        /* \"contracts/Treasury.sol\":4093:4106  indexProtocol */\n      dup6\n        /* \"contracts/Treasury.sol\":4073:4107  ProtocolsInvestment[indexProtocol] */\n      dup2\n      mstore\n      0x20\n      add\n      swap1\n      dup2\n      mstore\n      0x20\n      add\n      0x00\n      keccak256\n        /* \"contracts/Treasury.sol\":4073:4115  ProtocolsInvestment[indexProtocol].Gateway */\n      0x00\n      add\n      0x01\n      swap1\n      sload\n      swap1\n      0x0100\n      exp\n      swap1\n      div\n      0xffffffffffffffffffffffffffffffffffffffff\n      and\n        /* \"contracts/Treasury.sol\":4048:4115  address GatewayAddress = ProtocolsInvestment[indexProtocol].Gateway */\n      swap1\n      pop\n        /* \"contracts/Treasury.sol\":4199:4212  _tokenAddress */\n      dup5\n        /* \"contracts/Treasury.sol\":4192:4222  IERC20(_tokenAddress).transfer */\n      0xffffffffffffffffffffffffffffffffffffffff\n      and\n      0xa9059cbb\n        /* \"contracts/Treasury.sol\":4223:4237  GatewayAddress */\n      dup3\n        /* \"contracts/Treasury.sol\":4239:4253  protocolAmount */\n      dup5\n        /* \"contracts/Treasury.sol\":4192:4254  IERC20(_tokenAddress).transfer(GatewayAddress, protocolAmount) */\n      mload(0x40)\n      dup4\n      0xffffffff\n      and\n      0xe0\n      shl\n      dup2\n      mstore\n      0x04\n      add\n      tag_161\n      swap3\n      swap2\n      swap1\n      tag_140\n      jump\t// in\n    tag_161:\n      0x20\n      mload(0x40)\n      dup1\n      dup4\n      sub\n      dup2\n      0x00\n      dup8\n      gas\n      call\n      iszero\n      dup1\n      iszero\n      tag_163\n      jumpi\n      returndatasize\n      0x00\n      dup1\n      returndatacopy\n      revert(0x00, returndatasize)\n    tag_163:\n      pop\n      pop\n      pop\n      pop\n      mload(0x40)\n      returndatasize\n      not(0x1f)\n      0x1f\n      dup3\n      add\n      and\n      dup3\n      add\n      dup1\n      0x40\n      mstore\n      pop\n      dup2\n      add\n      swap1\n      tag_164\n      swap2\n      swap1\n      tag_122\n      jump\t// in\n    tag_164:\n      pop\n        /* \"contracts/Treasury.sol\":4312:4337  ProtocolType.DeFiProtocol */\n      0x01\n        /* \"contracts/Treasury.sol\":4269:4337  ProtocolsInvestment[indexProtocol].Type == ProtocolType.DeFiProtocol */\n      dup1\n      dup2\n      gt\n      iszero\n      tag_165\n      jumpi\n      tag_166\n      tag_135\n      jump\t// in\n    tag_166:\n    tag_165:\n        /* \"contracts/Treasury.sol\":4269:4288  ProtocolsInvestment */\n      0x03\n        /* \"contracts/Treasury.sol\":4269:4303  ProtocolsInvestment[indexProtocol] */\n      0x00\n        /* \"contracts/Treasury.sol\":4289:4302  indexProtocol */\n      dup7\n        /* \"contracts/Treasury.sol\":4269:4303  ProtocolsInvestment[indexProtocol] */\n      dup2\n      mstore\n      0x20\n      add\n      swap1\n      dup2\n      mstore\n      0x20\n      add\n      0x00\n      keccak256\n        /* \"contracts/Treasury.sol\":4269:4308  ProtocolsInvestment[indexProtocol].Type */\n      0x00\n      add\n      0x00\n      swap1\n      sload\n      swap1\n      0x0100\n      exp\n      swap1\n      div\n      0xff\n      and\n        /* \"contracts/Treasury.sol\":4269:4337  ProtocolsInvestment[indexProtocol].Type == ProtocolType.DeFiProtocol */\n      0x01\n      dup2\n      gt\n      iszero\n      tag_167\n      jumpi\n      tag_168\n      tag_135\n      jump\t// in\n    tag_168:\n    tag_167:\n      eq\n        /* \"contracts/Treasury.sol\":4266:4423  if(ProtocolsInvestment[indexProtocol].Type == ProtocolType.DeFiProtocol)... */\n      iszero\n      tag_169\n      jumpi\n        /* \"contracts/Treasury.sol\":4373:4387  GatewayAddress */\n      dup1\n        /* \"contracts/Treasury.sol\":4359:4396  IProtocolDEFI(GatewayAddress).deposit */\n      0xffffffffffffffffffffffffffffffffffffffff\n      and\n      0xf340fa01\n        /* \"contracts/Treasury.sol\":4397:4410  _tokenAddress */\n      dup7\n        /* \"contracts/Treasury.sol\":4359:4411  IProtocolDEFI(GatewayAddress).deposit(_tokenAddress) */\n      mload(0x40)\n      dup3\n      0xffffffff\n      and\n      0xe0\n      shl\n      dup2\n      mstore\n      0x04\n      add\n      tag_170\n      swap2\n      swap1\n      tag_71\n      jump\t// in\n    tag_170:\n      0x00\n      mload(0x40)\n      dup1\n      dup4\n      sub\n      dup2\n      0x00\n      dup8\n      dup1\n      extcodesize\n      iszero\n      dup1\n      iszero\n      tag_171\n      jumpi\n      0x00\n      dup1\n      revert\n    tag_171:\n      pop\n      gas\n      call\n      iszero\n      dup1\n      iszero\n      tag_173\n      jumpi\n      returndatasize\n      0x00\n      dup1\n      returndatacopy\n      revert(0x00, returndatasize)\n    tag_173:\n      pop\n      pop\n      pop\n      pop\n        /* \"contracts/Treasury.sol\":4266:4423  if(ProtocolsInvestment[indexProtocol].Type == ProtocolType.DeFiProtocol)... */\n    tag_169:\n        /* \"contracts/Treasury.sol\":4474:4488  protocolAmount */\n      dup2\n        /* \"contracts/Treasury.sol\":4433:4440  Invests */\n      0x04\n        /* \"contracts/Treasury.sol\":4433:4455  Invests[_tokenAddress] */\n      0x00\n        /* \"contracts/Treasury.sol\":4441:4454  _tokenAddress */\n      dup8\n        /* \"contracts/Treasury.sol\":4433:4455  Invests[_tokenAddress] */\n      0xffffffffffffffffffffffffffffffffffffffff\n      and\n      0xffffffffffffffffffffffffffffffffffffffff\n      and\n      dup2\n      mstore\n      0x20\n      add\n      swap1\n      dup2\n      mstore\n      0x20\n      add\n      0x00\n      keccak256\n        /* \"contracts/Treasury.sol\":4433:4470  Invests[_tokenAddress][indexProtocol] */\n      0x00\n        /* \"contracts/Treasury.sol\":4456:4469  indexProtocol */\n      dup7\n        /* \"contracts/Treasury.sol\":4433:4470  Invests[_tokenAddress][indexProtocol] */\n      dup2\n      mstore\n      0x20\n      add\n      swap1\n      dup2\n      mstore\n      0x20\n      add\n      0x00\n      keccak256\n      0x00\n        /* \"contracts/Treasury.sol\":4433:4488  Invests[_tokenAddress][indexProtocol] += protocolAmount */\n      dup3\n      dup3\n      sload\n      tag_174\n      swap2\n      swap1\n      tag_175\n      jump\t// in\n    tag_174:\n      swap3\n      pop\n      pop\n      dup2\n      swap1\n      sstore\n      pop\n        /* \"contracts/Treasury.sol\":3809:4498  {... */\n      pop\n      pop\n      pop\n        /* \"contracts/Treasury.sol\":1608:1613  false */\n      0x00\n        /* \"contracts/Treasury.sol\":1599:1605  locked */\n      dup1\n      0x14\n        /* \"contracts/Treasury.sol\":1599:1613  locked = false */\n      0x0100\n      exp\n      dup2\n      sload\n      dup2\n      0xff\n      mul\n      not\n      and\n      swap1\n      dup4\n      iszero\n      iszero\n      mul\n      or\n      swap1\n      sstore\n      pop\n        /* \"contracts/Treasury.sol\":3714:4498  function allocateFundsInvest(address _tokenAddress,uint256 indexProtocol) external noReentrancy{... */\n      pop\n      pop\n      jump\t// out\n        /* \"contracts/Treasury.sol\":3381:3611  function AddingProtocol(Protocol calldata _protocol) external {... */\n    tag_62:\n        /* \"contracts/Treasury.sol\":3476:3481  owner */\n      0x00\n      dup1\n      sload\n      swap1\n      0x0100\n      exp\n      swap1\n      div\n      0xffffffffffffffffffffffffffffffffffffffff\n      and\n        /* \"contracts/Treasury.sol\":3462:3481  msg.sender == owner */\n      0xffffffffffffffffffffffffffffffffffffffff\n      and\n        /* \"contracts/Treasury.sol\":3462:3472  msg.sender */\n      caller\n        /* \"contracts/Treasury.sol\":3462:3481  msg.sender == owner */\n      0xffffffffffffffffffffffffffffffffffffffff\n      and\n      eq\n        /* \"contracts/Treasury.sol\":3454:3518  require(msg.sender == owner, \"Only the owner can adjust ratios\") */\n      tag_177\n      jumpi\n      mload(0x40)\n      0x08c379a000000000000000000000000000000000000000000000000000000000\n      dup2\n      mstore\n      0x04\n      add\n      tag_178\n      swap1\n      tag_86\n      jump\t// in\n    tag_178:\n      mload(0x40)\n      dup1\n      swap2\n      sub\n      swap1\n      revert\n    tag_177:\n        /* \"contracts/Treasury.sol\":3567:3576  _protocol */\n      dup1\n        /* \"contracts/Treasury.sol\":3529:3548  ProtocolsInvestment */\n      0x03\n        /* \"contracts/Treasury.sol\":3529:3564  ProtocolsInvestment[protocolsIndex] */\n      0x00\n        /* \"contracts/Treasury.sol\":3549:3563  protocolsIndex */\n      sload(0x06)\n        /* \"contracts/Treasury.sol\":3529:3564  ProtocolsInvestment[protocolsIndex] */\n      dup2\n      mstore\n      0x20\n      add\n      swap1\n      dup2\n      mstore\n      0x20\n      add\n      0x00\n      keccak256\n        /* \"contracts/Treasury.sol\":3529:3576  ProtocolsInvestment[protocolsIndex] = _protocol */\n      dup2\n      dup2\n      tag_179\n      swap2\n      swap1\n      tag_180\n      jump\t// in\n    tag_179:\n      swap1\n      pop\n      pop\n        /* \"contracts/Treasury.sol\":3587:3601  protocolsIndex */\n      0x06\n      0x00\n        /* \"contracts/Treasury.sol\":3587:3603  protocolsIndex++ */\n      dup2\n      sload\n      dup1\n      swap3\n      swap2\n      swap1\n      tag_181\n      swap1\n      tag_108\n      jump\t// in\n    tag_181:\n      swap2\n      swap1\n      pop\n      sstore\n      pop\n        /* \"contracts/Treasury.sol\":3381:3611  function AddingProtocol(Protocol calldata _protocol) external {... */\n      pop\n      jump\t// out\n        /* \"contracts/Treasury.sol\":856:908  mapping(address => uint256) public userDepositIndexs */\n    tag_66:\n      mstore(0x20, 0x01)\n      dup1\n      0x00\n      mstore\n      keccak256(0x00, 0x40)\n      0x00\n      swap2\n      pop\n      swap1\n      pop\n      sload\n      dup2\n      jump\t// out\n        /* \"contracts/Treasury.sol\":347:367  address public owner */\n    tag_69:\n      0x00\n      dup1\n      sload\n      swap1\n      0x0100\n      exp\n      swap1\n      div\n      0xffffffffffffffffffffffffffffffffffffffff\n      and\n      dup2\n      jump\t// out\n        /* \"contracts/Treasury.sol\":1098:1157  mapping(address => mapping(uint => uint256)) public Invests */\n    tag_74:\n      mstore(0x20, 0x04)\n      dup2\n      0x00\n      mstore\n      mstore(0x20, keccak256(0x00, 0x40))\n      dup1\n      0x00\n      mstore\n      keccak256(0x00, 0x40)\n      0x00\n      swap2\n      pop\n      swap2\n      pop\n      pop\n      sload\n      dup2\n      jump\t// out\n        /* \"contracts/Treasury.sol\":374:392  bool public locked */\n    tag_77:\n      0x00\n      0x14\n      swap1\n      sload\n      swap1\n      0x0100\n      exp\n      swap1\n      div\n      0xff\n      and\n      dup2\n      jump\t// out\n        /* \"contracts/Treasury.sol\":2393:3122  function withdraw(address _tokenAddress, uint256 _amount) external noReentrancy{... */\n    tag_82:\n        /* \"contracts/Treasury.sol\":1527:1533  locked */\n      0x00\n      0x14\n      swap1\n      sload\n      swap1\n      0x0100\n      exp\n      swap1\n      div\n      0xff\n      and\n        /* \"contracts/Treasury.sol\":1526:1533  !locked */\n      iszero\n        /* \"contracts/Treasury.sol\":1518:1552  require(!locked, \"Reentrant call\") */\n      tag_183\n      jumpi\n      mload(0x40)\n      0x08c379a000000000000000000000000000000000000000000000000000000000\n      dup2\n      mstore\n      0x04\n      add\n      tag_184\n      swap1\n      tag_112\n      jump\t// in\n    tag_184:\n      mload(0x40)\n      dup1\n      swap2\n      sub\n      swap1\n      revert\n    tag_183:\n        /* \"contracts/Treasury.sol\":1572:1576  true */\n      0x01\n        /* \"contracts/Treasury.sol\":1563:1569  locked */\n      0x00\n      0x14\n        /* \"contracts/Treasury.sol\":1563:1576  locked = true */\n      0x0100\n      exp\n      dup2\n      sload\n      dup2\n      0xff\n      mul\n      not\n      and\n      swap1\n      dup4\n      iszero\n      iszero\n      mul\n      or\n      swap1\n      sstore\n      pop\n        /* \"contracts/Treasury.sol\":2501:2502  0 */\n      0x00\n        /* \"contracts/Treasury.sol\":2491:2498  _amount */\n      dup2\n        /* \"contracts/Treasury.sol\":2491:2502  _amount > 0 */\n      gt\n        /* \"contracts/Treasury.sol\":2483:2536  require(_amount > 0, \"Amount must be greater than 0\") */\n      tag_186\n      jumpi\n      mload(0x40)\n      0x08c379a000000000000000000000000000000000000000000000000000000000\n      dup2\n      mstore\n      0x04\n      add\n      tag_187\n      swap1\n      tag_116\n      jump\t// in\n    tag_187:\n      mload(0x40)\n      dup1\n      swap2\n      sub\n      swap1\n      revert\n    tag_186:\n        /* \"contracts/Treasury.sol\":2557:2588  DepositUser storage userDeposit */\n      0x00\n        /* \"contracts/Treasury.sol\":2591:2603  userDeposits */\n      0x02\n        /* \"contracts/Treasury.sol\":2591:2615  userDeposits[msg.sender] */\n      0x00\n        /* \"contracts/Treasury.sol\":2604:2614  msg.sender */\n      caller\n        /* \"contracts/Treasury.sol\":2591:2615  userDeposits[msg.sender] */\n      0xffffffffffffffffffffffffffffffffffffffff\n      and\n      0xffffffffffffffffffffffffffffffffffffffff\n      and\n      dup2\n      mstore\n      0x20\n      add\n      swap1\n      dup2\n      mstore\n      0x20\n      add\n      0x00\n      keccak256\n        /* \"contracts/Treasury.sol\":2591:2630  userDeposits[msg.sender][_tokenAddress] */\n      0x00\n        /* \"contracts/Treasury.sol\":2616:2629  _tokenAddress */\n      dup5\n        /* \"contracts/Treasury.sol\":2591:2630  userDeposits[msg.sender][_tokenAddress] */\n      0xffffffffffffffffffffffffffffffffffffffff\n      and\n      0xffffffffffffffffffffffffffffffffffffffff\n      and\n      dup2\n      mstore\n      0x20\n      add\n      swap1\n      dup2\n      mstore\n      0x20\n      add\n      0x00\n      keccak256\n        /* \"contracts/Treasury.sol\":2557:2630  DepositUser storage userDeposit = userDeposits[msg.sender][_tokenAddress] */\n      swap1\n      pop\n        /* \"contracts/Treasury.sol\":2688:2695  _amount */\n      dup2\n        /* \"contracts/Treasury.sol\":2659:2670  userDeposit */\n      dup2\n        /* \"contracts/Treasury.sol\":2659:2684  userDeposit.depositAmount */\n      0x00\n      add\n      sload\n        /* \"contracts/Treasury.sol\":2659:2695  userDeposit.depositAmount >= _amount */\n      lt\n      iszero\n        /* \"contracts/Treasury.sol\":2651:2724  require(userDeposit.depositAmount >= _amount, \"Exceeds deposited amount\") */\n      tag_188\n      jumpi\n      mload(0x40)\n      0x08c379a000000000000000000000000000000000000000000000000000000000\n      dup2\n      mstore\n      0x04\n      add\n      tag_189\n      swap1\n      tag_190\n      jump\t// in\n    tag_189:\n      mload(0x40)\n      dup1\n      swap2\n      sub\n      swap1\n      revert\n    tag_188:\n        /* \"contracts/Treasury.sol\":2960:2967  _amount */\n      dup2\n        /* \"contracts/Treasury.sol\":2931:2942  userDeposit */\n      dup2\n        /* \"contracts/Treasury.sol\":2931:2956  userDeposit.depositAmount */\n      0x00\n      add\n      0x00\n        /* \"contracts/Treasury.sol\":2931:2967  userDeposit.depositAmount -= _amount */\n      dup3\n      dup3\n      sload\n      tag_191\n      swap2\n      swap1\n      tag_145\n      jump\t// in\n    tag_191:\n      swap3\n      pop\n      pop\n      dup2\n      swap1\n      sstore\n      pop\n        /* \"contracts/Treasury.sol\":3011:3012  0 */\n      0x00\n        /* \"contracts/Treasury.sol\":2982:2993  userDeposit */\n      dup2\n        /* \"contracts/Treasury.sol\":2982:3007  userDeposit.depositAmount */\n      0x00\n      add\n      sload\n        /* \"contracts/Treasury.sol\":2982:3012  userDeposit.depositAmount == 0 */\n      eq\n        /* \"contracts/Treasury.sol\":2978:3115  if (userDeposit.depositAmount == 0)... */\n      iszero\n      tag_192\n      jumpi\n        /* \"contracts/Treasury.sol\":3101:3102  1 */\n      0x01\n        /* \"contracts/Treasury.sol\":3070:3087  userDepositIndexs */\n      dup1\n        /* \"contracts/Treasury.sol\":3070:3099  userDepositIndexs[msg.sender] */\n      0x00\n        /* \"contracts/Treasury.sol\":3088:3098  msg.sender */\n      caller\n        /* \"contracts/Treasury.sol\":3070:3099  userDepositIndexs[msg.sender] */\n      0xffffffffffffffffffffffffffffffffffffffff\n      and\n      0xffffffffffffffffffffffffffffffffffffffff\n      and\n      dup2\n      mstore\n      0x20\n      add\n      swap1\n      dup2\n      mstore\n      0x20\n      add\n      0x00\n      keccak256\n      sload\n        /* \"contracts/Treasury.sol\":3070:3102  userDepositIndexs[msg.sender] -1 */\n      tag_193\n      swap2\n      swap1\n      tag_145\n      jump\t// in\n    tag_193:\n        /* \"contracts/Treasury.sol\":3038:3055  userDepositIndexs */\n      0x01\n        /* \"contracts/Treasury.sol\":3038:3067  userDepositIndexs[msg.sender] */\n      0x00\n        /* \"contracts/Treasury.sol\":3056:3066  msg.sender */\n      caller\n        /* \"contracts/Treasury.sol\":3038:3067  userDepositIndexs[msg.sender] */\n      0xffffffffffffffffffffffffffffffffffffffff\n      and\n      0xffffffffffffffffffffffffffffffffffffffff\n      and\n      dup2\n      mstore\n      0x20\n      add\n      swap1\n      dup2\n      mstore\n      0x20\n      add\n      0x00\n      keccak256\n        /* \"contracts/Treasury.sol\":3038:3102  userDepositIndexs[msg.sender] = userDepositIndexs[msg.sender] -1 */\n      dup2\n      swap1\n      sstore\n      pop\n        /* \"contracts/Treasury.sol\":2978:3115  if (userDeposit.depositAmount == 0)... */\n    tag_192:\n        /* \"contracts/Treasury.sol\":2472:3122  {... */\n      pop\n        /* \"contracts/Treasury.sol\":1608:1613  false */\n      0x00\n        /* \"contracts/Treasury.sol\":1599:1605  locked */\n      dup1\n      0x14\n        /* \"contracts/Treasury.sol\":1599:1613  locked = false */\n      0x0100\n      exp\n      dup2\n      sload\n      dup2\n      0xff\n      mul\n      not\n      and\n      swap1\n      dup4\n      iszero\n      iszero\n      mul\n      or\n      swap1\n      sstore\n      pop\n        /* \"contracts/Treasury.sol\":2393:3122  function withdraw(address _tokenAddress, uint256 _amount) external noReentrancy{... */\n      pop\n      pop\n      jump\t// out\n        /* \"#utility.yul\":88:205   */\n    tag_195:\n        /* \"#utility.yul\":197:198   */\n      0x00\n        /* \"#utility.yul\":194:195   */\n      dup1\n        /* \"#utility.yul\":187:199   */\n      revert\n        /* \"#utility.yul\":211:328   */\n    tag_196:\n        /* \"#utility.yul\":320:321   */\n      0x00\n        /* \"#utility.yul\":317:318   */\n      dup1\n        /* \"#utility.yul\":310:322   */\n      revert\n        /* \"#utility.yul\":334:411   */\n    tag_197:\n        /* \"#utility.yul\":371:378   */\n      0x00\n        /* \"#utility.yul\":400:405   */\n      dup2\n        /* \"#utility.yul\":389:405   */\n      swap1\n      pop\n        /* \"#utility.yul\":334:411   */\n      swap2\n      swap1\n      pop\n      jump\t// out\n        /* \"#utility.yul\":417:539   */\n    tag_198:\n        /* \"#utility.yul\":490:514   */\n      tag_289\n        /* \"#utility.yul\":508:513   */\n      dup2\n        /* \"#utility.yul\":490:514   */\n      tag_197\n      jump\t// in\n    tag_289:\n        /* \"#utility.yul\":483:488   */\n      dup2\n        /* \"#utility.yul\":480:515   */\n      eq\n        /* \"#utility.yul\":470:533   */\n      tag_290\n      jumpi\n        /* \"#utility.yul\":529:530   */\n      0x00\n        /* \"#utility.yul\":526:527   */\n      dup1\n        /* \"#utility.yul\":519:531   */\n      revert\n        /* \"#utility.yul\":470:533   */\n    tag_290:\n        /* \"#utility.yul\":417:539   */\n      pop\n      jump\t// out\n        /* \"#utility.yul\":545:684   */\n    tag_199:\n        /* \"#utility.yul\":591:596   */\n      0x00\n        /* \"#utility.yul\":629:635   */\n      dup2\n        /* \"#utility.yul\":616:636   */\n      calldataload\n        /* \"#utility.yul\":607:636   */\n      swap1\n      pop\n        /* \"#utility.yul\":645:678   */\n      tag_292\n        /* \"#utility.yul\":672:677   */\n      dup2\n        /* \"#utility.yul\":645:678   */\n      tag_198\n      jump\t// in\n    tag_292:\n        /* \"#utility.yul\":545:684   */\n      swap3\n      swap2\n      pop\n      pop\n      jump\t// out\n        /* \"#utility.yul\":690:1019   */\n    tag_23:\n        /* \"#utility.yul\":749:755   */\n      0x00\n        /* \"#utility.yul\":798:800   */\n      0x20\n        /* \"#utility.yul\":786:795   */\n      dup3\n        /* \"#utility.yul\":777:784   */\n      dup5\n        /* \"#utility.yul\":773:796   */\n      sub\n        /* \"#utility.yul\":769:801   */\n      slt\n        /* \"#utility.yul\":766:885   */\n      iszero\n      tag_294\n      jumpi\n        /* \"#utility.yul\":804:883   */\n      tag_295\n      tag_195\n      jump\t// in\n    tag_295:\n        /* \"#utility.yul\":766:885   */\n    tag_294:\n        /* \"#utility.yul\":924:925   */\n      0x00\n        /* \"#utility.yul\":949:1002   */\n      tag_296\n        /* \"#utility.yul\":994:1001   */\n      dup5\n        /* \"#utility.yul\":985:991   */\n      dup3\n        /* \"#utility.yul\":974:983   */\n      dup6\n        /* \"#utility.yul\":970:992   */\n      add\n        /* \"#utility.yul\":949:1002   */\n      tag_199\n      jump\t// in\n    tag_296:\n        /* \"#utility.yul\":939:1002   */\n      swap2\n      pop\n        /* \"#utility.yul\":895:1012   */\n      pop\n        /* \"#utility.yul\":690:1019   */\n      swap3\n      swap2\n      pop\n      pop\n      jump\t// out\n        /* \"#utility.yul\":1025:1205   */\n    tag_135:\n        /* \"#utility.yul\":1073:1150   */\n      0x4e487b7100000000000000000000000000000000000000000000000000000000\n        /* \"#utility.yul\":1070:1071   */\n      0x00\n        /* \"#utility.yul\":1063:1151   */\n      mstore\n        /* \"#utility.yul\":1170:1174   */\n      0x21\n        /* \"#utility.yul\":1167:1168   */\n      0x04\n        /* \"#utility.yul\":1160:1175   */\n      mstore\n        /* \"#utility.yul\":1194:1198   */\n      0x24\n        /* \"#utility.yul\":1191:1192   */\n      0x00\n        /* \"#utility.yul\":1184:1199   */\n      revert\n        /* \"#utility.yul\":1211:1332   */\n    tag_200:\n        /* \"#utility.yul\":1300:1301   */\n      0x02\n        /* \"#utility.yul\":1293:1298   */\n      dup2\n        /* \"#utility.yul\":1290:1302   */\n      lt\n        /* \"#utility.yul\":1280:1326   */\n      tag_299\n      jumpi\n        /* \"#utility.yul\":1306:1324   */\n      tag_300\n      tag_135\n      jump\t// in\n    tag_300:\n        /* \"#utility.yul\":1280:1326   */\n    tag_299:\n        /* \"#utility.yul\":1211:1332   */\n      pop\n      jump\t// out\n        /* \"#utility.yul\":1338:1481   */\n    tag_201:\n        /* \"#utility.yul\":1391:1398   */\n      0x00\n        /* \"#utility.yul\":1420:1425   */\n      dup2\n        /* \"#utility.yul\":1409:1425   */\n      swap1\n      pop\n        /* \"#utility.yul\":1426:1475   */\n      tag_302\n        /* \"#utility.yul\":1469:1474   */\n      dup3\n        /* \"#utility.yul\":1426:1475   */\n      tag_200\n      jump\t// in\n    tag_302:\n        /* \"#utility.yul\":1338:1481   */\n      swap2\n      swap1\n      pop\n      jump\t// out\n        /* \"#utility.yul\":1487:1630   */\n    tag_202:\n        /* \"#utility.yul\":1551:1560   */\n      0x00\n        /* \"#utility.yul\":1584:1624   */\n      tag_304\n        /* \"#utility.yul\":1618:1623   */\n      dup3\n        /* \"#utility.yul\":1584:1624   */\n      tag_201\n      jump\t// in\n    tag_304:\n        /* \"#utility.yul\":1571:1624   */\n      swap1\n      pop\n        /* \"#utility.yul\":1487:1630   */\n      swap2\n      swap1\n      pop\n      jump\t// out\n        /* \"#utility.yul\":1636:1795   */\n    tag_203:\n        /* \"#utility.yul\":1737:1788   */\n      tag_306\n        /* \"#utility.yul\":1782:1787   */\n      dup2\n        /* \"#utility.yul\":1737:1788   */\n      tag_202\n      jump\t// in\n    tag_306:\n        /* \"#utility.yul\":1732:1735   */\n      dup3\n        /* \"#utility.yul\":1725:1789   */\n      mstore\n        /* \"#utility.yul\":1636:1795   */\n      pop\n      pop\n      jump\t// out\n        /* \"#utility.yul\":1801:1927   */\n    tag_204:\n        /* \"#utility.yul\":1838:1845   */\n      0x00\n        /* \"#utility.yul\":1878:1920   */\n      0xffffffffffffffffffffffffffffffffffffffff\n        /* \"#utility.yul\":1871:1876   */\n      dup3\n        /* \"#utility.yul\":1867:1921   */\n      and\n        /* \"#utility.yul\":1856:1921   */\n      swap1\n      pop\n        /* \"#utility.yul\":1801:1927   */\n      swap2\n      swap1\n      pop\n      jump\t// out\n        /* \"#utility.yul\":1933:2029   */\n    tag_205:\n        /* \"#utility.yul\":1970:1977   */\n      0x00\n        /* \"#utility.yul\":1999:2023   */\n      tag_309\n        /* \"#utility.yul\":2017:2022   */\n      dup3\n        /* \"#utility.yul\":1999:2023   */\n      tag_204\n      jump\t// in\n    tag_309:\n        /* \"#utility.yul\":1988:2023   */\n      swap1\n      pop\n        /* \"#utility.yul\":1933:2029   */\n      swap2\n      swap1\n      pop\n      jump\t// out\n        /* \"#utility.yul\":2035:2153   */\n    tag_206:\n        /* \"#utility.yul\":2122:2146   */\n      tag_311\n        /* \"#utility.yul\":2140:2145   */\n      dup2\n        /* \"#utility.yul\":2122:2146   */\n      tag_205\n      jump\t// in\n    tag_311:\n        /* \"#utility.yul\":2117:2120   */\n      dup3\n        /* \"#utility.yul\":2110:2147   */\n      mstore\n        /* \"#utility.yul\":2035:2153   */\n      pop\n      pop\n      jump\t// out\n        /* \"#utility.yul\":2159:2258   */\n    tag_207:\n        /* \"#utility.yul\":2211:2217   */\n      0x00\n        /* \"#utility.yul\":2245:2250   */\n      dup2\n        /* \"#utility.yul\":2239:2251   */\n      mload\n        /* \"#utility.yul\":2229:2251   */\n      swap1\n      pop\n        /* \"#utility.yul\":2159:2258   */\n      swap2\n      swap1\n      pop\n      jump\t// out\n        /* \"#utility.yul\":2264:2433   */\n    tag_208:\n        /* \"#utility.yul\":2348:2359   */\n      0x00\n        /* \"#utility.yul\":2382:2388   */\n      dup3\n        /* \"#utility.yul\":2377:2380   */\n      dup3\n        /* \"#utility.yul\":2370:2389   */\n      mstore\n        /* \"#utility.yul\":2422:2426   */\n      0x20\n        /* \"#utility.yul\":2417:2420   */\n      dup3\n        /* \"#utility.yul\":2413:2427   */\n      add\n        /* \"#utility.yul\":2398:2427   */\n      swap1\n      pop\n        /* \"#utility.yul\":2264:2433   */\n      swap3\n      swap2\n      pop\n      pop\n      jump\t// out\n        /* \"#utility.yul\":2439:2746   */\n    tag_209:\n        /* \"#utility.yul\":2507:2508   */\n      0x00\n        /* \"#utility.yul\":2517:2630   */\n    tag_315:\n        /* \"#utility.yul\":2531:2537   */\n      dup4\n        /* \"#utility.yul\":2528:2529   */\n      dup2\n        /* \"#utility.yul\":2525:2538   */\n      lt\n        /* \"#utility.yul\":2517:2630   */\n      iszero\n      tag_317\n      jumpi\n        /* \"#utility.yul\":2616:2617   */\n      dup1\n        /* \"#utility.yul\":2611:2614   */\n      dup3\n        /* \"#utility.yul\":2607:2618   */\n      add\n        /* \"#utility.yul\":2601:2619   */\n      mload\n        /* \"#utility.yul\":2597:2598   */\n      dup2\n        /* \"#utility.yul\":2592:2595   */\n      dup5\n        /* \"#utility.yul\":2588:2599   */\n      add\n        /* \"#utility.yul\":2581:2620   */\n      mstore\n        /* \"#utility.yul\":2553:2555   */\n      0x20\n        /* \"#utility.yul\":2550:2551   */\n      dup2\n        /* \"#utility.yul\":2546:2556   */\n      add\n        /* \"#utility.yul\":2541:2556   */\n      swap1\n      pop\n        /* \"#utility.yul\":2517:2630   */\n      jump(tag_315)\n    tag_317:\n        /* \"#utility.yul\":2648:2654   */\n      dup4\n        /* \"#utility.yul\":2645:2646   */\n      dup2\n        /* \"#utility.yul\":2642:2655   */\n      gt\n        /* \"#utility.yul\":2639:2740   */\n      iszero\n      tag_318\n      jumpi\n        /* \"#utility.yul\":2728:2729   */\n      0x00\n        /* \"#utility.yul\":2719:2725   */\n      dup5\n        /* \"#utility.yul\":2714:2717   */\n      dup5\n        /* \"#utility.yul\":2710:2726   */\n      add\n        /* \"#utility.yul\":2703:2730   */\n      mstore\n        /* \"#utility.yul\":2639:2740   */\n    tag_318:\n        /* \"#utility.yul\":2488:2746   */\n      pop\n        /* \"#utility.yul\":2439:2746   */\n      pop\n      pop\n      pop\n      jump\t// out\n        /* \"#utility.yul\":2752:2854   */\n    tag_210:\n        /* \"#utility.yul\":2793:2799   */\n      0x00\n        /* \"#utility.yul\":2844:2846   */\n      0x1f\n        /* \"#utility.yul\":2840:2847   */\n      not\n        /* \"#utility.yul\":2835:2837   */\n      0x1f\n        /* \"#utility.yul\":2828:2833   */\n      dup4\n        /* \"#utility.yul\":2824:2838   */\n      add\n        /* \"#utility.yul\":2820:2848   */\n      and\n        /* \"#utility.yul\":2810:2848   */\n      swap1\n      pop\n        /* \"#utility.yul\":2752:2854   */\n      swap2\n      swap1\n      pop\n      jump\t// out\n        /* \"#utility.yul\":2860:3224   */\n    tag_211:\n        /* \"#utility.yul\":2948:2951   */\n      0x00\n        /* \"#utility.yul\":2976:3015   */\n      tag_321\n        /* \"#utility.yul\":3009:3014   */\n      dup3\n        /* \"#utility.yul\":2976:3015   */\n      tag_207\n      jump\t// in\n    tag_321:\n        /* \"#utility.yul\":3031:3102   */\n      tag_322\n        /* \"#utility.yul\":3095:3101   */\n      dup2\n        /* \"#utility.yul\":3090:3093   */\n      dup6\n        /* \"#utility.yul\":3031:3102   */\n      tag_208\n      jump\t// in\n    tag_322:\n        /* \"#utility.yul\":3024:3102   */\n      swap4\n      pop\n        /* \"#utility.yul\":3111:3163   */\n      tag_323\n        /* \"#utility.yul\":3156:3162   */\n      dup2\n        /* \"#utility.yul\":3151:3154   */\n      dup6\n        /* \"#utility.yul\":3144:3148   */\n      0x20\n        /* \"#utility.yul\":3137:3142   */\n      dup7\n        /* \"#utility.yul\":3133:3149   */\n      add\n        /* \"#utility.yul\":3111:3163   */\n      tag_209\n      jump\t// in\n    tag_323:\n        /* \"#utility.yul\":3188:3217   */\n      tag_324\n        /* \"#utility.yul\":3210:3216   */\n      dup2\n        /* \"#utility.yul\":3188:3217   */\n      tag_210\n      jump\t// in\n    tag_324:\n        /* \"#utility.yul\":3183:3186   */\n      dup5\n        /* \"#utility.yul\":3179:3218   */\n      add\n        /* \"#utility.yul\":3172:3218   */\n      swap2\n      pop\n        /* \"#utility.yul\":2952:3224   */\n      pop\n        /* \"#utility.yul\":2860:3224   */\n      swap3\n      swap2\n      pop\n      pop\n      jump\t// out\n        /* \"#utility.yul\":3230:3791   */\n    tag_29:\n        /* \"#utility.yul\":3413:3417   */\n      0x00\n        /* \"#utility.yul\":3451:3453   */\n      0x60\n        /* \"#utility.yul\":3440:3449   */\n      dup3\n        /* \"#utility.yul\":3436:3454   */\n      add\n        /* \"#utility.yul\":3428:3454   */\n      swap1\n      pop\n        /* \"#utility.yul\":3464:3549   */\n      tag_326\n        /* \"#utility.yul\":3546:3547   */\n      0x00\n        /* \"#utility.yul\":3535:3544   */\n      dup4\n        /* \"#utility.yul\":3531:3548   */\n      add\n        /* \"#utility.yul\":3522:3528   */\n      dup7\n        /* \"#utility.yul\":3464:3549   */\n      tag_203\n      jump\t// in\n    tag_326:\n        /* \"#utility.yul\":3559:3631   */\n      tag_327\n        /* \"#utility.yul\":3627:3629   */\n      0x20\n        /* \"#utility.yul\":3616:3625   */\n      dup4\n        /* \"#utility.yul\":3612:3630   */\n      add\n        /* \"#utility.yul\":3603:3609   */\n      dup6\n        /* \"#utility.yul\":3559:3631   */\n      tag_206\n      jump\t// in\n    tag_327:\n        /* \"#utility.yul\":3678:3687   */\n      dup2\n        /* \"#utility.yul\":3672:3676   */\n      dup2\n        /* \"#utility.yul\":3668:3688   */\n      sub\n        /* \"#utility.yul\":3663:3665   */\n      0x40\n        /* \"#utility.yul\":3652:3661   */\n      dup4\n        /* \"#utility.yul\":3648:3666   */\n      add\n        /* \"#utility.yul\":3641:3689   */\n      mstore\n        /* \"#utility.yul\":3706:3784   */\n      tag_328\n        /* \"#utility.yul\":3779:3783   */\n      dup2\n        /* \"#utility.yul\":3770:3776   */\n      dup5\n        /* \"#utility.yul\":3706:3784   */\n      tag_211\n      jump\t// in\n    tag_328:\n        /* \"#utility.yul\":3698:3784   */\n      swap1\n      pop\n        /* \"#utility.yul\":3230:3791   */\n      swap5\n      swap4\n      pop\n      pop\n      pop\n      pop\n      jump\t// out\n        /* \"#utility.yul\":3797:3919   */\n    tag_212:\n        /* \"#utility.yul\":3870:3894   */\n      tag_330\n        /* \"#utility.yul\":3888:3893   */\n      dup2\n        /* \"#utility.yul\":3870:3894   */\n      tag_205\n      jump\t// in\n    tag_330:\n        /* \"#utility.yul\":3863:3868   */\n      dup2\n        /* \"#utility.yul\":3860:3895   */\n      eq\n        /* \"#utility.yul\":3850:3913   */\n      tag_331\n      jumpi\n        /* \"#utility.yul\":3909:3910   */\n      0x00\n        /* \"#utility.yul\":3906:3907   */\n      dup1\n        /* \"#utility.yul\":3899:3911   */\n      revert\n        /* \"#utility.yul\":3850:3913   */\n    tag_331:\n        /* \"#utility.yul\":3797:3919   */\n      pop\n      jump\t// out\n        /* \"#utility.yul\":3925:4064   */\n    tag_213:\n        /* \"#utility.yul\":3971:3976   */\n      0x00\n        /* \"#utility.yul\":4009:4015   */\n      dup2\n        /* \"#utility.yul\":3996:4016   */\n      calldataload\n        /* \"#utility.yul\":3987:4016   */\n      swap1\n      pop\n        /* \"#utility.yul\":4025:4058   */\n      tag_333\n        /* \"#utility.yul\":4052:4057   */\n      dup2\n        /* \"#utility.yul\":4025:4058   */\n      tag_212\n      jump\t// in\n    tag_333:\n        /* \"#utility.yul\":3925:4064   */\n      swap3\n      swap2\n      pop\n      pop\n      jump\t// out\n        /* \"#utility.yul\":4070:4544   */\n    tag_32:\n        /* \"#utility.yul\":4138:4144   */\n      0x00\n        /* \"#utility.yul\":4146:4152   */\n      dup1\n        /* \"#utility.yul\":4195:4197   */\n      0x40\n        /* \"#utility.yul\":4183:4192   */\n      dup4\n        /* \"#utility.yul\":4174:4181   */\n      dup6\n        /* \"#utility.yul\":4170:4193   */\n      sub\n        /* \"#utility.yul\":4166:4198   */\n      slt\n        /* \"#utility.yul\":4163:4282   */\n      iszero\n      tag_335\n      jumpi\n        /* \"#utility.yul\":4201:4280   */\n      tag_336\n      tag_195\n      jump\t// in\n    tag_336:\n        /* \"#utility.yul\":4163:4282   */\n    tag_335:\n        /* \"#utility.yul\":4321:4322   */\n      0x00\n        /* \"#utility.yul\":4346:4399   */\n      tag_337\n        /* \"#utility.yul\":4391:4398   */\n      dup6\n        /* \"#utility.yul\":4382:4388   */\n      dup3\n        /* \"#utility.yul\":4371:4380   */\n      dup7\n        /* \"#utility.yul\":4367:4389   */\n      add\n        /* \"#utility.yul\":4346:4399   */\n      tag_213\n      jump\t// in\n    tag_337:\n        /* \"#utility.yul\":4336:4399   */\n      swap3\n      pop\n        /* \"#utility.yul\":4292:4409   */\n      pop\n        /* \"#utility.yul\":4448:4450   */\n      0x20\n        /* \"#utility.yul\":4474:4527   */\n      tag_338\n        /* \"#utility.yul\":4519:4526   */\n      dup6\n        /* \"#utility.yul\":4510:4516   */\n      dup3\n        /* \"#utility.yul\":4499:4508   */\n      dup7\n        /* \"#utility.yul\":4495:4517   */\n      add\n        /* \"#utility.yul\":4474:4527   */\n      tag_213\n      jump\t// in\n    tag_338:\n        /* \"#utility.yul\":4464:4527   */\n      swap2\n      pop\n        /* \"#utility.yul\":4419:4537   */\n      pop\n        /* \"#utility.yul\":4070:4544   */\n      swap3\n      pop\n      swap3\n      swap1\n      pop\n      jump\t// out\n        /* \"#utility.yul\":4550:4668   */\n    tag_214:\n        /* \"#utility.yul\":4637:4661   */\n      tag_340\n        /* \"#utility.yul\":4655:4660   */\n      dup2\n        /* \"#utility.yul\":4637:4661   */\n      tag_197\n      jump\t// in\n    tag_340:\n        /* \"#utility.yul\":4632:4635   */\n      dup3\n        /* \"#utility.yul\":4625:4662   */\n      mstore\n        /* \"#utility.yul\":4550:4668   */\n      pop\n      pop\n      jump\t// out\n        /* \"#utility.yul\":4674:5006   */\n    tag_35:\n        /* \"#utility.yul\":4795:4799   */\n      0x00\n        /* \"#utility.yul\":4833:4835   */\n      0x40\n        /* \"#utility.yul\":4822:4831   */\n      dup3\n        /* \"#utility.yul\":4818:4836   */\n      add\n        /* \"#utility.yul\":4810:4836   */\n      swap1\n      pop\n        /* \"#utility.yul\":4846:4917   */\n      tag_342\n        /* \"#utility.yul\":4914:4915   */\n      0x00\n        /* \"#utility.yul\":4903:4912   */\n      dup4\n        /* \"#utility.yul\":4899:4916   */\n      add\n        /* \"#utility.yul\":4890:4896   */\n      dup6\n        /* \"#utility.yul\":4846:4917   */\n      tag_214\n      jump\t// in\n    tag_342:\n        /* \"#utility.yul\":4927:4999   */\n      tag_343\n        /* \"#utility.yul\":4995:4997   */\n      0x20\n        /* \"#utility.yul\":4984:4993   */\n      dup4\n        /* \"#utility.yul\":4980:4998   */\n      add\n        /* \"#utility.yul\":4971:4977   */\n      dup5\n        /* \"#utility.yul\":4927:4999   */\n      tag_214\n      jump\t// in\n    tag_343:\n        /* \"#utility.yul\":4674:5006   */\n      swap4\n      swap3\n      pop\n      pop\n      pop\n      jump\t// out\n        /* \"#utility.yul\":5012:5126   */\n    tag_215:\n        /* \"#utility.yul\":5079:5085   */\n      0x00\n        /* \"#utility.yul\":5113:5118   */\n      dup2\n        /* \"#utility.yul\":5107:5119   */\n      mload\n        /* \"#utility.yul\":5097:5119   */\n      swap1\n      pop\n        /* \"#utility.yul\":5012:5126   */\n      swap2\n      swap1\n      pop\n      jump\t// out\n        /* \"#utility.yul\":5132:5316   */\n    tag_216:\n        /* \"#utility.yul\":5231:5242   */\n      0x00\n        /* \"#utility.yul\":5265:5271   */\n      dup3\n        /* \"#utility.yul\":5260:5263   */\n      dup3\n        /* \"#utility.yul\":5253:5272   */\n      mstore\n        /* \"#utility.yul\":5305:5309   */\n      0x20\n        /* \"#utility.yul\":5300:5303   */\n      dup3\n        /* \"#utility.yul\":5296:5310   */\n      add\n        /* \"#utility.yul\":5281:5310   */\n      swap1\n      pop\n        /* \"#utility.yul\":5132:5316   */\n      swap3\n      swap2\n      pop\n      pop\n      jump\t// out\n        /* \"#utility.yul\":5322:5454   */\n    tag_217:\n        /* \"#utility.yul\":5389:5393   */\n      0x00\n        /* \"#utility.yul\":5412:5415   */\n      dup2\n        /* \"#utility.yul\":5404:5415   */\n      swap1\n      pop\n        /* \"#utility.yul\":5442:5446   */\n      0x20\n        /* \"#utility.yul\":5437:5440   */\n      dup3\n        /* \"#utility.yul\":5433:5447   */\n      add\n        /* \"#utility.yul\":5425:5447   */\n      swap1\n      pop\n        /* \"#utility.yul\":5322:5454   */\n      swap2\n      swap1\n      pop\n      jump\t// out\n        /* \"#utility.yul\":5460:5568   */\n    tag_218:\n        /* \"#utility.yul\":5537:5561   */\n      tag_348\n        /* \"#utility.yul\":5555:5560   */\n      dup2\n        /* \"#utility.yul\":5537:5561   */\n      tag_205\n      jump\t// in\n    tag_348:\n        /* \"#utility.yul\":5532:5535   */\n      dup3\n        /* \"#utility.yul\":5525:5562   */\n      mstore\n        /* \"#utility.yul\":5460:5568   */\n      pop\n      pop\n      jump\t// out\n        /* \"#utility.yul\":5574:5753   */\n    tag_219:\n        /* \"#utility.yul\":5643:5653   */\n      0x00\n        /* \"#utility.yul\":5664:5710   */\n      tag_350\n        /* \"#utility.yul\":5706:5709   */\n      dup4\n        /* \"#utility.yul\":5698:5704   */\n      dup4\n        /* \"#utility.yul\":5664:5710   */\n      tag_218\n      jump\t// in\n    tag_350:\n        /* \"#utility.yul\":5742:5746   */\n      0x20\n        /* \"#utility.yul\":5737:5740   */\n      dup4\n        /* \"#utility.yul\":5733:5747   */\n      add\n        /* \"#utility.yul\":5719:5747   */\n      swap1\n      pop\n        /* \"#utility.yul\":5574:5753   */\n      swap3\n      swap2\n      pop\n      pop\n      jump\t// out\n        /* \"#utility.yul\":5759:5872   */\n    tag_220:\n        /* \"#utility.yul\":5829:5833   */\n      0x00\n        /* \"#utility.yul\":5861:5865   */\n      0x20\n        /* \"#utility.yul\":5856:5859   */\n      dup3\n        /* \"#utility.yul\":5852:5866   */\n      add\n        /* \"#utility.yul\":5844:5866   */\n      swap1\n      pop\n        /* \"#utility.yul\":5759:5872   */\n      swap2\n      swap1\n      pop\n      jump\t// out\n        /* \"#utility.yul\":5908:6640   */\n    tag_221:\n        /* \"#utility.yul\":6027:6030   */\n      0x00\n        /* \"#utility.yul\":6056:6110   */\n      tag_353\n        /* \"#utility.yul\":6104:6109   */\n      dup3\n        /* \"#utility.yul\":6056:6110   */\n      tag_215\n      jump\t// in\n    tag_353:\n        /* \"#utility.yul\":6126:6212   */\n      tag_354\n        /* \"#utility.yul\":6205:6211   */\n      dup2\n        /* \"#utility.yul\":6200:6203   */\n      dup6\n        /* \"#utility.yul\":6126:6212   */\n      tag_216\n      jump\t// in\n    tag_354:\n        /* \"#utility.yul\":6119:6212   */\n      swap4\n      pop\n        /* \"#utility.yul\":6236:6292   */\n      tag_355\n        /* \"#utility.yul\":6286:6291   */\n      dup4\n        /* \"#utility.yul\":6236:6292   */\n      tag_217\n      jump\t// in\n    tag_355:\n        /* \"#utility.yul\":6315:6322   */\n      dup1\n        /* \"#utility.yul\":6346:6347   */\n      0x00\n        /* \"#utility.yul\":6331:6615   */\n    tag_356:\n        /* \"#utility.yul\":6356:6362   */\n      dup4\n        /* \"#utility.yul\":6353:6354   */\n      dup2\n        /* \"#utility.yul\":6350:6363   */\n      lt\n        /* \"#utility.yul\":6331:6615   */\n      iszero\n      tag_358\n      jumpi\n        /* \"#utility.yul\":6432:6438   */\n      dup2\n        /* \"#utility.yul\":6426:6439   */\n      mload\n        /* \"#utility.yul\":6459:6522   */\n      tag_359\n        /* \"#utility.yul\":6518:6521   */\n      dup9\n        /* \"#utility.yul\":6503:6516   */\n      dup3\n        /* \"#utility.yul\":6459:6522   */\n      tag_219\n      jump\t// in\n    tag_359:\n        /* \"#utility.yul\":6452:6522   */\n      swap8\n      pop\n        /* \"#utility.yul\":6545:6605   */\n      tag_360\n        /* \"#utility.yul\":6598:6604   */\n      dup4\n        /* \"#utility.yul\":6545:6605   */\n      tag_220\n      jump\t// in\n    tag_360:\n        /* \"#utility.yul\":6535:6605   */\n      swap3\n      pop\n        /* \"#utility.yul\":6391:6615   */\n      pop\n        /* \"#utility.yul\":6378:6379   */\n      0x01\n        /* \"#utility.yul\":6375:6376   */\n      dup2\n        /* \"#utility.yul\":6371:6380   */\n      add\n        /* \"#utility.yul\":6366:6380   */\n      swap1\n      pop\n        /* \"#utility.yul\":6331:6615   */\n      jump(tag_356)\n    tag_358:\n        /* \"#utility.yul\":6335:6349   */\n      pop\n        /* \"#utility.yul\":6631:6634   */\n      dup6\n        /* \"#utility.yul\":6624:6634   */\n      swap4\n      pop\n        /* \"#utility.yul\":6032:6640   */\n      pop\n      pop\n      pop\n        /* \"#utility.yul\":5908:6640   */\n      swap3\n      swap2\n      pop\n      pop\n      jump\t// out\n        /* \"#utility.yul\":6646:7019   */\n    tag_39:\n        /* \"#utility.yul\":6789:6793   */\n      0x00\n        /* \"#utility.yul\":6827:6829   */\n      0x20\n        /* \"#utility.yul\":6816:6825   */\n      dup3\n        /* \"#utility.yul\":6812:6830   */\n      add\n        /* \"#utility.yul\":6804:6830   */\n      swap1\n      pop\n        /* \"#utility.yul\":6876:6885   */\n      dup2\n        /* \"#utility.yul\":6870:6874   */\n      dup2\n        /* \"#utility.yul\":6866:6886   */\n      sub\n        /* \"#utility.yul\":6862:6863   */\n      0x00\n        /* \"#utility.yul\":6851:6860   */\n      dup4\n        /* \"#utility.yul\":6847:6864   */\n      add\n        /* \"#utility.yul\":6840:6887   */\n      mstore\n        /* \"#utility.yul\":6904:7012   */\n      tag_362\n        /* \"#utility.yul\":7007:7011   */\n      dup2\n        /* \"#utility.yul\":6998:7004   */\n      dup5\n        /* \"#utility.yul\":6904:7012   */\n      tag_221\n      jump\t// in\n    tag_362:\n        /* \"#utility.yul\":6896:7012   */\n      swap1\n      pop\n        /* \"#utility.yul\":6646:7019   */\n      swap3\n      swap2\n      pop\n      pop\n      jump\t// out\n        /* \"#utility.yul\":7025:7499   */\n    tag_42:\n        /* \"#utility.yul\":7093:7099   */\n      0x00\n        /* \"#utility.yul\":7101:7107   */\n      dup1\n        /* \"#utility.yul\":7150:7152   */\n      0x40\n        /* \"#utility.yul\":7138:7147   */\n      dup4\n        /* \"#utility.yul\":7129:7136   */\n      dup6\n        /* \"#utility.yul\":7125:7148   */\n      sub\n        /* \"#utility.yul\":7121:7153   */\n      slt\n        /* \"#utility.yul\":7118:7237   */\n      iszero\n      tag_364\n      jumpi\n        /* \"#utility.yul\":7156:7235   */\n      tag_365\n      tag_195\n      jump\t// in\n    tag_365:\n        /* \"#utility.yul\":7118:7237   */\n    tag_364:\n        /* \"#utility.yul\":7276:7277   */\n      0x00\n        /* \"#utility.yul\":7301:7354   */\n      tag_366\n        /* \"#utility.yul\":7346:7353   */\n      dup6\n        /* \"#utility.yul\":7337:7343   */\n      dup3\n        /* \"#utility.yul\":7326:7335   */\n      dup7\n        /* \"#utility.yul\":7322:7344   */\n      add\n        /* \"#utility.yul\":7301:7354   */\n      tag_213\n      jump\t// in\n    tag_366:\n        /* \"#utility.yul\":7291:7354   */\n      swap3\n      pop\n        /* \"#utility.yul\":7247:7364   */\n      pop\n        /* \"#utility.yul\":7403:7405   */\n      0x20\n        /* \"#utility.yul\":7429:7482   */\n      tag_367\n        /* \"#utility.yul\":7474:7481   */\n      dup6\n        /* \"#utility.yul\":7465:7471   */\n      dup3\n        /* \"#utility.yul\":7454:7463   */\n      dup7\n        /* \"#utility.yul\":7450:7472   */\n      add\n        /* \"#utility.yul\":7429:7482   */\n      tag_199\n      jump\t// in\n    tag_367:\n        /* \"#utility.yul\":7419:7482   */\n      swap2\n      pop\n        /* \"#utility.yul\":7374:7492   */\n      pop\n        /* \"#utility.yul\":7025:7499   */\n      swap3\n      pop\n      swap3\n      swap1\n      pop\n      jump\t// out\n        /* \"#utility.yul\":7505:7727   */\n    tag_48:\n        /* \"#utility.yul\":7598:7602   */\n      0x00\n        /* \"#utility.yul\":7636:7638   */\n      0x20\n        /* \"#utility.yul\":7625:7634   */\n      dup3\n        /* \"#utility.yul\":7621:7639   */\n      add\n        /* \"#utility.yul\":7613:7639   */\n      swap1\n      pop\n        /* \"#utility.yul\":7649:7720   */\n      tag_369\n        /* \"#utility.yul\":7717:7718   */\n      0x00\n        /* \"#utility.yul\":7706:7715   */\n      dup4\n        /* \"#utility.yul\":7702:7719   */\n      add\n        /* \"#utility.yul\":7693:7699   */\n      dup5\n        /* \"#utility.yul\":7649:7720   */\n      tag_214\n      jump\t// in\n    tag_369:\n        /* \"#utility.yul\":7505:7727   */\n      swap3\n      swap2\n      pop\n      pop\n      jump\t// out\n        /* \"#utility.yul\":7733:8352   */\n    tag_54:\n        /* \"#utility.yul\":7810:7816   */\n      0x00\n        /* \"#utility.yul\":7818:7824   */\n      dup1\n        /* \"#utility.yul\":7826:7832   */\n      0x00\n        /* \"#utility.yul\":7875:7877   */\n      0x60\n        /* \"#utility.yul\":7863:7872   */\n      dup5\n        /* \"#utility.yul\":7854:7861   */\n      dup7\n        /* \"#utility.yul\":7850:7873   */\n      sub\n        /* \"#utility.yul\":7846:7878   */\n      slt\n        /* \"#utility.yul\":7843:7962   */\n      iszero\n      tag_371\n      jumpi\n        /* \"#utility.yul\":7881:7960   */\n      tag_372\n      tag_195\n      jump\t// in\n    tag_372:\n        /* \"#utility.yul\":7843:7962   */\n    tag_371:\n        /* \"#utility.yul\":8001:8002   */\n      0x00\n        /* \"#utility.yul\":8026:8079   */\n      tag_373\n        /* \"#utility.yul\":8071:8078   */\n      dup7\n        /* \"#utility.yul\":8062:8068   */\n      dup3\n        /* \"#utility.yul\":8051:8060   */\n      dup8\n        /* \"#utility.yul\":8047:8069   */\n      add\n        /* \"#utility.yul\":8026:8079   */\n      tag_213\n      jump\t// in\n    tag_373:\n        /* \"#utility.yul\":8016:8079   */\n      swap4\n      pop\n        /* \"#utility.yul\":7972:8089   */\n      pop\n        /* \"#utility.yul\":8128:8130   */\n      0x20\n        /* \"#utility.yul\":8154:8207   */\n      tag_374\n        /* \"#utility.yul\":8199:8206   */\n      dup7\n        /* \"#utility.yul\":8190:8196   */\n      dup3\n        /* \"#utility.yul\":8179:8188   */\n      dup8\n        /* \"#utility.yul\":8175:8197   */\n      add\n        /* \"#utility.yul\":8154:8207   */\n      tag_199\n      jump\t// in\n    tag_374:\n        /* \"#utility.yul\":8144:8207   */\n      swap3\n      pop\n        /* \"#utility.yul\":8099:8217   */\n      pop\n        /* \"#utility.yul\":8256:8258   */\n      0x40\n        /* \"#utility.yul\":8282:8335   */\n      tag_375\n        /* \"#utility.yul\":8327:8334   */\n      dup7\n        /* \"#utility.yul\":8318:8324   */\n      dup3\n        /* \"#utility.yul\":8307:8316   */\n      dup8\n        /* \"#utility.yul\":8303:8325   */\n      add\n        /* \"#utility.yul\":8282:8335   */\n      tag_199\n      jump\t// in\n    tag_375:\n        /* \"#utility.yul\":8272:8335   */\n      swap2\n      pop\n        /* \"#utility.yul\":8227:8345   */\n      pop\n        /* \"#utility.yul\":7733:8352   */\n      swap3\n      pop\n      swap3\n      pop\n      swap3\n      jump\t// out\n        /* \"#utility.yul\":8358:8475   */\n    tag_222:\n        /* \"#utility.yul\":8467:8468   */\n      0x00\n        /* \"#utility.yul\":8464:8465   */\n      dup1\n        /* \"#utility.yul\":8457:8469   */\n      revert\n        /* \"#utility.yul\":8513:8744   */\n    tag_223:\n        /* \"#utility.yul\":8586:8591   */\n      0x00\n        /* \"#utility.yul\":8627:8629   */\n      0x60\n        /* \"#utility.yul\":8618:8624   */\n      dup3\n        /* \"#utility.yul\":8613:8616   */\n      dup5\n        /* \"#utility.yul\":8609:8625   */\n      sub\n        /* \"#utility.yul\":8605:8630   */\n      slt\n        /* \"#utility.yul\":8602:8714   */\n      iszero\n      tag_378\n      jumpi\n        /* \"#utility.yul\":8633:8712   */\n      tag_379\n      tag_222\n      jump\t// in\n    tag_379:\n        /* \"#utility.yul\":8602:8714   */\n    tag_378:\n        /* \"#utility.yul\":8732:8738   */\n      dup2\n        /* \"#utility.yul\":8723:8738   */\n      swap1\n      pop\n        /* \"#utility.yul\":8513:8744   */\n      swap3\n      swap2\n      pop\n      pop\n      jump\t// out\n        /* \"#utility.yul\":8750:9293   */\n    tag_61:\n        /* \"#utility.yul\":8836:8842   */\n      0x00\n        /* \"#utility.yul\":8885:8887   */\n      0x20\n        /* \"#utility.yul\":8873:8882   */\n      dup3\n        /* \"#utility.yul\":8864:8871   */\n      dup5\n        /* \"#utility.yul\":8860:8883   */\n      sub\n        /* \"#utility.yul\":8856:8888   */\n      slt\n        /* \"#utility.yul\":8853:8972   */\n      iszero\n      tag_381\n      jumpi\n        /* \"#utility.yul\":8891:8970   */\n      tag_382\n      tag_195\n      jump\t// in\n    tag_382:\n        /* \"#utility.yul\":8853:8972   */\n    tag_381:\n        /* \"#utility.yul\":9039:9040   */\n      0x00\n        /* \"#utility.yul\":9028:9037   */\n      dup3\n        /* \"#utility.yul\":9024:9041   */\n      add\n        /* \"#utility.yul\":9011:9042   */\n      calldataload\n        /* \"#utility.yul\":9069:9087   */\n      0xffffffffffffffff\n        /* \"#utility.yul\":9061:9067   */\n      dup2\n        /* \"#utility.yul\":9058:9088   */\n      gt\n        /* \"#utility.yul\":9055:9172   */\n      iszero\n      tag_383\n      jumpi\n        /* \"#utility.yul\":9091:9170   */\n      tag_384\n      tag_196\n      jump\t// in\n    tag_384:\n        /* \"#utility.yul\":9055:9172   */\n    tag_383:\n        /* \"#utility.yul\":9196:9276   */\n      tag_385\n        /* \"#utility.yul\":9268:9275   */\n      dup5\n        /* \"#utility.yul\":9259:9265   */\n      dup3\n        /* \"#utility.yul\":9248:9257   */\n      dup6\n        /* \"#utility.yul\":9244:9266   */\n      add\n        /* \"#utility.yul\":9196:9276   */\n      tag_223\n      jump\t// in\n    tag_385:\n        /* \"#utility.yul\":9186:9276   */\n      swap2\n      pop\n        /* \"#utility.yul\":8982:9286   */\n      pop\n        /* \"#utility.yul\":8750:9293   */\n      swap3\n      swap2\n      pop\n      pop\n      jump\t// out\n        /* \"#utility.yul\":9299:9628   */\n    tag_65:\n        /* \"#utility.yul\":9358:9364   */\n      0x00\n        /* \"#utility.yul\":9407:9409   */\n      0x20\n        /* \"#utility.yul\":9395:9404   */\n      dup3\n        /* \"#utility.yul\":9386:9393   */\n      dup5\n        /* \"#utility.yul\":9382:9405   */\n      sub\n        /* \"#utility.yul\":9378:9410   */\n      slt\n        /* \"#utility.yul\":9375:9494   */\n      iszero\n      tag_387\n      jumpi\n        /* \"#utility.yul\":9413:9492   */\n      tag_388\n      tag_195\n      jump\t// in\n    tag_388:\n        /* \"#utility.yul\":9375:9494   */\n    tag_387:\n        /* \"#utility.yul\":9533:9534   */\n      0x00\n        /* \"#utility.yul\":9558:9611   */\n      tag_389\n        /* \"#utility.yul\":9603:9610   */\n      dup5\n        /* \"#utility.yul\":9594:9600   */\n      dup3\n        /* \"#utility.yul\":9583:9592   */\n      dup6\n        /* \"#utility.yul\":9579:9601   */\n      add\n        /* \"#utility.yul\":9558:9611   */\n      tag_213\n      jump\t// in\n    tag_389:\n        /* \"#utility.yul\":9548:9611   */\n      swap2\n      pop\n        /* \"#utility.yul\":9504:9621   */\n      pop\n        /* \"#utility.yul\":9299:9628   */\n      swap3\n      swap2\n      pop\n      pop\n      jump\t// out\n        /* \"#utility.yul\":9634:9856   */\n    tag_71:\n        /* \"#utility.yul\":9727:9731   */\n      0x00\n        /* \"#utility.yul\":9765:9767   */\n      0x20\n        /* \"#utility.yul\":9754:9763   */\n      dup3\n        /* \"#utility.yul\":9750:9768   */\n      add\n        /* \"#utility.yul\":9742:9768   */\n      swap1\n      pop\n        /* \"#utility.yul\":9778:9849   */\n      tag_391\n        /* \"#utility.yul\":9846:9847   */\n      0x00\n        /* \"#utility.yul\":9835:9844   */\n      dup4\n        /* \"#utility.yul\":9831:9848   */\n      add\n        /* \"#utility.yul\":9822:9828   */\n      dup5\n        /* \"#utility.yul\":9778:9849   */\n      tag_206\n      jump\t// in\n    tag_391:\n        /* \"#utility.yul\":9634:9856   */\n      swap3\n      swap2\n      pop\n      pop\n      jump\t// out\n        /* \"#utility.yul\":9862:9952   */\n    tag_224:\n        /* \"#utility.yul\":9896:9903   */\n      0x00\n        /* \"#utility.yul\":9939:9944   */\n      dup2\n        /* \"#utility.yul\":9932:9945   */\n      iszero\n        /* \"#utility.yul\":9925:9946   */\n      iszero\n        /* \"#utility.yul\":9914:9946   */\n      swap1\n      pop\n        /* \"#utility.yul\":9862:9952   */\n      swap2\n      swap1\n      pop\n      jump\t// out\n        /* \"#utility.yul\":9958:10067   */\n    tag_225:\n        /* \"#utility.yul\":10039:10060   */\n      tag_394\n        /* \"#utility.yul\":10054:10059   */\n      dup2\n        /* \"#utility.yul\":10039:10060   */\n      tag_224\n      jump\t// in\n    tag_394:\n        /* \"#utility.yul\":10034:10037   */\n      dup3\n        /* \"#utility.yul\":10027:10061   */\n      mstore\n        /* \"#utility.yul\":9958:10067   */\n      pop\n      pop\n      jump\t// out\n        /* \"#utility.yul\":10073:10283   */\n    tag_79:\n        /* \"#utility.yul\":10160:10164   */\n      0x00\n        /* \"#utility.yul\":10198:10200   */\n      0x20\n        /* \"#utility.yul\":10187:10196   */\n      dup3\n        /* \"#utility.yul\":10183:10201   */\n      add\n        /* \"#utility.yul\":10175:10201   */\n      swap1\n      pop\n        /* \"#utility.yul\":10211:10276   */\n      tag_396\n        /* \"#utility.yul\":10273:10274   */\n      0x00\n        /* \"#utility.yul\":10262:10271   */\n      dup4\n        /* \"#utility.yul\":10258:10275   */\n      add\n        /* \"#utility.yul\":10249:10255   */\n      dup5\n        /* \"#utility.yul\":10211:10276   */\n      tag_225\n      jump\t// in\n    tag_396:\n        /* \"#utility.yul\":10073:10283   */\n      swap3\n      swap2\n      pop\n      pop\n      jump\t// out\n        /* \"#utility.yul\":10289:10471   */\n    tag_226:\n        /* \"#utility.yul\":10429:10463   */\n      0x4f6e6c7920746865206f776e65722063616e2061646a75737420726174696f73\n        /* \"#utility.yul\":10425:10426   */\n      0x00\n        /* \"#utility.yul\":10417:10423   */\n      dup3\n        /* \"#utility.yul\":10413:10427   */\n      add\n        /* \"#utility.yul\":10406:10464   */\n      mstore\n        /* \"#utility.yul\":10289:10471   */\n      pop\n      jump\t// out\n        /* \"#utility.yul\":10477:10843   */\n    tag_227:\n        /* \"#utility.yul\":10619:10622   */\n      0x00\n        /* \"#utility.yul\":10640:10707   */\n      tag_399\n        /* \"#utility.yul\":10704:10706   */\n      0x20\n        /* \"#utility.yul\":10699:10702   */\n      dup4\n        /* \"#utility.yul\":10640:10707   */\n      tag_208\n      jump\t// in\n    tag_399:\n        /* \"#utility.yul\":10633:10707   */\n      swap2\n      pop\n        /* \"#utility.yul\":10716:10809   */\n      tag_400\n        /* \"#utility.yul\":10805:10808   */\n      dup3\n        /* \"#utility.yul\":10716:10809   */\n      tag_226\n      jump\t// in\n    tag_400:\n        /* \"#utility.yul\":10834:10836   */\n      0x20\n        /* \"#utility.yul\":10829:10832   */\n      dup3\n        /* \"#utility.yul\":10825:10837   */\n      add\n        /* \"#utility.yul\":10818:10837   */\n      swap1\n      pop\n        /* \"#utility.yul\":10477:10843   */\n      swap2\n      swap1\n      pop\n      jump\t// out\n        /* \"#utility.yul\":10849:11268   */\n    tag_86:\n        /* \"#utility.yul\":11015:11019   */\n      0x00\n        /* \"#utility.yul\":11053:11055   */\n      0x20\n        /* \"#utility.yul\":11042:11051   */\n      dup3\n        /* \"#utility.yul\":11038:11056   */\n      add\n        /* \"#utility.yul\":11030:11056   */\n      swap1\n      pop\n        /* \"#utility.yul\":11102:11111   */\n      dup2\n        /* \"#utility.yul\":11096:11100   */\n      dup2\n        /* \"#utility.yul\":11092:11112   */\n      sub\n        /* \"#utility.yul\":11088:11089   */\n      0x00\n        /* \"#utility.yul\":11077:11086   */\n      dup4\n        /* \"#utility.yul\":11073:11090   */\n      add\n        /* \"#utility.yul\":11066:11113   */\n      mstore\n        /* \"#utility.yul\":11130:11261   */\n      tag_402\n        /* \"#utility.yul\":11256:11260   */\n      dup2\n        /* \"#utility.yul\":11130:11261   */\n      tag_227\n      jump\t// in\n    tag_402:\n        /* \"#utility.yul\":11122:11261   */\n      swap1\n      pop\n        /* \"#utility.yul\":10849:11268   */\n      swap2\n      swap1\n      pop\n      jump\t// out\n        /* \"#utility.yul\":11274:11448   */\n    tag_228:\n        /* \"#utility.yul\":11414:11440   */\n      0x526174696f2063616e6e6f742065786365656420313030250000000000000000\n        /* \"#utility.yul\":11410:11411   */\n      0x00\n        /* \"#utility.yul\":11402:11408   */\n      dup3\n        /* \"#utility.yul\":11398:11412   */\n      add\n        /* \"#utility.yul\":11391:11441   */\n      mstore\n        /* \"#utility.yul\":11274:11448   */\n      pop\n      jump\t// out\n        /* \"#utility.yul\":11454:11820   */\n    tag_229:\n        /* \"#utility.yul\":11596:11599   */\n      0x00\n        /* \"#utility.yul\":11617:11684   */\n      tag_405\n        /* \"#utility.yul\":11681:11683   */\n      0x18\n        /* \"#utility.yul\":11676:11679   */\n      dup4\n        /* \"#utility.yul\":11617:11684   */\n      tag_208\n      jump\t// in\n    tag_405:\n        /* \"#utility.yul\":11610:11684   */\n      swap2\n      pop\n        /* \"#utility.yul\":11693:11786   */\n      tag_406\n        /* \"#utility.yul\":11782:11785   */\n      dup3\n        /* \"#utility.yul\":11693:11786   */\n      tag_228\n      jump\t// in\n    tag_406:\n        /* \"#utility.yul\":11811:11813   */\n      0x20\n        /* \"#utility.yul\":11806:11809   */\n      dup3\n        /* \"#utility.yul\":11802:11814   */\n      add\n        /* \"#utility.yul\":11795:11814   */\n      swap1\n      pop\n        /* \"#utility.yul\":11454:11820   */\n      swap2\n      swap1\n      pop\n      jump\t// out\n        /* \"#utility.yul\":11826:12245   */\n    tag_89:\n        /* \"#utility.yul\":11992:11996   */\n      0x00\n        /* \"#utility.yul\":12030:12032   */\n      0x20\n        /* \"#utility.yul\":12019:12028   */\n      dup3\n        /* \"#utility.yul\":12015:12033   */\n      add\n        /* \"#utility.yul\":12007:12033   */\n      swap1\n      pop\n        /* \"#utility.yul\":12079:12088   */\n      dup2\n        /* \"#utility.yul\":12073:12077   */\n      dup2\n        /* \"#utility.yul\":12069:12089   */\n      sub\n        /* \"#utility.yul\":12065:12066   */\n      0x00\n        /* \"#utility.yul\":12054:12063   */\n      dup4\n        /* \"#utility.yul\":12050:12067   */\n      add\n        /* \"#utility.yul\":12043:12090   */\n      mstore\n        /* \"#utility.yul\":12107:12238   */\n      tag_408\n        /* \"#utility.yul\":12233:12237   */\n      dup2\n        /* \"#utility.yul\":12107:12238   */\n      tag_229\n      jump\t// in\n    tag_408:\n        /* \"#utility.yul\":12099:12238   */\n      swap1\n      pop\n        /* \"#utility.yul\":11826:12245   */\n      swap2\n      swap1\n      pop\n      jump\t// out\n        /* \"#utility.yul\":12251:12431   */\n    tag_230:\n        /* \"#utility.yul\":12299:12376   */\n      0x4e487b7100000000000000000000000000000000000000000000000000000000\n        /* \"#utility.yul\":12296:12297   */\n      0x00\n        /* \"#utility.yul\":12289:12377   */\n      mstore\n        /* \"#utility.yul\":12396:12400   */\n      0x22\n        /* \"#utility.yul\":12393:12394   */\n      0x04\n        /* \"#utility.yul\":12386:12401   */\n      mstore\n        /* \"#utility.yul\":12420:12424   */\n      0x24\n        /* \"#utility.yul\":12417:12418   */\n      0x00\n        /* \"#utility.yul\":12410:12425   */\n      revert\n        /* \"#utility.yul\":12437:12757   */\n    tag_91:\n        /* \"#utility.yul\":12481:12487   */\n      0x00\n        /* \"#utility.yul\":12518:12519   */\n      0x02\n        /* \"#utility.yul\":12512:12516   */\n      dup3\n        /* \"#utility.yul\":12508:12520   */\n      div\n        /* \"#utility.yul\":12498:12520   */\n      swap1\n      pop\n        /* \"#utility.yul\":12565:12566   */\n      0x01\n        /* \"#utility.yul\":12559:12563   */\n      dup3\n        /* \"#utility.yul\":12555:12567   */\n      and\n        /* \"#utility.yul\":12586:12604   */\n      dup1\n        /* \"#utility.yul\":12576:12657   */\n      tag_411\n      jumpi\n        /* \"#utility.yul\":12642:12646   */\n      0x7f\n        /* \"#utility.yul\":12634:12640   */\n      dup3\n        /* \"#utility.yul\":12630:12647   */\n      and\n        /* \"#utility.yul\":12620:12647   */\n      swap2\n      pop\n        /* \"#utility.yul\":12576:12657   */\n    tag_411:\n        /* \"#utility.yul\":12704:12706   */\n      0x20\n        /* \"#utility.yul\":12696:12702   */\n      dup3\n        /* \"#utility.yul\":12693:12707   */\n      lt\n        /* \"#utility.yul\":12673:12691   */\n      dup2\n        /* \"#utility.yul\":12670:12708   */\n      eq\n        /* \"#utility.yul\":12667:12751   */\n      iszero\n      tag_412\n      jumpi\n        /* \"#utility.yul\":12723:12741   */\n      tag_413\n      tag_230\n      jump\t// in\n    tag_413:\n        /* \"#utility.yul\":12667:12751   */\n    tag_412:\n        /* \"#utility.yul\":12488:12757   */\n      pop\n        /* \"#utility.yul\":12437:12757   */\n      swap2\n      swap1\n      pop\n      jump\t// out\n        /* \"#utility.yul\":12763:12943   */\n    tag_99:\n        /* \"#utility.yul\":12811:12888   */\n      0x4e487b7100000000000000000000000000000000000000000000000000000000\n        /* \"#utility.yul\":12808:12809   */\n      0x00\n        /* \"#utility.yul\":12801:12889   */\n      mstore\n        /* \"#utility.yul\":12908:12912   */\n      0x41\n        /* \"#utility.yul\":12905:12906   */\n      0x04\n        /* \"#utility.yul\":12898:12913   */\n      mstore\n        /* \"#utility.yul\":12932:12936   */\n      0x24\n        /* \"#utility.yul\":12929:12930   */\n      0x00\n        /* \"#utility.yul\":12922:12937   */\n      revert\n        /* \"#utility.yul\":12949:13129   */\n    tag_106:\n        /* \"#utility.yul\":12997:13074   */\n      0x4e487b7100000000000000000000000000000000000000000000000000000000\n        /* \"#utility.yul\":12994:12995   */\n      0x00\n        /* \"#utility.yul\":12987:13075   */\n      mstore\n        /* \"#utility.yul\":13094:13098   */\n      0x32\n        /* \"#utility.yul\":13091:13092   */\n      0x04\n        /* \"#utility.yul\":13084:13099   */\n      mstore\n        /* \"#utility.yul\":13118:13122   */\n      0x24\n        /* \"#utility.yul\":13115:13116   */\n      0x00\n        /* \"#utility.yul\":13108:13123   */\n      revert\n        /* \"#utility.yul\":13135:13315   */\n    tag_231:\n        /* \"#utility.yul\":13183:13260   */\n      0x4e487b7100000000000000000000000000000000000000000000000000000000\n        /* \"#utility.yul\":13180:13181   */\n      0x00\n        /* \"#utility.yul\":13173:13261   */\n      mstore\n        /* \"#utility.yul\":13280:13284   */\n      0x11\n        /* \"#utility.yul\":13277:13278   */\n      0x04\n        /* \"#utility.yul\":13270:13285   */\n      mstore\n        /* \"#utility.yul\":13304:13308   */\n      0x24\n        /* \"#utility.yul\":13301:13302   */\n      0x00\n        /* \"#utility.yul\":13294:13309   */\n      revert\n        /* \"#utility.yul\":13321:13554   */\n    tag_108:\n        /* \"#utility.yul\":13360:13363   */\n      0x00\n        /* \"#utility.yul\":13383:13407   */\n      tag_418\n        /* \"#utility.yul\":13401:13406   */\n      dup3\n        /* \"#utility.yul\":13383:13407   */\n      tag_197\n      jump\t// in\n    tag_418:\n        /* \"#utility.yul\":13374:13407   */\n      swap2\n      pop\n        /* \"#utility.yul\":13429:13495   */\n      0xffffffffffffffffffffffffffffffffffffffffffffffffffffffffffffffff\n        /* \"#utility.yul\":13422:13427   */\n      dup3\n        /* \"#utility.yul\":13419:13496   */\n      eq\n        /* \"#utility.yul\":13416:13519   */\n      iszero\n      tag_419\n      jumpi\n        /* \"#utility.yul\":13499:13517   */\n      tag_420\n      tag_231\n      jump\t// in\n    tag_420:\n        /* \"#utility.yul\":13416:13519   */\n    tag_419:\n        /* \"#utility.yul\":13546:13547   */\n      0x01\n        /* \"#utility.yul\":13539:13544   */\n      dup3\n        /* \"#utility.yul\":13535:13548   */\n      add\n        /* \"#utility.yul\":13528:13548   */\n      swap1\n      pop\n        /* \"#utility.yul\":13321:13554   */\n      swap2\n      swap1\n      pop\n      jump\t// out\n        /* \"#utility.yul\":13560:13724   */\n    tag_232:\n        /* \"#utility.yul\":13700:13716   */\n      0x5265656e7472616e742063616c6c000000000000000000000000000000000000\n        /* \"#utility.yul\":13696:13697   */\n      0x00\n        /* \"#utility.yul\":13688:13694   */\n      dup3\n        /* \"#utility.yul\":13684:13698   */\n      add\n        /* \"#utility.yul\":13677:13717   */\n      mstore\n        /* \"#utility.yul\":13560:13724   */\n      pop\n      jump\t// out\n        /* \"#utility.yul\":13730:14096   */\n    tag_233:\n        /* \"#utility.yul\":13872:13875   */\n      0x00\n        /* \"#utility.yul\":13893:13960   */\n      tag_423\n        /* \"#utility.yul\":13957:13959   */\n      0x0e\n        /* \"#utility.yul\":13952:13955   */\n      dup4\n        /* \"#utility.yul\":13893:13960   */\n      tag_208\n      jump\t// in\n    tag_423:\n        /* \"#utility.yul\":13886:13960   */\n      swap2\n      pop\n        /* \"#utility.yul\":13969:14062   */\n      tag_424\n        /* \"#utility.yul\":14058:14061   */\n      dup3\n        /* \"#utility.yul\":13969:14062   */\n      tag_232\n      jump\t// in\n    tag_424:\n        /* \"#utility.yul\":14087:14089   */\n      0x20\n        /* \"#utility.yul\":14082:14085   */\n      dup3\n        /* \"#utility.yul\":14078:14090   */\n      add\n        /* \"#utility.yul\":14071:14090   */\n      swap1\n      pop\n        /* \"#utility.yul\":13730:14096   */\n      swap2\n      swap1\n      pop\n      jump\t// out\n        /* \"#utility.yul\":14102:14521   */\n    tag_112:\n        /* \"#utility.yul\":14268:14272   */\n      0x00\n        /* \"#utility.yul\":14306:14308   */\n      0x20\n        /* \"#utility.yul\":14295:14304   */\n      dup3\n        /* \"#utility.yul\":14291:14309   */\n      add\n        /* \"#utility.yul\":14283:14309   */\n      swap1\n      pop\n        /* \"#utility.yul\":14355:14364   */\n      dup2\n        /* \"#utility.yul\":14349:14353   */\n      dup2\n        /* \"#utility.yul\":14345:14365   */\n      sub\n        /* \"#utility.yul\":14341:14342   */\n      0x00\n        /* \"#utility.yul\":14330:14339   */\n      dup4\n        /* \"#utility.yul\":14326:14343   */\n      add\n        /* \"#utility.yul\":14319:14366   */\n      mstore\n        /* \"#utility.yul\":14383:14514   */\n      tag_426\n        /* \"#utility.yul\":14509:14513   */\n      dup2\n        /* \"#utility.yul\":14383:14514   */\n      tag_233\n      jump\t// in\n    tag_426:\n        /* \"#utility.yul\":14375:14514   */\n      swap1\n      pop\n        /* \"#utility.yul\":14102:14521   */\n      swap2\n      swap1\n      pop\n      jump\t// out\n        /* \"#utility.yul\":14527:14706   */\n    tag_234:\n        /* \"#utility.yul\":14667:14698   */\n      0x416d6f756e74206d7573742062652067726561746572207468616e2030000000\n        /* \"#utility.yul\":14663:14664   */\n      0x00\n        /* \"#utility.yul\":14655:14661   */\n      dup3\n        /* \"#utility.yul\":14651:14665   */\n      add\n        /* \"#utility.yul\":14644:14699   */\n      mstore\n        /* \"#utility.yul\":14527:14706   */\n      pop\n      jump\t// out\n        /* \"#utility.yul\":14712:15078   */\n    tag_235:\n        /* \"#utility.yul\":14854:14857   */\n      0x00\n        /* \"#utility.yul\":14875:14942   */\n      tag_429\n        /* \"#utility.yul\":14939:14941   */\n      0x1d\n        /* \"#utility.yul\":14934:14937   */\n      dup4\n        /* \"#utility.yul\":14875:14942   */\n      tag_208\n      jump\t// in\n    tag_429:\n        /* \"#utility.yul\":14868:14942   */\n      swap2\n      pop\n        /* \"#utility.yul\":14951:15044   */\n      tag_430\n        /* \"#utility.yul\":15040:15043   */\n      dup3\n        /* \"#utility.yul\":14951:15044   */\n      tag_234\n      jump\t// in\n    tag_430:\n        /* \"#utility.yul\":15069:15071   */\n      0x20\n        /* \"#utility.yul\":15064:15067   */\n      dup3\n        /* \"#utility.yul\":15060:15072   */\n      add\n        /* \"#utility.yul\":15053:15072   */\n      swap1\n      pop\n        /* \"#utility.yul\":14712:15078   */\n      swap2\n      swap1\n      pop\n      jump\t// out\n        /* \"#utility.yul\":15084:15503   */\n    tag_116:\n        /* \"#utility.yul\":15250:15254   */\n      0x00\n        /* \"#utility.yul\":15288:15290   */\n      0x20\n        /* \"#utility.yul\":15277:15286   */\n      dup3\n        /* \"#utility.yul\":15273:15291   */\n      add\n        /* \"#utility.yul\":15265:15291   */\n      swap1\n      pop\n        /* \"#utility.yul\":15337:15346   */\n      dup2\n        /* \"#utility.yul\":15331:15335   */\n      dup2\n        /* \"#utility.yul\":15327:15347   */\n      sub\n        /* \"#utility.yul\":15323:15324   */\n      0x00\n        /* \"#utility.yul\":15312:15321   */\n      dup4\n        /* \"#utility.yul\":15308:15325   */\n      add\n        /* \"#utility.yul\":15301:15348   */\n      mstore\n        /* \"#utility.yul\":15365:15496   */\n      tag_432\n        /* \"#utility.yul\":15491:15495   */\n      dup2\n        /* \"#utility.yul\":15365:15496   */\n      tag_235\n      jump\t// in\n    tag_432:\n        /* \"#utility.yul\":15357:15496   */\n      swap1\n      pop\n        /* \"#utility.yul\":15084:15503   */\n      swap2\n      swap1\n      pop\n      jump\t// out\n        /* \"#utility.yul\":15509:15951   */\n    tag_118:\n        /* \"#utility.yul\":15658:15662   */\n      0x00\n        /* \"#utility.yul\":15696:15698   */\n      0x60\n        /* \"#utility.yul\":15685:15694   */\n      dup3\n        /* \"#utility.yul\":15681:15699   */\n      add\n        /* \"#utility.yul\":15673:15699   */\n      swap1\n      pop\n        /* \"#utility.yul\":15709:15780   */\n      tag_434\n        /* \"#utility.yul\":15777:15778   */\n      0x00\n        /* \"#utility.yul\":15766:15775   */\n      dup4\n        /* \"#utility.yul\":15762:15779   */\n      add\n        /* \"#utility.yul\":15753:15759   */\n      dup7\n        /* \"#utility.yul\":15709:15780   */\n      tag_206\n      jump\t// in\n    tag_434:\n        /* \"#utility.yul\":15790:15862   */\n      tag_435\n        /* \"#utility.yul\":15858:15860   */\n      0x20\n        /* \"#utility.yul\":15847:15856   */\n      dup4\n        /* \"#utility.yul\":15843:15861   */\n      add\n        /* \"#utility.yul\":15834:15840   */\n      dup6\n        /* \"#utility.yul\":15790:15862   */\n      tag_206\n      jump\t// in\n    tag_435:\n        /* \"#utility.yul\":15872:15944   */\n      tag_436\n        /* \"#utility.yul\":15940:15942   */\n      0x40\n        /* \"#utility.yul\":15929:15938   */\n      dup4\n        /* \"#utility.yul\":15925:15943   */\n      add\n        /* \"#utility.yul\":15916:15922   */\n      dup5\n        /* \"#utility.yul\":15872:15944   */\n      tag_214\n      jump\t// in\n    tag_436:\n        /* \"#utility.yul\":15509:15951   */\n      swap5\n      swap4\n      pop\n      pop\n      pop\n      pop\n      jump\t// out\n        /* \"#utility.yul\":15957:16073   */\n    tag_236:\n        /* \"#utility.yul\":16027:16048   */\n      tag_438\n        /* \"#utility.yul\":16042:16047   */\n      dup2\n        /* \"#utility.yul\":16027:16048   */\n      tag_224\n      jump\t// in\n    tag_438:\n        /* \"#utility.yul\":16020:16025   */\n      dup2\n        /* \"#utility.yul\":16017:16049   */\n      eq\n        /* \"#utility.yul\":16007:16067   */\n      tag_439\n      jumpi\n        /* \"#utility.yul\":16063:16064   */\n      0x00\n        /* \"#utility.yul\":16060:16061   */\n      dup1\n        /* \"#utility.yul\":16053:16065   */\n      revert\n        /* \"#utility.yul\":16007:16067   */\n    tag_439:\n        /* \"#utility.yul\":15957:16073   */\n      pop\n      jump\t// out\n        /* \"#utility.yul\":16079:16216   */\n    tag_237:\n        /* \"#utility.yul\":16133:16138   */\n      0x00\n        /* \"#utility.yul\":16164:16170   */\n      dup2\n        /* \"#utility.yul\":16158:16171   */\n      mload\n        /* \"#utility.yul\":16149:16171   */\n      swap1\n      pop\n        /* \"#utility.yul\":16180:16210   */\n      tag_441\n        /* \"#utility.yul\":16204:16209   */\n      dup2\n        /* \"#utility.yul\":16180:16210   */\n      tag_236\n      jump\t// in\n    tag_441:\n        /* \"#utility.yul\":16079:16216   */\n      swap3\n      swap2\n      pop\n      pop\n      jump\t// out\n        /* \"#utility.yul\":16222:16567   */\n    tag_122:\n        /* \"#utility.yul\":16289:16295   */\n      0x00\n        /* \"#utility.yul\":16338:16340   */\n      0x20\n        /* \"#utility.yul\":16326:16335   */\n      dup3\n        /* \"#utility.yul\":16317:16324   */\n      dup5\n        /* \"#utility.yul\":16313:16336   */\n      sub\n        /* \"#utility.yul\":16309:16341   */\n      slt\n        /* \"#utility.yul\":16306:16425   */\n      iszero\n      tag_443\n      jumpi\n        /* \"#utility.yul\":16344:16423   */\n      tag_444\n      tag_195\n      jump\t// in\n    tag_444:\n        /* \"#utility.yul\":16306:16425   */\n    tag_443:\n        /* \"#utility.yul\":16464:16465   */\n      0x00\n        /* \"#utility.yul\":16489:16550   */\n      tag_445\n        /* \"#utility.yul\":16542:16549   */\n      dup5\n        /* \"#utility.yul\":16533:16539   */\n      dup3\n        /* \"#utility.yul\":16522:16531   */\n      dup6\n        /* \"#utility.yul\":16518:16540   */\n      add\n        /* \"#utility.yul\":16489:16550   */\n      tag_237\n      jump\t// in\n    tag_445:\n        /* \"#utility.yul\":16479:16550   */\n      swap2\n      pop\n        /* \"#utility.yul\":16435:16560   */\n      pop\n        /* \"#utility.yul\":16222:16567   */\n      swap3\n      swap2\n      pop\n      pop\n      jump\t// out\n        /* \"#utility.yul\":16573:16793   */\n    tag_238:\n        /* \"#utility.yul\":16713:16747   */\n      0x4f6e6c7920746865206f776e65722063616e20616c6c6f636174652066756e64\n        /* \"#utility.yul\":16709:16710   */\n      0x00\n        /* \"#utility.yul\":16701:16707   */\n      dup3\n        /* \"#utility.yul\":16697:16711   */\n      add\n        /* \"#utility.yul\":16690:16748   */\n      mstore\n        /* \"#utility.yul\":16782:16785   */\n      0x7300000000000000000000000000000000000000000000000000000000000000\n        /* \"#utility.yul\":16777:16779   */\n      0x20\n        /* \"#utility.yul\":16769:16775   */\n      dup3\n        /* \"#utility.yul\":16765:16780   */\n      add\n        /* \"#utility.yul\":16758:16786   */\n      mstore\n        /* \"#utility.yul\":16573:16793   */\n      pop\n      jump\t// out\n        /* \"#utility.yul\":16799:17165   */\n    tag_239:\n        /* \"#utility.yul\":16941:16944   */\n      0x00\n        /* \"#utility.yul\":16962:17029   */\n      tag_448\n        /* \"#utility.yul\":17026:17028   */\n      0x21\n        /* \"#utility.yul\":17021:17024   */\n      dup4\n        /* \"#utility.yul\":16962:17029   */\n      tag_208\n      jump\t// in\n    tag_448:\n        /* \"#utility.yul\":16955:17029   */\n      swap2\n      pop\n        /* \"#utility.yul\":17038:17131   */\n      tag_449\n        /* \"#utility.yul\":17127:17130   */\n      dup3\n        /* \"#utility.yul\":17038:17131   */\n      tag_238\n      jump\t// in\n    tag_449:\n        /* \"#utility.yul\":17156:17158   */\n      0x40\n        /* \"#utility.yul\":17151:17154   */\n      dup3\n        /* \"#utility.yul\":17147:17159   */\n      add\n        /* \"#utility.yul\":17140:17159   */\n      swap1\n      pop\n        /* \"#utility.yul\":16799:17165   */\n      swap2\n      swap1\n      pop\n      jump\t// out\n        /* \"#utility.yul\":17171:17590   */\n    tag_132:\n        /* \"#utility.yul\":17337:17341   */\n      0x00\n        /* \"#utility.yul\":17375:17377   */\n      0x20\n        /* \"#utility.yul\":17364:17373   */\n      dup3\n        /* \"#utility.yul\":17360:17378   */\n      add\n        /* \"#utility.yul\":17352:17378   */\n      swap1\n      pop\n        /* \"#utility.yul\":17424:17433   */\n      dup2\n        /* \"#utility.yul\":17418:17422   */\n      dup2\n        /* \"#utility.yul\":17414:17434   */\n      sub\n        /* \"#utility.yul\":17410:17411   */\n      0x00\n        /* \"#utility.yul\":17399:17408   */\n      dup4\n        /* \"#utility.yul\":17395:17412   */\n      add\n        /* \"#utility.yul\":17388:17435   */\n      mstore\n        /* \"#utility.yul\":17452:17583   */\n      tag_451\n        /* \"#utility.yul\":17578:17582   */\n      dup2\n        /* \"#utility.yul\":17452:17583   */\n      tag_239\n      jump\t// in\n    tag_451:\n        /* \"#utility.yul\":17444:17583   */\n      swap1\n      pop\n        /* \"#utility.yul\":17171:17590   */\n      swap2\n      swap1\n      pop\n      jump\t// out\n        /* \"#utility.yul\":17596:17928   */\n    tag_140:\n        /* \"#utility.yul\":17717:17721   */\n      0x00\n        /* \"#utility.yul\":17755:17757   */\n      0x40\n        /* \"#utility.yul\":17744:17753   */\n      dup3\n        /* \"#utility.yul\":17740:17758   */\n      add\n        /* \"#utility.yul\":17732:17758   */\n      swap1\n      pop\n        /* \"#utility.yul\":17768:17839   */\n      tag_453\n        /* \"#utility.yul\":17836:17837   */\n      0x00\n        /* \"#utility.yul\":17825:17834   */\n      dup4\n        /* \"#utility.yul\":17821:17838   */\n      add\n        /* \"#utility.yul\":17812:17818   */\n      dup6\n        /* \"#utility.yul\":17768:17839   */\n      tag_206\n      jump\t// in\n    tag_453:\n        /* \"#utility.yul\":17849:17921   */\n      tag_454\n        /* \"#utility.yul\":17917:17919   */\n      0x20\n        /* \"#utility.yul\":17906:17915   */\n      dup4\n        /* \"#utility.yul\":17902:17920   */\n      add\n        /* \"#utility.yul\":17893:17899   */\n      dup5\n        /* \"#utility.yul\":17849:17921   */\n      tag_214\n      jump\t// in\n    tag_454:\n        /* \"#utility.yul\":17596:17928   */\n      swap4\n      swap3\n      pop\n      pop\n      pop\n      jump\t// out\n        /* \"#utility.yul\":17934:18125   */\n    tag_145:\n        /* \"#utility.yul\":17974:17978   */\n      0x00\n        /* \"#utility.yul\":17994:18014   */\n      tag_456\n        /* \"#utility.yul\":18012:18013   */\n      dup3\n        /* \"#utility.yul\":17994:18014   */\n      tag_197\n      jump\t// in\n    tag_456:\n        /* \"#utility.yul\":17989:18014   */\n      swap2\n      pop\n        /* \"#utility.yul\":18028:18048   */\n      tag_457\n        /* \"#utility.yul\":18046:18047   */\n      dup4\n        /* \"#utility.yul\":18028:18048   */\n      tag_197\n      jump\t// in\n    tag_457:\n        /* \"#utility.yul\":18023:18048   */\n      swap3\n      pop\n        /* \"#utility.yul\":18067:18068   */\n      dup3\n        /* \"#utility.yul\":18064:18065   */\n      dup3\n        /* \"#utility.yul\":18061:18069   */\n      lt\n        /* \"#utility.yul\":18058:18092   */\n      iszero\n      tag_458\n      jumpi\n        /* \"#utility.yul\":18072:18090   */\n      tag_459\n      tag_231\n      jump\t// in\n    tag_459:\n        /* \"#utility.yul\":18058:18092   */\n    tag_458:\n        /* \"#utility.yul\":18117:18118   */\n      dup3\n        /* \"#utility.yul\":18114:18115   */\n      dup3\n        /* \"#utility.yul\":18110:18119   */\n      sub\n        /* \"#utility.yul\":18102:18119   */\n      swap1\n      pop\n        /* \"#utility.yul\":17934:18125   */\n      swap3\n      swap2\n      pop\n      pop\n      jump\t// out\n        /* \"#utility.yul\":18131:18274   */\n    tag_240:\n        /* \"#utility.yul\":18188:18193   */\n      0x00\n        /* \"#utility.yul\":18219:18225   */\n      dup2\n        /* \"#utility.yul\":18213:18226   */\n      mload\n        /* \"#utility.yul\":18204:18226   */\n      swap1\n      pop\n        /* \"#utility.yul\":18235:18268   */\n      tag_461\n        /* \"#utility.yul\":18262:18267   */\n      dup2\n        /* \"#utility.yul\":18235:18268   */\n      tag_198\n      jump\t// in\n    tag_461:\n        /* \"#utility.yul\":18131:18274   */\n      swap3\n      swap2\n      pop\n      pop\n      jump\t// out\n        /* \"#utility.yul\":18280:18631   */\n    tag_156:\n        /* \"#utility.yul\":18350:18356   */\n      0x00\n        /* \"#utility.yul\":18399:18401   */\n      0x20\n        /* \"#utility.yul\":18387:18396   */\n      dup3\n        /* \"#utility.yul\":18378:18385   */\n      dup5\n        /* \"#utility.yul\":18374:18397   */\n      sub\n        /* \"#utility.yul\":18370:18402   */\n      slt\n        /* \"#utility.yul\":18367:18486   */\n      iszero\n      tag_463\n      jumpi\n        /* \"#utility.yul\":18405:18484   */\n      tag_464\n      tag_195\n      jump\t// in\n    tag_464:\n        /* \"#utility.yul\":18367:18486   */\n    tag_463:\n        /* \"#utility.yul\":18525:18526   */\n      0x00\n        /* \"#utility.yul\":18550:18614   */\n      tag_465\n        /* \"#utility.yul\":18606:18613   */\n      dup5\n        /* \"#utility.yul\":18597:18603   */\n      dup3\n        /* \"#utility.yul\":18586:18595   */\n      dup6\n        /* \"#utility.yul\":18582:18604   */\n      add\n        /* \"#utility.yul\":18550:18614   */\n      tag_240\n      jump\t// in\n    tag_465:\n        /* \"#utility.yul\":18540:18614   */\n      swap2\n      pop\n        /* \"#utility.yul\":18496:18624   */\n      pop\n        /* \"#utility.yul\":18280:18631   */\n      swap3\n      swap2\n      pop\n      pop\n      jump\t// out\n        /* \"#utility.yul\":18637:18985   */\n    tag_158:\n        /* \"#utility.yul\":18677:18684   */\n      0x00\n        /* \"#utility.yul\":18700:18720   */\n      tag_467\n        /* \"#utility.yul\":18718:18719   */\n      dup3\n        /* \"#utility.yul\":18700:18720   */\n      tag_197\n      jump\t// in\n    tag_467:\n        /* \"#utility.yul\":18695:18720   */\n      swap2\n      pop\n        /* \"#utility.yul\":18734:18754   */\n      tag_468\n        /* \"#utility.yul\":18752:18753   */\n      dup4\n        /* \"#utility.yul\":18734:18754   */\n      tag_197\n      jump\t// in\n    tag_468:\n        /* \"#utility.yul\":18729:18754   */\n      swap3\n      pop\n        /* \"#utility.yul\":18922:18923   */\n      dup2\n        /* \"#utility.yul\":18854:18920   */\n      0xffffffffffffffffffffffffffffffffffffffffffffffffffffffffffffffff\n        /* \"#utility.yul\":18850:18924   */\n      div\n        /* \"#utility.yul\":18847:18848   */\n      dup4\n        /* \"#utility.yul\":18844:18925   */\n      gt\n        /* \"#utility.yul\":18839:18840   */\n      dup3\n        /* \"#utility.yul\":18832:18841   */\n      iszero\n        /* \"#utility.yul\":18825:18842   */\n      iszero\n        /* \"#utility.yul\":18821:18926   */\n      and\n        /* \"#utility.yul\":18818:18949   */\n      iszero\n      tag_469\n      jumpi\n        /* \"#utility.yul\":18929:18947   */\n      tag_470\n      tag_231\n      jump\t// in\n    tag_470:\n        /* \"#utility.yul\":18818:18949   */\n    tag_469:\n        /* \"#utility.yul\":18977:18978   */\n      dup3\n        /* \"#utility.yul\":18974:18975   */\n      dup3\n        /* \"#utility.yul\":18970:18979   */\n      mul\n        /* \"#utility.yul\":18959:18979   */\n      swap1\n      pop\n        /* \"#utility.yul\":18637:18985   */\n      swap3\n      swap2\n      pop\n      pop\n      jump\t// out\n        /* \"#utility.yul\":18991:19171   */\n    tag_241:\n        /* \"#utility.yul\":19039:19116   */\n      0x4e487b7100000000000000000000000000000000000000000000000000000000\n        /* \"#utility.yul\":19036:19037   */\n      0x00\n        /* \"#utility.yul\":19029:19117   */\n      mstore\n        /* \"#utility.yul\":19136:19140   */\n      0x12\n        /* \"#utility.yul\":19133:19134   */\n      0x04\n        /* \"#utility.yul\":19126:19141   */\n      mstore\n        /* \"#utility.yul\":19160:19164   */\n      0x24\n        /* \"#utility.yul\":19157:19158   */\n      0x00\n        /* \"#utility.yul\":19150:19165   */\n      revert\n        /* \"#utility.yul\":19177:19362   */\n    tag_160:\n        /* \"#utility.yul\":19217:19218   */\n      0x00\n        /* \"#utility.yul\":19234:19254   */\n      tag_473\n        /* \"#utility.yul\":19252:19253   */\n      dup3\n        /* \"#utility.yul\":19234:19254   */\n      tag_197\n      jump\t// in\n    tag_473:\n        /* \"#utility.yul\":19229:19254   */\n      swap2\n      pop\n        /* \"#utility.yul\":19268:19288   */\n      tag_474\n        /* \"#utility.yul\":19286:19287   */\n      dup4\n        /* \"#utility.yul\":19268:19288   */\n      tag_197\n      jump\t// in\n    tag_474:\n        /* \"#utility.yul\":19263:19288   */\n      swap3\n      pop\n        /* \"#utility.yul\":19307:19308   */\n      dup3\n        /* \"#utility.yul\":19297:19332   */\n      tag_475\n      jumpi\n        /* \"#utility.yul\":19312:19330   */\n      tag_476\n      tag_241\n      jump\t// in\n    tag_476:\n        /* \"#utility.yul\":19297:19332   */\n    tag_475:\n        /* \"#utility.yul\":19354:19355   */\n      dup3\n        /* \"#utility.yul\":19351:19352   */\n      dup3\n        /* \"#utility.yul\":19347:19356   */\n      div\n        /* \"#utility.yul\":19342:19356   */\n      swap1\n      pop\n        /* \"#utility.yul\":19177:19362   */\n      swap3\n      swap2\n      pop\n      pop\n      jump\t// out\n        /* \"#utility.yul\":19368:19673   */\n    tag_175:\n        /* \"#utility.yul\":19408:19411   */\n      0x00\n        /* \"#utility.yul\":19427:19447   */\n      tag_478\n        /* \"#utility.yul\":19445:19446   */\n      dup3\n        /* \"#utility.yul\":19427:19447   */\n      tag_197\n      jump\t// in\n    tag_478:\n        /* \"#utility.yul\":19422:19447   */\n      swap2\n      pop\n        /* \"#utility.yul\":19461:19481   */\n      tag_479\n        /* \"#utility.yul\":19479:19480   */\n      dup4\n        /* \"#utility.yul\":19461:19481   */\n      tag_197\n      jump\t// in\n    tag_479:\n        /* \"#utility.yul\":19456:19481   */\n      swap3\n      pop\n        /* \"#utility.yul\":19615:19616   */\n      dup3\n        /* \"#utility.yul\":19547:19613   */\n      0xffffffffffffffffffffffffffffffffffffffffffffffffffffffffffffffff\n        /* \"#utility.yul\":19543:19617   */\n      sub\n        /* \"#utility.yul\":19540:19541   */\n      dup3\n        /* \"#utility.yul\":19537:19618   */\n      gt\n        /* \"#utility.yul\":19534:19641   */\n      iszero\n      tag_480\n      jumpi\n        /* \"#utility.yul\":19621:19639   */\n      tag_481\n      tag_231\n      jump\t// in\n    tag_481:\n        /* \"#utility.yul\":19534:19641   */\n    tag_480:\n        /* \"#utility.yul\":19665:19666   */\n      dup3\n        /* \"#utility.yul\":19662:19663   */\n      dup3\n        /* \"#utility.yul\":19658:19667   */\n      add\n        /* \"#utility.yul\":19651:19667   */\n      swap1\n      pop\n        /* \"#utility.yul\":19368:19673   */\n      swap3\n      swap2\n      pop\n      pop\n      jump\t// out\n        /* \"#utility.yul\":19865:19980   */\n    tag_243:\n        /* \"#utility.yul\":19954:19955   */\n      0x02\n        /* \"#utility.yul\":19947:19952   */\n      dup2\n        /* \"#utility.yul\":19944:19956   */\n      lt\n        /* \"#utility.yul\":19934:19974   */\n      tag_484\n      jumpi\n        /* \"#utility.yul\":19970:19971   */\n      0x00\n        /* \"#utility.yul\":19967:19968   */\n      dup1\n        /* \"#utility.yul\":19960:19972   */\n      revert\n        /* \"#utility.yul\":19934:19974   */\n    tag_484:\n        /* \"#utility.yul\":19865:19980   */\n      pop\n      jump\t// out\n        /* \"#utility.yul\":19986:20204   */\n    tag_244:\n        /* \"#utility.yul\":20047:20058   */\n      0x00\n        /* \"#utility.yul\":20096:20099   */\n      dup2\n        /* \"#utility.yul\":20083:20100   */\n      calldataload\n        /* \"#utility.yul\":20109:20158   */\n      tag_486\n        /* \"#utility.yul\":20152:20157   */\n      dup2\n        /* \"#utility.yul\":20109:20158   */\n      tag_243\n      jump\t// in\n    tag_486:\n        /* \"#utility.yul\":20192:20197   */\n      dup1\n        /* \"#utility.yul\":20168:20197   */\n      swap2\n      pop\n        /* \"#utility.yul\":20059:20204   */\n      pop\n        /* \"#utility.yul\":19986:20204   */\n      swap2\n      swap1\n      pop\n      jump\t// out\n        /* \"#utility.yul\":20210:20302   */\n    tag_245:\n        /* \"#utility.yul\":20242:20250   */\n      0x00\n        /* \"#utility.yul\":20289:20294   */\n      dup2\n        /* \"#utility.yul\":20286:20287   */\n      0x00\n        /* \"#utility.yul\":20282:20295   */\n      shl\n        /* \"#utility.yul\":20261:20295   */\n      swap1\n      pop\n        /* \"#utility.yul\":20210:20302   */\n      swap2\n      swap1\n      pop\n      jump\t// out\n        /* \"#utility.yul\":20308:20534   */\n    tag_246:\n        /* \"#utility.yul\":20365:20371   */\n      0x00\n        /* \"#utility.yul\":20394:20397   */\n      0xff\n        /* \"#utility.yul\":20418:20440   */\n      tag_489\n        /* \"#utility.yul\":20431:20439   */\n      dup5\n        /* \"#utility.yul\":20418:20440   */\n      tag_245\n      jump\t// in\n    tag_489:\n        /* \"#utility.yul\":20406:20440   */\n      swap4\n      pop\n        /* \"#utility.yul\":20473:20477   */\n      dup1\n        /* \"#utility.yul\":20469:20478   */\n      not\n        /* \"#utility.yul\":20462:20467   */\n      dup4\n        /* \"#utility.yul\":20458:20479   */\n      and\n        /* \"#utility.yul\":20449:20479   */\n      swap3\n      pop\n        /* \"#utility.yul\":20522:20526   */\n      dup1\n        /* \"#utility.yul\":20512:20520   */\n      dup5\n        /* \"#utility.yul\":20508:20527   */\n      and\n        /* \"#utility.yul\":20501:20506   */\n      dup4\n        /* \"#utility.yul\":20498:20528   */\n      or\n        /* \"#utility.yul\":20488:20528   */\n      swap2\n      pop\n        /* \"#utility.yul\":20372:20534   */\n      pop\n        /* \"#utility.yul\":20308:20534   */\n      swap3\n      swap2\n      pop\n      pop\n      jump\t// out\n        /* \"#utility.yul\":20540:20701   */\n    tag_247:\n        /* \"#utility.yul\":20622:20631   */\n      0x00\n        /* \"#utility.yul\":20655:20695   */\n      tag_491\n        /* \"#utility.yul\":20689:20694   */\n      dup3\n        /* \"#utility.yul\":20655:20695   */\n      tag_201\n      jump\t// in\n    tag_491:\n        /* \"#utility.yul\":20642:20695   */\n      swap1\n      pop\n        /* \"#utility.yul\":20540:20701   */\n      swap2\n      swap1\n      pop\n      jump\t// out\n        /* \"#utility.yul\":20707:20798   */\n    tag_248:\n        /* \"#utility.yul\":20766:20769   */\n      0x00\n        /* \"#utility.yul\":20787:20792   */\n      dup2\n        /* \"#utility.yul\":20780:20792   */\n      swap1\n      pop\n        /* \"#utility.yul\":20707:20798   */\n      swap2\n      swap1\n      pop\n      jump\t// out\n        /* \"#utility.yul\":20804:21145   */\n    tag_249:\n        /* \"#utility.yul\":20946:21017   */\n      tag_494\n        /* \"#utility.yul\":21009:21016   */\n      dup3\n        /* \"#utility.yul\":20946:21017   */\n      tag_247\n      jump\t// in\n    tag_494:\n        /* \"#utility.yul\":21039:21138   */\n      tag_495\n        /* \"#utility.yul\":21080:21137   */\n      tag_496\n        /* \"#utility.yul\":21120:21136   */\n      dup3\n        /* \"#utility.yul\":21080:21137   */\n      tag_248\n      jump\t// in\n    tag_496:\n        /* \"#utility.yul\":21073:21077   */\n      dup4\n        /* \"#utility.yul\":21067:21078   */\n      sload\n        /* \"#utility.yul\":21039:21138   */\n      tag_246\n      jump\t// in\n    tag_495:\n        /* \"#utility.yul\":21033:21037   */\n      dup3\n        /* \"#utility.yul\":21026:21139   */\n      sstore\n        /* \"#utility.yul\":20912:21145   */\n      pop\n        /* \"#utility.yul\":20804:21145   */\n      pop\n      pop\n      jump\t// out\n        /* \"#utility.yul\":21151:21337   */\n    tag_250:\n        /* \"#utility.yul\":21196:21207   */\n      0x00\n        /* \"#utility.yul\":21245:21248   */\n      dup2\n        /* \"#utility.yul\":21232:21249   */\n      calldataload\n        /* \"#utility.yul\":21258:21291   */\n      tag_498\n        /* \"#utility.yul\":21285:21290   */\n      dup2\n        /* \"#utility.yul\":21258:21291   */\n      tag_212\n      jump\t// in\n    tag_498:\n        /* \"#utility.yul\":21325:21330   */\n      dup1\n        /* \"#utility.yul\":21301:21330   */\n      swap2\n      pop\n        /* \"#utility.yul\":21208:21337   */\n      pop\n        /* \"#utility.yul\":21151:21337   */\n      swap2\n      swap1\n      pop\n      jump\t// out\n        /* \"#utility.yul\":21343:21435   */\n    tag_251:\n        /* \"#utility.yul\":21375:21383   */\n      0x00\n        /* \"#utility.yul\":21422:21427   */\n      dup2\n        /* \"#utility.yul\":21419:21420   */\n      0x08\n        /* \"#utility.yul\":21415:21428   */\n      shl\n        /* \"#utility.yul\":21394:21428   */\n      swap1\n      pop\n        /* \"#utility.yul\":21343:21435   */\n      swap2\n      swap1\n      pop\n      jump\t// out\n        /* \"#utility.yul\":21441:21709   */\n    tag_252:\n        /* \"#utility.yul\":21499:21505   */\n      0x00\n        /* \"#utility.yul\":21528:21572   */\n      0xffffffffffffffffffffffffffffffffffffffff00\n        /* \"#utility.yul\":21593:21615   */\n      tag_501\n        /* \"#utility.yul\":21606:21614   */\n      dup5\n        /* \"#utility.yul\":21593:21615   */\n      tag_251\n      jump\t// in\n    tag_501:\n        /* \"#utility.yul\":21581:21615   */\n      swap4\n      pop\n        /* \"#utility.yul\":21648:21652   */\n      dup1\n        /* \"#utility.yul\":21644:21653   */\n      not\n        /* \"#utility.yul\":21637:21642   */\n      dup4\n        /* \"#utility.yul\":21633:21654   */\n      and\n        /* \"#utility.yul\":21624:21654   */\n      swap3\n      pop\n        /* \"#utility.yul\":21697:21701   */\n      dup1\n        /* \"#utility.yul\":21687:21695   */\n      dup5\n        /* \"#utility.yul\":21683:21702   */\n      and\n        /* \"#utility.yul\":21676:21681   */\n      dup4\n        /* \"#utility.yul\":21673:21703   */\n      or\n        /* \"#utility.yul\":21663:21703   */\n      swap2\n      pop\n        /* \"#utility.yul\":21506:21709   */\n      pop\n        /* \"#utility.yul\":21441:21709   */\n      swap3\n      swap2\n      pop\n      pop\n      jump\t// out\n        /* \"#utility.yul\":21715:21775   */\n    tag_253:\n        /* \"#utility.yul\":21743:21746   */\n      0x00\n        /* \"#utility.yul\":21764:21769   */\n      dup2\n        /* \"#utility.yul\":21757:21769   */\n      swap1\n      pop\n        /* \"#utility.yul\":21715:21775   */\n      swap2\n      swap1\n      pop\n      jump\t// out\n        /* \"#utility.yul\":21781:21923   */\n    tag_254:\n        /* \"#utility.yul\":21831:21840   */\n      0x00\n        /* \"#utility.yul\":21864:21917   */\n      tag_504\n        /* \"#utility.yul\":21882:21916   */\n      tag_505\n        /* \"#utility.yul\":21891:21915   */\n      tag_506\n        /* \"#utility.yul\":21909:21914   */\n      dup5\n        /* \"#utility.yul\":21891:21915   */\n      tag_204\n      jump\t// in\n    tag_506:\n        /* \"#utility.yul\":21882:21916   */\n      tag_253\n      jump\t// in\n    tag_505:\n        /* \"#utility.yul\":21864:21917   */\n      tag_204\n      jump\t// in\n    tag_504:\n        /* \"#utility.yul\":21851:21917   */\n      swap1\n      pop\n        /* \"#utility.yul\":21781:21923   */\n      swap2\n      swap1\n      pop\n      jump\t// out\n        /* \"#utility.yul\":21929:22055   */\n    tag_255:\n        /* \"#utility.yul\":21979:21988   */\n      0x00\n        /* \"#utility.yul\":22012:22049   */\n      tag_508\n        /* \"#utility.yul\":22043:22048   */\n      dup3\n        /* \"#utility.yul\":22012:22049   */\n      tag_254\n      jump\t// in\n    tag_508:\n        /* \"#utility.yul\":21999:22049   */\n      swap1\n      pop\n        /* \"#utility.yul\":21929:22055   */\n      swap2\n      swap1\n      pop\n      jump\t// out\n        /* \"#utility.yul\":22061:22187   */\n    tag_256:\n        /* \"#utility.yul\":22111:22120   */\n      0x00\n        /* \"#utility.yul\":22144:22181   */\n      tag_510\n        /* \"#utility.yul\":22175:22180   */\n      dup3\n        /* \"#utility.yul\":22144:22181   */\n      tag_255\n      jump\t// in\n    tag_510:\n        /* \"#utility.yul\":22131:22181   */\n      swap1\n      pop\n        /* \"#utility.yul\":22061:22187   */\n      swap2\n      swap1\n      pop\n      jump\t// out\n        /* \"#utility.yul\":22193:22268   */\n    tag_257:\n        /* \"#utility.yul\":22236:22239   */\n      0x00\n        /* \"#utility.yul\":22257:22262   */\n      dup2\n        /* \"#utility.yul\":22250:22262   */\n      swap1\n      pop\n        /* \"#utility.yul\":22193:22268   */\n      swap2\n      swap1\n      pop\n      jump\t// out\n        /* \"#utility.yul\":22274:22536   */\n    tag_258:\n        /* \"#utility.yul\":22384:22423   */\n      tag_513\n        /* \"#utility.yul\":22415:22422   */\n      dup3\n        /* \"#utility.yul\":22384:22423   */\n      tag_256\n      jump\t// in\n    tag_513:\n        /* \"#utility.yul\":22445:22529   */\n      tag_514\n        /* \"#utility.yul\":22487:22528   */\n      tag_515\n        /* \"#utility.yul\":22511:22527   */\n      dup3\n        /* \"#utility.yul\":22487:22528   */\n      tag_257\n      jump\t// in\n    tag_515:\n        /* \"#utility.yul\":22480:22484   */\n      dup4\n        /* \"#utility.yul\":22474:22485   */\n      sload\n        /* \"#utility.yul\":22445:22529   */\n      tag_252\n      jump\t// in\n    tag_514:\n        /* \"#utility.yul\":22439:22443   */\n      dup3\n        /* \"#utility.yul\":22432:22530   */\n      sstore\n        /* \"#utility.yul\":22350:22536   */\n      pop\n        /* \"#utility.yul\":22274:22536   */\n      pop\n      pop\n      jump\t// out\n        /* \"#utility.yul\":22542:22659   */\n    tag_259:\n        /* \"#utility.yul\":22651:22652   */\n      0x00\n        /* \"#utility.yul\":22648:22649   */\n      dup1\n        /* \"#utility.yul\":22641:22653   */\n      revert\n        /* \"#utility.yul\":22665:22782   */\n    tag_260:\n        /* \"#utility.yul\":22774:22775   */\n      0x00\n        /* \"#utility.yul\":22771:22772   */\n      dup1\n        /* \"#utility.yul\":22764:22776   */\n      revert\n        /* \"#utility.yul\":22788:22905   */\n    tag_261:\n        /* \"#utility.yul\":22897:22898   */\n      0x00\n        /* \"#utility.yul\":22894:22895   */\n      dup1\n        /* \"#utility.yul\":22887:22899   */\n      revert\n        /* \"#utility.yul\":22911:23636   */\n    tag_262:\n        /* \"#utility.yul\":22989:22993   */\n      0x00\n        /* \"#utility.yul\":22995:23001   */\n      dup1\n        /* \"#utility.yul\":23051:23062   */\n      dup4\n        /* \"#utility.yul\":23038:23063   */\n      calldataload\n        /* \"#utility.yul\":23151:23152   */\n      0x01\n        /* \"#utility.yul\":23145:23149   */\n      0x20\n        /* \"#utility.yul\":23141:23153   */\n      sub\n        /* \"#utility.yul\":23130:23138   */\n      dup5\n        /* \"#utility.yul\":23114:23128   */\n      calldatasize\n        /* \"#utility.yul\":23110:23139   */\n      sub\n        /* \"#utility.yul\":23106:23154   */\n      sub\n        /* \"#utility.yul\":23086:23104   */\n      dup2\n        /* \"#utility.yul\":23082:23155   */\n      slt\n        /* \"#utility.yul\":23072:23240   */\n      tag_520\n      jumpi\n        /* \"#utility.yul\":23159:23238   */\n      tag_521\n      tag_259\n      jump\t// in\n    tag_521:\n        /* \"#utility.yul\":23072:23240   */\n    tag_520:\n        /* \"#utility.yul\":23271:23289   */\n      dup1\n        /* \"#utility.yul\":23261:23269   */\n      dup5\n        /* \"#utility.yul\":23257:23290   */\n      add\n        /* \"#utility.yul\":23249:23290   */\n      swap3\n      pop\n        /* \"#utility.yul\":23323:23327   */\n      dup3\n        /* \"#utility.yul\":23310:23328   */\n      calldataload\n        /* \"#utility.yul\":23300:23328   */\n      swap2\n      pop\n        /* \"#utility.yul\":23351:23369   */\n      0xffffffffffffffff\n        /* \"#utility.yul\":23343:23349   */\n      dup3\n        /* \"#utility.yul\":23340:23370   */\n      gt\n        /* \"#utility.yul\":23337:23454   */\n      iszero\n      tag_522\n      jumpi\n        /* \"#utility.yul\":23373:23452   */\n      tag_523\n      tag_260\n      jump\t// in\n    tag_523:\n        /* \"#utility.yul\":23337:23454   */\n    tag_522:\n        /* \"#utility.yul\":23481:23483   */\n      0x20\n        /* \"#utility.yul\":23475:23479   */\n      dup4\n        /* \"#utility.yul\":23471:23484   */\n      add\n        /* \"#utility.yul\":23463:23484   */\n      swap3\n      pop\n        /* \"#utility.yul\":23538:23542   */\n      0x01\n        /* \"#utility.yul\":23530:23536   */\n      dup3\n        /* \"#utility.yul\":23526:23543   */\n      mul\n        /* \"#utility.yul\":23510:23524   */\n      calldatasize\n        /* \"#utility.yul\":23506:23544   */\n      sub\n        /* \"#utility.yul\":23500:23504   */\n      dup4\n        /* \"#utility.yul\":23496:23545   */\n      sgt\n        /* \"#utility.yul\":23493:23629   */\n      iszero\n      tag_524\n      jumpi\n        /* \"#utility.yul\":23548:23627   */\n      tag_525\n      tag_261\n      jump\t// in\n    tag_525:\n        /* \"#utility.yul\":23493:23629   */\n    tag_524:\n        /* \"#utility.yul\":23002:23636   */\n      pop\n        /* \"#utility.yul\":22911:23636   */\n      swap3\n      pop\n      swap3\n      swap1\n      pop\n      jump\t// out\n        /* \"#utility.yul\":23642:23739   */\n    tag_263:\n        /* \"#utility.yul\":23701:23707   */\n      0x00\n        /* \"#utility.yul\":23729:23732   */\n      dup3\n        /* \"#utility.yul\":23719:23732   */\n      swap1\n      pop\n        /* \"#utility.yul\":23642:23739   */\n      swap3\n      swap2\n      pop\n      pop\n      jump\t// out\n        /* \"#utility.yul\":23745:23886   */\n    tag_264:\n        /* \"#utility.yul\":23794:23798   */\n      0x00\n        /* \"#utility.yul\":23817:23820   */\n      dup2\n        /* \"#utility.yul\":23809:23820   */\n      swap1\n      pop\n        /* \"#utility.yul\":23840:23843   */\n      dup2\n        /* \"#utility.yul\":23837:23838   */\n      0x00\n        /* \"#utility.yul\":23830:23844   */\n      mstore\n        /* \"#utility.yul\":23874:23878   */\n      0x20\n        /* \"#utility.yul\":23871:23872   */\n      0x00\n        /* \"#utility.yul\":23861:23879   */\n      keccak256\n        /* \"#utility.yul\":23853:23879   */\n      swap1\n      pop\n        /* \"#utility.yul\":23745:23886   */\n      swap2\n      swap1\n      pop\n      jump\t// out\n        /* \"#utility.yul\":23892:23985   */\n    tag_265:\n        /* \"#utility.yul\":23929:23935   */\n      0x00\n        /* \"#utility.yul\":23976:23978   */\n      0x20\n        /* \"#utility.yul\":23971:23973   */\n      0x1f\n        /* \"#utility.yul\":23964:23969   */\n      dup4\n        /* \"#utility.yul\":23960:23974   */\n      add\n        /* \"#utility.yul\":23956:23979   */\n      div\n        /* \"#utility.yul\":23946:23979   */\n      swap1\n      pop\n        /* \"#utility.yul\":23892:23985   */\n      swap2\n      swap1\n      pop\n      jump\t// out\n        /* \"#utility.yul\":23991:24098   */\n    tag_266:\n        /* \"#utility.yul\":24035:24043   */\n      0x00\n        /* \"#utility.yul\":24085:24090   */\n      dup3\n        /* \"#utility.yul\":24079:24083   */\n      dup3\n        /* \"#utility.yul\":24075:24091   */\n      shl\n        /* \"#utility.yul\":24054:24091   */\n      swap1\n      pop\n        /* \"#utility.yul\":23991:24098   */\n      swap3\n      swap2\n      pop\n      pop\n      jump\t// out\n        /* \"#utility.yul\":24104:24497   */\n    tag_267:\n        /* \"#utility.yul\":24173:24179   */\n      0x00\n        /* \"#utility.yul\":24223:24224   */\n      0x08\n        /* \"#utility.yul\":24211:24221   */\n      dup4\n        /* \"#utility.yul\":24207:24225   */\n      mul\n        /* \"#utility.yul\":24246:24343   */\n      tag_531\n        /* \"#utility.yul\":24276:24342   */\n      0xffffffffffffffffffffffffffffffffffffffffffffffffffffffffffffffff\n        /* \"#utility.yul\":24265:24274   */\n      dup3\n        /* \"#utility.yul\":24246:24343   */\n      tag_266\n      jump\t// in\n    tag_531:\n        /* \"#utility.yul\":24364:24403   */\n      tag_532\n        /* \"#utility.yul\":24394:24402   */\n      dup7\n        /* \"#utility.yul\":24383:24392   */\n      dup4\n        /* \"#utility.yul\":24364:24403   */\n      tag_266\n      jump\t// in\n    tag_532:\n        /* \"#utility.yul\":24352:24403   */\n      swap6\n      pop\n        /* \"#utility.yul\":24436:24440   */\n      dup1\n        /* \"#utility.yul\":24432:24441   */\n      not\n        /* \"#utility.yul\":24425:24430   */\n      dup5\n        /* \"#utility.yul\":24421:24442   */\n      and\n        /* \"#utility.yul\":24412:24442   */\n      swap4\n      pop\n        /* \"#utility.yul\":24485:24489   */\n      dup1\n        /* \"#utility.yul\":24475:24483   */\n      dup7\n        /* \"#utility.yul\":24471:24490   */\n      and\n        /* \"#utility.yul\":24464:24469   */\n      dup5\n        /* \"#utility.yul\":24461:24491   */\n      or\n        /* \"#utility.yul\":24451:24491   */\n      swap3\n      pop\n        /* \"#utility.yul\":24180:24497   */\n      pop\n      pop\n        /* \"#utility.yul\":24104:24497   */\n      swap4\n      swap3\n      pop\n      pop\n      pop\n      jump\t// out\n        /* \"#utility.yul\":24503:24645   */\n    tag_268:\n        /* \"#utility.yul\":24553:24562   */\n      0x00\n        /* \"#utility.yul\":24586:24639   */\n      tag_534\n        /* \"#utility.yul\":24604:24638   */\n      tag_535\n        /* \"#utility.yul\":24613:24637   */\n      tag_536\n        /* \"#utility.yul\":24631:24636   */\n      dup5\n        /* \"#utility.yul\":24613:24637   */\n      tag_197\n      jump\t// in\n    tag_536:\n        /* \"#utility.yul\":24604:24638   */\n      tag_253\n      jump\t// in\n    tag_535:\n        /* \"#utility.yul\":24586:24639   */\n      tag_197\n      jump\t// in\n    tag_534:\n        /* \"#utility.yul\":24573:24639   */\n      swap1\n      pop\n        /* \"#utility.yul\":24503:24645   */\n      swap2\n      swap1\n      pop\n      jump\t// out\n        /* \"#utility.yul\":24651:24726   */\n    tag_269:\n        /* \"#utility.yul\":24694:24697   */\n      0x00\n        /* \"#utility.yul\":24715:24720   */\n      dup2\n        /* \"#utility.yul\":24708:24720   */\n      swap1\n      pop\n        /* \"#utility.yul\":24651:24726   */\n      swap2\n      swap1\n      pop\n      jump\t// out\n        /* \"#utility.yul\":24732:25001   */\n    tag_270:\n        /* \"#utility.yul\":24842:24881   */\n      tag_539\n        /* \"#utility.yul\":24873:24880   */\n      dup4\n        /* \"#utility.yul\":24842:24881   */\n      tag_268\n      jump\t// in\n    tag_539:\n        /* \"#utility.yul\":24903:24994   */\n      tag_540\n        /* \"#utility.yul\":24952:24993   */\n      tag_541\n        /* \"#utility.yul\":24976:24992   */\n      dup3\n        /* \"#utility.yul\":24952:24993   */\n      tag_269\n      jump\t// in\n    tag_541:\n        /* \"#utility.yul\":24944:24950   */\n      dup5\n        /* \"#utility.yul\":24937:24941   */\n      dup5\n        /* \"#utility.yul\":24931:24942   */\n      sload\n        /* \"#utility.yul\":24903:24994   */\n      tag_267\n      jump\t// in\n    tag_540:\n        /* \"#utility.yul\":24897:24901   */\n      dup3\n        /* \"#utility.yul\":24890:24995   */\n      sstore\n        /* \"#utility.yul\":24808:25001   */\n      pop\n        /* \"#utility.yul\":24732:25001   */\n      pop\n      pop\n      pop\n      jump\t// out\n        /* \"#utility.yul\":25007:25080   */\n    tag_271:\n        /* \"#utility.yul\":25052:25055   */\n      0x00\n        /* \"#utility.yul\":25007:25080   */\n      swap1\n      jump\t// out\n        /* \"#utility.yul\":25086:25275   */\n    tag_272:\n        /* \"#utility.yul\":25163:25195   */\n      tag_544\n      tag_271\n      jump\t// in\n    tag_544:\n        /* \"#utility.yul\":25204:25269   */\n      tag_545\n        /* \"#utility.yul\":25262:25268   */\n      dup2\n        /* \"#utility.yul\":25254:25260   */\n      dup5\n        /* \"#utility.yul\":25248:25252   */\n      dup5\n        /* \"#utility.yul\":25204:25269   */\n      tag_270\n      jump\t// in\n    tag_545:\n        /* \"#utility.yul\":25139:25275   */\n      pop\n        /* \"#utility.yul\":25086:25275   */\n      pop\n      pop\n      jump\t// out\n        /* \"#utility.yul\":25281:25467   */\n    tag_273:\n        /* \"#utility.yul\":25341:25461   */\n    tag_547:\n        /* \"#utility.yul\":25358:25361   */\n      dup2\n        /* \"#utility.yul\":25351:25356   */\n      dup2\n        /* \"#utility.yul\":25348:25362   */\n      lt\n        /* \"#utility.yul\":25341:25461   */\n      iszero\n      tag_549\n      jumpi\n        /* \"#utility.yul\":25412:25451   */\n      tag_550\n        /* \"#utility.yul\":25449:25450   */\n      0x00\n        /* \"#utility.yul\":25442:25447   */\n      dup3\n        /* \"#utility.yul\":25412:25451   */\n      tag_272\n      jump\t// in\n    tag_550:\n        /* \"#utility.yul\":25385:25386   */\n      0x01\n        /* \"#utility.yul\":25378:25383   */\n      dup2\n        /* \"#utility.yul\":25374:25387   */\n      add\n        /* \"#utility.yul\":25365:25387   */\n      swap1\n      pop\n        /* \"#utility.yul\":25341:25461   */\n      jump(tag_547)\n    tag_549:\n        /* \"#utility.yul\":25281:25467   */\n      pop\n      pop\n      jump\t// out\n        /* \"#utility.yul\":25473:26016   */\n    tag_274:\n        /* \"#utility.yul\":25574:25576   */\n      0x1f\n        /* \"#utility.yul\":25569:25572   */\n      dup3\n        /* \"#utility.yul\":25566:25577   */\n      gt\n        /* \"#utility.yul\":25563:26009   */\n      iszero\n      tag_552\n      jumpi\n        /* \"#utility.yul\":25608:25646   */\n      tag_553\n        /* \"#utility.yul\":25640:25645   */\n      dup2\n        /* \"#utility.yul\":25608:25646   */\n      tag_264\n      jump\t// in\n    tag_553:\n        /* \"#utility.yul\":25692:25721   */\n      tag_554\n        /* \"#utility.yul\":25710:25720   */\n      dup5\n        /* \"#utility.yul\":25692:25721   */\n      tag_265\n      jump\t// in\n    tag_554:\n        /* \"#utility.yul\":25682:25690   */\n      dup2\n        /* \"#utility.yul\":25678:25722   */\n      add\n        /* \"#utility.yul\":25875:25877   */\n      0x20\n        /* \"#utility.yul\":25863:25873   */\n      dup6\n        /* \"#utility.yul\":25860:25878   */\n      lt\n        /* \"#utility.yul\":25857:25906   */\n      iszero\n      tag_555\n      jumpi\n        /* \"#utility.yul\":25896:25904   */\n      dup2\n        /* \"#utility.yul\":25881:25904   */\n      swap1\n      pop\n        /* \"#utility.yul\":25857:25906   */\n    tag_555:\n        /* \"#utility.yul\":25919:25999   */\n      tag_556\n        /* \"#utility.yul\":25975:25997   */\n      tag_557\n        /* \"#utility.yul\":25993:25996   */\n      dup6\n        /* \"#utility.yul\":25975:25997   */\n      tag_265\n      jump\t// in\n    tag_557:\n        /* \"#utility.yul\":25965:25973   */\n      dup4\n        /* \"#utility.yul\":25961:25998   */\n      add\n        /* \"#utility.yul\":25948:25959   */\n      dup3\n        /* \"#utility.yul\":25919:25999   */\n      tag_273\n      jump\t// in\n    tag_556:\n        /* \"#utility.yul\":25578:26009   */\n      pop\n      pop\n        /* \"#utility.yul\":25563:26009   */\n    tag_552:\n        /* \"#utility.yul\":25473:26016   */\n      pop\n      pop\n      pop\n      jump\t// out\n        /* \"#utility.yul\":26022:26139   */\n    tag_275:\n        /* \"#utility.yul\":26076:26084   */\n      0x00\n        /* \"#utility.yul\":26126:26131   */\n      dup3\n        /* \"#utility.yul\":26120:26124   */\n      dup3\n        /* \"#utility.yul\":26116:26132   */\n      shr\n        /* \"#utility.yul\":26095:26132   */\n      swap1\n      pop\n        /* \"#utility.yul\":26022:26139   */\n      swap3\n      swap2\n      pop\n      pop\n      jump\t// out\n        /* \"#utility.yul\":26145:26314   */\n    tag_276:\n        /* \"#utility.yul\":26189:26195   */\n      0x00\n        /* \"#utility.yul\":26222:26273   */\n      tag_560\n        /* \"#utility.yul\":26270:26271   */\n      0x00\n        /* \"#utility.yul\":26266:26272   */\n      not\n        /* \"#utility.yul\":26258:26263   */\n      dup5\n        /* \"#utility.yul\":26255:26256   */\n      0x08\n        /* \"#utility.yul\":26251:26264   */\n      mul\n        /* \"#utility.yul\":26222:26273   */\n      tag_275\n      jump\t// in\n    tag_560:\n        /* \"#utility.yul\":26218:26274   */\n      not\n        /* \"#utility.yul\":26303:26307   */\n      dup1\n        /* \"#utility.yul\":26297:26301   */\n      dup4\n        /* \"#utility.yul\":26293:26308   */\n      and\n        /* \"#utility.yul\":26283:26308   */\n      swap2\n      pop\n        /* \"#utility.yul\":26196:26314   */\n      pop\n        /* \"#utility.yul\":26145:26314   */\n      swap3\n      swap2\n      pop\n      pop\n      jump\t// out\n        /* \"#utility.yul\":26319:26614   */\n    tag_277:\n        /* \"#utility.yul\":26395:26399   */\n      0x00\n        /* \"#utility.yul\":26541:26570   */\n      tag_562\n        /* \"#utility.yul\":26566:26569   */\n      dup4\n        /* \"#utility.yul\":26560:26564   */\n      dup4\n        /* \"#utility.yul\":26541:26570   */\n      tag_276\n      jump\t// in\n    tag_562:\n        /* \"#utility.yul\":26533:26570   */\n      swap2\n      pop\n        /* \"#utility.yul\":26603:26606   */\n      dup3\n        /* \"#utility.yul\":26600:26601   */\n      0x02\n        /* \"#utility.yul\":26596:26607   */\n      mul\n        /* \"#utility.yul\":26590:26594   */\n      dup3\n        /* \"#utility.yul\":26587:26608   */\n      or\n        /* \"#utility.yul\":26579:26608   */\n      swap1\n      pop\n        /* \"#utility.yul\":26319:26614   */\n      swap3\n      swap2\n      pop\n      pop\n      jump\t// out\n        /* \"#utility.yul\":26619:28022   */\n    tag_278:\n        /* \"#utility.yul\":26743:26787   */\n      tag_564\n        /* \"#utility.yul\":26783:26786   */\n      dup4\n        /* \"#utility.yul\":26778:26781   */\n      dup4\n        /* \"#utility.yul\":26743:26787   */\n      tag_263\n      jump\t// in\n    tag_564:\n        /* \"#utility.yul\":26852:26870   */\n      0xffffffffffffffff\n        /* \"#utility.yul\":26844:26850   */\n      dup2\n        /* \"#utility.yul\":26841:26871   */\n      gt\n        /* \"#utility.yul\":26838:26894   */\n      iszero\n      tag_565\n      jumpi\n        /* \"#utility.yul\":26874:26892   */\n      tag_566\n      tag_99\n      jump\t// in\n    tag_566:\n        /* \"#utility.yul\":26838:26894   */\n    tag_565:\n        /* \"#utility.yul\":26918:26956   */\n      tag_567\n        /* \"#utility.yul\":26950:26954   */\n      dup3\n        /* \"#utility.yul\":26944:26955   */\n      sload\n        /* \"#utility.yul\":26918:26956   */\n      tag_91\n      jump\t// in\n    tag_567:\n        /* \"#utility.yul\":27003:27070   */\n      tag_568\n        /* \"#utility.yul\":27063:27069   */\n      dup3\n        /* \"#utility.yul\":27055:27061   */\n      dup3\n        /* \"#utility.yul\":27049:27053   */\n      dup6\n        /* \"#utility.yul\":27003:27070   */\n      tag_274\n      jump\t// in\n    tag_568:\n        /* \"#utility.yul\":27097:27098   */\n      0x00\n        /* \"#utility.yul\":27126:27128   */\n      0x1f\n        /* \"#utility.yul\":27118:27124   */\n      dup4\n        /* \"#utility.yul\":27115:27129   */\n      gt\n        /* \"#utility.yul\":27143:27144   */\n      0x01\n        /* \"#utility.yul\":27138:27770   */\n      dup2\n      eq\n      tag_570\n      jumpi\n        /* \"#utility.yul\":27814:27815   */\n      0x00\n        /* \"#utility.yul\":27831:27837   */\n      dup5\n        /* \"#utility.yul\":27828:27912   */\n      iszero\n      tag_571\n      jumpi\n        /* \"#utility.yul\":27887:27896   */\n      dup3\n        /* \"#utility.yul\":27882:27885   */\n      dup8\n        /* \"#utility.yul\":27878:27897   */\n      add\n        /* \"#utility.yul\":27865:27898   */\n      calldataload\n        /* \"#utility.yul\":27856:27898   */\n      swap1\n      pop\n        /* \"#utility.yul\":27828:27912   */\n    tag_571:\n        /* \"#utility.yul\":27938:28005   */\n      tag_572\n        /* \"#utility.yul\":27998:28004   */\n      dup6\n        /* \"#utility.yul\":27991:27996   */\n      dup3\n        /* \"#utility.yul\":27938:28005   */\n      tag_277\n      jump\t// in\n    tag_572:\n        /* \"#utility.yul\":27932:27936   */\n      dup7\n        /* \"#utility.yul\":27925:28006   */\n      sstore\n        /* \"#utility.yul\":27787:28016   */\n      pop\n        /* \"#utility.yul\":27108:28016   */\n      jump(tag_569)\n        /* \"#utility.yul\":27138:27770   */\n    tag_570:\n        /* \"#utility.yul\":27190:27194   */\n      0x1f\n        /* \"#utility.yul\":27186:27195   */\n      not\n        /* \"#utility.yul\":27178:27184   */\n      dup5\n        /* \"#utility.yul\":27174:27196   */\n      and\n        /* \"#utility.yul\":27224:27261   */\n      tag_573\n        /* \"#utility.yul\":27256:27260   */\n      dup7\n        /* \"#utility.yul\":27224:27261   */\n      tag_264\n      jump\t// in\n    tag_573:\n        /* \"#utility.yul\":27283:27284   */\n      0x00\n        /* \"#utility.yul\":27297:27512   */\n    tag_574:\n        /* \"#utility.yul\":27311:27318   */\n      dup3\n        /* \"#utility.yul\":27308:27309   */\n      dup2\n        /* \"#utility.yul\":27305:27319   */\n      lt\n        /* \"#utility.yul\":27297:27512   */\n      iszero\n      tag_576\n      jumpi\n        /* \"#utility.yul\":27397:27406   */\n      dup5\n        /* \"#utility.yul\":27392:27395   */\n      dup10\n        /* \"#utility.yul\":27388:27407   */\n      add\n        /* \"#utility.yul\":27375:27408   */\n      calldataload\n        /* \"#utility.yul\":27367:27373   */\n      dup3\n        /* \"#utility.yul\":27360:27409   */\n      sstore\n        /* \"#utility.yul\":27448:27449   */\n      0x01\n        /* \"#utility.yul\":27440:27446   */\n      dup3\n        /* \"#utility.yul\":27436:27450   */\n      add\n        /* \"#utility.yul\":27426:27450   */\n      swap2\n      pop\n        /* \"#utility.yul\":27495:27497   */\n      0x20\n        /* \"#utility.yul\":27484:27493   */\n      dup6\n        /* \"#utility.yul\":27480:27498   */\n      add\n        /* \"#utility.yul\":27467:27498   */\n      swap5\n      pop\n        /* \"#utility.yul\":27334:27338   */\n      0x20\n        /* \"#utility.yul\":27331:27332   */\n      dup2\n        /* \"#utility.yul\":27327:27339   */\n      add\n        /* \"#utility.yul\":27322:27339   */\n      swap1\n      pop\n        /* \"#utility.yul\":27297:27512   */\n      jump(tag_574)\n    tag_576:\n        /* \"#utility.yul\":27540:27546   */\n      dup7\n        /* \"#utility.yul\":27531:27538   */\n      dup4\n        /* \"#utility.yul\":27528:27547   */\n      lt\n        /* \"#utility.yul\":27525:27711   */\n      iszero\n      tag_577\n      jumpi\n        /* \"#utility.yul\":27605:27614   */\n      dup5\n        /* \"#utility.yul\":27600:27603   */\n      dup10\n        /* \"#utility.yul\":27596:27615   */\n      add\n        /* \"#utility.yul\":27583:27616   */\n      calldataload\n        /* \"#utility.yul\":27648:27696   */\n      tag_578\n        /* \"#utility.yul\":27690:27694   */\n      0x1f\n        /* \"#utility.yul\":27682:27688   */\n      dup10\n        /* \"#utility.yul\":27678:27695   */\n      and\n        /* \"#utility.yul\":27667:27676   */\n      dup3\n        /* \"#utility.yul\":27648:27696   */\n      tag_276\n      jump\t// in\n    tag_578:\n        /* \"#utility.yul\":27640:27646   */\n      dup4\n        /* \"#utility.yul\":27633:27697   */\n      sstore\n        /* \"#utility.yul\":27548:27711   */\n      pop\n        /* \"#utility.yul\":27525:27711   */\n    tag_577:\n        /* \"#utility.yul\":27757:27758   */\n      0x01\n        /* \"#utility.yul\":27753:27754   */\n      0x02\n        /* \"#utility.yul\":27745:27751   */\n      dup9\n        /* \"#utility.yul\":27741:27755   */\n      mul\n        /* \"#utility.yul\":27737:27759   */\n      add\n        /* \"#utility.yul\":27731:27735   */\n      dup9\n        /* \"#utility.yul\":27724:27760   */\n      sstore\n        /* \"#utility.yul\":27145:27770   */\n      pop\n      pop\n      pop\n        /* \"#utility.yul\":27108:28016   */\n    tag_569:\n      pop\n        /* \"#utility.yul\":26718:28022   */\n      pop\n      pop\n      pop\n        /* \"#utility.yul\":26619:28022   */\n      pop\n      pop\n      pop\n      jump\t// out\n        /* \"#utility.yul\":28028:28246   */\n    tag_279:\n        /* \"#utility.yul\":28143:28240   */\n      tag_580\n        /* \"#utility.yul\":28232:28239   */\n      dup4\n        /* \"#utility.yul\":28223:28230   */\n      dup4\n        /* \"#utility.yul\":28217:28221   */\n      dup4\n        /* \"#utility.yul\":28143:28240   */\n      tag_278\n      jump\t// in\n    tag_580:\n        /* \"#utility.yul\":28028:28246   */\n      pop\n      pop\n      pop\n      jump\t// out\n        /* \"#utility.yul\":28252:29470   */\n    tag_280:\n        /* \"#utility.yul\":28428:28429   */\n      0x00\n        /* \"#utility.yul\":28422:28426   */\n      dup2\n        /* \"#utility.yul\":28418:28430   */\n      add\n        /* \"#utility.yul\":28474:28475   */\n      0x00\n        /* \"#utility.yul\":28467:28472   */\n      dup4\n        /* \"#utility.yul\":28463:28476   */\n      add\n        /* \"#utility.yul\":28524:28536   */\n      dup1\n        /* \"#utility.yul\":28567:28625   */\n      tag_582\n        /* \"#utility.yul\":28611:28624   */\n      dup2\n        /* \"#utility.yul\":28567:28625   */\n      tag_244\n      jump\t// in\n    tag_582:\n        /* \"#utility.yul\":28550:28625   */\n      swap1\n      pop\n        /* \"#utility.yul\":28639:28749   */\n      tag_583\n        /* \"#utility.yul\":28735:28748   */\n      dup2\n        /* \"#utility.yul\":28723:28733   */\n      dup5\n        /* \"#utility.yul\":28639:28749   */\n      tag_249\n      jump\t// in\n    tag_583:\n        /* \"#utility.yul\":28385:28760   */\n      pop\n      pop\n      pop\n        /* \"#utility.yul\":28813:28814   */\n      0x00\n        /* \"#utility.yul\":28807:28811   */\n      dup2\n        /* \"#utility.yul\":28803:28815   */\n      add\n        /* \"#utility.yul\":28859:28861   */\n      0x20\n        /* \"#utility.yul\":28852:28857   */\n      dup4\n        /* \"#utility.yul\":28848:28862   */\n      add\n        /* \"#utility.yul\":28910:28922   */\n      dup1\n        /* \"#utility.yul\":28953:28995   */\n      tag_584\n        /* \"#utility.yul\":28981:28994   */\n      dup2\n        /* \"#utility.yul\":28953:28995   */\n      tag_250\n      jump\t// in\n    tag_584:\n        /* \"#utility.yul\":28936:28995   */\n      swap1\n      pop\n        /* \"#utility.yul\":29009:29087   */\n      tag_585\n        /* \"#utility.yul\":29073:29086   */\n      dup2\n        /* \"#utility.yul\":29061:29071   */\n      dup5\n        /* \"#utility.yul\":29009:29087   */\n      tag_258\n      jump\t// in\n    tag_585:\n        /* \"#utility.yul\":28770:29098   */\n      pop\n      pop\n      pop\n        /* \"#utility.yul\":29151:29152   */\n      0x01\n        /* \"#utility.yul\":29145:29149   */\n      dup2\n        /* \"#utility.yul\":29141:29153   */\n      add\n        /* \"#utility.yul\":29197:29199   */\n      0x40\n        /* \"#utility.yul\":29190:29195   */\n      dup4\n        /* \"#utility.yul\":29186:29200   */\n      add\n        /* \"#utility.yul\":29263:29326   */\n      tag_586\n        /* \"#utility.yul\":29313:29325   */\n      dup2\n        /* \"#utility.yul\":29306:29311   */\n      dup6\n        /* \"#utility.yul\":29263:29326   */\n      tag_262\n      jump\t// in\n    tag_586:\n        /* \"#utility.yul\":29340:29452   */\n      tag_587\n        /* \"#utility.yul\":29438:29451   */\n      dup2\n        /* \"#utility.yul\":29423:29436   */\n      dup4\n        /* \"#utility.yul\":29411:29421   */\n      dup7\n        /* \"#utility.yul\":29340:29452   */\n      tag_279\n      jump\t// in\n    tag_587:\n        /* \"#utility.yul\":29108:29463   */\n      pop\n      pop\n      pop\n      pop\n        /* \"#utility.yul\":28252:29470   */\n      pop\n      pop\n      jump\t// out\n        /* \"#utility.yul\":29476:29732   */\n    tag_180:\n        /* \"#utility.yul\":29612:29726   */\n      tag_589\n        /* \"#utility.yul\":29718:29725   */\n      dup3\n        /* \"#utility.yul\":29712:29716   */\n      dup3\n        /* \"#utility.yul\":29612:29726   */\n      tag_280\n      jump\t// in\n    tag_589:\n        /* \"#utility.yul\":29476:29732   */\n      pop\n      pop\n      jump\t// out\n        /* \"#utility.yul\":29738:29912   */\n    tag_281:\n        /* \"#utility.yul\":29878:29904   */\n      0x45786365656473206465706f736974656420616d6f756e740000000000000000\n        /* \"#utility.yul\":29874:29875   */\n      0x00\n        /* \"#utility.yul\":29866:29872   */\n      dup3\n        /* \"#utility.yul\":29862:29876   */\n      add\n        /* \"#utility.yul\":29855:29905   */\n      mstore\n        /* \"#utility.yul\":29738:29912   */\n      pop\n      jump\t// out\n        /* \"#utility.yul\":29918:30284   */\n    tag_282:\n        /* \"#utility.yul\":30060:30063   */\n      0x00\n        /* \"#utility.yul\":30081:30148   */\n      tag_592\n        /* \"#utility.yul\":30145:30147   */\n      0x18\n        /* \"#utility.yul\":30140:30143   */\n      dup4\n        /* \"#utility.yul\":30081:30148   */\n      tag_208\n      jump\t// in\n    tag_592:\n        /* \"#utility.yul\":30074:30148   */\n      swap2\n      pop\n        /* \"#utility.yul\":30157:30250   */\n      tag_593\n        /* \"#utility.yul\":30246:30249   */\n      dup3\n        /* \"#utility.yul\":30157:30250   */\n      tag_281\n      jump\t// in\n    tag_593:\n        /* \"#utility.yul\":30275:30277   */\n      0x20\n        /* \"#utility.yul\":30270:30273   */\n      dup3\n        /* \"#utility.yul\":30266:30278   */\n      add\n        /* \"#utility.yul\":30259:30278   */\n      swap1\n      pop\n        /* \"#utility.yul\":29918:30284   */\n      swap2\n      swap1\n      pop\n      jump\t// out\n        /* \"#utility.yul\":30290:30709   */\n    tag_190:\n        /* \"#utility.yul\":30456:30460   */\n      0x00\n        /* \"#utility.yul\":30494:30496   */\n      0x20\n        /* \"#utility.yul\":30483:30492   */\n      dup3\n        /* \"#utility.yul\":30479:30497   */\n      add\n        /* \"#utility.yul\":30471:30497   */\n      swap1\n      pop\n        /* \"#utility.yul\":30543:30552   */\n      dup2\n        /* \"#utility.yul\":30537:30541   */\n      dup2\n        /* \"#utility.yul\":30533:30553   */\n      sub\n        /* \"#utility.yul\":30529:30530   */\n      0x00\n        /* \"#utility.yul\":30518:30527   */\n      dup4\n        /* \"#utility.yul\":30514:30531   */\n      add\n        /* \"#utility.yul\":30507:30554   */\n      mstore\n        /* \"#utility.yul\":30571:30702   */\n      tag_595\n        /* \"#utility.yul\":30697:30701   */\n      dup2\n        /* \"#utility.yul\":30571:30702   */\n      tag_282\n      jump\t// in\n    tag_595:\n        /* \"#utility.yul\":30563:30702   */\n      swap1\n      pop\n        /* \"#utility.yul\":30290:30709   */\n      swap2\n      swap1\n      pop\n      jump\t// out\n\n    auxdata: 0xa26469706673582212203ec4dd2e8f9a4b823291cc726b8412a2f88169bfcd3e8270ea556813df6274e264736f6c634300080a0033\n}\n",
				"bytecode": {
					"linkReferences": {},
					"object": "60806040523480156200001157600080fd5b5060405162002401380380620024018339818101604052810190620000379190620000c5565b336000806101000a81548173ffffffffffffffffffffffffffffffffffffffff021916908373ffffffffffffffffffffffffffffffffffffffff1602179055508060078190555050620000f7565b600080fd5b6000819050919050565b6200009f816200008a565b8114620000ab57600080fd5b50565b600081519050620000bf8162000094565b92915050565b600060208284031215620000de57620000dd62000085565b5b6000620000ee84828501620000ae565b91505092915050565b6122fa80620001076000396000f3fe608060405234801561001057600080fd5b50600436106100f55760003560e01c8063715ec5da116100975780638da5cb5b116100665780638da5cb5b146102855780639cec004d146102a3578063cf309012146102d3578063f3fef3a3146102f1576100f5565b8063715ec5da146102015780637690cbeb1461021d5780637da5af321461023957806383c3643314610255576100f5565b8063466bca02116100d3578063466bca021461017957806347e7ef241461019757806350a1da0c146101b357806361d92f2c146101e3576100f5565b806337a7a334146100fa5780633aa4c53814610116578063436d803914610148575b600080fd5b610114600480360381019061010f91906112e7565b61030d565b005b610130600480360381019061012b91906112e7565b6103e9565b60405161013f93929190611465565b60405180910390f35b610162600480360381019061015d91906114cf565b6104c8565b60405161017092919061151e565b60405180910390f35b6101816104f9565b60405161018e9190611605565b60405180910390f35b6101b160048036038101906101ac9190611627565b6105f3565b005b6101cd60048036038101906101c89190611627565b6108af565b6040516101da9190611667565b60405180910390f35b6101eb61090a565b6040516101f89190611667565b60405180910390f35b61021b60048036038101906102169190611682565b610910565b005b61023760048036038101906102329190611627565b610b88565b005b610253600480360381019061024e91906116f9565b610f1a565b005b61026f600480360381019061026a9190611742565b610fe8565b60405161027c9190611667565b60405180910390f35b61028d611000565b60405161029a919061176f565b60405180910390f35b6102bd60048036038101906102b89190611627565b611024565b6040516102ca9190611667565b60405180910390f35b6102db611049565b6040516102e891906117a5565b60405180910390f35b61030b60048036038101906103069190611627565b61105c565b005b60008054906101000a900473ffffffffffffffffffffffffffffffffffffffff1673ffffffffffffffffffffffffffffffffffffffff163373ffffffffffffffffffffffffffffffffffffffff161461039b576040517f08c379a00000000000000000000000000000000000000000000000000000000081526004016103929061180c565b60405180910390fd5b60648111156103df576040517f08c379a00000000000000000000000000000000000000000000000000000000081526004016103d690611878565b60405180910390fd5b8060078190555050565b60036020528060005260406000206000915090508060000160009054906101000a900460ff16908060000160019054906101000a900473ffffffffffffffffffffffffffffffffffffffff1690806001018054610445906118c7565b80601f0160208091040260200160405190810160405280929190818152602001828054610471906118c7565b80156104be5780601f10610493576101008083540402835291602001916104be565b820191906000526020600020905b8154815290600101906020018083116104a157829003601f168201915b5050505050905083565b6002602052816000526040600020602052806000526040600020600091509150508060000154908060010154905082565b6060600060085467ffffffffffffffff811115610519576105186118f9565b5b6040519080825280602002602001820160405280156105475781602001602082028036833780820191505090505b50905060005b6008548110156105eb576005600082815260200190815260200160002060009054906101000a900473ffffffffffffffffffffffffffffffffffffffff1682828151811061059e5761059d611928565b5b602002602001019073ffffffffffffffffffffffffffffffffffffffff16908173ffffffffffffffffffffffffffffffffffffffff168152505080806105e390611986565b91505061054d565b508091505090565b600060149054906101000a900460ff1615610643576040517f08c379a000000000000000000000000000000000000000000000000000000000815260040161063a90611a1b565b60405180910390fd5b6001600060146101000a81548160ff021916908315150217905550600081116106a1576040517f08c379a000000000000000000000000000000000000000000000000000000000815260040161069890611a87565b60405180910390fd5b60008290508073ffffffffffffffffffffffffffffffffffffffff166323b872dd3330856040518463ffffffff1660e01b81526004016106e393929190611aa7565b6020604051808303816000875af1158015610702573d6000803e3d6000fd5b505050506040513d601f19601f820116820180604052508101906107269190611b0a565b50604051806040016040528083815260200142815250600260003373ffffffffffffffffffffffffffffffffffffffff1673ffffffffffffffffffffffffffffffffffffffff16815260200190815260200160002060008573ffffffffffffffffffffffffffffffffffffffff1673ffffffffffffffffffffffffffffffffffffffff1681526020019081526020016000206000820151816000015560208201518160010155905050600160003373ffffffffffffffffffffffffffffffffffffffff1673ffffffffffffffffffffffffffffffffffffffff168152602001908152602001600020600081548092919061081f90611986565b91905055508260056000600854815260200190815260200160002060006101000a81548173ffffffffffffffffffffffffffffffffffffffff021916908373ffffffffffffffffffffffffffffffffffffffff1602179055506008600081548092919061088b90611986565b91905055505060008060146101000a81548160ff0219169083151502179055505050565b6000600460008473ffffffffffffffffffffffffffffffffffffffff1673ffffffffffffffffffffffffffffffffffffffff168152602001908152602001600020600083815260200190815260200160002054905092915050565b60075481565b600060149054906101000a900460ff1615610960576040517f08c379a000000000000000000000000000000000000000000000000000000000815260040161095790611a1b565b60405180910390fd5b6001600060146101000a81548160ff02191690831515021790555060008054906101000a900473ffffffffffffffffffffffffffffffffffffffff1673ffffffffffffffffffffffffffffffffffffffff163373ffffffffffffffffffffffffffffffffffffffff1614610a09576040517f08c379a0000000000000000000000000000000000000000000000000000000008152600401610a0090611ba9565b60405180910390fd5b60006003600083815260200190815260200160002060000160019054906101000a900473ffffffffffffffffffffffffffffffffffffffff169050600180811115610a5757610a56611314565b5b6003600084815260200190815260200160002060000160009054906101000a900460ff166001811115610a8d57610a8c611314565b5b1415610b01578073ffffffffffffffffffffffffffffffffffffffff1663f3fef3a385856040518363ffffffff1660e01b8152600401610ace929190611bc9565b600060405180830381600087803b158015610ae857600080fd5b505af1158015610afc573d6000803e3d6000fd5b505050505b82600460008673ffffffffffffffffffffffffffffffffffffffff1673ffffffffffffffffffffffffffffffffffffffff16815260200190815260200160002060008481526020019081526020016000206000828254610b619190611bf2565b925050819055505060008060146101000a81548160ff021916908315150217905550505050565b600060149054906101000a900460ff1615610bd8576040517f08c379a0000000000000000000000000000000000000000000000000000000008152600401610bcf90611a1b565b60405180910390fd5b6001600060146101000a81548160ff02191690831515021790555060008054906101000a900473ffffffffffffffffffffffffffffffffffffffff1673ffffffffffffffffffffffffffffffffffffffff163373ffffffffffffffffffffffffffffffffffffffff1614610c81576040517f08c379a0000000000000000000000000000000000000000000000000000000008152600401610c7890611ba9565b60405180910390fd5b60008273ffffffffffffffffffffffffffffffffffffffff166370a08231306040518263ffffffff1660e01b8152600401610cbc919061176f565b602060405180830381865afa158015610cd9573d6000803e3d6000fd5b505050506040513d601f19601f82011682018060405250810190610cfd9190611c3b565b90506000606460075483610d119190611c68565b610d1b9190611cf1565b905060006003600085815260200190815260200160002060000160019054906101000a900473ffffffffffffffffffffffffffffffffffffffff1690508473ffffffffffffffffffffffffffffffffffffffff1663a9059cbb82846040518363ffffffff1660e01b8152600401610d93929190611bc9565b6020604051808303816000875af1158015610db2573d6000803e3d6000fd5b505050506040513d601f19601f82011682018060405250810190610dd69190611b0a565b50600180811115610dea57610de9611314565b5b6003600086815260200190815260200160002060000160009054906101000a900460ff166001811115610e2057610e1f611314565b5b1415610e92578073ffffffffffffffffffffffffffffffffffffffff1663f340fa01866040518263ffffffff1660e01b8152600401610e5f919061176f565b600060405180830381600087803b158015610e7957600080fd5b505af1158015610e8d573d6000803e3d6000fd5b505050505b81600460008773ffffffffffffffffffffffffffffffffffffffff1673ffffffffffffffffffffffffffffffffffffffff16815260200190815260200160002060008681526020019081526020016000206000828254610ef29190611d22565b9250508190555050505060008060146101000a81548160ff0219169083151502179055505050565b60008054906101000a900473ffffffffffffffffffffffffffffffffffffffff1673ffffffffffffffffffffffffffffffffffffffff163373ffffffffffffffffffffffffffffffffffffffff1614610fa8576040517f08c379a0000000000000000000000000000000000000000000000000000000008152600401610f9f9061180c565b60405180910390fd5b806003600060065481526020019081526020016000208181610fca919061224a565b90505060066000815480929190610fe090611986565b919050555050565b60016020528060005260406000206000915090505481565b60008054906101000a900473ffffffffffffffffffffffffffffffffffffffff1681565b6004602052816000526040600020602052806000526040600020600091509150505481565b600060149054906101000a900460ff1681565b600060149054906101000a900460ff16156110ac576040517f08c379a00000000000000000000000000000000000000000000000000000000081526004016110a390611a1b565b60405180910390fd5b6001600060146101000a81548160ff0219169083151502179055506000811161110a576040517f08c379a000000000000000000000000000000000000000000000000000000000815260040161110190611a87565b60405180910390fd5b6000600260003373ffffffffffffffffffffffffffffffffffffffff1673ffffffffffffffffffffffffffffffffffffffff16815260200190815260200160002060008473ffffffffffffffffffffffffffffffffffffffff1673ffffffffffffffffffffffffffffffffffffffff168152602001908152602001600020905081816000015410156111d1576040517f08c379a00000000000000000000000000000000000000000000000000000000081526004016111c8906122a4565b60405180910390fd5b818160000160008282546111e59190611bf2565b925050819055506000816000015414156112885760018060003373ffffffffffffffffffffffffffffffffffffffff1673ffffffffffffffffffffffffffffffffffffffff168152602001908152602001600020546112449190611bf2565b600160003373ffffffffffffffffffffffffffffffffffffffff1673ffffffffffffffffffffffffffffffffffffffff168152602001908152602001600020819055505b5060008060146101000a81548160ff0219169083151502179055505050565b600080fd5b600080fd5b6000819050919050565b6112c4816112b1565b81146112cf57600080fd5b50565b6000813590506112e1816112bb565b92915050565b6000602082840312156112fd576112fc6112a7565b5b600061130b848285016112d2565b91505092915050565b7f4e487b7100000000000000000000000000000000000000000000000000000000600052602160045260246000fd5b6002811061135457611353611314565b5b50565b600081905061136582611343565b919050565b600061137582611357565b9050919050565b6113858161136a565b82525050565b600073ffffffffffffffffffffffffffffffffffffffff82169050919050565b60006113b68261138b565b9050919050565b6113c6816113ab565b82525050565b600081519050919050565b600082825260208201905092915050565b60005b838110156114065780820151818401526020810190506113eb565b83811115611415576000848401525b50505050565b6000601f19601f8301169050919050565b6000611437826113cc565b61144181856113d7565b93506114518185602086016113e8565b61145a8161141b565b840191505092915050565b600060608201905061147a600083018661137c565b61148760208301856113bd565b8181036040830152611499818461142c565b9050949350505050565b6114ac816113ab565b81146114b757600080fd5b50565b6000813590506114c9816114a3565b92915050565b600080604083850312156114e6576114e56112a7565b5b60006114f4858286016114ba565b9250506020611505858286016114ba565b9150509250929050565b611518816112b1565b82525050565b6000604082019050611533600083018561150f565b611540602083018461150f565b9392505050565b600081519050919050565b600082825260208201905092915050565b6000819050602082019050919050565b61157c816113ab565b82525050565b600061158e8383611573565b60208301905092915050565b6000602082019050919050565b60006115b282611547565b6115bc8185611552565b93506115c783611563565b8060005b838110156115f85781516115df8882611582565b97506115ea8361159a565b9250506001810190506115cb565b5085935050505092915050565b6000602082019050818103600083015261161f81846115a7565b905092915050565b6000806040838503121561163e5761163d6112a7565b5b600061164c858286016114ba565b925050602061165d858286016112d2565b9150509250929050565b600060208201905061167c600083018461150f565b92915050565b60008060006060848603121561169b5761169a6112a7565b5b60006116a9868287016114ba565b93505060206116ba868287016112d2565b92505060406116cb868287016112d2565b9150509250925092565b600080fd5b6000606082840312156116f0576116ef6116d5565b5b81905092915050565b60006020828403121561170f5761170e6112a7565b5b600082013567ffffffffffffffff81111561172d5761172c6112ac565b5b611739848285016116da565b91505092915050565b600060208284031215611758576117576112a7565b5b6000611766848285016114ba565b91505092915050565b600060208201905061178460008301846113bd565b92915050565b60008115159050919050565b61179f8161178a565b82525050565b60006020820190506117ba6000830184611796565b92915050565b7f4f6e6c7920746865206f776e65722063616e2061646a75737420726174696f73600082015250565b60006117f66020836113d7565b9150611801826117c0565b602082019050919050565b60006020820190508181036000830152611825816117e9565b9050919050565b7f526174696f2063616e6e6f742065786365656420313030250000000000000000600082015250565b60006118626018836113d7565b915061186d8261182c565b602082019050919050565b6000602082019050818103600083015261189181611855565b9050919050565b7f4e487b7100000000000000000000000000000000000000000000000000000000600052602260045260246000fd5b600060028204905060018216806118df57607f821691505b602082108114156118f3576118f2611898565b5b50919050565b7f4e487b7100000000000000000000000000000000000000000000000000000000600052604160045260246000fd5b7f4e487b7100000000000000000000000000000000000000000000000000000000600052603260045260246000fd5b7f4e487b7100000000000000000000000000000000000000000000000000000000600052601160045260246000fd5b6000611991826112b1565b91507fffffffffffffffffffffffffffffffffffffffffffffffffffffffffffffffff8214156119c4576119c3611957565b5b600182019050919050565b7f5265656e7472616e742063616c6c000000000000000000000000000000000000600082015250565b6000611a05600e836113d7565b9150611a10826119cf565b602082019050919050565b60006020820190508181036000830152611a34816119f8565b9050919050565b7f416d6f756e74206d7573742062652067726561746572207468616e2030000000600082015250565b6000611a71601d836113d7565b9150611a7c82611a3b565b602082019050919050565b60006020820190508181036000830152611aa081611a64565b9050919050565b6000606082019050611abc60008301866113bd565b611ac960208301856113bd565b611ad6604083018461150f565b949350505050565b611ae78161178a565b8114611af257600080fd5b50565b600081519050611b0481611ade565b92915050565b600060208284031215611b2057611b1f6112a7565b5b6000611b2e84828501611af5565b91505092915050565b7f4f6e6c7920746865206f776e65722063616e20616c6c6f636174652066756e6460008201527f7300000000000000000000000000000000000000000000000000000000000000602082015250565b6000611b936021836113d7565b9150611b9e82611b37565b604082019050919050565b60006020820190508181036000830152611bc281611b86565b9050919050565b6000604082019050611bde60008301856113bd565b611beb602083018461150f565b9392505050565b6000611bfd826112b1565b9150611c08836112b1565b925082821015611c1b57611c1a611957565b5b828203905092915050565b600081519050611c35816112bb565b92915050565b600060208284031215611c5157611c506112a7565b5b6000611c5f84828501611c26565b91505092915050565b6000611c73826112b1565b9150611c7e836112b1565b9250817fffffffffffffffffffffffffffffffffffffffffffffffffffffffffffffffff0483118215151615611cb757611cb6611957565b5b828202905092915050565b7f4e487b7100000000000000000000000000000000000000000000000000000000600052601260045260246000fd5b6000611cfc826112b1565b9150611d07836112b1565b925082611d1757611d16611cc2565b5b828204905092915050565b6000611d2d826112b1565b9150611d38836112b1565b9250827fffffffffffffffffffffffffffffffffffffffffffffffffffffffffffffffff03821115611d6d57611d6c611957565b5b828201905092915050565b60028110611d8557600080fd5b50565b60008135611d9581611d78565b80915050919050565b60008160001b9050919050565b600060ff611db884611d9e565b9350801983169250808416831791505092915050565b6000611dd982611357565b9050919050565b6000819050919050565b611df382611dce565b611e06611dff82611de0565b8354611dab565b8255505050565b60008135611e1a816114a3565b80915050919050565b60008160081b9050919050565b600074ffffffffffffffffffffffffffffffffffffffff00611e5184611e23565b9350801983169250808416831791505092915050565b6000819050919050565b6000611e8c611e87611e828461138b565b611e67565b61138b565b9050919050565b6000611e9e82611e71565b9050919050565b6000611eb082611e93565b9050919050565b6000819050919050565b611eca82611ea5565b611edd611ed682611eb7565b8354611e30565b8255505050565b600080fd5b600080fd5b600080fd5b60008083356001602003843603038112611f1057611f0f611ee4565b5b80840192508235915067ffffffffffffffff821115611f3257611f31611ee9565b5b602083019250600182023603831315611f4e57611f4d611eee565b5b509250929050565b600082905092915050565b60008190508160005260206000209050919050565b60006020601f8301049050919050565b600082821b905092915050565b600060088302611fc37fffffffffffffffffffffffffffffffffffffffffffffffffffffffffffffffff82611f86565b611fcd8683611f86565b95508019841693508086168417925050509392505050565b6000612000611ffb611ff6846112b1565b611e67565b6112b1565b9050919050565b6000819050919050565b61201a83611fe5565b61202e61202682612007565b848454611f93565b825550505050565b600090565b612043612036565b61204e818484612011565b505050565b5b818110156120725761206760008261203b565b600181019050612054565b5050565b601f8211156120b75761208881611f61565b61209184611f76565b810160208510156120a0578190505b6120b46120ac85611f76565b830182612053565b50505b505050565b600082821c905092915050565b60006120da600019846008026120bc565b1980831691505092915050565b60006120f383836120c9565b9150826002028217905092915050565b61210d8383611f56565b67ffffffffffffffff811115612126576121256118f9565b5b61213082546118c7565b61213b828285612076565b6000601f83116001811461216a5760008415612158578287013590505b61216285826120e7565b8655506121ca565b601f19841661217886611f61565b60005b828110156121a05784890135825560018201915060208501945060208101905061217b565b868310156121bd57848901356121b9601f8916826120c9565b8355505b6001600288020188555050505b50505050505050565b6121de838383612103565b505050565b6000810160008301806121f581611d88565b90506122018184611dea565b50505060008101602083018061221681611e0d565b90506122228184611ec1565b50505060018101604083016122378185611ef3565b6122428183866121d3565b505050505050565b61225482826121e3565b5050565b7f45786365656473206465706f736974656420616d6f756e740000000000000000600082015250565b600061228e6018836113d7565b915061229982612258565b602082019050919050565b600060208201905081810360008301526122bd81612281565b905091905056fea26469706673582212203ec4dd2e8f9a4b823291cc726b8412a2f88169bfcd3e8270ea556813df6274e264736f6c634300080a0033",
					"opcodes": "PUSH1 0x80 PUSH1 0x40 MSTORE CALLVALUE DUP1 ISZERO PUSH3 0x11 JUMPI PUSH1 0x0 DUP1 REVERT JUMPDEST POP PUSH1 0x40 MLOAD PUSH3 0x2401 CODESIZE SUB DUP1 PUSH3 0x2401 DUP4 CODECOPY DUP2 DUP2 ADD PUSH1 0x40 MSTORE DUP2 ADD SWAP1 PUSH3 0x37 SWAP2 SWAP1 PUSH3 0xC5 JUMP JUMPDEST CALLER PUSH1 0x0 DUP1 PUSH2 0x100 EXP DUP2 SLOAD DUP2 PUSH20 0xFFFFFFFFFFFFFFFFFFFFFFFFFFFFFFFFFFFFFFFF MUL NOT AND SWAP1 DUP4 PUSH20 0xFFFFFFFFFFFFFFFFFFFFFFFFFFFFFFFFFFFFFFFF AND MUL OR SWAP1 SSTORE POP DUP1 PUSH1 0x7 DUP2 SWAP1 SSTORE POP POP PUSH3 0xF7 JUMP JUMPDEST PUSH1 0x0 DUP1 REVERT JUMPDEST PUSH1 0x0 DUP2 SWAP1 POP SWAP2 SWAP1 POP JUMP JUMPDEST PUSH3 0x9F DUP2 PUSH3 0x8A JUMP JUMPDEST DUP2 EQ PUSH3 0xAB JUMPI PUSH1 0x0 DUP1 REVERT JUMPDEST POP JUMP JUMPDEST PUSH1 0x0 DUP2 MLOAD SWAP1 POP PUSH3 0xBF DUP2 PUSH3 0x94 JUMP JUMPDEST SWAP3 SWAP2 POP POP JUMP JUMPDEST PUSH1 0x0 PUSH1 0x20 DUP3 DUP5 SUB SLT ISZERO PUSH3 0xDE JUMPI PUSH3 0xDD PUSH3 0x85 JUMP JUMPDEST JUMPDEST PUSH1 0x0 PUSH3 0xEE DUP5 DUP3 DUP6 ADD PUSH3 0xAE JUMP JUMPDEST SWAP2 POP POP SWAP3 SWAP2 POP POP JUMP JUMPDEST PUSH2 0x22FA DUP1 PUSH3 0x107 PUSH1 0x0 CODECOPY PUSH1 0x0 RETURN INVALID PUSH1 0x80 PUSH1 0x40 MSTORE CALLVALUE DUP1 ISZERO PUSH2 0x10 JUMPI PUSH1 0x0 DUP1 REVERT JUMPDEST POP PUSH1 0x4 CALLDATASIZE LT PUSH2 0xF5 JUMPI PUSH1 0x0 CALLDATALOAD PUSH1 0xE0 SHR DUP1 PUSH4 0x715EC5DA GT PUSH2 0x97 JUMPI DUP1 PUSH4 0x8DA5CB5B GT PUSH2 0x66 JUMPI DUP1 PUSH4 0x8DA5CB5B EQ PUSH2 0x285 JUMPI DUP1 PUSH4 0x9CEC004D EQ PUSH2 0x2A3 JUMPI DUP1 PUSH4 0xCF309012 EQ PUSH2 0x2D3 JUMPI DUP1 PUSH4 0xF3FEF3A3 EQ PUSH2 0x2F1 JUMPI PUSH2 0xF5 JUMP JUMPDEST DUP1 PUSH4 0x715EC5DA EQ PUSH2 0x201 JUMPI DUP1 PUSH4 0x7690CBEB EQ PUSH2 0x21D JUMPI DUP1 PUSH4 0x7DA5AF32 EQ PUSH2 0x239 JUMPI DUP1 PUSH4 0x83C36433 EQ PUSH2 0x255 JUMPI PUSH2 0xF5 JUMP JUMPDEST DUP1 PUSH4 0x466BCA02 GT PUSH2 0xD3 JUMPI DUP1 PUSH4 0x466BCA02 EQ PUSH2 0x179 JUMPI DUP1 PUSH4 0x47E7EF24 EQ PUSH2 0x197 JUMPI DUP1 PUSH4 0x50A1DA0C EQ PUSH2 0x1B3 JUMPI DUP1 PUSH4 0x61D92F2C EQ PUSH2 0x1E3 JUMPI PUSH2 0xF5 JUMP JUMPDEST DUP1 PUSH4 0x37A7A334 EQ PUSH2 0xFA JUMPI DUP1 PUSH4 0x3AA4C538 EQ PUSH2 0x116 JUMPI DUP1 PUSH4 0x436D8039 EQ PUSH2 0x148 JUMPI JUMPDEST PUSH1 0x0 DUP1 REVERT JUMPDEST PUSH2 0x114 PUSH1 0x4 DUP1 CALLDATASIZE SUB DUP2 ADD SWAP1 PUSH2 0x10F SWAP2 SWAP1 PUSH2 0x12E7 JUMP JUMPDEST PUSH2 0x30D JUMP JUMPDEST STOP JUMPDEST PUSH2 0x130 PUSH1 0x4 DUP1 CALLDATASIZE SUB DUP2 ADD SWAP1 PUSH2 0x12B SWAP2 SWAP1 PUSH2 0x12E7 JUMP JUMPDEST PUSH2 0x3E9 JUMP JUMPDEST PUSH1 0x40 MLOAD PUSH2 0x13F SWAP4 SWAP3 SWAP2 SWAP1 PUSH2 0x1465 JUMP JUMPDEST PUSH1 0x40 MLOAD DUP1 SWAP2 SUB SWAP1 RETURN JUMPDEST PUSH2 0x162 PUSH1 0x4 DUP1 CALLDATASIZE SUB DUP2 ADD SWAP1 PUSH2 0x15D SWAP2 SWAP1 PUSH2 0x14CF JUMP JUMPDEST PUSH2 0x4C8 JUMP JUMPDEST PUSH1 0x40 MLOAD PUSH2 0x170 SWAP3 SWAP2 SWAP1 PUSH2 0x151E JUMP JUMPDEST PUSH1 0x40 MLOAD DUP1 SWAP2 SUB SWAP1 RETURN JUMPDEST PUSH2 0x181 PUSH2 0x4F9 JUMP JUMPDEST PUSH1 0x40 MLOAD PUSH2 0x18E SWAP2 SWAP1 PUSH2 0x1605 JUMP JUMPDEST PUSH1 0x40 MLOAD DUP1 SWAP2 SUB SWAP1 RETURN JUMPDEST PUSH2 0x1B1 PUSH1 0x4 DUP1 CALLDATASIZE SUB DUP2 ADD SWAP1 PUSH2 0x1AC SWAP2 SWAP1 PUSH2 0x1627 JUMP JUMPDEST PUSH2 0x5F3 JUMP JUMPDEST STOP JUMPDEST PUSH2 0x1CD PUSH1 0x4 DUP1 CALLDATASIZE SUB DUP2 ADD SWAP1 PUSH2 0x1C8 SWAP2 SWAP1 PUSH2 0x1627 JUMP JUMPDEST PUSH2 0x8AF JUMP JUMPDEST PUSH1 0x40 MLOAD PUSH2 0x1DA SWAP2 SWAP1 PUSH2 0x1667 JUMP JUMPDEST PUSH1 0x40 MLOAD DUP1 SWAP2 SUB SWAP1 RETURN JUMPDEST PUSH2 0x1EB PUSH2 0x90A JUMP JUMPDEST PUSH1 0x40 MLOAD PUSH2 0x1F8 SWAP2 SWAP1 PUSH2 0x1667 JUMP JUMPDEST PUSH1 0x40 MLOAD DUP1 SWAP2 SUB SWAP1 RETURN JUMPDEST PUSH2 0x21B PUSH1 0x4 DUP1 CALLDATASIZE SUB DUP2 ADD SWAP1 PUSH2 0x216 SWAP2 SWAP1 PUSH2 0x1682 JUMP JUMPDEST PUSH2 0x910 JUMP JUMPDEST STOP JUMPDEST PUSH2 0x237 PUSH1 0x4 DUP1 CALLDATASIZE SUB DUP2 ADD SWAP1 PUSH2 0x232 SWAP2 SWAP1 PUSH2 0x1627 JUMP JUMPDEST PUSH2 0xB88 JUMP JUMPDEST STOP JUMPDEST PUSH2 0x253 PUSH1 0x4 DUP1 CALLDATASIZE SUB DUP2 ADD SWAP1 PUSH2 0x24E SWAP2 SWAP1 PUSH2 0x16F9 JUMP JUMPDEST PUSH2 0xF1A JUMP JUMPDEST STOP JUMPDEST PUSH2 0x26F PUSH1 0x4 DUP1 CALLDATASIZE SUB DUP2 ADD SWAP1 PUSH2 0x26A SWAP2 SWAP1 PUSH2 0x1742 JUMP JUMPDEST PUSH2 0xFE8 JUMP JUMPDEST PUSH1 0x40 MLOAD PUSH2 0x27C SWAP2 SWAP1 PUSH2 0x1667 JUMP JUMPDEST PUSH1 0x40 MLOAD DUP1 SWAP2 SUB SWAP1 RETURN JUMPDEST PUSH2 0x28D PUSH2 0x1000 JUMP JUMPDEST PUSH1 0x40 MLOAD PUSH2 0x29A SWAP2 SWAP1 PUSH2 0x176F JUMP JUMPDEST PUSH1 0x40 MLOAD DUP1 SWAP2 SUB SWAP1 RETURN JUMPDEST PUSH2 0x2BD PUSH1 0x4 DUP1 CALLDATASIZE SUB DUP2 ADD SWAP1 PUSH2 0x2B8 SWAP2 SWAP1 PUSH2 0x1627 JUMP JUMPDEST PUSH2 0x1024 JUMP JUMPDEST PUSH1 0x40 MLOAD PUSH2 0x2CA SWAP2 SWAP1 PUSH2 0x1667 JUMP JUMPDEST PUSH1 0x40 MLOAD DUP1 SWAP2 SUB SWAP1 RETURN JUMPDEST PUSH2 0x2DB PUSH2 0x1049 JUMP JUMPDEST PUSH1 0x40 MLOAD PUSH2 0x2E8 SWAP2 SWAP1 PUSH2 0x17A5 JUMP JUMPDEST PUSH1 0x40 MLOAD DUP1 SWAP2 SUB SWAP1 RETURN JUMPDEST PUSH2 0x30B PUSH1 0x4 DUP1 CALLDATASIZE SUB DUP2 ADD SWAP1 PUSH2 0x306 SWAP2 SWAP1 PUSH2 0x1627 JUMP JUMPDEST PUSH2 0x105C JUMP JUMPDEST STOP JUMPDEST PUSH1 0x0 DUP1 SLOAD SWAP1 PUSH2 0x100 EXP SWAP1 DIV PUSH20 0xFFFFFFFFFFFFFFFFFFFFFFFFFFFFFFFFFFFFFFFF AND PUSH20 0xFFFFFFFFFFFFFFFFFFFFFFFFFFFFFFFFFFFFFFFF AND CALLER PUSH20 0xFFFFFFFFFFFFFFFFFFFFFFFFFFFFFFFFFFFFFFFF AND EQ PUSH2 0x39B JUMPI PUSH1 0x40 MLOAD PUSH32 0x8C379A000000000000000000000000000000000000000000000000000000000 DUP2 MSTORE PUSH1 0x4 ADD PUSH2 0x392 SWAP1 PUSH2 0x180C JUMP JUMPDEST PUSH1 0x40 MLOAD DUP1 SWAP2 SUB SWAP1 REVERT JUMPDEST PUSH1 0x64 DUP2 GT ISZERO PUSH2 0x3DF JUMPI PUSH1 0x40 MLOAD PUSH32 0x8C379A000000000000000000000000000000000000000000000000000000000 DUP2 MSTORE PUSH1 0x4 ADD PUSH2 0x3D6 SWAP1 PUSH2 0x1878 JUMP JUMPDEST PUSH1 0x40 MLOAD DUP1 SWAP2 SUB SWAP1 REVERT JUMPDEST DUP1 PUSH1 0x7 DUP2 SWAP1 SSTORE POP POP JUMP JUMPDEST PUSH1 0x3 PUSH1 0x20 MSTORE DUP1 PUSH1 0x0 MSTORE PUSH1 0x40 PUSH1 0x0 KECCAK256 PUSH1 0x0 SWAP2 POP SWAP1 POP DUP1 PUSH1 0x0 ADD PUSH1 0x0 SWAP1 SLOAD SWAP1 PUSH2 0x100 EXP SWAP1 DIV PUSH1 0xFF AND SWAP1 DUP1 PUSH1 0x0 ADD PUSH1 0x1 SWAP1 SLOAD SWAP1 PUSH2 0x100 EXP SWAP1 DIV PUSH20 0xFFFFFFFFFFFFFFFFFFFFFFFFFFFFFFFFFFFFFFFF AND SWAP1 DUP1 PUSH1 0x1 ADD DUP1 SLOAD PUSH2 0x445 SWAP1 PUSH2 0x18C7 JUMP JUMPDEST DUP1 PUSH1 0x1F ADD PUSH1 0x20 DUP1 SWAP2 DIV MUL PUSH1 0x20 ADD PUSH1 0x40 MLOAD SWAP1 DUP2 ADD PUSH1 0x40 MSTORE DUP1 SWAP3 SWAP2 SWAP1 DUP2 DUP2 MSTORE PUSH1 0x20 ADD DUP3 DUP1 SLOAD PUSH2 0x471 SWAP1 PUSH2 0x18C7 JUMP JUMPDEST DUP1 ISZERO PUSH2 0x4BE JUMPI DUP1 PUSH1 0x1F LT PUSH2 0x493 JUMPI PUSH2 0x100 DUP1 DUP4 SLOAD DIV MUL DUP4 MSTORE SWAP2 PUSH1 0x20 ADD SWAP2 PUSH2 0x4BE JUMP JUMPDEST DUP3 ADD SWAP2 SWAP1 PUSH1 0x0 MSTORE PUSH1 0x20 PUSH1 0x0 KECCAK256 SWAP1 JUMPDEST DUP2 SLOAD DUP2 MSTORE SWAP1 PUSH1 0x1 ADD SWAP1 PUSH1 0x20 ADD DUP1 DUP4 GT PUSH2 0x4A1 JUMPI DUP3 SWAP1 SUB PUSH1 0x1F AND DUP3 ADD SWAP2 JUMPDEST POP POP POP POP POP SWAP1 POP DUP4 JUMP JUMPDEST PUSH1 0x2 PUSH1 0x20 MSTORE DUP2 PUSH1 0x0 MSTORE PUSH1 0x40 PUSH1 0x0 KECCAK256 PUSH1 0x20 MSTORE DUP1 PUSH1 0x0 MSTORE PUSH1 0x40 PUSH1 0x0 KECCAK256 PUSH1 0x0 SWAP2 POP SWAP2 POP POP DUP1 PUSH1 0x0 ADD SLOAD SWAP1 DUP1 PUSH1 0x1 ADD SLOAD SWAP1 POP DUP3 JUMP JUMPDEST PUSH1 0x60 PUSH1 0x0 PUSH1 0x8 SLOAD PUSH8 0xFFFFFFFFFFFFFFFF DUP2 GT ISZERO PUSH2 0x519 JUMPI PUSH2 0x518 PUSH2 0x18F9 JUMP JUMPDEST JUMPDEST PUSH1 0x40 MLOAD SWAP1 DUP1 DUP3 MSTORE DUP1 PUSH1 0x20 MUL PUSH1 0x20 ADD DUP3 ADD PUSH1 0x40 MSTORE DUP1 ISZERO PUSH2 0x547 JUMPI DUP2 PUSH1 0x20 ADD PUSH1 0x20 DUP3 MUL DUP1 CALLDATASIZE DUP4 CALLDATACOPY DUP1 DUP3 ADD SWAP2 POP POP SWAP1 POP JUMPDEST POP SWAP1 POP PUSH1 0x0 JUMPDEST PUSH1 0x8 SLOAD DUP2 LT ISZERO PUSH2 0x5EB JUMPI PUSH1 0x5 PUSH1 0x0 DUP3 DUP2 MSTORE PUSH1 0x20 ADD SWAP1 DUP2 MSTORE PUSH1 0x20 ADD PUSH1 0x0 KECCAK256 PUSH1 0x0 SWAP1 SLOAD SWAP1 PUSH2 0x100 EXP SWAP1 DIV PUSH20 0xFFFFFFFFFFFFFFFFFFFFFFFFFFFFFFFFFFFFFFFF AND DUP3 DUP3 DUP2 MLOAD DUP2 LT PUSH2 0x59E JUMPI PUSH2 0x59D PUSH2 0x1928 JUMP JUMPDEST JUMPDEST PUSH1 0x20 MUL PUSH1 0x20 ADD ADD SWAP1 PUSH20 0xFFFFFFFFFFFFFFFFFFFFFFFFFFFFFFFFFFFFFFFF AND SWAP1 DUP2 PUSH20 0xFFFFFFFFFFFFFFFFFFFFFFFFFFFFFFFFFFFFFFFF AND DUP2 MSTORE POP POP DUP1 DUP1 PUSH2 0x5E3 SWAP1 PUSH2 0x1986 JUMP JUMPDEST SWAP2 POP POP PUSH2 0x54D JUMP JUMPDEST POP DUP1 SWAP2 POP POP SWAP1 JUMP JUMPDEST PUSH1 0x0 PUSH1 0x14 SWAP1 SLOAD SWAP1 PUSH2 0x100 EXP SWAP1 DIV PUSH1 0xFF AND ISZERO PUSH2 0x643 JUMPI PUSH1 0x40 MLOAD PUSH32 0x8C379A000000000000000000000000000000000000000000000000000000000 DUP2 MSTORE PUSH1 0x4 ADD PUSH2 0x63A SWAP1 PUSH2 0x1A1B JUMP JUMPDEST PUSH1 0x40 MLOAD DUP1 SWAP2 SUB SWAP1 REVERT JUMPDEST PUSH1 0x1 PUSH1 0x0 PUSH1 0x14 PUSH2 0x100 EXP DUP2 SLOAD DUP2 PUSH1 0xFF MUL NOT AND SWAP1 DUP4 ISZERO ISZERO MUL OR SWAP1 SSTORE POP PUSH1 0x0 DUP2 GT PUSH2 0x6A1 JUMPI PUSH1 0x40 MLOAD PUSH32 0x8C379A000000000000000000000000000000000000000000000000000000000 DUP2 MSTORE PUSH1 0x4 ADD PUSH2 0x698 SWAP1 PUSH2 0x1A87 JUMP JUMPDEST PUSH1 0x40 MLOAD DUP1 SWAP2 SUB SWAP1 REVERT JUMPDEST PUSH1 0x0 DUP3 SWAP1 POP DUP1 PUSH20 0xFFFFFFFFFFFFFFFFFFFFFFFFFFFFFFFFFFFFFFFF AND PUSH4 0x23B872DD CALLER ADDRESS DUP6 PUSH1 0x40 MLOAD DUP5 PUSH4 0xFFFFFFFF AND PUSH1 0xE0 SHL DUP2 MSTORE PUSH1 0x4 ADD PUSH2 0x6E3 SWAP4 SWAP3 SWAP2 SWAP1 PUSH2 0x1AA7 JUMP JUMPDEST PUSH1 0x20 PUSH1 0x40 MLOAD DUP1 DUP4 SUB DUP2 PUSH1 0x0 DUP8 GAS CALL ISZERO DUP1 ISZERO PUSH2 0x702 JUMPI RETURNDATASIZE PUSH1 0x0 DUP1 RETURNDATACOPY RETURNDATASIZE PUSH1 0x0 REVERT JUMPDEST POP POP POP POP PUSH1 0x40 MLOAD RETURNDATASIZE PUSH1 0x1F NOT PUSH1 0x1F DUP3 ADD AND DUP3 ADD DUP1 PUSH1 0x40 MSTORE POP DUP2 ADD SWAP1 PUSH2 0x726 SWAP2 SWAP1 PUSH2 0x1B0A JUMP JUMPDEST POP PUSH1 0x40 MLOAD DUP1 PUSH1 0x40 ADD PUSH1 0x40 MSTORE DUP1 DUP4 DUP2 MSTORE PUSH1 0x20 ADD TIMESTAMP DUP2 MSTORE POP PUSH1 0x2 PUSH1 0x0 CALLER PUSH20 0xFFFFFFFFFFFFFFFFFFFFFFFFFFFFFFFFFFFFFFFF AND PUSH20 0xFFFFFFFFFFFFFFFFFFFFFFFFFFFFFFFFFFFFFFFF AND DUP2 MSTORE PUSH1 0x20 ADD SWAP1 DUP2 MSTORE PUSH1 0x20 ADD PUSH1 0x0 KECCAK256 PUSH1 0x0 DUP6 PUSH20 0xFFFFFFFFFFFFFFFFFFFFFFFFFFFFFFFFFFFFFFFF AND PUSH20 0xFFFFFFFFFFFFFFFFFFFFFFFFFFFFFFFFFFFFFFFF AND DUP2 MSTORE PUSH1 0x20 ADD SWAP1 DUP2 MSTORE PUSH1 0x20 ADD PUSH1 0x0 KECCAK256 PUSH1 0x0 DUP3 ADD MLOAD DUP2 PUSH1 0x0 ADD SSTORE PUSH1 0x20 DUP3 ADD MLOAD DUP2 PUSH1 0x1 ADD SSTORE SWAP1 POP POP PUSH1 0x1 PUSH1 0x0 CALLER PUSH20 0xFFFFFFFFFFFFFFFFFFFFFFFFFFFFFFFFFFFFFFFF AND PUSH20 0xFFFFFFFFFFFFFFFFFFFFFFFFFFFFFFFFFFFFFFFF AND DUP2 MSTORE PUSH1 0x20 ADD SWAP1 DUP2 MSTORE PUSH1 0x20 ADD PUSH1 0x0 KECCAK256 PUSH1 0x0 DUP2 SLOAD DUP1 SWAP3 SWAP2 SWAP1 PUSH2 0x81F SWAP1 PUSH2 0x1986 JUMP JUMPDEST SWAP2 SWAP1 POP SSTORE POP DUP3 PUSH1 0x5 PUSH1 0x0 PUSH1 0x8 SLOAD DUP2 MSTORE PUSH1 0x20 ADD SWAP1 DUP2 MSTORE PUSH1 0x20 ADD PUSH1 0x0 KECCAK256 PUSH1 0x0 PUSH2 0x100 EXP DUP2 SLOAD DUP2 PUSH20 0xFFFFFFFFFFFFFFFFFFFFFFFFFFFFFFFFFFFFFFFF MUL NOT AND SWAP1 DUP4 PUSH20 0xFFFFFFFFFFFFFFFFFFFFFFFFFFFFFFFFFFFFFFFF AND MUL OR SWAP1 SSTORE POP PUSH1 0x8 PUSH1 0x0 DUP2 SLOAD DUP1 SWAP3 SWAP2 SWAP1 PUSH2 0x88B SWAP1 PUSH2 0x1986 JUMP JUMPDEST SWAP2 SWAP1 POP SSTORE POP POP PUSH1 0x0 DUP1 PUSH1 0x14 PUSH2 0x100 EXP DUP2 SLOAD DUP2 PUSH1 0xFF MUL NOT AND SWAP1 DUP4 ISZERO ISZERO MUL OR SWAP1 SSTORE POP POP POP JUMP JUMPDEST PUSH1 0x0 PUSH1 0x4 PUSH1 0x0 DUP5 PUSH20 0xFFFFFFFFFFFFFFFFFFFFFFFFFFFFFFFFFFFFFFFF AND PUSH20 0xFFFFFFFFFFFFFFFFFFFFFFFFFFFFFFFFFFFFFFFF AND DUP2 MSTORE PUSH1 0x20 ADD SWAP1 DUP2 MSTORE PUSH1 0x20 ADD PUSH1 0x0 KECCAK256 PUSH1 0x0 DUP4 DUP2 MSTORE PUSH1 0x20 ADD SWAP1 DUP2 MSTORE PUSH1 0x20 ADD PUSH1 0x0 KECCAK256 SLOAD SWAP1 POP SWAP3 SWAP2 POP POP JUMP JUMPDEST PUSH1 0x7 SLOAD DUP2 JUMP JUMPDEST PUSH1 0x0 PUSH1 0x14 SWAP1 SLOAD SWAP1 PUSH2 0x100 EXP SWAP1 DIV PUSH1 0xFF AND ISZERO PUSH2 0x960 JUMPI PUSH1 0x40 MLOAD PUSH32 0x8C379A000000000000000000000000000000000000000000000000000000000 DUP2 MSTORE PUSH1 0x4 ADD PUSH2 0x957 SWAP1 PUSH2 0x1A1B JUMP JUMPDEST PUSH1 0x40 MLOAD DUP1 SWAP2 SUB SWAP1 REVERT JUMPDEST PUSH1 0x1 PUSH1 0x0 PUSH1 0x14 PUSH2 0x100 EXP DUP2 SLOAD DUP2 PUSH1 0xFF MUL NOT AND SWAP1 DUP4 ISZERO ISZERO MUL OR SWAP1 SSTORE POP PUSH1 0x0 DUP1 SLOAD SWAP1 PUSH2 0x100 EXP SWAP1 DIV PUSH20 0xFFFFFFFFFFFFFFFFFFFFFFFFFFFFFFFFFFFFFFFF AND PUSH20 0xFFFFFFFFFFFFFFFFFFFFFFFFFFFFFFFFFFFFFFFF AND CALLER PUSH20 0xFFFFFFFFFFFFFFFFFFFFFFFFFFFFFFFFFFFFFFFF AND EQ PUSH2 0xA09 JUMPI PUSH1 0x40 MLOAD PUSH32 0x8C379A000000000000000000000000000000000000000000000000000000000 DUP2 MSTORE PUSH1 0x4 ADD PUSH2 0xA00 SWAP1 PUSH2 0x1BA9 JUMP JUMPDEST PUSH1 0x40 MLOAD DUP1 SWAP2 SUB SWAP1 REVERT JUMPDEST PUSH1 0x0 PUSH1 0x3 PUSH1 0x0 DUP4 DUP2 MSTORE PUSH1 0x20 ADD SWAP1 DUP2 MSTORE PUSH1 0x20 ADD PUSH1 0x0 KECCAK256 PUSH1 0x0 ADD PUSH1 0x1 SWAP1 SLOAD SWAP1 PUSH2 0x100 EXP SWAP1 DIV PUSH20 0xFFFFFFFFFFFFFFFFFFFFFFFFFFFFFFFFFFFFFFFF AND SWAP1 POP PUSH1 0x1 DUP1 DUP2 GT ISZERO PUSH2 0xA57 JUMPI PUSH2 0xA56 PUSH2 0x1314 JUMP JUMPDEST JUMPDEST PUSH1 0x3 PUSH1 0x0 DUP5 DUP2 MSTORE PUSH1 0x20 ADD SWAP1 DUP2 MSTORE PUSH1 0x20 ADD PUSH1 0x0 KECCAK256 PUSH1 0x0 ADD PUSH1 0x0 SWAP1 SLOAD SWAP1 PUSH2 0x100 EXP SWAP1 DIV PUSH1 0xFF AND PUSH1 0x1 DUP2 GT ISZERO PUSH2 0xA8D JUMPI PUSH2 0xA8C PUSH2 0x1314 JUMP JUMPDEST JUMPDEST EQ ISZERO PUSH2 0xB01 JUMPI DUP1 PUSH20 0xFFFFFFFFFFFFFFFFFFFFFFFFFFFFFFFFFFFFFFFF AND PUSH4 0xF3FEF3A3 DUP6 DUP6 PUSH1 0x40 MLOAD DUP4 PUSH4 0xFFFFFFFF AND PUSH1 0xE0 SHL DUP2 MSTORE PUSH1 0x4 ADD PUSH2 0xACE SWAP3 SWAP2 SWAP1 PUSH2 0x1BC9 JUMP JUMPDEST PUSH1 0x0 PUSH1 0x40 MLOAD DUP1 DUP4 SUB DUP2 PUSH1 0x0 DUP8 DUP1 EXTCODESIZE ISZERO DUP1 ISZERO PUSH2 0xAE8 JUMPI PUSH1 0x0 DUP1 REVERT JUMPDEST POP GAS CALL ISZERO DUP1 ISZERO PUSH2 0xAFC JUMPI RETURNDATASIZE PUSH1 0x0 DUP1 RETURNDATACOPY RETURNDATASIZE PUSH1 0x0 REVERT JUMPDEST POP POP POP POP JUMPDEST DUP3 PUSH1 0x4 PUSH1 0x0 DUP7 PUSH20 0xFFFFFFFFFFFFFFFFFFFFFFFFFFFFFFFFFFFFFFFF AND PUSH20 0xFFFFFFFFFFFFFFFFFFFFFFFFFFFFFFFFFFFFFFFF AND DUP2 MSTORE PUSH1 0x20 ADD SWAP1 DUP2 MSTORE PUSH1 0x20 ADD PUSH1 0x0 KECCAK256 PUSH1 0x0 DUP5 DUP2 MSTORE PUSH1 0x20 ADD SWAP1 DUP2 MSTORE PUSH1 0x20 ADD PUSH1 0x0 KECCAK256 PUSH1 0x0 DUP3 DUP3 SLOAD PUSH2 0xB61 SWAP2 SWAP1 PUSH2 0x1BF2 JUMP JUMPDEST SWAP3 POP POP DUP2 SWAP1 SSTORE POP POP PUSH1 0x0 DUP1 PUSH1 0x14 PUSH2 0x100 EXP DUP2 SLOAD DUP2 PUSH1 0xFF MUL NOT AND SWAP1 DUP4 ISZERO ISZERO MUL OR SWAP1 SSTORE POP POP POP POP JUMP JUMPDEST PUSH1 0x0 PUSH1 0x14 SWAP1 SLOAD SWAP1 PUSH2 0x100 EXP SWAP1 DIV PUSH1 0xFF AND ISZERO PUSH2 0xBD8 JUMPI PUSH1 0x40 MLOAD PUSH32 0x8C379A000000000000000000000000000000000000000000000000000000000 DUP2 MSTORE PUSH1 0x4 ADD PUSH2 0xBCF SWAP1 PUSH2 0x1A1B JUMP JUMPDEST PUSH1 0x40 MLOAD DUP1 SWAP2 SUB SWAP1 REVERT JUMPDEST PUSH1 0x1 PUSH1 0x0 PUSH1 0x14 PUSH2 0x100 EXP DUP2 SLOAD DUP2 PUSH1 0xFF MUL NOT AND SWAP1 DUP4 ISZERO ISZERO MUL OR SWAP1 SSTORE POP PUSH1 0x0 DUP1 SLOAD SWAP1 PUSH2 0x100 EXP SWAP1 DIV PUSH20 0xFFFFFFFFFFFFFFFFFFFFFFFFFFFFFFFFFFFFFFFF AND PUSH20 0xFFFFFFFFFFFFFFFFFFFFFFFFFFFFFFFFFFFFFFFF AND CALLER PUSH20 0xFFFFFFFFFFFFFFFFFFFFFFFFFFFFFFFFFFFFFFFF AND EQ PUSH2 0xC81 JUMPI PUSH1 0x40 MLOAD PUSH32 0x8C379A000000000000000000000000000000000000000000000000000000000 DUP2 MSTORE PUSH1 0x4 ADD PUSH2 0xC78 SWAP1 PUSH2 0x1BA9 JUMP JUMPDEST PUSH1 0x40 MLOAD DUP1 SWAP2 SUB SWAP1 REVERT JUMPDEST PUSH1 0x0 DUP3 PUSH20 0xFFFFFFFFFFFFFFFFFFFFFFFFFFFFFFFFFFFFFFFF AND PUSH4 0x70A08231 ADDRESS PUSH1 0x40 MLOAD DUP3 PUSH4 0xFFFFFFFF AND PUSH1 0xE0 SHL DUP2 MSTORE PUSH1 0x4 ADD PUSH2 0xCBC SWAP2 SWAP1 PUSH2 0x176F JUMP JUMPDEST PUSH1 0x20 PUSH1 0x40 MLOAD DUP1 DUP4 SUB DUP2 DUP7 GAS STATICCALL ISZERO DUP1 ISZERO PUSH2 0xCD9 JUMPI RETURNDATASIZE PUSH1 0x0 DUP1 RETURNDATACOPY RETURNDATASIZE PUSH1 0x0 REVERT JUMPDEST POP POP POP POP PUSH1 0x40 MLOAD RETURNDATASIZE PUSH1 0x1F NOT PUSH1 0x1F DUP3 ADD AND DUP3 ADD DUP1 PUSH1 0x40 MSTORE POP DUP2 ADD SWAP1 PUSH2 0xCFD SWAP2 SWAP1 PUSH2 0x1C3B JUMP JUMPDEST SWAP1 POP PUSH1 0x0 PUSH1 0x64 PUSH1 0x7 SLOAD DUP4 PUSH2 0xD11 SWAP2 SWAP1 PUSH2 0x1C68 JUMP JUMPDEST PUSH2 0xD1B SWAP2 SWAP1 PUSH2 0x1CF1 JUMP JUMPDEST SWAP1 POP PUSH1 0x0 PUSH1 0x3 PUSH1 0x0 DUP6 DUP2 MSTORE PUSH1 0x20 ADD SWAP1 DUP2 MSTORE PUSH1 0x20 ADD PUSH1 0x0 KECCAK256 PUSH1 0x0 ADD PUSH1 0x1 SWAP1 SLOAD SWAP1 PUSH2 0x100 EXP SWAP1 DIV PUSH20 0xFFFFFFFFFFFFFFFFFFFFFFFFFFFFFFFFFFFFFFFF AND SWAP1 POP DUP5 PUSH20 0xFFFFFFFFFFFFFFFFFFFFFFFFFFFFFFFFFFFFFFFF AND PUSH4 0xA9059CBB DUP3 DUP5 PUSH1 0x40 MLOAD DUP4 PUSH4 0xFFFFFFFF AND PUSH1 0xE0 SHL DUP2 MSTORE PUSH1 0x4 ADD PUSH2 0xD93 SWAP3 SWAP2 SWAP1 PUSH2 0x1BC9 JUMP JUMPDEST PUSH1 0x20 PUSH1 0x40 MLOAD DUP1 DUP4 SUB DUP2 PUSH1 0x0 DUP8 GAS CALL ISZERO DUP1 ISZERO PUSH2 0xDB2 JUMPI RETURNDATASIZE PUSH1 0x0 DUP1 RETURNDATACOPY RETURNDATASIZE PUSH1 0x0 REVERT JUMPDEST POP POP POP POP PUSH1 0x40 MLOAD RETURNDATASIZE PUSH1 0x1F NOT PUSH1 0x1F DUP3 ADD AND DUP3 ADD DUP1 PUSH1 0x40 MSTORE POP DUP2 ADD SWAP1 PUSH2 0xDD6 SWAP2 SWAP1 PUSH2 0x1B0A JUMP JUMPDEST POP PUSH1 0x1 DUP1 DUP2 GT ISZERO PUSH2 0xDEA JUMPI PUSH2 0xDE9 PUSH2 0x1314 JUMP JUMPDEST JUMPDEST PUSH1 0x3 PUSH1 0x0 DUP7 DUP2 MSTORE PUSH1 0x20 ADD SWAP1 DUP2 MSTORE PUSH1 0x20 ADD PUSH1 0x0 KECCAK256 PUSH1 0x0 ADD PUSH1 0x0 SWAP1 SLOAD SWAP1 PUSH2 0x100 EXP SWAP1 DIV PUSH1 0xFF AND PUSH1 0x1 DUP2 GT ISZERO PUSH2 0xE20 JUMPI PUSH2 0xE1F PUSH2 0x1314 JUMP JUMPDEST JUMPDEST EQ ISZERO PUSH2 0xE92 JUMPI DUP1 PUSH20 0xFFFFFFFFFFFFFFFFFFFFFFFFFFFFFFFFFFFFFFFF AND PUSH4 0xF340FA01 DUP7 PUSH1 0x40 MLOAD DUP3 PUSH4 0xFFFFFFFF AND PUSH1 0xE0 SHL DUP2 MSTORE PUSH1 0x4 ADD PUSH2 0xE5F SWAP2 SWAP1 PUSH2 0x176F JUMP JUMPDEST PUSH1 0x0 PUSH1 0x40 MLOAD DUP1 DUP4 SUB DUP2 PUSH1 0x0 DUP8 DUP1 EXTCODESIZE ISZERO DUP1 ISZERO PUSH2 0xE79 JUMPI PUSH1 0x0 DUP1 REVERT JUMPDEST POP GAS CALL ISZERO DUP1 ISZERO PUSH2 0xE8D JUMPI RETURNDATASIZE PUSH1 0x0 DUP1 RETURNDATACOPY RETURNDATASIZE PUSH1 0x0 REVERT JUMPDEST POP POP POP POP JUMPDEST DUP2 PUSH1 0x4 PUSH1 0x0 DUP8 PUSH20 0xFFFFFFFFFFFFFFFFFFFFFFFFFFFFFFFFFFFFFFFF AND PUSH20 0xFFFFFFFFFFFFFFFFFFFFFFFFFFFFFFFFFFFFFFFF AND DUP2 MSTORE PUSH1 0x20 ADD SWAP1 DUP2 MSTORE PUSH1 0x20 ADD PUSH1 0x0 KECCAK256 PUSH1 0x0 DUP7 DUP2 MSTORE PUSH1 0x20 ADD SWAP1 DUP2 MSTORE PUSH1 0x20 ADD PUSH1 0x0 KECCAK256 PUSH1 0x0 DUP3 DUP3 SLOAD PUSH2 0xEF2 SWAP2 SWAP1 PUSH2 0x1D22 JUMP JUMPDEST SWAP3 POP POP DUP2 SWAP1 SSTORE POP POP POP POP PUSH1 0x0 DUP1 PUSH1 0x14 PUSH2 0x100 EXP DUP2 SLOAD DUP2 PUSH1 0xFF MUL NOT AND SWAP1 DUP4 ISZERO ISZERO MUL OR SWAP1 SSTORE POP POP POP JUMP JUMPDEST PUSH1 0x0 DUP1 SLOAD SWAP1 PUSH2 0x100 EXP SWAP1 DIV PUSH20 0xFFFFFFFFFFFFFFFFFFFFFFFFFFFFFFFFFFFFFFFF AND PUSH20 0xFFFFFFFFFFFFFFFFFFFFFFFFFFFFFFFFFFFFFFFF AND CALLER PUSH20 0xFFFFFFFFFFFFFFFFFFFFFFFFFFFFFFFFFFFFFFFF AND EQ PUSH2 0xFA8 JUMPI PUSH1 0x40 MLOAD PUSH32 0x8C379A000000000000000000000000000000000000000000000000000000000 DUP2 MSTORE PUSH1 0x4 ADD PUSH2 0xF9F SWAP1 PUSH2 0x180C JUMP JUMPDEST PUSH1 0x40 MLOAD DUP1 SWAP2 SUB SWAP1 REVERT JUMPDEST DUP1 PUSH1 0x3 PUSH1 0x0 PUSH1 0x6 SLOAD DUP2 MSTORE PUSH1 0x20 ADD SWAP1 DUP2 MSTORE PUSH1 0x20 ADD PUSH1 0x0 KECCAK256 DUP2 DUP2 PUSH2 0xFCA SWAP2 SWAP1 PUSH2 0x224A JUMP JUMPDEST SWAP1 POP POP PUSH1 0x6 PUSH1 0x0 DUP2 SLOAD DUP1 SWAP3 SWAP2 SWAP1 PUSH2 0xFE0 SWAP1 PUSH2 0x1986 JUMP JUMPDEST SWAP2 SWAP1 POP SSTORE POP POP JUMP JUMPDEST PUSH1 0x1 PUSH1 0x20 MSTORE DUP1 PUSH1 0x0 MSTORE PUSH1 0x40 PUSH1 0x0 KECCAK256 PUSH1 0x0 SWAP2 POP SWAP1 POP SLOAD DUP2 JUMP JUMPDEST PUSH1 0x0 DUP1 SLOAD SWAP1 PUSH2 0x100 EXP SWAP1 DIV PUSH20 0xFFFFFFFFFFFFFFFFFFFFFFFFFFFFFFFFFFFFFFFF AND DUP2 JUMP JUMPDEST PUSH1 0x4 PUSH1 0x20 MSTORE DUP2 PUSH1 0x0 MSTORE PUSH1 0x40 PUSH1 0x0 KECCAK256 PUSH1 0x20 MSTORE DUP1 PUSH1 0x0 MSTORE PUSH1 0x40 PUSH1 0x0 KECCAK256 PUSH1 0x0 SWAP2 POP SWAP2 POP POP SLOAD DUP2 JUMP JUMPDEST PUSH1 0x0 PUSH1 0x14 SWAP1 SLOAD SWAP1 PUSH2 0x100 EXP SWAP1 DIV PUSH1 0xFF AND DUP2 JUMP JUMPDEST PUSH1 0x0 PUSH1 0x14 SWAP1 SLOAD SWAP1 PUSH2 0x100 EXP SWAP1 DIV PUSH1 0xFF AND ISZERO PUSH2 0x10AC JUMPI PUSH1 0x40 MLOAD PUSH32 0x8C379A000000000000000000000000000000000000000000000000000000000 DUP2 MSTORE PUSH1 0x4 ADD PUSH2 0x10A3 SWAP1 PUSH2 0x1A1B JUMP JUMPDEST PUSH1 0x40 MLOAD DUP1 SWAP2 SUB SWAP1 REVERT JUMPDEST PUSH1 0x1 PUSH1 0x0 PUSH1 0x14 PUSH2 0x100 EXP DUP2 SLOAD DUP2 PUSH1 0xFF MUL NOT AND SWAP1 DUP4 ISZERO ISZERO MUL OR SWAP1 SSTORE POP PUSH1 0x0 DUP2 GT PUSH2 0x110A JUMPI PUSH1 0x40 MLOAD PUSH32 0x8C379A000000000000000000000000000000000000000000000000000000000 DUP2 MSTORE PUSH1 0x4 ADD PUSH2 0x1101 SWAP1 PUSH2 0x1A87 JUMP JUMPDEST PUSH1 0x40 MLOAD DUP1 SWAP2 SUB SWAP1 REVERT JUMPDEST PUSH1 0x0 PUSH1 0x2 PUSH1 0x0 CALLER PUSH20 0xFFFFFFFFFFFFFFFFFFFFFFFFFFFFFFFFFFFFFFFF AND PUSH20 0xFFFFFFFFFFFFFFFFFFFFFFFFFFFFFFFFFFFFFFFF AND DUP2 MSTORE PUSH1 0x20 ADD SWAP1 DUP2 MSTORE PUSH1 0x20 ADD PUSH1 0x0 KECCAK256 PUSH1 0x0 DUP5 PUSH20 0xFFFFFFFFFFFFFFFFFFFFFFFFFFFFFFFFFFFFFFFF AND PUSH20 0xFFFFFFFFFFFFFFFFFFFFFFFFFFFFFFFFFFFFFFFF AND DUP2 MSTORE PUSH1 0x20 ADD SWAP1 DUP2 MSTORE PUSH1 0x20 ADD PUSH1 0x0 KECCAK256 SWAP1 POP DUP2 DUP2 PUSH1 0x0 ADD SLOAD LT ISZERO PUSH2 0x11D1 JUMPI PUSH1 0x40 MLOAD PUSH32 0x8C379A000000000000000000000000000000000000000000000000000000000 DUP2 MSTORE PUSH1 0x4 ADD PUSH2 0x11C8 SWAP1 PUSH2 0x22A4 JUMP JUMPDEST PUSH1 0x40 MLOAD DUP1 SWAP2 SUB SWAP1 REVERT JUMPDEST DUP2 DUP2 PUSH1 0x0 ADD PUSH1 0x0 DUP3 DUP3 SLOAD PUSH2 0x11E5 SWAP2 SWAP1 PUSH2 0x1BF2 JUMP JUMPDEST SWAP3 POP POP DUP2 SWAP1 SSTORE POP PUSH1 0x0 DUP2 PUSH1 0x0 ADD SLOAD EQ ISZERO PUSH2 0x1288 JUMPI PUSH1 0x1 DUP1 PUSH1 0x0 CALLER PUSH20 0xFFFFFFFFFFFFFFFFFFFFFFFFFFFFFFFFFFFFFFFF AND PUSH20 0xFFFFFFFFFFFFFFFFFFFFFFFFFFFFFFFFFFFFFFFF AND DUP2 MSTORE PUSH1 0x20 ADD SWAP1 DUP2 MSTORE PUSH1 0x20 ADD PUSH1 0x0 KECCAK256 SLOAD PUSH2 0x1244 SWAP2 SWAP1 PUSH2 0x1BF2 JUMP JUMPDEST PUSH1 0x1 PUSH1 0x0 CALLER PUSH20 0xFFFFFFFFFFFFFFFFFFFFFFFFFFFFFFFFFFFFFFFF AND PUSH20 0xFFFFFFFFFFFFFFFFFFFFFFFFFFFFFFFFFFFFFFFF AND DUP2 MSTORE PUSH1 0x20 ADD SWAP1 DUP2 MSTORE PUSH1 0x20 ADD PUSH1 0x0 KECCAK256 DUP2 SWAP1 SSTORE POP JUMPDEST POP PUSH1 0x0 DUP1 PUSH1 0x14 PUSH2 0x100 EXP DUP2 SLOAD DUP2 PUSH1 0xFF MUL NOT AND SWAP1 DUP4 ISZERO ISZERO MUL OR SWAP1 SSTORE POP POP POP JUMP JUMPDEST PUSH1 0x0 DUP1 REVERT JUMPDEST PUSH1 0x0 DUP1 REVERT JUMPDEST PUSH1 0x0 DUP2 SWAP1 POP SWAP2 SWAP1 POP JUMP JUMPDEST PUSH2 0x12C4 DUP2 PUSH2 0x12B1 JUMP JUMPDEST DUP2 EQ PUSH2 0x12CF JUMPI PUSH1 0x0 DUP1 REVERT JUMPDEST POP JUMP JUMPDEST PUSH1 0x0 DUP2 CALLDATALOAD SWAP1 POP PUSH2 0x12E1 DUP2 PUSH2 0x12BB JUMP JUMPDEST SWAP3 SWAP2 POP POP JUMP JUMPDEST PUSH1 0x0 PUSH1 0x20 DUP3 DUP5 SUB SLT ISZERO PUSH2 0x12FD JUMPI PUSH2 0x12FC PUSH2 0x12A7 JUMP JUMPDEST JUMPDEST PUSH1 0x0 PUSH2 0x130B DUP5 DUP3 DUP6 ADD PUSH2 0x12D2 JUMP JUMPDEST SWAP2 POP POP SWAP3 SWAP2 POP POP JUMP JUMPDEST PUSH32 0x4E487B7100000000000000000000000000000000000000000000000000000000 PUSH1 0x0 MSTORE PUSH1 0x21 PUSH1 0x4 MSTORE PUSH1 0x24 PUSH1 0x0 REVERT JUMPDEST PUSH1 0x2 DUP2 LT PUSH2 0x1354 JUMPI PUSH2 0x1353 PUSH2 0x1314 JUMP JUMPDEST JUMPDEST POP JUMP JUMPDEST PUSH1 0x0 DUP2 SWAP1 POP PUSH2 0x1365 DUP3 PUSH2 0x1343 JUMP JUMPDEST SWAP2 SWAP1 POP JUMP JUMPDEST PUSH1 0x0 PUSH2 0x1375 DUP3 PUSH2 0x1357 JUMP JUMPDEST SWAP1 POP SWAP2 SWAP1 POP JUMP JUMPDEST PUSH2 0x1385 DUP2 PUSH2 0x136A JUMP JUMPDEST DUP3 MSTORE POP POP JUMP JUMPDEST PUSH1 0x0 PUSH20 0xFFFFFFFFFFFFFFFFFFFFFFFFFFFFFFFFFFFFFFFF DUP3 AND SWAP1 POP SWAP2 SWAP1 POP JUMP JUMPDEST PUSH1 0x0 PUSH2 0x13B6 DUP3 PUSH2 0x138B JUMP JUMPDEST SWAP1 POP SWAP2 SWAP1 POP JUMP JUMPDEST PUSH2 0x13C6 DUP2 PUSH2 0x13AB JUMP JUMPDEST DUP3 MSTORE POP POP JUMP JUMPDEST PUSH1 0x0 DUP2 MLOAD SWAP1 POP SWAP2 SWAP1 POP JUMP JUMPDEST PUSH1 0x0 DUP3 DUP3 MSTORE PUSH1 0x20 DUP3 ADD SWAP1 POP SWAP3 SWAP2 POP POP JUMP JUMPDEST PUSH1 0x0 JUMPDEST DUP4 DUP2 LT ISZERO PUSH2 0x1406 JUMPI DUP1 DUP3 ADD MLOAD DUP2 DUP5 ADD MSTORE PUSH1 0x20 DUP2 ADD SWAP1 POP PUSH2 0x13EB JUMP JUMPDEST DUP4 DUP2 GT ISZERO PUSH2 0x1415 JUMPI PUSH1 0x0 DUP5 DUP5 ADD MSTORE JUMPDEST POP POP POP POP JUMP JUMPDEST PUSH1 0x0 PUSH1 0x1F NOT PUSH1 0x1F DUP4 ADD AND SWAP1 POP SWAP2 SWAP1 POP JUMP JUMPDEST PUSH1 0x0 PUSH2 0x1437 DUP3 PUSH2 0x13CC JUMP JUMPDEST PUSH2 0x1441 DUP2 DUP6 PUSH2 0x13D7 JUMP JUMPDEST SWAP4 POP PUSH2 0x1451 DUP2 DUP6 PUSH1 0x20 DUP7 ADD PUSH2 0x13E8 JUMP JUMPDEST PUSH2 0x145A DUP2 PUSH2 0x141B JUMP JUMPDEST DUP5 ADD SWAP2 POP POP SWAP3 SWAP2 POP POP JUMP JUMPDEST PUSH1 0x0 PUSH1 0x60 DUP3 ADD SWAP1 POP PUSH2 0x147A PUSH1 0x0 DUP4 ADD DUP7 PUSH2 0x137C JUMP JUMPDEST PUSH2 0x1487 PUSH1 0x20 DUP4 ADD DUP6 PUSH2 0x13BD JUMP JUMPDEST DUP2 DUP2 SUB PUSH1 0x40 DUP4 ADD MSTORE PUSH2 0x1499 DUP2 DUP5 PUSH2 0x142C JUMP JUMPDEST SWAP1 POP SWAP5 SWAP4 POP POP POP POP JUMP JUMPDEST PUSH2 0x14AC DUP2 PUSH2 0x13AB JUMP JUMPDEST DUP2 EQ PUSH2 0x14B7 JUMPI PUSH1 0x0 DUP1 REVERT JUMPDEST POP JUMP JUMPDEST PUSH1 0x0 DUP2 CALLDATALOAD SWAP1 POP PUSH2 0x14C9 DUP2 PUSH2 0x14A3 JUMP JUMPDEST SWAP3 SWAP2 POP POP JUMP JUMPDEST PUSH1 0x0 DUP1 PUSH1 0x40 DUP4 DUP6 SUB SLT ISZERO PUSH2 0x14E6 JUMPI PUSH2 0x14E5 PUSH2 0x12A7 JUMP JUMPDEST JUMPDEST PUSH1 0x0 PUSH2 0x14F4 DUP6 DUP3 DUP7 ADD PUSH2 0x14BA JUMP JUMPDEST SWAP3 POP POP PUSH1 0x20 PUSH2 0x1505 DUP6 DUP3 DUP7 ADD PUSH2 0x14BA JUMP JUMPDEST SWAP2 POP POP SWAP3 POP SWAP3 SWAP1 POP JUMP JUMPDEST PUSH2 0x1518 DUP2 PUSH2 0x12B1 JUMP JUMPDEST DUP3 MSTORE POP POP JUMP JUMPDEST PUSH1 0x0 PUSH1 0x40 DUP3 ADD SWAP1 POP PUSH2 0x1533 PUSH1 0x0 DUP4 ADD DUP6 PUSH2 0x150F JUMP JUMPDEST PUSH2 0x1540 PUSH1 0x20 DUP4 ADD DUP5 PUSH2 0x150F JUMP JUMPDEST SWAP4 SWAP3 POP POP POP JUMP JUMPDEST PUSH1 0x0 DUP2 MLOAD SWAP1 POP SWAP2 SWAP1 POP JUMP JUMPDEST PUSH1 0x0 DUP3 DUP3 MSTORE PUSH1 0x20 DUP3 ADD SWAP1 POP SWAP3 SWAP2 POP POP JUMP JUMPDEST PUSH1 0x0 DUP2 SWAP1 POP PUSH1 0x20 DUP3 ADD SWAP1 POP SWAP2 SWAP1 POP JUMP JUMPDEST PUSH2 0x157C DUP2 PUSH2 0x13AB JUMP JUMPDEST DUP3 MSTORE POP POP JUMP JUMPDEST PUSH1 0x0 PUSH2 0x158E DUP4 DUP4 PUSH2 0x1573 JUMP JUMPDEST PUSH1 0x20 DUP4 ADD SWAP1 POP SWAP3 SWAP2 POP POP JUMP JUMPDEST PUSH1 0x0 PUSH1 0x20 DUP3 ADD SWAP1 POP SWAP2 SWAP1 POP JUMP JUMPDEST PUSH1 0x0 PUSH2 0x15B2 DUP3 PUSH2 0x1547 JUMP JUMPDEST PUSH2 0x15BC DUP2 DUP6 PUSH2 0x1552 JUMP JUMPDEST SWAP4 POP PUSH2 0x15C7 DUP4 PUSH2 0x1563 JUMP JUMPDEST DUP1 PUSH1 0x0 JUMPDEST DUP4 DUP2 LT ISZERO PUSH2 0x15F8 JUMPI DUP2 MLOAD PUSH2 0x15DF DUP9 DUP3 PUSH2 0x1582 JUMP JUMPDEST SWAP8 POP PUSH2 0x15EA DUP4 PUSH2 0x159A JUMP JUMPDEST SWAP3 POP POP PUSH1 0x1 DUP2 ADD SWAP1 POP PUSH2 0x15CB JUMP JUMPDEST POP DUP6 SWAP4 POP POP POP POP SWAP3 SWAP2 POP POP JUMP JUMPDEST PUSH1 0x0 PUSH1 0x20 DUP3 ADD SWAP1 POP DUP2 DUP2 SUB PUSH1 0x0 DUP4 ADD MSTORE PUSH2 0x161F DUP2 DUP5 PUSH2 0x15A7 JUMP JUMPDEST SWAP1 POP SWAP3 SWAP2 POP POP JUMP JUMPDEST PUSH1 0x0 DUP1 PUSH1 0x40 DUP4 DUP6 SUB SLT ISZERO PUSH2 0x163E JUMPI PUSH2 0x163D PUSH2 0x12A7 JUMP JUMPDEST JUMPDEST PUSH1 0x0 PUSH2 0x164C DUP6 DUP3 DUP7 ADD PUSH2 0x14BA JUMP JUMPDEST SWAP3 POP POP PUSH1 0x20 PUSH2 0x165D DUP6 DUP3 DUP7 ADD PUSH2 0x12D2 JUMP JUMPDEST SWAP2 POP POP SWAP3 POP SWAP3 SWAP1 POP JUMP JUMPDEST PUSH1 0x0 PUSH1 0x20 DUP3 ADD SWAP1 POP PUSH2 0x167C PUSH1 0x0 DUP4 ADD DUP5 PUSH2 0x150F JUMP JUMPDEST SWAP3 SWAP2 POP POP JUMP JUMPDEST PUSH1 0x0 DUP1 PUSH1 0x0 PUSH1 0x60 DUP5 DUP7 SUB SLT ISZERO PUSH2 0x169B JUMPI PUSH2 0x169A PUSH2 0x12A7 JUMP JUMPDEST JUMPDEST PUSH1 0x0 PUSH2 0x16A9 DUP7 DUP3 DUP8 ADD PUSH2 0x14BA JUMP JUMPDEST SWAP4 POP POP PUSH1 0x20 PUSH2 0x16BA DUP7 DUP3 DUP8 ADD PUSH2 0x12D2 JUMP JUMPDEST SWAP3 POP POP PUSH1 0x40 PUSH2 0x16CB DUP7 DUP3 DUP8 ADD PUSH2 0x12D2 JUMP JUMPDEST SWAP2 POP POP SWAP3 POP SWAP3 POP SWAP3 JUMP JUMPDEST PUSH1 0x0 DUP1 REVERT JUMPDEST PUSH1 0x0 PUSH1 0x60 DUP3 DUP5 SUB SLT ISZERO PUSH2 0x16F0 JUMPI PUSH2 0x16EF PUSH2 0x16D5 JUMP JUMPDEST JUMPDEST DUP2 SWAP1 POP SWAP3 SWAP2 POP POP JUMP JUMPDEST PUSH1 0x0 PUSH1 0x20 DUP3 DUP5 SUB SLT ISZERO PUSH2 0x170F JUMPI PUSH2 0x170E PUSH2 0x12A7 JUMP JUMPDEST JUMPDEST PUSH1 0x0 DUP3 ADD CALLDATALOAD PUSH8 0xFFFFFFFFFFFFFFFF DUP2 GT ISZERO PUSH2 0x172D JUMPI PUSH2 0x172C PUSH2 0x12AC JUMP JUMPDEST JUMPDEST PUSH2 0x1739 DUP5 DUP3 DUP6 ADD PUSH2 0x16DA JUMP JUMPDEST SWAP2 POP POP SWAP3 SWAP2 POP POP JUMP JUMPDEST PUSH1 0x0 PUSH1 0x20 DUP3 DUP5 SUB SLT ISZERO PUSH2 0x1758 JUMPI PUSH2 0x1757 PUSH2 0x12A7 JUMP JUMPDEST JUMPDEST PUSH1 0x0 PUSH2 0x1766 DUP5 DUP3 DUP6 ADD PUSH2 0x14BA JUMP JUMPDEST SWAP2 POP POP SWAP3 SWAP2 POP POP JUMP JUMPDEST PUSH1 0x0 PUSH1 0x20 DUP3 ADD SWAP1 POP PUSH2 0x1784 PUSH1 0x0 DUP4 ADD DUP5 PUSH2 0x13BD JUMP JUMPDEST SWAP3 SWAP2 POP POP JUMP JUMPDEST PUSH1 0x0 DUP2 ISZERO ISZERO SWAP1 POP SWAP2 SWAP1 POP JUMP JUMPDEST PUSH2 0x179F DUP2 PUSH2 0x178A JUMP JUMPDEST DUP3 MSTORE POP POP JUMP JUMPDEST PUSH1 0x0 PUSH1 0x20 DUP3 ADD SWAP1 POP PUSH2 0x17BA PUSH1 0x0 DUP4 ADD DUP5 PUSH2 0x1796 JUMP JUMPDEST SWAP3 SWAP2 POP POP JUMP JUMPDEST PUSH32 0x4F6E6C7920746865206F776E65722063616E2061646A75737420726174696F73 PUSH1 0x0 DUP3 ADD MSTORE POP JUMP JUMPDEST PUSH1 0x0 PUSH2 0x17F6 PUSH1 0x20 DUP4 PUSH2 0x13D7 JUMP JUMPDEST SWAP2 POP PUSH2 0x1801 DUP3 PUSH2 0x17C0 JUMP JUMPDEST PUSH1 0x20 DUP3 ADD SWAP1 POP SWAP2 SWAP1 POP JUMP JUMPDEST PUSH1 0x0 PUSH1 0x20 DUP3 ADD SWAP1 POP DUP2 DUP2 SUB PUSH1 0x0 DUP4 ADD MSTORE PUSH2 0x1825 DUP2 PUSH2 0x17E9 JUMP JUMPDEST SWAP1 POP SWAP2 SWAP1 POP JUMP JUMPDEST PUSH32 0x526174696F2063616E6E6F742065786365656420313030250000000000000000 PUSH1 0x0 DUP3 ADD MSTORE POP JUMP JUMPDEST PUSH1 0x0 PUSH2 0x1862 PUSH1 0x18 DUP4 PUSH2 0x13D7 JUMP JUMPDEST SWAP2 POP PUSH2 0x186D DUP3 PUSH2 0x182C JUMP JUMPDEST PUSH1 0x20 DUP3 ADD SWAP1 POP SWAP2 SWAP1 POP JUMP JUMPDEST PUSH1 0x0 PUSH1 0x20 DUP3 ADD SWAP1 POP DUP2 DUP2 SUB PUSH1 0x0 DUP4 ADD MSTORE PUSH2 0x1891 DUP2 PUSH2 0x1855 JUMP JUMPDEST SWAP1 POP SWAP2 SWAP1 POP JUMP JUMPDEST PUSH32 0x4E487B7100000000000000000000000000000000000000000000000000000000 PUSH1 0x0 MSTORE PUSH1 0x22 PUSH1 0x4 MSTORE PUSH1 0x24 PUSH1 0x0 REVERT JUMPDEST PUSH1 0x0 PUSH1 0x2 DUP3 DIV SWAP1 POP PUSH1 0x1 DUP3 AND DUP1 PUSH2 0x18DF JUMPI PUSH1 0x7F DUP3 AND SWAP2 POP JUMPDEST PUSH1 0x20 DUP3 LT DUP2 EQ ISZERO PUSH2 0x18F3 JUMPI PUSH2 0x18F2 PUSH2 0x1898 JUMP JUMPDEST JUMPDEST POP SWAP2 SWAP1 POP JUMP JUMPDEST PUSH32 0x4E487B7100000000000000000000000000000000000000000000000000000000 PUSH1 0x0 MSTORE PUSH1 0x41 PUSH1 0x4 MSTORE PUSH1 0x24 PUSH1 0x0 REVERT JUMPDEST PUSH32 0x4E487B7100000000000000000000000000000000000000000000000000000000 PUSH1 0x0 MSTORE PUSH1 0x32 PUSH1 0x4 MSTORE PUSH1 0x24 PUSH1 0x0 REVERT JUMPDEST PUSH32 0x4E487B7100000000000000000000000000000000000000000000000000000000 PUSH1 0x0 MSTORE PUSH1 0x11 PUSH1 0x4 MSTORE PUSH1 0x24 PUSH1 0x0 REVERT JUMPDEST PUSH1 0x0 PUSH2 0x1991 DUP3 PUSH2 0x12B1 JUMP JUMPDEST SWAP2 POP PUSH32 0xFFFFFFFFFFFFFFFFFFFFFFFFFFFFFFFFFFFFFFFFFFFFFFFFFFFFFFFFFFFFFFFF DUP3 EQ ISZERO PUSH2 0x19C4 JUMPI PUSH2 0x19C3 PUSH2 0x1957 JUMP JUMPDEST JUMPDEST PUSH1 0x1 DUP3 ADD SWAP1 POP SWAP2 SWAP1 POP JUMP JUMPDEST PUSH32 0x5265656E7472616E742063616C6C000000000000000000000000000000000000 PUSH1 0x0 DUP3 ADD MSTORE POP JUMP JUMPDEST PUSH1 0x0 PUSH2 0x1A05 PUSH1 0xE DUP4 PUSH2 0x13D7 JUMP JUMPDEST SWAP2 POP PUSH2 0x1A10 DUP3 PUSH2 0x19CF JUMP JUMPDEST PUSH1 0x20 DUP3 ADD SWAP1 POP SWAP2 SWAP1 POP JUMP JUMPDEST PUSH1 0x0 PUSH1 0x20 DUP3 ADD SWAP1 POP DUP2 DUP2 SUB PUSH1 0x0 DUP4 ADD MSTORE PUSH2 0x1A34 DUP2 PUSH2 0x19F8 JUMP JUMPDEST SWAP1 POP SWAP2 SWAP1 POP JUMP JUMPDEST PUSH32 0x416D6F756E74206D7573742062652067726561746572207468616E2030000000 PUSH1 0x0 DUP3 ADD MSTORE POP JUMP JUMPDEST PUSH1 0x0 PUSH2 0x1A71 PUSH1 0x1D DUP4 PUSH2 0x13D7 JUMP JUMPDEST SWAP2 POP PUSH2 0x1A7C DUP3 PUSH2 0x1A3B JUMP JUMPDEST PUSH1 0x20 DUP3 ADD SWAP1 POP SWAP2 SWAP1 POP JUMP JUMPDEST PUSH1 0x0 PUSH1 0x20 DUP3 ADD SWAP1 POP DUP2 DUP2 SUB PUSH1 0x0 DUP4 ADD MSTORE PUSH2 0x1AA0 DUP2 PUSH2 0x1A64 JUMP JUMPDEST SWAP1 POP SWAP2 SWAP1 POP JUMP JUMPDEST PUSH1 0x0 PUSH1 0x60 DUP3 ADD SWAP1 POP PUSH2 0x1ABC PUSH1 0x0 DUP4 ADD DUP7 PUSH2 0x13BD JUMP JUMPDEST PUSH2 0x1AC9 PUSH1 0x20 DUP4 ADD DUP6 PUSH2 0x13BD JUMP JUMPDEST PUSH2 0x1AD6 PUSH1 0x40 DUP4 ADD DUP5 PUSH2 0x150F JUMP JUMPDEST SWAP5 SWAP4 POP POP POP POP JUMP JUMPDEST PUSH2 0x1AE7 DUP2 PUSH2 0x178A JUMP JUMPDEST DUP2 EQ PUSH2 0x1AF2 JUMPI PUSH1 0x0 DUP1 REVERT JUMPDEST POP JUMP JUMPDEST PUSH1 0x0 DUP2 MLOAD SWAP1 POP PUSH2 0x1B04 DUP2 PUSH2 0x1ADE JUMP JUMPDEST SWAP3 SWAP2 POP POP JUMP JUMPDEST PUSH1 0x0 PUSH1 0x20 DUP3 DUP5 SUB SLT ISZERO PUSH2 0x1B20 JUMPI PUSH2 0x1B1F PUSH2 0x12A7 JUMP JUMPDEST JUMPDEST PUSH1 0x0 PUSH2 0x1B2E DUP5 DUP3 DUP6 ADD PUSH2 0x1AF5 JUMP JUMPDEST SWAP2 POP POP SWAP3 SWAP2 POP POP JUMP JUMPDEST PUSH32 0x4F6E6C7920746865206F776E65722063616E20616C6C6F636174652066756E64 PUSH1 0x0 DUP3 ADD MSTORE PUSH32 0x7300000000000000000000000000000000000000000000000000000000000000 PUSH1 0x20 DUP3 ADD MSTORE POP JUMP JUMPDEST PUSH1 0x0 PUSH2 0x1B93 PUSH1 0x21 DUP4 PUSH2 0x13D7 JUMP JUMPDEST SWAP2 POP PUSH2 0x1B9E DUP3 PUSH2 0x1B37 JUMP JUMPDEST PUSH1 0x40 DUP3 ADD SWAP1 POP SWAP2 SWAP1 POP JUMP JUMPDEST PUSH1 0x0 PUSH1 0x20 DUP3 ADD SWAP1 POP DUP2 DUP2 SUB PUSH1 0x0 DUP4 ADD MSTORE PUSH2 0x1BC2 DUP2 PUSH2 0x1B86 JUMP JUMPDEST SWAP1 POP SWAP2 SWAP1 POP JUMP JUMPDEST PUSH1 0x0 PUSH1 0x40 DUP3 ADD SWAP1 POP PUSH2 0x1BDE PUSH1 0x0 DUP4 ADD DUP6 PUSH2 0x13BD JUMP JUMPDEST PUSH2 0x1BEB PUSH1 0x20 DUP4 ADD DUP5 PUSH2 0x150F JUMP JUMPDEST SWAP4 SWAP3 POP POP POP JUMP JUMPDEST PUSH1 0x0 PUSH2 0x1BFD DUP3 PUSH2 0x12B1 JUMP JUMPDEST SWAP2 POP PUSH2 0x1C08 DUP4 PUSH2 0x12B1 JUMP JUMPDEST SWAP3 POP DUP3 DUP3 LT ISZERO PUSH2 0x1C1B JUMPI PUSH2 0x1C1A PUSH2 0x1957 JUMP JUMPDEST JUMPDEST DUP3 DUP3 SUB SWAP1 POP SWAP3 SWAP2 POP POP JUMP JUMPDEST PUSH1 0x0 DUP2 MLOAD SWAP1 POP PUSH2 0x1C35 DUP2 PUSH2 0x12BB JUMP JUMPDEST SWAP3 SWAP2 POP POP JUMP JUMPDEST PUSH1 0x0 PUSH1 0x20 DUP3 DUP5 SUB SLT ISZERO PUSH2 0x1C51 JUMPI PUSH2 0x1C50 PUSH2 0x12A7 JUMP JUMPDEST JUMPDEST PUSH1 0x0 PUSH2 0x1C5F DUP5 DUP3 DUP6 ADD PUSH2 0x1C26 JUMP JUMPDEST SWAP2 POP POP SWAP3 SWAP2 POP POP JUMP JUMPDEST PUSH1 0x0 PUSH2 0x1C73 DUP3 PUSH2 0x12B1 JUMP JUMPDEST SWAP2 POP PUSH2 0x1C7E DUP4 PUSH2 0x12B1 JUMP JUMPDEST SWAP3 POP DUP2 PUSH32 0xFFFFFFFFFFFFFFFFFFFFFFFFFFFFFFFFFFFFFFFFFFFFFFFFFFFFFFFFFFFFFFFF DIV DUP4 GT DUP3 ISZERO ISZERO AND ISZERO PUSH2 0x1CB7 JUMPI PUSH2 0x1CB6 PUSH2 0x1957 JUMP JUMPDEST JUMPDEST DUP3 DUP3 MUL SWAP1 POP SWAP3 SWAP2 POP POP JUMP JUMPDEST PUSH32 0x4E487B7100000000000000000000000000000000000000000000000000000000 PUSH1 0x0 MSTORE PUSH1 0x12 PUSH1 0x4 MSTORE PUSH1 0x24 PUSH1 0x0 REVERT JUMPDEST PUSH1 0x0 PUSH2 0x1CFC DUP3 PUSH2 0x12B1 JUMP JUMPDEST SWAP2 POP PUSH2 0x1D07 DUP4 PUSH2 0x12B1 JUMP JUMPDEST SWAP3 POP DUP3 PUSH2 0x1D17 JUMPI PUSH2 0x1D16 PUSH2 0x1CC2 JUMP JUMPDEST JUMPDEST DUP3 DUP3 DIV SWAP1 POP SWAP3 SWAP2 POP POP JUMP JUMPDEST PUSH1 0x0 PUSH2 0x1D2D DUP3 PUSH2 0x12B1 JUMP JUMPDEST SWAP2 POP PUSH2 0x1D38 DUP4 PUSH2 0x12B1 JUMP JUMPDEST SWAP3 POP DUP3 PUSH32 0xFFFFFFFFFFFFFFFFFFFFFFFFFFFFFFFFFFFFFFFFFFFFFFFFFFFFFFFFFFFFFFFF SUB DUP3 GT ISZERO PUSH2 0x1D6D JUMPI PUSH2 0x1D6C PUSH2 0x1957 JUMP JUMPDEST JUMPDEST DUP3 DUP3 ADD SWAP1 POP SWAP3 SWAP2 POP POP JUMP JUMPDEST PUSH1 0x2 DUP2 LT PUSH2 0x1D85 JUMPI PUSH1 0x0 DUP1 REVERT JUMPDEST POP JUMP JUMPDEST PUSH1 0x0 DUP2 CALLDATALOAD PUSH2 0x1D95 DUP2 PUSH2 0x1D78 JUMP JUMPDEST DUP1 SWAP2 POP POP SWAP2 SWAP1 POP JUMP JUMPDEST PUSH1 0x0 DUP2 PUSH1 0x0 SHL SWAP1 POP SWAP2 SWAP1 POP JUMP JUMPDEST PUSH1 0x0 PUSH1 0xFF PUSH2 0x1DB8 DUP5 PUSH2 0x1D9E JUMP JUMPDEST SWAP4 POP DUP1 NOT DUP4 AND SWAP3 POP DUP1 DUP5 AND DUP4 OR SWAP2 POP POP SWAP3 SWAP2 POP POP JUMP JUMPDEST PUSH1 0x0 PUSH2 0x1DD9 DUP3 PUSH2 0x1357 JUMP JUMPDEST SWAP1 POP SWAP2 SWAP1 POP JUMP JUMPDEST PUSH1 0x0 DUP2 SWAP1 POP SWAP2 SWAP1 POP JUMP JUMPDEST PUSH2 0x1DF3 DUP3 PUSH2 0x1DCE JUMP JUMPDEST PUSH2 0x1E06 PUSH2 0x1DFF DUP3 PUSH2 0x1DE0 JUMP JUMPDEST DUP4 SLOAD PUSH2 0x1DAB JUMP JUMPDEST DUP3 SSTORE POP POP POP JUMP JUMPDEST PUSH1 0x0 DUP2 CALLDATALOAD PUSH2 0x1E1A DUP2 PUSH2 0x14A3 JUMP JUMPDEST DUP1 SWAP2 POP POP SWAP2 SWAP1 POP JUMP JUMPDEST PUSH1 0x0 DUP2 PUSH1 0x8 SHL SWAP1 POP SWAP2 SWAP1 POP JUMP JUMPDEST PUSH1 0x0 PUSH21 0xFFFFFFFFFFFFFFFFFFFFFFFFFFFFFFFFFFFFFFFF00 PUSH2 0x1E51 DUP5 PUSH2 0x1E23 JUMP JUMPDEST SWAP4 POP DUP1 NOT DUP4 AND SWAP3 POP DUP1 DUP5 AND DUP4 OR SWAP2 POP POP SWAP3 SWAP2 POP POP JUMP JUMPDEST PUSH1 0x0 DUP2 SWAP1 POP SWAP2 SWAP1 POP JUMP JUMPDEST PUSH1 0x0 PUSH2 0x1E8C PUSH2 0x1E87 PUSH2 0x1E82 DUP5 PUSH2 0x138B JUMP JUMPDEST PUSH2 0x1E67 JUMP JUMPDEST PUSH2 0x138B JUMP JUMPDEST SWAP1 POP SWAP2 SWAP1 POP JUMP JUMPDEST PUSH1 0x0 PUSH2 0x1E9E DUP3 PUSH2 0x1E71 JUMP JUMPDEST SWAP1 POP SWAP2 SWAP1 POP JUMP JUMPDEST PUSH1 0x0 PUSH2 0x1EB0 DUP3 PUSH2 0x1E93 JUMP JUMPDEST SWAP1 POP SWAP2 SWAP1 POP JUMP JUMPDEST PUSH1 0x0 DUP2 SWAP1 POP SWAP2 SWAP1 POP JUMP JUMPDEST PUSH2 0x1ECA DUP3 PUSH2 0x1EA5 JUMP JUMPDEST PUSH2 0x1EDD PUSH2 0x1ED6 DUP3 PUSH2 0x1EB7 JUMP JUMPDEST DUP4 SLOAD PUSH2 0x1E30 JUMP JUMPDEST DUP3 SSTORE POP POP POP JUMP JUMPDEST PUSH1 0x0 DUP1 REVERT JUMPDEST PUSH1 0x0 DUP1 REVERT JUMPDEST PUSH1 0x0 DUP1 REVERT JUMPDEST PUSH1 0x0 DUP1 DUP4 CALLDATALOAD PUSH1 0x1 PUSH1 0x20 SUB DUP5 CALLDATASIZE SUB SUB DUP2 SLT PUSH2 0x1F10 JUMPI PUSH2 0x1F0F PUSH2 0x1EE4 JUMP JUMPDEST JUMPDEST DUP1 DUP5 ADD SWAP3 POP DUP3 CALLDATALOAD SWAP2 POP PUSH8 0xFFFFFFFFFFFFFFFF DUP3 GT ISZERO PUSH2 0x1F32 JUMPI PUSH2 0x1F31 PUSH2 0x1EE9 JUMP JUMPDEST JUMPDEST PUSH1 0x20 DUP4 ADD SWAP3 POP PUSH1 0x1 DUP3 MUL CALLDATASIZE SUB DUP4 SGT ISZERO PUSH2 0x1F4E JUMPI PUSH2 0x1F4D PUSH2 0x1EEE JUMP JUMPDEST JUMPDEST POP SWAP3 POP SWAP3 SWAP1 POP JUMP JUMPDEST PUSH1 0x0 DUP3 SWAP1 POP SWAP3 SWAP2 POP POP JUMP JUMPDEST PUSH1 0x0 DUP2 SWAP1 POP DUP2 PUSH1 0x0 MSTORE PUSH1 0x20 PUSH1 0x0 KECCAK256 SWAP1 POP SWAP2 SWAP1 POP JUMP JUMPDEST PUSH1 0x0 PUSH1 0x20 PUSH1 0x1F DUP4 ADD DIV SWAP1 POP SWAP2 SWAP1 POP JUMP JUMPDEST PUSH1 0x0 DUP3 DUP3 SHL SWAP1 POP SWAP3 SWAP2 POP POP JUMP JUMPDEST PUSH1 0x0 PUSH1 0x8 DUP4 MUL PUSH2 0x1FC3 PUSH32 0xFFFFFFFFFFFFFFFFFFFFFFFFFFFFFFFFFFFFFFFFFFFFFFFFFFFFFFFFFFFFFFFF DUP3 PUSH2 0x1F86 JUMP JUMPDEST PUSH2 0x1FCD DUP7 DUP4 PUSH2 0x1F86 JUMP JUMPDEST SWAP6 POP DUP1 NOT DUP5 AND SWAP4 POP DUP1 DUP7 AND DUP5 OR SWAP3 POP POP POP SWAP4 SWAP3 POP POP POP JUMP JUMPDEST PUSH1 0x0 PUSH2 0x2000 PUSH2 0x1FFB PUSH2 0x1FF6 DUP5 PUSH2 0x12B1 JUMP JUMPDEST PUSH2 0x1E67 JUMP JUMPDEST PUSH2 0x12B1 JUMP JUMPDEST SWAP1 POP SWAP2 SWAP1 POP JUMP JUMPDEST PUSH1 0x0 DUP2 SWAP1 POP SWAP2 SWAP1 POP JUMP JUMPDEST PUSH2 0x201A DUP4 PUSH2 0x1FE5 JUMP JUMPDEST PUSH2 0x202E PUSH2 0x2026 DUP3 PUSH2 0x2007 JUMP JUMPDEST DUP5 DUP5 SLOAD PUSH2 0x1F93 JUMP JUMPDEST DUP3 SSTORE POP POP POP POP JUMP JUMPDEST PUSH1 0x0 SWAP1 JUMP JUMPDEST PUSH2 0x2043 PUSH2 0x2036 JUMP JUMPDEST PUSH2 0x204E DUP2 DUP5 DUP5 PUSH2 0x2011 JUMP JUMPDEST POP POP POP JUMP JUMPDEST JUMPDEST DUP2 DUP2 LT ISZERO PUSH2 0x2072 JUMPI PUSH2 0x2067 PUSH1 0x0 DUP3 PUSH2 0x203B JUMP JUMPDEST PUSH1 0x1 DUP2 ADD SWAP1 POP PUSH2 0x2054 JUMP JUMPDEST POP POP JUMP JUMPDEST PUSH1 0x1F DUP3 GT ISZERO PUSH2 0x20B7 JUMPI PUSH2 0x2088 DUP2 PUSH2 0x1F61 JUMP JUMPDEST PUSH2 0x2091 DUP5 PUSH2 0x1F76 JUMP JUMPDEST DUP2 ADD PUSH1 0x20 DUP6 LT ISZERO PUSH2 0x20A0 JUMPI DUP2 SWAP1 POP JUMPDEST PUSH2 0x20B4 PUSH2 0x20AC DUP6 PUSH2 0x1F76 JUMP JUMPDEST DUP4 ADD DUP3 PUSH2 0x2053 JUMP JUMPDEST POP POP JUMPDEST POP POP POP JUMP JUMPDEST PUSH1 0x0 DUP3 DUP3 SHR SWAP1 POP SWAP3 SWAP2 POP POP JUMP JUMPDEST PUSH1 0x0 PUSH2 0x20DA PUSH1 0x0 NOT DUP5 PUSH1 0x8 MUL PUSH2 0x20BC JUMP JUMPDEST NOT DUP1 DUP4 AND SWAP2 POP POP SWAP3 SWAP2 POP POP JUMP JUMPDEST PUSH1 0x0 PUSH2 0x20F3 DUP4 DUP4 PUSH2 0x20C9 JUMP JUMPDEST SWAP2 POP DUP3 PUSH1 0x2 MUL DUP3 OR SWAP1 POP SWAP3 SWAP2 POP POP JUMP JUMPDEST PUSH2 0x210D DUP4 DUP4 PUSH2 0x1F56 JUMP JUMPDEST PUSH8 0xFFFFFFFFFFFFFFFF DUP2 GT ISZERO PUSH2 0x2126 JUMPI PUSH2 0x2125 PUSH2 0x18F9 JUMP JUMPDEST JUMPDEST PUSH2 0x2130 DUP3 SLOAD PUSH2 0x18C7 JUMP JUMPDEST PUSH2 0x213B DUP3 DUP3 DUP6 PUSH2 0x2076 JUMP JUMPDEST PUSH1 0x0 PUSH1 0x1F DUP4 GT PUSH1 0x1 DUP2 EQ PUSH2 0x216A JUMPI PUSH1 0x0 DUP5 ISZERO PUSH2 0x2158 JUMPI DUP3 DUP8 ADD CALLDATALOAD SWAP1 POP JUMPDEST PUSH2 0x2162 DUP6 DUP3 PUSH2 0x20E7 JUMP JUMPDEST DUP7 SSTORE POP PUSH2 0x21CA JUMP JUMPDEST PUSH1 0x1F NOT DUP5 AND PUSH2 0x2178 DUP7 PUSH2 0x1F61 JUMP JUMPDEST PUSH1 0x0 JUMPDEST DUP3 DUP2 LT ISZERO PUSH2 0x21A0 JUMPI DUP5 DUP10 ADD CALLDATALOAD DUP3 SSTORE PUSH1 0x1 DUP3 ADD SWAP2 POP PUSH1 0x20 DUP6 ADD SWAP5 POP PUSH1 0x20 DUP2 ADD SWAP1 POP PUSH2 0x217B JUMP JUMPDEST DUP7 DUP4 LT ISZERO PUSH2 0x21BD JUMPI DUP5 DUP10 ADD CALLDATALOAD PUSH2 0x21B9 PUSH1 0x1F DUP10 AND DUP3 PUSH2 0x20C9 JUMP JUMPDEST DUP4 SSTORE POP JUMPDEST PUSH1 0x1 PUSH1 0x2 DUP9 MUL ADD DUP9 SSTORE POP POP POP JUMPDEST POP POP POP POP POP POP POP JUMP JUMPDEST PUSH2 0x21DE DUP4 DUP4 DUP4 PUSH2 0x2103 JUMP JUMPDEST POP POP POP JUMP JUMPDEST PUSH1 0x0 DUP2 ADD PUSH1 0x0 DUP4 ADD DUP1 PUSH2 0x21F5 DUP2 PUSH2 0x1D88 JUMP JUMPDEST SWAP1 POP PUSH2 0x2201 DUP2 DUP5 PUSH2 0x1DEA JUMP JUMPDEST POP POP POP PUSH1 0x0 DUP2 ADD PUSH1 0x20 DUP4 ADD DUP1 PUSH2 0x2216 DUP2 PUSH2 0x1E0D JUMP JUMPDEST SWAP1 POP PUSH2 0x2222 DUP2 DUP5 PUSH2 0x1EC1 JUMP JUMPDEST POP POP POP PUSH1 0x1 DUP2 ADD PUSH1 0x40 DUP4 ADD PUSH2 0x2237 DUP2 DUP6 PUSH2 0x1EF3 JUMP JUMPDEST PUSH2 0x2242 DUP2 DUP4 DUP7 PUSH2 0x21D3 JUMP JUMPDEST POP POP POP POP POP POP JUMP JUMPDEST PUSH2 0x2254 DUP3 DUP3 PUSH2 0x21E3 JUMP JUMPDEST POP POP JUMP JUMPDEST PUSH32 0x45786365656473206465706F736974656420616D6F756E740000000000000000 PUSH1 0x0 DUP3 ADD MSTORE POP JUMP JUMPDEST PUSH1 0x0 PUSH2 0x228E PUSH1 0x18 DUP4 PUSH2 0x13D7 JUMP JUMPDEST SWAP2 POP PUSH2 0x2299 DUP3 PUSH2 0x2258 JUMP JUMPDEST PUSH1 0x20 DUP3 ADD SWAP1 POP SWAP2 SWAP1 POP JUMP JUMPDEST PUSH1 0x0 PUSH1 0x20 DUP3 ADD SWAP1 POP DUP2 DUP2 SUB PUSH1 0x0 DUP4 ADD MSTORE PUSH2 0x22BD DUP2 PUSH2 0x2281 JUMP JUMPDEST SWAP1 POP SWAP2 SWAP1 POP JUMP INVALID LOG2 PUSH5 0x6970667358 0x22 SLT KECCAK256 RETURNDATACOPY 0xC4 0xDD 0x2E DUP16 SWAP11 0x4B DUP3 ORIGIN SWAP2 0xCC PUSH19 0x6B8412A2F88169BFCD3E8270EA556813DF6274 0xE2 PUSH5 0x736F6C6343 STOP ADDMOD EXP STOP CALLER "
				},
				"gasEstimates": {
					"creation": {
						"codeDepositCost": "1790800",
						"executionCost": "infinite",
						"totalCost": "infinite"
					},
					"external": {
						"AddingProtocol((uint8,address,string))": "infinite",
						"Invests(address,uint256)": "infinite",
						"ProtocolsInvestment(uint256)": "infinite",
						"WithdrawFromProtocol(address,uint256,uint256)": "infinite",
						"adjustRatio(uint256)": "24737",
						"allocateFundsInvest(address,uint256)": "infinite",
						"deposit(address,uint256)": "infinite",
						"getDepositTokens(address,uint256)": "infinite",
						"getTokensList()": "infinite",
						"locked()": "2587",
						"owner()": "2533",
						"protocolRatio()": "2518",
						"userDepositIndexs(address)": "2903",
						"userDeposits(address,address)": "infinite",
						"withdraw(address,uint256)": "infinite"
					}
				},
				"methodIdentifiers": {
					"AddingProtocol((uint8,address,string))": "7da5af32",
					"Invests(address,uint256)": "9cec004d",
					"ProtocolsInvestment(uint256)": "3aa4c538",
					"WithdrawFromProtocol(address,uint256,uint256)": "715ec5da",
					"adjustRatio(uint256)": "37a7a334",
					"allocateFundsInvest(address,uint256)": "7690cbeb",
					"deposit(address,uint256)": "47e7ef24",
					"getDepositTokens(address,uint256)": "50a1da0c",
					"getTokensList()": "466bca02",
					"locked()": "cf309012",
					"owner()": "8da5cb5b",
					"protocolRatio()": "61d92f2c",
					"userDepositIndexs(address)": "83c36433",
					"userDeposits(address,address)": "436d8039",
					"withdraw(address,uint256)": "f3fef3a3"
				}
			},
			"storageLayout": {
				"storage": [
					{
						"astId": 95,
						"contract": "contracts/Treasury.sol:Treasury",
						"label": "owner",
						"offset": 0,
						"slot": "0",
						"type": "t_address"
					},
					{
						"astId": 97,
						"contract": "contracts/Treasury.sol:Treasury",
						"label": "locked",
						"offset": 20,
						"slot": "0",
						"type": "t_bool"
					},
					{
						"astId": 117,
						"contract": "contracts/Treasury.sol:Treasury",
						"label": "userDepositIndexs",
						"offset": 0,
						"slot": "1",
						"type": "t_mapping(t_address,t_uint256)"
					},
					{
						"astId": 124,
						"contract": "contracts/Treasury.sol:Treasury",
						"label": "userDeposits",
						"offset": 0,
						"slot": "2",
						"type": "t_mapping(t_address,t_mapping(t_address,t_struct(DepositUser)105_storage))"
					},
					{
						"astId": 129,
						"contract": "contracts/Treasury.sol:Treasury",
						"label": "ProtocolsInvestment",
						"offset": 0,
						"slot": "3",
						"type": "t_mapping(t_uint256,t_struct(Protocol)113_storage)"
					},
					{
						"astId": 135,
						"contract": "contracts/Treasury.sol:Treasury",
						"label": "Invests",
						"offset": 0,
						"slot": "4",
						"type": "t_mapping(t_address,t_mapping(t_uint256,t_uint256))"
					},
					{
						"astId": 139,
						"contract": "contracts/Treasury.sol:Treasury",
						"label": "TokensO",
						"offset": 0,
						"slot": "5",
						"type": "t_mapping(t_uint256,t_address)"
					},
					{
						"astId": 141,
						"contract": "contracts/Treasury.sol:Treasury",
						"label": "protocolsIndex",
						"offset": 0,
						"slot": "6",
						"type": "t_uint256"
					},
					{
						"astId": 143,
						"contract": "contracts/Treasury.sol:Treasury",
						"label": "protocolRatio",
						"offset": 0,
						"slot": "7",
						"type": "t_uint256"
					},
					{
						"astId": 145,
						"contract": "contracts/Treasury.sol:Treasury",
						"label": "indexTokensU",
						"offset": 0,
						"slot": "8",
						"type": "t_uint256"
					}
				],
				"types": {
					"t_address": {
						"encoding": "inplace",
						"label": "address",
						"numberOfBytes": "20"
					},
					"t_bool": {
						"encoding": "inplace",
						"label": "bool",
						"numberOfBytes": "1"
					},
					"t_enum(ProtocolType)100": {
						"encoding": "inplace",
						"label": "enum Treasury.ProtocolType",
						"numberOfBytes": "1"
					},
					"t_mapping(t_address,t_mapping(t_address,t_struct(DepositUser)105_storage))": {
						"encoding": "mapping",
						"key": "t_address",
						"label": "mapping(address => mapping(address => struct Treasury.DepositUser))",
						"numberOfBytes": "32",
						"value": "t_mapping(t_address,t_struct(DepositUser)105_storage)"
					},
					"t_mapping(t_address,t_mapping(t_uint256,t_uint256))": {
						"encoding": "mapping",
						"key": "t_address",
						"label": "mapping(address => mapping(uint256 => uint256))",
						"numberOfBytes": "32",
						"value": "t_mapping(t_uint256,t_uint256)"
					},
					"t_mapping(t_address,t_struct(DepositUser)105_storage)": {
						"encoding": "mapping",
						"key": "t_address",
						"label": "mapping(address => struct Treasury.DepositUser)",
						"numberOfBytes": "32",
						"value": "t_struct(DepositUser)105_storage"
					},
					"t_mapping(t_address,t_uint256)": {
						"encoding": "mapping",
						"key": "t_address",
						"label": "mapping(address => uint256)",
						"numberOfBytes": "32",
						"value": "t_uint256"
					},
					"t_mapping(t_uint256,t_address)": {
						"encoding": "mapping",
						"key": "t_uint256",
						"label": "mapping(uint256 => address)",
						"numberOfBytes": "32",
						"value": "t_address"
					},
					"t_mapping(t_uint256,t_struct(Protocol)113_storage)": {
						"encoding": "mapping",
						"key": "t_uint256",
						"label": "mapping(uint256 => struct Treasury.Protocol)",
						"numberOfBytes": "32",
						"value": "t_struct(Protocol)113_storage"
					},
					"t_mapping(t_uint256,t_uint256)": {
						"encoding": "mapping",
						"key": "t_uint256",
						"label": "mapping(uint256 => uint256)",
						"numberOfBytes": "32",
						"value": "t_uint256"
					},
					"t_string_storage": {
						"encoding": "bytes",
						"label": "string",
						"numberOfBytes": "32"
					},
					"t_struct(DepositUser)105_storage": {
						"encoding": "inplace",
						"label": "struct Treasury.DepositUser",
						"members": [
							{
								"astId": 102,
								"contract": "contracts/Treasury.sol:Treasury",
								"label": "depositAmount",
								"offset": 0,
								"slot": "0",
								"type": "t_uint256"
							},
							{
								"astId": 104,
								"contract": "contracts/Treasury.sol:Treasury",
								"label": "lastDeposit",
								"offset": 0,
								"slot": "1",
								"type": "t_uint256"
							}
						],
						"numberOfBytes": "64"
					},
					"t_struct(Protocol)113_storage": {
						"encoding": "inplace",
						"label": "struct Treasury.Protocol",
						"members": [
							{
								"astId": 108,
								"contract": "contracts/Treasury.sol:Treasury",
								"label": "Type",
								"offset": 0,
								"slot": "0",
								"type": "t_enum(ProtocolType)100"
							},
							{
								"astId": 110,
								"contract": "contracts/Treasury.sol:Treasury",
								"label": "Gateway",
								"offset": 1,
								"slot": "0",
								"type": "t_address"
							},
							{
								"astId": 112,
								"contract": "contracts/Treasury.sol:Treasury",
								"label": "ProtocolName",
								"offset": 0,
								"slot": "1",
								"type": "t_string_storage"
							}
						],
						"numberOfBytes": "64"
					},
					"t_uint256": {
						"encoding": "inplace",
						"label": "uint256",
						"numberOfBytes": "32"
					}
				}
			},
			"userdoc": {
				"kind": "user",
				"methods": {},
				"version": 1
			}
		}
	}
}