{
	"data": {
		"bytecode": {
			"linkReferences": {},
			"object": "60806040523480156200001157600080fd5b5060405162001dc738038062001dc78339818101604052810190620000379190620000c5565b336000806101000a81548173ffffffffffffffffffffffffffffffffffffffff021916908373ffffffffffffffffffffffffffffffffffffffff1602179055508060068190555050620000f7565b600080fd5b6000819050919050565b6200009f816200008a565b8114620000ab57600080fd5b50565b600081519050620000bf8162000094565b92915050565b600060208284031215620000de57620000dd62000085565b5b6000620000ee84828501620000ae565b91505092915050565b611cc080620001076000396000f3fe608060405234801561001057600080fd5b50600436106100b45760003560e01c80637690cbeb116100715780637690cbeb1461018e5780637da5af32146101aa57806383c36433146101c65780638da5cb5b146101f65780639cec004d14610214578063f3fef3a314610244576100b4565b806337a7a334146100b95780633aa4c538146100d5578063436d80391461010757806347e7ef241461013857806361d92f2c14610154578063715ec5da14610172575b600080fd5b6100d360048036038101906100ce9190610e52565b610260565b005b6100ef60048036038101906100ea9190610e52565b61033c565b6040516100fe93929190610fd0565b60405180910390f35b610121600480360381019061011c919061103a565b61041b565b60405161012f929190611089565b60405180910390f35b610152600480360381019061014d91906110b2565b61044c565b005b61015c610617565b60405161016991906110f2565b60405180910390f35b61018c6004803603810190610187919061110d565b61061d565b005b6101a860048036038101906101a391906110b2565b610810565b005b6101c460048036038101906101bf9190611184565b610b1d565b005b6101e060048036038101906101db91906111cd565b610beb565b6040516101ed91906110f2565b60405180910390f35b6101fe610c03565b60405161020b91906111fa565b60405180910390f35b61022e600480360381019061022991906110b2565b610c27565b60405161023b91906110f2565b60405180910390f35b61025e600480360381019061025991906110b2565b610c4c565b005b60008054906101000a900473ffffffffffffffffffffffffffffffffffffffff1673ffffffffffffffffffffffffffffffffffffffff163373ffffffffffffffffffffffffffffffffffffffff16146102ee576040517f08c379a00000000000000000000000000000000000000000000000000000000081526004016102e590611261565b60405180910390fd5b6064811115610332576040517f08c379a0000000000000000000000000000000000000000000000000000000008152600401610329906112cd565b60405180910390fd5b8060068190555050565b60036020528060005260406000206000915090508060000160009054906101000a900460ff16908060000160019054906101000a900473ffffffffffffffffffffffffffffffffffffffff16908060010180546103989061131c565b80601f01602080910402602001604051908101604052809291908181526020018280546103c49061131c565b80156104115780601f106103e657610100808354040283529160200191610411565b820191906000526020600020905b8154815290600101906020018083116103f457829003601f168201915b5050505050905083565b6002602052816000526040600020602052806000526040600020600091509150508060000154908060010154905082565b6000811161048f576040517f08c379a00000000000000000000000000000000000000000000000000000000081526004016104869061139a565b60405180910390fd5b60008290508073ffffffffffffffffffffffffffffffffffffffff166323b872dd3330856040518463ffffffff1660e01b81526004016104d1939291906113ba565b6020604051808303816000875af11580156104f0573d6000803e3d6000fd5b505050506040513d601f19601f820116820180604052508101906105149190611429565b50604051806040016040528083815260200142815250600260003373ffffffffffffffffffffffffffffffffffffffff1673ffffffffffffffffffffffffffffffffffffffff16815260200190815260200160002060008573ffffffffffffffffffffffffffffffffffffffff1673ffffffffffffffffffffffffffffffffffffffff1681526020019081526020016000206000820151816000015560208201518160010155905050600160003373ffffffffffffffffffffffffffffffffffffffff1673ffffffffffffffffffffffffffffffffffffffff168152602001908152602001600020600081548092919061060d90611485565b9190505550505050565b60065481565b60008054906101000a900473ffffffffffffffffffffffffffffffffffffffff1673ffffffffffffffffffffffffffffffffffffffff163373ffffffffffffffffffffffffffffffffffffffff16146106ab576040517f08c379a00000000000000000000000000000000000000000000000000000000081526004016106a290611540565b60405180910390fd5b60006003600083815260200190815260200160002060000160019054906101000a900473ffffffffffffffffffffffffffffffffffffffff1690506001808111156106f9576106f8610e7f565b5b6003600084815260200190815260200160002060000160009054906101000a900460ff16600181111561072f5761072e610e7f565b5b14156107a3578073ffffffffffffffffffffffffffffffffffffffff1663f3fef3a385856040518363ffffffff1660e01b8152600401610770929190611560565b600060405180830381600087803b15801561078a57600080fd5b505af115801561079e573d6000803e3d6000fd5b505050505b82600460008673ffffffffffffffffffffffffffffffffffffffff1673ffffffffffffffffffffffffffffffffffffffff168152602001908152602001600020600084815260200190815260200160002060008282546108039190611589565b9250508190555050505050565b60008054906101000a900473ffffffffffffffffffffffffffffffffffffffff1673ffffffffffffffffffffffffffffffffffffffff163373ffffffffffffffffffffffffffffffffffffffff161461089e576040517f08c379a000000000000000000000000000000000000000000000000000000000815260040161089590611540565b60405180910390fd5b60008273ffffffffffffffffffffffffffffffffffffffff166370a08231306040518263ffffffff1660e01b81526004016108d991906111fa565b602060405180830381865afa1580156108f6573d6000803e3d6000fd5b505050506040513d601f19601f8201168201806040525081019061091a91906115d2565b9050600060646006548361092e91906115ff565b6109389190611688565b905060006003600085815260200190815260200160002060000160019054906101000a900473ffffffffffffffffffffffffffffffffffffffff1690508473ffffffffffffffffffffffffffffffffffffffff1663a9059cbb82846040518363ffffffff1660e01b81526004016109b0929190611560565b6020604051808303816000875af11580156109cf573d6000803e3d6000fd5b505050506040513d601f19601f820116820180604052508101906109f39190611429565b50600180811115610a0757610a06610e7f565b5b6003600086815260200190815260200160002060000160009054906101000a900460ff166001811115610a3d57610a3c610e7f565b5b1415610aaf578073ffffffffffffffffffffffffffffffffffffffff1663f340fa01866040518263ffffffff1660e01b8152600401610a7c91906111fa565b600060405180830381600087803b158015610a9657600080fd5b505af1158015610aaa573d6000803e3d6000fd5b505050505b81600460008773ffffffffffffffffffffffffffffffffffffffff1673ffffffffffffffffffffffffffffffffffffffff16815260200190815260200160002060008681526020019081526020016000206000828254610b0f91906116b9565b925050819055505050505050565b60008054906101000a900473ffffffffffffffffffffffffffffffffffffffff1673ffffffffffffffffffffffffffffffffffffffff163373ffffffffffffffffffffffffffffffffffffffff1614610bab576040517f08c379a0000000000000000000000000000000000000000000000000000000008152600401610ba290611261565b60405180910390fd5b806003600060055481526020019081526020016000208181610bcd9190611c10565b90505060056000815480929190610be390611485565b919050555050565b60016020528060005260406000206000915090505481565b60008054906101000a900473ffffffffffffffffffffffffffffffffffffffff1681565b6004602052816000526040600020602052806000526040600020600091509150505481565b60008111610c8f576040517f08c379a0000000000000000000000000000000000000000000000000000000008152600401610c869061139a565b60405180910390fd5b6000600260003373ffffffffffffffffffffffffffffffffffffffff1673ffffffffffffffffffffffffffffffffffffffff16815260200190815260200160002060008473ffffffffffffffffffffffffffffffffffffffff1673ffffffffffffffffffffffffffffffffffffffff16815260200190815260200160002090508181600001541015610d56576040517f08c379a0000000000000000000000000000000000000000000000000000000008152600401610d4d90611c6a565b60405180910390fd5b81816000016000828254610d6a9190611589565b92505081905550600081600001541415610e0d5760018060003373ffffffffffffffffffffffffffffffffffffffff1673ffffffffffffffffffffffffffffffffffffffff16815260200190815260200160002054610dc99190611589565b600160003373ffffffffffffffffffffffffffffffffffffffff1673ffffffffffffffffffffffffffffffffffffffff168152602001908152602001600020819055505b505050565b600080fd5b600080fd5b6000819050919050565b610e2f81610e1c565b8114610e3a57600080fd5b50565b600081359050610e4c81610e26565b92915050565b600060208284031215610e6857610e67610e12565b5b6000610e7684828501610e3d565b91505092915050565b7f4e487b7100000000000000000000000000000000000000000000000000000000600052602160045260246000fd5b60028110610ebf57610ebe610e7f565b5b50565b6000819050610ed082610eae565b919050565b6000610ee082610ec2565b9050919050565b610ef081610ed5565b82525050565b600073ffffffffffffffffffffffffffffffffffffffff82169050919050565b6000610f2182610ef6565b9050919050565b610f3181610f16565b82525050565b600081519050919050565b600082825260208201905092915050565b60005b83811015610f71578082015181840152602081019050610f56565b83811115610f80576000848401525b50505050565b6000601f19601f8301169050919050565b6000610fa282610f37565b610fac8185610f42565b9350610fbc818560208601610f53565b610fc581610f86565b840191505092915050565b6000606082019050610fe56000830186610ee7565b610ff26020830185610f28565b81810360408301526110048184610f97565b9050949350505050565b61101781610f16565b811461102257600080fd5b50565b6000813590506110348161100e565b92915050565b6000806040838503121561105157611050610e12565b5b600061105f85828601611025565b925050602061107085828601611025565b9150509250929050565b61108381610e1c565b82525050565b600060408201905061109e600083018561107a565b6110ab602083018461107a565b9392505050565b600080604083850312156110c9576110c8610e12565b5b60006110d785828601611025565b92505060206110e885828601610e3d565b9150509250929050565b6000602082019050611107600083018461107a565b92915050565b60008060006060848603121561112657611125610e12565b5b600061113486828701611025565b935050602061114586828701610e3d565b925050604061115686828701610e3d565b9150509250925092565b600080fd5b60006060828403121561117b5761117a611160565b5b81905092915050565b60006020828403121561119a57611199610e12565b5b600082013567ffffffffffffffff8111156111b8576111b7610e17565b5b6111c484828501611165565b91505092915050565b6000602082840312156111e3576111e2610e12565b5b60006111f184828501611025565b91505092915050565b600060208201905061120f6000830184610f28565b92915050565b7f4f6e6c7920746865206f776e65722063616e2061646a75737420726174696f73600082015250565b600061124b602083610f42565b915061125682611215565b602082019050919050565b6000602082019050818103600083015261127a8161123e565b9050919050565b7f526174696f2063616e6e6f742065786365656420313030250000000000000000600082015250565b60006112b7601883610f42565b91506112c282611281565b602082019050919050565b600060208201905081810360008301526112e6816112aa565b9050919050565b7f4e487b7100000000000000000000000000000000000000000000000000000000600052602260045260246000fd5b6000600282049050600182168061133457607f821691505b60208210811415611348576113476112ed565b5b50919050565b7f416d6f756e74206d7573742062652067726561746572207468616e2030000000600082015250565b6000611384601d83610f42565b915061138f8261134e565b602082019050919050565b600060208201905081810360008301526113b381611377565b9050919050565b60006060820190506113cf6000830186610f28565b6113dc6020830185610f28565b6113e9604083018461107a565b949350505050565b60008115159050919050565b611406816113f1565b811461141157600080fd5b50565b600081519050611423816113fd565b92915050565b60006020828403121561143f5761143e610e12565b5b600061144d84828501611414565b91505092915050565b7f4e487b7100000000000000000000000000000000000000000000000000000000600052601160045260246000fd5b600061149082610e1c565b91507fffffffffffffffffffffffffffffffffffffffffffffffffffffffffffffffff8214156114c3576114c2611456565b5b600182019050919050565b7f4f6e6c7920746865206f776e65722063616e20616c6c6f636174652066756e6460008201527f7300000000000000000000000000000000000000000000000000000000000000602082015250565b600061152a602183610f42565b9150611535826114ce565b604082019050919050565b600060208201905081810360008301526115598161151d565b9050919050565b60006040820190506115756000830185610f28565b611582602083018461107a565b9392505050565b600061159482610e1c565b915061159f83610e1c565b9250828210156115b2576115b1611456565b5b828203905092915050565b6000815190506115cc81610e26565b92915050565b6000602082840312156115e8576115e7610e12565b5b60006115f6848285016115bd565b91505092915050565b600061160a82610e1c565b915061161583610e1c565b9250817fffffffffffffffffffffffffffffffffffffffffffffffffffffffffffffffff048311821515161561164e5761164d611456565b5b828202905092915050565b7f4e487b7100000000000000000000000000000000000000000000000000000000600052601260045260246000fd5b600061169382610e1c565b915061169e83610e1c565b9250826116ae576116ad611659565b5b828204905092915050565b60006116c482610e1c565b91506116cf83610e1c565b9250827fffffffffffffffffffffffffffffffffffffffffffffffffffffffffffffffff0382111561170457611703611456565b5b828201905092915050565b6002811061171c57600080fd5b50565b6000813561172c8161170f565b80915050919050565b60008160001b9050919050565b600060ff61174f84611735565b9350801983169250808416831791505092915050565b600061177082610ec2565b9050919050565b6000819050919050565b61178a82611765565b61179d61179682611777565b8354611742565b8255505050565b600081356117b18161100e565b80915050919050565b60008160081b9050919050565b600074ffffffffffffffffffffffffffffffffffffffff006117e8846117ba565b9350801983169250808416831791505092915050565b6000819050919050565b600061182361181e61181984610ef6565b6117fe565b610ef6565b9050919050565b600061183582611808565b9050919050565b60006118478261182a565b9050919050565b6000819050919050565b6118618261183c565b61187461186d8261184e565b83546117c7565b8255505050565b600080fd5b600080fd5b600080fd5b600080833560016020038436030381126118a7576118a661187b565b5b80840192508235915067ffffffffffffffff8211156118c9576118c8611880565b5b6020830192506001820236038313156118e5576118e4611885565b5b509250929050565b600082905092915050565b7f4e487b7100000000000000000000000000000000000000000000000000000000600052604160045260246000fd5b60008190508160005260206000209050919050565b60006020601f8301049050919050565b600082821b905092915050565b6000600883026119897fffffffffffffffffffffffffffffffffffffffffffffffffffffffffffffffff8261194c565b611993868361194c565b95508019841693508086168417925050509392505050565b60006119c66119c16119bc84610e1c565b6117fe565b610e1c565b9050919050565b6000819050919050565b6119e0836119ab565b6119f46119ec826119cd565b848454611959565b825550505050565b600090565b611a096119fc565b611a148184846119d7565b505050565b5b81811015611a3857611a2d600082611a01565b600181019050611a1a565b5050565b601f821115611a7d57611a4e81611927565b611a578461193c565b81016020851015611a66578190505b611a7a611a728561193c565b830182611a19565b50505b505050565b600082821c905092915050565b6000611aa060001984600802611a82565b1980831691505092915050565b6000611ab98383611a8f565b9150826002028217905092915050565b611ad383836118ed565b67ffffffffffffffff811115611aec57611aeb6118f8565b5b611af6825461131c565b611b01828285611a3c565b6000601f831160018114611b305760008415611b1e578287013590505b611b288582611aad565b865550611b90565b601f198416611b3e86611927565b60005b82811015611b6657848901358255600182019150602085019450602081019050611b41565b86831015611b835784890135611b7f601f891682611a8f565b8355505b6001600288020188555050505b50505050505050565b611ba4838383611ac9565b505050565b600081016000830180611bbb8161171f565b9050611bc78184611781565b505050600081016020830180611bdc816117a4565b9050611be88184611858565b5050506001810160408301611bfd818561188a565b611c08818386611b99565b505050505050565b611c1a8282611ba9565b5050565b7f45786365656473206465706f736974656420616d6f756e740000000000000000600082015250565b6000611c54601883610f42565b9150611c5f82611c1e565b602082019050919050565b60006020820190508181036000830152611c8381611c47565b905091905056fea2646970667358221220f2794433be31ed546a9fdb7b115973c0d1cb61523427154a6ea6128093a0047264736f6c634300080a0033",
			"opcodes": "PUSH1 0x80 PUSH1 0x40 MSTORE CALLVALUE DUP1 ISZERO PUSH3 0x11 JUMPI PUSH1 0x0 DUP1 REVERT JUMPDEST POP PUSH1 0x40 MLOAD PUSH3 0x1DC7 CODESIZE SUB DUP1 PUSH3 0x1DC7 DUP4 CODECOPY DUP2 DUP2 ADD PUSH1 0x40 MSTORE DUP2 ADD SWAP1 PUSH3 0x37 SWAP2 SWAP1 PUSH3 0xC5 JUMP JUMPDEST CALLER PUSH1 0x0 DUP1 PUSH2 0x100 EXP DUP2 SLOAD DUP2 PUSH20 0xFFFFFFFFFFFFFFFFFFFFFFFFFFFFFFFFFFFFFFFF MUL NOT AND SWAP1 DUP4 PUSH20 0xFFFFFFFFFFFFFFFFFFFFFFFFFFFFFFFFFFFFFFFF AND MUL OR SWAP1 SSTORE POP DUP1 PUSH1 0x6 DUP2 SWAP1 SSTORE POP POP PUSH3 0xF7 JUMP JUMPDEST PUSH1 0x0 DUP1 REVERT JUMPDEST PUSH1 0x0 DUP2 SWAP1 POP SWAP2 SWAP1 POP JUMP JUMPDEST PUSH3 0x9F DUP2 PUSH3 0x8A JUMP JUMPDEST DUP2 EQ PUSH3 0xAB JUMPI PUSH1 0x0 DUP1 REVERT JUMPDEST POP JUMP JUMPDEST PUSH1 0x0 DUP2 MLOAD SWAP1 POP PUSH3 0xBF DUP2 PUSH3 0x94 JUMP JUMPDEST SWAP3 SWAP2 POP POP JUMP JUMPDEST PUSH1 0x0 PUSH1 0x20 DUP3 DUP5 SUB SLT ISZERO PUSH3 0xDE JUMPI PUSH3 0xDD PUSH3 0x85 JUMP JUMPDEST JUMPDEST PUSH1 0x0 PUSH3 0xEE DUP5 DUP3 DUP6 ADD PUSH3 0xAE JUMP JUMPDEST SWAP2 POP POP SWAP3 SWAP2 POP POP JUMP JUMPDEST PUSH2 0x1CC0 DUP1 PUSH3 0x107 PUSH1 0x0 CODECOPY PUSH1 0x0 RETURN INVALID PUSH1 0x80 PUSH1 0x40 MSTORE CALLVALUE DUP1 ISZERO PUSH2 0x10 JUMPI PUSH1 0x0 DUP1 REVERT JUMPDEST POP PUSH1 0x4 CALLDATASIZE LT PUSH2 0xB4 JUMPI PUSH1 0x0 CALLDATALOAD PUSH1 0xE0 SHR DUP1 PUSH4 0x7690CBEB GT PUSH2 0x71 JUMPI DUP1 PUSH4 0x7690CBEB EQ PUSH2 0x18E JUMPI DUP1 PUSH4 0x7DA5AF32 EQ PUSH2 0x1AA JUMPI DUP1 PUSH4 0x83C36433 EQ PUSH2 0x1C6 JUMPI DUP1 PUSH4 0x8DA5CB5B EQ PUSH2 0x1F6 JUMPI DUP1 PUSH4 0x9CEC004D EQ PUSH2 0x214 JUMPI DUP1 PUSH4 0xF3FEF3A3 EQ PUSH2 0x244 JUMPI PUSH2 0xB4 JUMP JUMPDEST DUP1 PUSH4 0x37A7A334 EQ PUSH2 0xB9 JUMPI DUP1 PUSH4 0x3AA4C538 EQ PUSH2 0xD5 JUMPI DUP1 PUSH4 0x436D8039 EQ PUSH2 0x107 JUMPI DUP1 PUSH4 0x47E7EF24 EQ PUSH2 0x138 JUMPI DUP1 PUSH4 0x61D92F2C EQ PUSH2 0x154 JUMPI DUP1 PUSH4 0x715EC5DA EQ PUSH2 0x172 JUMPI JUMPDEST PUSH1 0x0 DUP1 REVERT JUMPDEST PUSH2 0xD3 PUSH1 0x4 DUP1 CALLDATASIZE SUB DUP2 ADD SWAP1 PUSH2 0xCE SWAP2 SWAP1 PUSH2 0xE52 JUMP JUMPDEST PUSH2 0x260 JUMP JUMPDEST STOP JUMPDEST PUSH2 0xEF PUSH1 0x4 DUP1 CALLDATASIZE SUB DUP2 ADD SWAP1 PUSH2 0xEA SWAP2 SWAP1 PUSH2 0xE52 JUMP JUMPDEST PUSH2 0x33C JUMP JUMPDEST PUSH1 0x40 MLOAD PUSH2 0xFE SWAP4 SWAP3 SWAP2 SWAP1 PUSH2 0xFD0 JUMP JUMPDEST PUSH1 0x40 MLOAD DUP1 SWAP2 SUB SWAP1 RETURN JUMPDEST PUSH2 0x121 PUSH1 0x4 DUP1 CALLDATASIZE SUB DUP2 ADD SWAP1 PUSH2 0x11C SWAP2 SWAP1 PUSH2 0x103A JUMP JUMPDEST PUSH2 0x41B JUMP JUMPDEST PUSH1 0x40 MLOAD PUSH2 0x12F SWAP3 SWAP2 SWAP1 PUSH2 0x1089 JUMP JUMPDEST PUSH1 0x40 MLOAD DUP1 SWAP2 SUB SWAP1 RETURN JUMPDEST PUSH2 0x152 PUSH1 0x4 DUP1 CALLDATASIZE SUB DUP2 ADD SWAP1 PUSH2 0x14D SWAP2 SWAP1 PUSH2 0x10B2 JUMP JUMPDEST PUSH2 0x44C JUMP JUMPDEST STOP JUMPDEST PUSH2 0x15C PUSH2 0x617 JUMP JUMPDEST PUSH1 0x40 MLOAD PUSH2 0x169 SWAP2 SWAP1 PUSH2 0x10F2 JUMP JUMPDEST PUSH1 0x40 MLOAD DUP1 SWAP2 SUB SWAP1 RETURN JUMPDEST PUSH2 0x18C PUSH1 0x4 DUP1 CALLDATASIZE SUB DUP2 ADD SWAP1 PUSH2 0x187 SWAP2 SWAP1 PUSH2 0x110D JUMP JUMPDEST PUSH2 0x61D JUMP JUMPDEST STOP JUMPDEST PUSH2 0x1A8 PUSH1 0x4 DUP1 CALLDATASIZE SUB DUP2 ADD SWAP1 PUSH2 0x1A3 SWAP2 SWAP1 PUSH2 0x10B2 JUMP JUMPDEST PUSH2 0x810 JUMP JUMPDEST STOP JUMPDEST PUSH2 0x1C4 PUSH1 0x4 DUP1 CALLDATASIZE SUB DUP2 ADD SWAP1 PUSH2 0x1BF SWAP2 SWAP1 PUSH2 0x1184 JUMP JUMPDEST PUSH2 0xB1D JUMP JUMPDEST STOP JUMPDEST PUSH2 0x1E0 PUSH1 0x4 DUP1 CALLDATASIZE SUB DUP2 ADD SWAP1 PUSH2 0x1DB SWAP2 SWAP1 PUSH2 0x11CD JUMP JUMPDEST PUSH2 0xBEB JUMP JUMPDEST PUSH1 0x40 MLOAD PUSH2 0x1ED SWAP2 SWAP1 PUSH2 0x10F2 JUMP JUMPDEST PUSH1 0x40 MLOAD DUP1 SWAP2 SUB SWAP1 RETURN JUMPDEST PUSH2 0x1FE PUSH2 0xC03 JUMP JUMPDEST PUSH1 0x40 MLOAD PUSH2 0x20B SWAP2 SWAP1 PUSH2 0x11FA JUMP JUMPDEST PUSH1 0x40 MLOAD DUP1 SWAP2 SUB SWAP1 RETURN JUMPDEST PUSH2 0x22E PUSH1 0x4 DUP1 CALLDATASIZE SUB DUP2 ADD SWAP1 PUSH2 0x229 SWAP2 SWAP1 PUSH2 0x10B2 JUMP JUMPDEST PUSH2 0xC27 JUMP JUMPDEST PUSH1 0x40 MLOAD PUSH2 0x23B SWAP2 SWAP1 PUSH2 0x10F2 JUMP JUMPDEST PUSH1 0x40 MLOAD DUP1 SWAP2 SUB SWAP1 RETURN JUMPDEST PUSH2 0x25E PUSH1 0x4 DUP1 CALLDATASIZE SUB DUP2 ADD SWAP1 PUSH2 0x259 SWAP2 SWAP1 PUSH2 0x10B2 JUMP JUMPDEST PUSH2 0xC4C JUMP JUMPDEST STOP JUMPDEST PUSH1 0x0 DUP1 SLOAD SWAP1 PUSH2 0x100 EXP SWAP1 DIV PUSH20 0xFFFFFFFFFFFFFFFFFFFFFFFFFFFFFFFFFFFFFFFF AND PUSH20 0xFFFFFFFFFFFFFFFFFFFFFFFFFFFFFFFFFFFFFFFF AND CALLER PUSH20 0xFFFFFFFFFFFFFFFFFFFFFFFFFFFFFFFFFFFFFFFF AND EQ PUSH2 0x2EE JUMPI PUSH1 0x40 MLOAD PUSH32 0x8C379A000000000000000000000000000000000000000000000000000000000 DUP2 MSTORE PUSH1 0x4 ADD PUSH2 0x2E5 SWAP1 PUSH2 0x1261 JUMP JUMPDEST PUSH1 0x40 MLOAD DUP1 SWAP2 SUB SWAP1 REVERT JUMPDEST PUSH1 0x64 DUP2 GT ISZERO PUSH2 0x332 JUMPI PUSH1 0x40 MLOAD PUSH32 0x8C379A000000000000000000000000000000000000000000000000000000000 DUP2 MSTORE PUSH1 0x4 ADD PUSH2 0x329 SWAP1 PUSH2 0x12CD JUMP JUMPDEST PUSH1 0x40 MLOAD DUP1 SWAP2 SUB SWAP1 REVERT JUMPDEST DUP1 PUSH1 0x6 DUP2 SWAP1 SSTORE POP POP JUMP JUMPDEST PUSH1 0x3 PUSH1 0x20 MSTORE DUP1 PUSH1 0x0 MSTORE PUSH1 0x40 PUSH1 0x0 KECCAK256 PUSH1 0x0 SWAP2 POP SWAP1 POP DUP1 PUSH1 0x0 ADD PUSH1 0x0 SWAP1 SLOAD SWAP1 PUSH2 0x100 EXP SWAP1 DIV PUSH1 0xFF AND SWAP1 DUP1 PUSH1 0x0 ADD PUSH1 0x1 SWAP1 SLOAD SWAP1 PUSH2 0x100 EXP SWAP1 DIV PUSH20 0xFFFFFFFFFFFFFFFFFFFFFFFFFFFFFFFFFFFFFFFF AND SWAP1 DUP1 PUSH1 0x1 ADD DUP1 SLOAD PUSH2 0x398 SWAP1 PUSH2 0x131C JUMP JUMPDEST DUP1 PUSH1 0x1F ADD PUSH1 0x20 DUP1 SWAP2 DIV MUL PUSH1 0x20 ADD PUSH1 0x40 MLOAD SWAP1 DUP2 ADD PUSH1 0x40 MSTORE DUP1 SWAP3 SWAP2 SWAP1 DUP2 DUP2 MSTORE PUSH1 0x20 ADD DUP3 DUP1 SLOAD PUSH2 0x3C4 SWAP1 PUSH2 0x131C JUMP JUMPDEST DUP1 ISZERO PUSH2 0x411 JUMPI DUP1 PUSH1 0x1F LT PUSH2 0x3E6 JUMPI PUSH2 0x100 DUP1 DUP4 SLOAD DIV MUL DUP4 MSTORE SWAP2 PUSH1 0x20 ADD SWAP2 PUSH2 0x411 JUMP JUMPDEST DUP3 ADD SWAP2 SWAP1 PUSH1 0x0 MSTORE PUSH1 0x20 PUSH1 0x0 KECCAK256 SWAP1 JUMPDEST DUP2 SLOAD DUP2 MSTORE SWAP1 PUSH1 0x1 ADD SWAP1 PUSH1 0x20 ADD DUP1 DUP4 GT PUSH2 0x3F4 JUMPI DUP3 SWAP1 SUB PUSH1 0x1F AND DUP3 ADD SWAP2 JUMPDEST POP POP POP POP POP SWAP1 POP DUP4 JUMP JUMPDEST PUSH1 0x2 PUSH1 0x20 MSTORE DUP2 PUSH1 0x0 MSTORE PUSH1 0x40 PUSH1 0x0 KECCAK256 PUSH1 0x20 MSTORE DUP1 PUSH1 0x0 MSTORE PUSH1 0x40 PUSH1 0x0 KECCAK256 PUSH1 0x0 SWAP2 POP SWAP2 POP POP DUP1 PUSH1 0x0 ADD SLOAD SWAP1 DUP1 PUSH1 0x1 ADD SLOAD SWAP1 POP DUP3 JUMP JUMPDEST PUSH1 0x0 DUP2 GT PUSH2 0x48F JUMPI PUSH1 0x40 MLOAD PUSH32 0x8C379A000000000000000000000000000000000000000000000000000000000 DUP2 MSTORE PUSH1 0x4 ADD PUSH2 0x486 SWAP1 PUSH2 0x139A JUMP JUMPDEST PUSH1 0x40 MLOAD DUP1 SWAP2 SUB SWAP1 REVERT JUMPDEST PUSH1 0x0 DUP3 SWAP1 POP DUP1 PUSH20 0xFFFFFFFFFFFFFFFFFFFFFFFFFFFFFFFFFFFFFFFF AND PUSH4 0x23B872DD CALLER ADDRESS DUP6 PUSH1 0x40 MLOAD DUP5 PUSH4 0xFFFFFFFF AND PUSH1 0xE0 SHL DUP2 MSTORE PUSH1 0x4 ADD PUSH2 0x4D1 SWAP4 SWAP3 SWAP2 SWAP1 PUSH2 0x13BA JUMP JUMPDEST PUSH1 0x20 PUSH1 0x40 MLOAD DUP1 DUP4 SUB DUP2 PUSH1 0x0 DUP8 GAS CALL ISZERO DUP1 ISZERO PUSH2 0x4F0 JUMPI RETURNDATASIZE PUSH1 0x0 DUP1 RETURNDATACOPY RETURNDATASIZE PUSH1 0x0 REVERT JUMPDEST POP POP POP POP PUSH1 0x40 MLOAD RETURNDATASIZE PUSH1 0x1F NOT PUSH1 0x1F DUP3 ADD AND DUP3 ADD DUP1 PUSH1 0x40 MSTORE POP DUP2 ADD SWAP1 PUSH2 0x514 SWAP2 SWAP1 PUSH2 0x1429 JUMP JUMPDEST POP PUSH1 0x40 MLOAD DUP1 PUSH1 0x40 ADD PUSH1 0x40 MSTORE DUP1 DUP4 DUP2 MSTORE PUSH1 0x20 ADD TIMESTAMP DUP2 MSTORE POP PUSH1 0x2 PUSH1 0x0 CALLER PUSH20 0xFFFFFFFFFFFFFFFFFFFFFFFFFFFFFFFFFFFFFFFF AND PUSH20 0xFFFFFFFFFFFFFFFFFFFFFFFFFFFFFFFFFFFFFFFF AND DUP2 MSTORE PUSH1 0x20 ADD SWAP1 DUP2 MSTORE PUSH1 0x20 ADD PUSH1 0x0 KECCAK256 PUSH1 0x0 DUP6 PUSH20 0xFFFFFFFFFFFFFFFFFFFFFFFFFFFFFFFFFFFFFFFF AND PUSH20 0xFFFFFFFFFFFFFFFFFFFFFFFFFFFFFFFFFFFFFFFF AND DUP2 MSTORE PUSH1 0x20 ADD SWAP1 DUP2 MSTORE PUSH1 0x20 ADD PUSH1 0x0 KECCAK256 PUSH1 0x0 DUP3 ADD MLOAD DUP2 PUSH1 0x0 ADD SSTORE PUSH1 0x20 DUP3 ADD MLOAD DUP2 PUSH1 0x1 ADD SSTORE SWAP1 POP POP PUSH1 0x1 PUSH1 0x0 CALLER PUSH20 0xFFFFFFFFFFFFFFFFFFFFFFFFFFFFFFFFFFFFFFFF AND PUSH20 0xFFFFFFFFFFFFFFFFFFFFFFFFFFFFFFFFFFFFFFFF AND DUP2 MSTORE PUSH1 0x20 ADD SWAP1 DUP2 MSTORE PUSH1 0x20 ADD PUSH1 0x0 KECCAK256 PUSH1 0x0 DUP2 SLOAD DUP1 SWAP3 SWAP2 SWAP1 PUSH2 0x60D SWAP1 PUSH2 0x1485 JUMP JUMPDEST SWAP2 SWAP1 POP SSTORE POP POP POP POP JUMP JUMPDEST PUSH1 0x6 SLOAD DUP2 JUMP JUMPDEST PUSH1 0x0 DUP1 SLOAD SWAP1 PUSH2 0x100 EXP SWAP1 DIV PUSH20 0xFFFFFFFFFFFFFFFFFFFFFFFFFFFFFFFFFFFFFFFF AND PUSH20 0xFFFFFFFFFFFFFFFFFFFFFFFFFFFFFFFFFFFFFFFF AND CALLER PUSH20 0xFFFFFFFFFFFFFFFFFFFFFFFFFFFFFFFFFFFFFFFF AND EQ PUSH2 0x6AB JUMPI PUSH1 0x40 MLOAD PUSH32 0x8C379A000000000000000000000000000000000000000000000000000000000 DUP2 MSTORE PUSH1 0x4 ADD PUSH2 0x6A2 SWAP1 PUSH2 0x1540 JUMP JUMPDEST PUSH1 0x40 MLOAD DUP1 SWAP2 SUB SWAP1 REVERT JUMPDEST PUSH1 0x0 PUSH1 0x3 PUSH1 0x0 DUP4 DUP2 MSTORE PUSH1 0x20 ADD SWAP1 DUP2 MSTORE PUSH1 0x20 ADD PUSH1 0x0 KECCAK256 PUSH1 0x0 ADD PUSH1 0x1 SWAP1 SLOAD SWAP1 PUSH2 0x100 EXP SWAP1 DIV PUSH20 0xFFFFFFFFFFFFFFFFFFFFFFFFFFFFFFFFFFFFFFFF AND SWAP1 POP PUSH1 0x1 DUP1 DUP2 GT ISZERO PUSH2 0x6F9 JUMPI PUSH2 0x6F8 PUSH2 0xE7F JUMP JUMPDEST JUMPDEST PUSH1 0x3 PUSH1 0x0 DUP5 DUP2 MSTORE PUSH1 0x20 ADD SWAP1 DUP2 MSTORE PUSH1 0x20 ADD PUSH1 0x0 KECCAK256 PUSH1 0x0 ADD PUSH1 0x0 SWAP1 SLOAD SWAP1 PUSH2 0x100 EXP SWAP1 DIV PUSH1 0xFF AND PUSH1 0x1 DUP2 GT ISZERO PUSH2 0x72F JUMPI PUSH2 0x72E PUSH2 0xE7F JUMP JUMPDEST JUMPDEST EQ ISZERO PUSH2 0x7A3 JUMPI DUP1 PUSH20 0xFFFFFFFFFFFFFFFFFFFFFFFFFFFFFFFFFFFFFFFF AND PUSH4 0xF3FEF3A3 DUP6 DUP6 PUSH1 0x40 MLOAD DUP4 PUSH4 0xFFFFFFFF AND PUSH1 0xE0 SHL DUP2 MSTORE PUSH1 0x4 ADD PUSH2 0x770 SWAP3 SWAP2 SWAP1 PUSH2 0x1560 JUMP JUMPDEST PUSH1 0x0 PUSH1 0x40 MLOAD DUP1 DUP4 SUB DUP2 PUSH1 0x0 DUP8 DUP1 EXTCODESIZE ISZERO DUP1 ISZERO PUSH2 0x78A JUMPI PUSH1 0x0 DUP1 REVERT JUMPDEST POP GAS CALL ISZERO DUP1 ISZERO PUSH2 0x79E JUMPI RETURNDATASIZE PUSH1 0x0 DUP1 RETURNDATACOPY RETURNDATASIZE PUSH1 0x0 REVERT JUMPDEST POP POP POP POP JUMPDEST DUP3 PUSH1 0x4 PUSH1 0x0 DUP7 PUSH20 0xFFFFFFFFFFFFFFFFFFFFFFFFFFFFFFFFFFFFFFFF AND PUSH20 0xFFFFFFFFFFFFFFFFFFFFFFFFFFFFFFFFFFFFFFFF AND DUP2 MSTORE PUSH1 0x20 ADD SWAP1 DUP2 MSTORE PUSH1 0x20 ADD PUSH1 0x0 KECCAK256 PUSH1 0x0 DUP5 DUP2 MSTORE PUSH1 0x20 ADD SWAP1 DUP2 MSTORE PUSH1 0x20 ADD PUSH1 0x0 KECCAK256 PUSH1 0x0 DUP3 DUP3 SLOAD PUSH2 0x803 SWAP2 SWAP1 PUSH2 0x1589 JUMP JUMPDEST SWAP3 POP POP DUP2 SWAP1 SSTORE POP POP POP POP POP JUMP JUMPDEST PUSH1 0x0 DUP1 SLOAD SWAP1 PUSH2 0x100 EXP SWAP1 DIV PUSH20 0xFFFFFFFFFFFFFFFFFFFFFFFFFFFFFFFFFFFFFFFF AND PUSH20 0xFFFFFFFFFFFFFFFFFFFFFFFFFFFFFFFFFFFFFFFF AND CALLER PUSH20 0xFFFFFFFFFFFFFFFFFFFFFFFFFFFFFFFFFFFFFFFF AND EQ PUSH2 0x89E JUMPI PUSH1 0x40 MLOAD PUSH32 0x8C379A000000000000000000000000000000000000000000000000000000000 DUP2 MSTORE PUSH1 0x4 ADD PUSH2 0x895 SWAP1 PUSH2 0x1540 JUMP JUMPDEST PUSH1 0x40 MLOAD DUP1 SWAP2 SUB SWAP1 REVERT JUMPDEST PUSH1 0x0 DUP3 PUSH20 0xFFFFFFFFFFFFFFFFFFFFFFFFFFFFFFFFFFFFFFFF AND PUSH4 0x70A08231 ADDRESS PUSH1 0x40 MLOAD DUP3 PUSH4 0xFFFFFFFF AND PUSH1 0xE0 SHL DUP2 MSTORE PUSH1 0x4 ADD PUSH2 0x8D9 SWAP2 SWAP1 PUSH2 0x11FA JUMP JUMPDEST PUSH1 0x20 PUSH1 0x40 MLOAD DUP1 DUP4 SUB DUP2 DUP7 GAS STATICCALL ISZERO DUP1 ISZERO PUSH2 0x8F6 JUMPI RETURNDATASIZE PUSH1 0x0 DUP1 RETURNDATACOPY RETURNDATASIZE PUSH1 0x0 REVERT JUMPDEST POP POP POP POP PUSH1 0x40 MLOAD RETURNDATASIZE PUSH1 0x1F NOT PUSH1 0x1F DUP3 ADD AND DUP3 ADD DUP1 PUSH1 0x40 MSTORE POP DUP2 ADD SWAP1 PUSH2 0x91A SWAP2 SWAP1 PUSH2 0x15D2 JUMP JUMPDEST SWAP1 POP PUSH1 0x0 PUSH1 0x64 PUSH1 0x6 SLOAD DUP4 PUSH2 0x92E SWAP2 SWAP1 PUSH2 0x15FF JUMP JUMPDEST PUSH2 0x938 SWAP2 SWAP1 PUSH2 0x1688 JUMP JUMPDEST SWAP1 POP PUSH1 0x0 PUSH1 0x3 PUSH1 0x0 DUP6 DUP2 MSTORE PUSH1 0x20 ADD SWAP1 DUP2 MSTORE PUSH1 0x20 ADD PUSH1 0x0 KECCAK256 PUSH1 0x0 ADD PUSH1 0x1 SWAP1 SLOAD SWAP1 PUSH2 0x100 EXP SWAP1 DIV PUSH20 0xFFFFFFFFFFFFFFFFFFFFFFFFFFFFFFFFFFFFFFFF AND SWAP1 POP DUP5 PUSH20 0xFFFFFFFFFFFFFFFFFFFFFFFFFFFFFFFFFFFFFFFF AND PUSH4 0xA9059CBB DUP3 DUP5 PUSH1 0x40 MLOAD DUP4 PUSH4 0xFFFFFFFF AND PUSH1 0xE0 SHL DUP2 MSTORE PUSH1 0x4 ADD PUSH2 0x9B0 SWAP3 SWAP2 SWAP1 PUSH2 0x1560 JUMP JUMPDEST PUSH1 0x20 PUSH1 0x40 MLOAD DUP1 DUP4 SUB DUP2 PUSH1 0x0 DUP8 GAS CALL ISZERO DUP1 ISZERO PUSH2 0x9CF JUMPI RETURNDATASIZE PUSH1 0x0 DUP1 RETURNDATACOPY RETURNDATASIZE PUSH1 0x0 REVERT JUMPDEST POP POP POP POP PUSH1 0x40 MLOAD RETURNDATASIZE PUSH1 0x1F NOT PUSH1 0x1F DUP3 ADD AND DUP3 ADD DUP1 PUSH1 0x40 MSTORE POP DUP2 ADD SWAP1 PUSH2 0x9F3 SWAP2 SWAP1 PUSH2 0x1429 JUMP JUMPDEST POP PUSH1 0x1 DUP1 DUP2 GT ISZERO PUSH2 0xA07 JUMPI PUSH2 0xA06 PUSH2 0xE7F JUMP JUMPDEST JUMPDEST PUSH1 0x3 PUSH1 0x0 DUP7 DUP2 MSTORE PUSH1 0x20 ADD SWAP1 DUP2 MSTORE PUSH1 0x20 ADD PUSH1 0x0 KECCAK256 PUSH1 0x0 ADD PUSH1 0x0 SWAP1 SLOAD SWAP1 PUSH2 0x100 EXP SWAP1 DIV PUSH1 0xFF AND PUSH1 0x1 DUP2 GT ISZERO PUSH2 0xA3D JUMPI PUSH2 0xA3C PUSH2 0xE7F JUMP JUMPDEST JUMPDEST EQ ISZERO PUSH2 0xAAF JUMPI DUP1 PUSH20 0xFFFFFFFFFFFFFFFFFFFFFFFFFFFFFFFFFFFFFFFF AND PUSH4 0xF340FA01 DUP7 PUSH1 0x40 MLOAD DUP3 PUSH4 0xFFFFFFFF AND PUSH1 0xE0 SHL DUP2 MSTORE PUSH1 0x4 ADD PUSH2 0xA7C SWAP2 SWAP1 PUSH2 0x11FA JUMP JUMPDEST PUSH1 0x0 PUSH1 0x40 MLOAD DUP1 DUP4 SUB DUP2 PUSH1 0x0 DUP8 DUP1 EXTCODESIZE ISZERO DUP1 ISZERO PUSH2 0xA96 JUMPI PUSH1 0x0 DUP1 REVERT JUMPDEST POP GAS CALL ISZERO DUP1 ISZERO PUSH2 0xAAA JUMPI RETURNDATASIZE PUSH1 0x0 DUP1 RETURNDATACOPY RETURNDATASIZE PUSH1 0x0 REVERT JUMPDEST POP POP POP POP JUMPDEST DUP2 PUSH1 0x4 PUSH1 0x0 DUP8 PUSH20 0xFFFFFFFFFFFFFFFFFFFFFFFFFFFFFFFFFFFFFFFF AND PUSH20 0xFFFFFFFFFFFFFFFFFFFFFFFFFFFFFFFFFFFFFFFF AND DUP2 MSTORE PUSH1 0x20 ADD SWAP1 DUP2 MSTORE PUSH1 0x20 ADD PUSH1 0x0 KECCAK256 PUSH1 0x0 DUP7 DUP2 MSTORE PUSH1 0x20 ADD SWAP1 DUP2 MSTORE PUSH1 0x20 ADD PUSH1 0x0 KECCAK256 PUSH1 0x0 DUP3 DUP3 SLOAD PUSH2 0xB0F SWAP2 SWAP1 PUSH2 0x16B9 JUMP JUMPDEST SWAP3 POP POP DUP2 SWAP1 SSTORE POP POP POP POP POP POP JUMP JUMPDEST PUSH1 0x0 DUP1 SLOAD SWAP1 PUSH2 0x100 EXP SWAP1 DIV PUSH20 0xFFFFFFFFFFFFFFFFFFFFFFFFFFFFFFFFFFFFFFFF AND PUSH20 0xFFFFFFFFFFFFFFFFFFFFFFFFFFFFFFFFFFFFFFFF AND CALLER PUSH20 0xFFFFFFFFFFFFFFFFFFFFFFFFFFFFFFFFFFFFFFFF AND EQ PUSH2 0xBAB JUMPI PUSH1 0x40 MLOAD PUSH32 0x8C379A000000000000000000000000000000000000000000000000000000000 DUP2 MSTORE PUSH1 0x4 ADD PUSH2 0xBA2 SWAP1 PUSH2 0x1261 JUMP JUMPDEST PUSH1 0x40 MLOAD DUP1 SWAP2 SUB SWAP1 REVERT JUMPDEST DUP1 PUSH1 0x3 PUSH1 0x0 PUSH1 0x5 SLOAD DUP2 MSTORE PUSH1 0x20 ADD SWAP1 DUP2 MSTORE PUSH1 0x20 ADD PUSH1 0x0 KECCAK256 DUP2 DUP2 PUSH2 0xBCD SWAP2 SWAP1 PUSH2 0x1C10 JUMP JUMPDEST SWAP1 POP POP PUSH1 0x5 PUSH1 0x0 DUP2 SLOAD DUP1 SWAP3 SWAP2 SWAP1 PUSH2 0xBE3 SWAP1 PUSH2 0x1485 JUMP JUMPDEST SWAP2 SWAP1 POP SSTORE POP POP JUMP JUMPDEST PUSH1 0x1 PUSH1 0x20 MSTORE DUP1 PUSH1 0x0 MSTORE PUSH1 0x40 PUSH1 0x0 KECCAK256 PUSH1 0x0 SWAP2 POP SWAP1 POP SLOAD DUP2 JUMP JUMPDEST PUSH1 0x0 DUP1 SLOAD SWAP1 PUSH2 0x100 EXP SWAP1 DIV PUSH20 0xFFFFFFFFFFFFFFFFFFFFFFFFFFFFFFFFFFFFFFFF AND DUP2 JUMP JUMPDEST PUSH1 0x4 PUSH1 0x20 MSTORE DUP2 PUSH1 0x0 MSTORE PUSH1 0x40 PUSH1 0x0 KECCAK256 PUSH1 0x20 MSTORE DUP1 PUSH1 0x0 MSTORE PUSH1 0x40 PUSH1 0x0 KECCAK256 PUSH1 0x0 SWAP2 POP SWAP2 POP POP SLOAD DUP2 JUMP JUMPDEST PUSH1 0x0 DUP2 GT PUSH2 0xC8F JUMPI PUSH1 0x40 MLOAD PUSH32 0x8C379A000000000000000000000000000000000000000000000000000000000 DUP2 MSTORE PUSH1 0x4 ADD PUSH2 0xC86 SWAP1 PUSH2 0x139A JUMP JUMPDEST PUSH1 0x40 MLOAD DUP1 SWAP2 SUB SWAP1 REVERT JUMPDEST PUSH1 0x0 PUSH1 0x2 PUSH1 0x0 CALLER PUSH20 0xFFFFFFFFFFFFFFFFFFFFFFFFFFFFFFFFFFFFFFFF AND PUSH20 0xFFFFFFFFFFFFFFFFFFFFFFFFFFFFFFFFFFFFFFFF AND DUP2 MSTORE PUSH1 0x20 ADD SWAP1 DUP2 MSTORE PUSH1 0x20 ADD PUSH1 0x0 KECCAK256 PUSH1 0x0 DUP5 PUSH20 0xFFFFFFFFFFFFFFFFFFFFFFFFFFFFFFFFFFFFFFFF AND PUSH20 0xFFFFFFFFFFFFFFFFFFFFFFFFFFFFFFFFFFFFFFFF AND DUP2 MSTORE PUSH1 0x20 ADD SWAP1 DUP2 MSTORE PUSH1 0x20 ADD PUSH1 0x0 KECCAK256 SWAP1 POP DUP2 DUP2 PUSH1 0x0 ADD SLOAD LT ISZERO PUSH2 0xD56 JUMPI PUSH1 0x40 MLOAD PUSH32 0x8C379A000000000000000000000000000000000000000000000000000000000 DUP2 MSTORE PUSH1 0x4 ADD PUSH2 0xD4D SWAP1 PUSH2 0x1C6A JUMP JUMPDEST PUSH1 0x40 MLOAD DUP1 SWAP2 SUB SWAP1 REVERT JUMPDEST DUP2 DUP2 PUSH1 0x0 ADD PUSH1 0x0 DUP3 DUP3 SLOAD PUSH2 0xD6A SWAP2 SWAP1 PUSH2 0x1589 JUMP JUMPDEST SWAP3 POP POP DUP2 SWAP1 SSTORE POP PUSH1 0x0 DUP2 PUSH1 0x0 ADD SLOAD EQ ISZERO PUSH2 0xE0D JUMPI PUSH1 0x1 DUP1 PUSH1 0x0 CALLER PUSH20 0xFFFFFFFFFFFFFFFFFFFFFFFFFFFFFFFFFFFFFFFF AND PUSH20 0xFFFFFFFFFFFFFFFFFFFFFFFFFFFFFFFFFFFFFFFF AND DUP2 MSTORE PUSH1 0x20 ADD SWAP1 DUP2 MSTORE PUSH1 0x20 ADD PUSH1 0x0 KECCAK256 SLOAD PUSH2 0xDC9 SWAP2 SWAP1 PUSH2 0x1589 JUMP JUMPDEST PUSH1 0x1 PUSH1 0x0 CALLER PUSH20 0xFFFFFFFFFFFFFFFFFFFFFFFFFFFFFFFFFFFFFFFF AND PUSH20 0xFFFFFFFFFFFFFFFFFFFFFFFFFFFFFFFFFFFFFFFF AND DUP2 MSTORE PUSH1 0x20 ADD SWAP1 DUP2 MSTORE PUSH1 0x20 ADD PUSH1 0x0 KECCAK256 DUP2 SWAP1 SSTORE POP JUMPDEST POP POP POP JUMP JUMPDEST PUSH1 0x0 DUP1 REVERT JUMPDEST PUSH1 0x0 DUP1 REVERT JUMPDEST PUSH1 0x0 DUP2 SWAP1 POP SWAP2 SWAP1 POP JUMP JUMPDEST PUSH2 0xE2F DUP2 PUSH2 0xE1C JUMP JUMPDEST DUP2 EQ PUSH2 0xE3A JUMPI PUSH1 0x0 DUP1 REVERT JUMPDEST POP JUMP JUMPDEST PUSH1 0x0 DUP2 CALLDATALOAD SWAP1 POP PUSH2 0xE4C DUP2 PUSH2 0xE26 JUMP JUMPDEST SWAP3 SWAP2 POP POP JUMP JUMPDEST PUSH1 0x0 PUSH1 0x20 DUP3 DUP5 SUB SLT ISZERO PUSH2 0xE68 JUMPI PUSH2 0xE67 PUSH2 0xE12 JUMP JUMPDEST JUMPDEST PUSH1 0x0 PUSH2 0xE76 DUP5 DUP3 DUP6 ADD PUSH2 0xE3D JUMP JUMPDEST SWAP2 POP POP SWAP3 SWAP2 POP POP JUMP JUMPDEST PUSH32 0x4E487B7100000000000000000000000000000000000000000000000000000000 PUSH1 0x0 MSTORE PUSH1 0x21 PUSH1 0x4 MSTORE PUSH1 0x24 PUSH1 0x0 REVERT JUMPDEST PUSH1 0x2 DUP2 LT PUSH2 0xEBF JUMPI PUSH2 0xEBE PUSH2 0xE7F JUMP JUMPDEST JUMPDEST POP JUMP JUMPDEST PUSH1 0x0 DUP2 SWAP1 POP PUSH2 0xED0 DUP3 PUSH2 0xEAE JUMP JUMPDEST SWAP2 SWAP1 POP JUMP JUMPDEST PUSH1 0x0 PUSH2 0xEE0 DUP3 PUSH2 0xEC2 JUMP JUMPDEST SWAP1 POP SWAP2 SWAP1 POP JUMP JUMPDEST PUSH2 0xEF0 DUP2 PUSH2 0xED5 JUMP JUMPDEST DUP3 MSTORE POP POP JUMP JUMPDEST PUSH1 0x0 PUSH20 0xFFFFFFFFFFFFFFFFFFFFFFFFFFFFFFFFFFFFFFFF DUP3 AND SWAP1 POP SWAP2 SWAP1 POP JUMP JUMPDEST PUSH1 0x0 PUSH2 0xF21 DUP3 PUSH2 0xEF6 JUMP JUMPDEST SWAP1 POP SWAP2 SWAP1 POP JUMP JUMPDEST PUSH2 0xF31 DUP2 PUSH2 0xF16 JUMP JUMPDEST DUP3 MSTORE POP POP JUMP JUMPDEST PUSH1 0x0 DUP2 MLOAD SWAP1 POP SWAP2 SWAP1 POP JUMP JUMPDEST PUSH1 0x0 DUP3 DUP3 MSTORE PUSH1 0x20 DUP3 ADD SWAP1 POP SWAP3 SWAP2 POP POP JUMP JUMPDEST PUSH1 0x0 JUMPDEST DUP4 DUP2 LT ISZERO PUSH2 0xF71 JUMPI DUP1 DUP3 ADD MLOAD DUP2 DUP5 ADD MSTORE PUSH1 0x20 DUP2 ADD SWAP1 POP PUSH2 0xF56 JUMP JUMPDEST DUP4 DUP2 GT ISZERO PUSH2 0xF80 JUMPI PUSH1 0x0 DUP5 DUP5 ADD MSTORE JUMPDEST POP POP POP POP JUMP JUMPDEST PUSH1 0x0 PUSH1 0x1F NOT PUSH1 0x1F DUP4 ADD AND SWAP1 POP SWAP2 SWAP1 POP JUMP JUMPDEST PUSH1 0x0 PUSH2 0xFA2 DUP3 PUSH2 0xF37 JUMP JUMPDEST PUSH2 0xFAC DUP2 DUP6 PUSH2 0xF42 JUMP JUMPDEST SWAP4 POP PUSH2 0xFBC DUP2 DUP6 PUSH1 0x20 DUP7 ADD PUSH2 0xF53 JUMP JUMPDEST PUSH2 0xFC5 DUP2 PUSH2 0xF86 JUMP JUMPDEST DUP5 ADD SWAP2 POP POP SWAP3 SWAP2 POP POP JUMP JUMPDEST PUSH1 0x0 PUSH1 0x60 DUP3 ADD SWAP1 POP PUSH2 0xFE5 PUSH1 0x0 DUP4 ADD DUP7 PUSH2 0xEE7 JUMP JUMPDEST PUSH2 0xFF2 PUSH1 0x20 DUP4 ADD DUP6 PUSH2 0xF28 JUMP JUMPDEST DUP2 DUP2 SUB PUSH1 0x40 DUP4 ADD MSTORE PUSH2 0x1004 DUP2 DUP5 PUSH2 0xF97 JUMP JUMPDEST SWAP1 POP SWAP5 SWAP4 POP POP POP POP JUMP JUMPDEST PUSH2 0x1017 DUP2 PUSH2 0xF16 JUMP JUMPDEST DUP2 EQ PUSH2 0x1022 JUMPI PUSH1 0x0 DUP1 REVERT JUMPDEST POP JUMP JUMPDEST PUSH1 0x0 DUP2 CALLDATALOAD SWAP1 POP PUSH2 0x1034 DUP2 PUSH2 0x100E JUMP JUMPDEST SWAP3 SWAP2 POP POP JUMP JUMPDEST PUSH1 0x0 DUP1 PUSH1 0x40 DUP4 DUP6 SUB SLT ISZERO PUSH2 0x1051 JUMPI PUSH2 0x1050 PUSH2 0xE12 JUMP JUMPDEST JUMPDEST PUSH1 0x0 PUSH2 0x105F DUP6 DUP3 DUP7 ADD PUSH2 0x1025 JUMP JUMPDEST SWAP3 POP POP PUSH1 0x20 PUSH2 0x1070 DUP6 DUP3 DUP7 ADD PUSH2 0x1025 JUMP JUMPDEST SWAP2 POP POP SWAP3 POP SWAP3 SWAP1 POP JUMP JUMPDEST PUSH2 0x1083 DUP2 PUSH2 0xE1C JUMP JUMPDEST DUP3 MSTORE POP POP JUMP JUMPDEST PUSH1 0x0 PUSH1 0x40 DUP3 ADD SWAP1 POP PUSH2 0x109E PUSH1 0x0 DUP4 ADD DUP6 PUSH2 0x107A JUMP JUMPDEST PUSH2 0x10AB PUSH1 0x20 DUP4 ADD DUP5 PUSH2 0x107A JUMP JUMPDEST SWAP4 SWAP3 POP POP POP JUMP JUMPDEST PUSH1 0x0 DUP1 PUSH1 0x40 DUP4 DUP6 SUB SLT ISZERO PUSH2 0x10C9 JUMPI PUSH2 0x10C8 PUSH2 0xE12 JUMP JUMPDEST JUMPDEST PUSH1 0x0 PUSH2 0x10D7 DUP6 DUP3 DUP7 ADD PUSH2 0x1025 JUMP JUMPDEST SWAP3 POP POP PUSH1 0x20 PUSH2 0x10E8 DUP6 DUP3 DUP7 ADD PUSH2 0xE3D JUMP JUMPDEST SWAP2 POP POP SWAP3 POP SWAP3 SWAP1 POP JUMP JUMPDEST PUSH1 0x0 PUSH1 0x20 DUP3 ADD SWAP1 POP PUSH2 0x1107 PUSH1 0x0 DUP4 ADD DUP5 PUSH2 0x107A JUMP JUMPDEST SWAP3 SWAP2 POP POP JUMP JUMPDEST PUSH1 0x0 DUP1 PUSH1 0x0 PUSH1 0x60 DUP5 DUP7 SUB SLT ISZERO PUSH2 0x1126 JUMPI PUSH2 0x1125 PUSH2 0xE12 JUMP JUMPDEST JUMPDEST PUSH1 0x0 PUSH2 0x1134 DUP7 DUP3 DUP8 ADD PUSH2 0x1025 JUMP JUMPDEST SWAP4 POP POP PUSH1 0x20 PUSH2 0x1145 DUP7 DUP3 DUP8 ADD PUSH2 0xE3D JUMP JUMPDEST SWAP3 POP POP PUSH1 0x40 PUSH2 0x1156 DUP7 DUP3 DUP8 ADD PUSH2 0xE3D JUMP JUMPDEST SWAP2 POP POP SWAP3 POP SWAP3 POP SWAP3 JUMP JUMPDEST PUSH1 0x0 DUP1 REVERT JUMPDEST PUSH1 0x0 PUSH1 0x60 DUP3 DUP5 SUB SLT ISZERO PUSH2 0x117B JUMPI PUSH2 0x117A PUSH2 0x1160 JUMP JUMPDEST JUMPDEST DUP2 SWAP1 POP SWAP3 SWAP2 POP POP JUMP JUMPDEST PUSH1 0x0 PUSH1 0x20 DUP3 DUP5 SUB SLT ISZERO PUSH2 0x119A JUMPI PUSH2 0x1199 PUSH2 0xE12 JUMP JUMPDEST JUMPDEST PUSH1 0x0 DUP3 ADD CALLDATALOAD PUSH8 0xFFFFFFFFFFFFFFFF DUP2 GT ISZERO PUSH2 0x11B8 JUMPI PUSH2 0x11B7 PUSH2 0xE17 JUMP JUMPDEST JUMPDEST PUSH2 0x11C4 DUP5 DUP3 DUP6 ADD PUSH2 0x1165 JUMP JUMPDEST SWAP2 POP POP SWAP3 SWAP2 POP POP JUMP JUMPDEST PUSH1 0x0 PUSH1 0x20 DUP3 DUP5 SUB SLT ISZERO PUSH2 0x11E3 JUMPI PUSH2 0x11E2 PUSH2 0xE12 JUMP JUMPDEST JUMPDEST PUSH1 0x0 PUSH2 0x11F1 DUP5 DUP3 DUP6 ADD PUSH2 0x1025 JUMP JUMPDEST SWAP2 POP POP SWAP3 SWAP2 POP POP JUMP JUMPDEST PUSH1 0x0 PUSH1 0x20 DUP3 ADD SWAP1 POP PUSH2 0x120F PUSH1 0x0 DUP4 ADD DUP5 PUSH2 0xF28 JUMP JUMPDEST SWAP3 SWAP2 POP POP JUMP JUMPDEST PUSH32 0x4F6E6C7920746865206F776E65722063616E2061646A75737420726174696F73 PUSH1 0x0 DUP3 ADD MSTORE POP JUMP JUMPDEST PUSH1 0x0 PUSH2 0x124B PUSH1 0x20 DUP4 PUSH2 0xF42 JUMP JUMPDEST SWAP2 POP PUSH2 0x1256 DUP3 PUSH2 0x1215 JUMP JUMPDEST PUSH1 0x20 DUP3 ADD SWAP1 POP SWAP2 SWAP1 POP JUMP JUMPDEST PUSH1 0x0 PUSH1 0x20 DUP3 ADD SWAP1 POP DUP2 DUP2 SUB PUSH1 0x0 DUP4 ADD MSTORE PUSH2 0x127A DUP2 PUSH2 0x123E JUMP JUMPDEST SWAP1 POP SWAP2 SWAP1 POP JUMP JUMPDEST PUSH32 0x526174696F2063616E6E6F742065786365656420313030250000000000000000 PUSH1 0x0 DUP3 ADD MSTORE POP JUMP JUMPDEST PUSH1 0x0 PUSH2 0x12B7 PUSH1 0x18 DUP4 PUSH2 0xF42 JUMP JUMPDEST SWAP2 POP PUSH2 0x12C2 DUP3 PUSH2 0x1281 JUMP JUMPDEST PUSH1 0x20 DUP3 ADD SWAP1 POP SWAP2 SWAP1 POP JUMP JUMPDEST PUSH1 0x0 PUSH1 0x20 DUP3 ADD SWAP1 POP DUP2 DUP2 SUB PUSH1 0x0 DUP4 ADD MSTORE PUSH2 0x12E6 DUP2 PUSH2 0x12AA JUMP JUMPDEST SWAP1 POP SWAP2 SWAP1 POP JUMP JUMPDEST PUSH32 0x4E487B7100000000000000000000000000000000000000000000000000000000 PUSH1 0x0 MSTORE PUSH1 0x22 PUSH1 0x4 MSTORE PUSH1 0x24 PUSH1 0x0 REVERT JUMPDEST PUSH1 0x0 PUSH1 0x2 DUP3 DIV SWAP1 POP PUSH1 0x1 DUP3 AND DUP1 PUSH2 0x1334 JUMPI PUSH1 0x7F DUP3 AND SWAP2 POP JUMPDEST PUSH1 0x20 DUP3 LT DUP2 EQ ISZERO PUSH2 0x1348 JUMPI PUSH2 0x1347 PUSH2 0x12ED JUMP JUMPDEST JUMPDEST POP SWAP2 SWAP1 POP JUMP JUMPDEST PUSH32 0x416D6F756E74206D7573742062652067726561746572207468616E2030000000 PUSH1 0x0 DUP3 ADD MSTORE POP JUMP JUMPDEST PUSH1 0x0 PUSH2 0x1384 PUSH1 0x1D DUP4 PUSH2 0xF42 JUMP JUMPDEST SWAP2 POP PUSH2 0x138F DUP3 PUSH2 0x134E JUMP JUMPDEST PUSH1 0x20 DUP3 ADD SWAP1 POP SWAP2 SWAP1 POP JUMP JUMPDEST PUSH1 0x0 PUSH1 0x20 DUP3 ADD SWAP1 POP DUP2 DUP2 SUB PUSH1 0x0 DUP4 ADD MSTORE PUSH2 0x13B3 DUP2 PUSH2 0x1377 JUMP JUMPDEST SWAP1 POP SWAP2 SWAP1 POP JUMP JUMPDEST PUSH1 0x0 PUSH1 0x60 DUP3 ADD SWAP1 POP PUSH2 0x13CF PUSH1 0x0 DUP4 ADD DUP7 PUSH2 0xF28 JUMP JUMPDEST PUSH2 0x13DC PUSH1 0x20 DUP4 ADD DUP6 PUSH2 0xF28 JUMP JUMPDEST PUSH2 0x13E9 PUSH1 0x40 DUP4 ADD DUP5 PUSH2 0x107A JUMP JUMPDEST SWAP5 SWAP4 POP POP POP POP JUMP JUMPDEST PUSH1 0x0 DUP2 ISZERO ISZERO SWAP1 POP SWAP2 SWAP1 POP JUMP JUMPDEST PUSH2 0x1406 DUP2 PUSH2 0x13F1 JUMP JUMPDEST DUP2 EQ PUSH2 0x1411 JUMPI PUSH1 0x0 DUP1 REVERT JUMPDEST POP JUMP JUMPDEST PUSH1 0x0 DUP2 MLOAD SWAP1 POP PUSH2 0x1423 DUP2 PUSH2 0x13FD JUMP JUMPDEST SWAP3 SWAP2 POP POP JUMP JUMPDEST PUSH1 0x0 PUSH1 0x20 DUP3 DUP5 SUB SLT ISZERO PUSH2 0x143F JUMPI PUSH2 0x143E PUSH2 0xE12 JUMP JUMPDEST JUMPDEST PUSH1 0x0 PUSH2 0x144D DUP5 DUP3 DUP6 ADD PUSH2 0x1414 JUMP JUMPDEST SWAP2 POP POP SWAP3 SWAP2 POP POP JUMP JUMPDEST PUSH32 0x4E487B7100000000000000000000000000000000000000000000000000000000 PUSH1 0x0 MSTORE PUSH1 0x11 PUSH1 0x4 MSTORE PUSH1 0x24 PUSH1 0x0 REVERT JUMPDEST PUSH1 0x0 PUSH2 0x1490 DUP3 PUSH2 0xE1C JUMP JUMPDEST SWAP2 POP PUSH32 0xFFFFFFFFFFFFFFFFFFFFFFFFFFFFFFFFFFFFFFFFFFFFFFFFFFFFFFFFFFFFFFFF DUP3 EQ ISZERO PUSH2 0x14C3 JUMPI PUSH2 0x14C2 PUSH2 0x1456 JUMP JUMPDEST JUMPDEST PUSH1 0x1 DUP3 ADD SWAP1 POP SWAP2 SWAP1 POP JUMP JUMPDEST PUSH32 0x4F6E6C7920746865206F776E65722063616E20616C6C6F636174652066756E64 PUSH1 0x0 DUP3 ADD MSTORE PUSH32 0x7300000000000000000000000000000000000000000000000000000000000000 PUSH1 0x20 DUP3 ADD MSTORE POP JUMP JUMPDEST PUSH1 0x0 PUSH2 0x152A PUSH1 0x21 DUP4 PUSH2 0xF42 JUMP JUMPDEST SWAP2 POP PUSH2 0x1535 DUP3 PUSH2 0x14CE JUMP JUMPDEST PUSH1 0x40 DUP3 ADD SWAP1 POP SWAP2 SWAP1 POP JUMP JUMPDEST PUSH1 0x0 PUSH1 0x20 DUP3 ADD SWAP1 POP DUP2 DUP2 SUB PUSH1 0x0 DUP4 ADD MSTORE PUSH2 0x1559 DUP2 PUSH2 0x151D JUMP JUMPDEST SWAP1 POP SWAP2 SWAP1 POP JUMP JUMPDEST PUSH1 0x0 PUSH1 0x40 DUP3 ADD SWAP1 POP PUSH2 0x1575 PUSH1 0x0 DUP4 ADD DUP6 PUSH2 0xF28 JUMP JUMPDEST PUSH2 0x1582 PUSH1 0x20 DUP4 ADD DUP5 PUSH2 0x107A JUMP JUMPDEST SWAP4 SWAP3 POP POP POP JUMP JUMPDEST PUSH1 0x0 PUSH2 0x1594 DUP3 PUSH2 0xE1C JUMP JUMPDEST SWAP2 POP PUSH2 0x159F DUP4 PUSH2 0xE1C JUMP JUMPDEST SWAP3 POP DUP3 DUP3 LT ISZERO PUSH2 0x15B2 JUMPI PUSH2 0x15B1 PUSH2 0x1456 JUMP JUMPDEST JUMPDEST DUP3 DUP3 SUB SWAP1 POP SWAP3 SWAP2 POP POP JUMP JUMPDEST PUSH1 0x0 DUP2 MLOAD SWAP1 POP PUSH2 0x15CC DUP2 PUSH2 0xE26 JUMP JUMPDEST SWAP3 SWAP2 POP POP JUMP JUMPDEST PUSH1 0x0 PUSH1 0x20 DUP3 DUP5 SUB SLT ISZERO PUSH2 0x15E8 JUMPI PUSH2 0x15E7 PUSH2 0xE12 JUMP JUMPDEST JUMPDEST PUSH1 0x0 PUSH2 0x15F6 DUP5 DUP3 DUP6 ADD PUSH2 0x15BD JUMP JUMPDEST SWAP2 POP POP SWAP3 SWAP2 POP POP JUMP JUMPDEST PUSH1 0x0 PUSH2 0x160A DUP3 PUSH2 0xE1C JUMP JUMPDEST SWAP2 POP PUSH2 0x1615 DUP4 PUSH2 0xE1C JUMP JUMPDEST SWAP3 POP DUP2 PUSH32 0xFFFFFFFFFFFFFFFFFFFFFFFFFFFFFFFFFFFFFFFFFFFFFFFFFFFFFFFFFFFFFFFF DIV DUP4 GT DUP3 ISZERO ISZERO AND ISZERO PUSH2 0x164E JUMPI PUSH2 0x164D PUSH2 0x1456 JUMP JUMPDEST JUMPDEST DUP3 DUP3 MUL SWAP1 POP SWAP3 SWAP2 POP POP JUMP JUMPDEST PUSH32 0x4E487B7100000000000000000000000000000000000000000000000000000000 PUSH1 0x0 MSTORE PUSH1 0x12 PUSH1 0x4 MSTORE PUSH1 0x24 PUSH1 0x0 REVERT JUMPDEST PUSH1 0x0 PUSH2 0x1693 DUP3 PUSH2 0xE1C JUMP JUMPDEST SWAP2 POP PUSH2 0x169E DUP4 PUSH2 0xE1C JUMP JUMPDEST SWAP3 POP DUP3 PUSH2 0x16AE JUMPI PUSH2 0x16AD PUSH2 0x1659 JUMP JUMPDEST JUMPDEST DUP3 DUP3 DIV SWAP1 POP SWAP3 SWAP2 POP POP JUMP JUMPDEST PUSH1 0x0 PUSH2 0x16C4 DUP3 PUSH2 0xE1C JUMP JUMPDEST SWAP2 POP PUSH2 0x16CF DUP4 PUSH2 0xE1C JUMP JUMPDEST SWAP3 POP DUP3 PUSH32 0xFFFFFFFFFFFFFFFFFFFFFFFFFFFFFFFFFFFFFFFFFFFFFFFFFFFFFFFFFFFFFFFF SUB DUP3 GT ISZERO PUSH2 0x1704 JUMPI PUSH2 0x1703 PUSH2 0x1456 JUMP JUMPDEST JUMPDEST DUP3 DUP3 ADD SWAP1 POP SWAP3 SWAP2 POP POP JUMP JUMPDEST PUSH1 0x2 DUP2 LT PUSH2 0x171C JUMPI PUSH1 0x0 DUP1 REVERT JUMPDEST POP JUMP JUMPDEST PUSH1 0x0 DUP2 CALLDATALOAD PUSH2 0x172C DUP2 PUSH2 0x170F JUMP JUMPDEST DUP1 SWAP2 POP POP SWAP2 SWAP1 POP JUMP JUMPDEST PUSH1 0x0 DUP2 PUSH1 0x0 SHL SWAP1 POP SWAP2 SWAP1 POP JUMP JUMPDEST PUSH1 0x0 PUSH1 0xFF PUSH2 0x174F DUP5 PUSH2 0x1735 JUMP JUMPDEST SWAP4 POP DUP1 NOT DUP4 AND SWAP3 POP DUP1 DUP5 AND DUP4 OR SWAP2 POP POP SWAP3 SWAP2 POP POP JUMP JUMPDEST PUSH1 0x0 PUSH2 0x1770 DUP3 PUSH2 0xEC2 JUMP JUMPDEST SWAP1 POP SWAP2 SWAP1 POP JUMP JUMPDEST PUSH1 0x0 DUP2 SWAP1 POP SWAP2 SWAP1 POP JUMP JUMPDEST PUSH2 0x178A DUP3 PUSH2 0x1765 JUMP JUMPDEST PUSH2 0x179D PUSH2 0x1796 DUP3 PUSH2 0x1777 JUMP JUMPDEST DUP4 SLOAD PUSH2 0x1742 JUMP JUMPDEST DUP3 SSTORE POP POP POP JUMP JUMPDEST PUSH1 0x0 DUP2 CALLDATALOAD PUSH2 0x17B1 DUP2 PUSH2 0x100E JUMP JUMPDEST DUP1 SWAP2 POP POP SWAP2 SWAP1 POP JUMP JUMPDEST PUSH1 0x0 DUP2 PUSH1 0x8 SHL SWAP1 POP SWAP2 SWAP1 POP JUMP JUMPDEST PUSH1 0x0 PUSH21 0xFFFFFFFFFFFFFFFFFFFFFFFFFFFFFFFFFFFFFFFF00 PUSH2 0x17E8 DUP5 PUSH2 0x17BA JUMP JUMPDEST SWAP4 POP DUP1 NOT DUP4 AND SWAP3 POP DUP1 DUP5 AND DUP4 OR SWAP2 POP POP SWAP3 SWAP2 POP POP JUMP JUMPDEST PUSH1 0x0 DUP2 SWAP1 POP SWAP2 SWAP1 POP JUMP JUMPDEST PUSH1 0x0 PUSH2 0x1823 PUSH2 0x181E PUSH2 0x1819 DUP5 PUSH2 0xEF6 JUMP JUMPDEST PUSH2 0x17FE JUMP JUMPDEST PUSH2 0xEF6 JUMP JUMPDEST SWAP1 POP SWAP2 SWAP1 POP JUMP JUMPDEST PUSH1 0x0 PUSH2 0x1835 DUP3 PUSH2 0x1808 JUMP JUMPDEST SWAP1 POP SWAP2 SWAP1 POP JUMP JUMPDEST PUSH1 0x0 PUSH2 0x1847 DUP3 PUSH2 0x182A JUMP JUMPDEST SWAP1 POP SWAP2 SWAP1 POP JUMP JUMPDEST PUSH1 0x0 DUP2 SWAP1 POP SWAP2 SWAP1 POP JUMP JUMPDEST PUSH2 0x1861 DUP3 PUSH2 0x183C JUMP JUMPDEST PUSH2 0x1874 PUSH2 0x186D DUP3 PUSH2 0x184E JUMP JUMPDEST DUP4 SLOAD PUSH2 0x17C7 JUMP JUMPDEST DUP3 SSTORE POP POP POP JUMP JUMPDEST PUSH1 0x0 DUP1 REVERT JUMPDEST PUSH1 0x0 DUP1 REVERT JUMPDEST PUSH1 0x0 DUP1 REVERT JUMPDEST PUSH1 0x0 DUP1 DUP4 CALLDATALOAD PUSH1 0x1 PUSH1 0x20 SUB DUP5 CALLDATASIZE SUB SUB DUP2 SLT PUSH2 0x18A7 JUMPI PUSH2 0x18A6 PUSH2 0x187B JUMP JUMPDEST JUMPDEST DUP1 DUP5 ADD SWAP3 POP DUP3 CALLDATALOAD SWAP2 POP PUSH8 0xFFFFFFFFFFFFFFFF DUP3 GT ISZERO PUSH2 0x18C9 JUMPI PUSH2 0x18C8 PUSH2 0x1880 JUMP JUMPDEST JUMPDEST PUSH1 0x20 DUP4 ADD SWAP3 POP PUSH1 0x1 DUP3 MUL CALLDATASIZE SUB DUP4 SGT ISZERO PUSH2 0x18E5 JUMPI PUSH2 0x18E4 PUSH2 0x1885 JUMP JUMPDEST JUMPDEST POP SWAP3 POP SWAP3 SWAP1 POP JUMP JUMPDEST PUSH1 0x0 DUP3 SWAP1 POP SWAP3 SWAP2 POP POP JUMP JUMPDEST PUSH32 0x4E487B7100000000000000000000000000000000000000000000000000000000 PUSH1 0x0 MSTORE PUSH1 0x41 PUSH1 0x4 MSTORE PUSH1 0x24 PUSH1 0x0 REVERT JUMPDEST PUSH1 0x0 DUP2 SWAP1 POP DUP2 PUSH1 0x0 MSTORE PUSH1 0x20 PUSH1 0x0 KECCAK256 SWAP1 POP SWAP2 SWAP1 POP JUMP JUMPDEST PUSH1 0x0 PUSH1 0x20 PUSH1 0x1F DUP4 ADD DIV SWAP1 POP SWAP2 SWAP1 POP JUMP JUMPDEST PUSH1 0x0 DUP3 DUP3 SHL SWAP1 POP SWAP3 SWAP2 POP POP JUMP JUMPDEST PUSH1 0x0 PUSH1 0x8 DUP4 MUL PUSH2 0x1989 PUSH32 0xFFFFFFFFFFFFFFFFFFFFFFFFFFFFFFFFFFFFFFFFFFFFFFFFFFFFFFFFFFFFFFFF DUP3 PUSH2 0x194C JUMP JUMPDEST PUSH2 0x1993 DUP7 DUP4 PUSH2 0x194C JUMP JUMPDEST SWAP6 POP DUP1 NOT DUP5 AND SWAP4 POP DUP1 DUP7 AND DUP5 OR SWAP3 POP POP POP SWAP4 SWAP3 POP POP POP JUMP JUMPDEST PUSH1 0x0 PUSH2 0x19C6 PUSH2 0x19C1 PUSH2 0x19BC DUP5 PUSH2 0xE1C JUMP JUMPDEST PUSH2 0x17FE JUMP JUMPDEST PUSH2 0xE1C JUMP JUMPDEST SWAP1 POP SWAP2 SWAP1 POP JUMP JUMPDEST PUSH1 0x0 DUP2 SWAP1 POP SWAP2 SWAP1 POP JUMP JUMPDEST PUSH2 0x19E0 DUP4 PUSH2 0x19AB JUMP JUMPDEST PUSH2 0x19F4 PUSH2 0x19EC DUP3 PUSH2 0x19CD JUMP JUMPDEST DUP5 DUP5 SLOAD PUSH2 0x1959 JUMP JUMPDEST DUP3 SSTORE POP POP POP POP JUMP JUMPDEST PUSH1 0x0 SWAP1 JUMP JUMPDEST PUSH2 0x1A09 PUSH2 0x19FC JUMP JUMPDEST PUSH2 0x1A14 DUP2 DUP5 DUP5 PUSH2 0x19D7 JUMP JUMPDEST POP POP POP JUMP JUMPDEST JUMPDEST DUP2 DUP2 LT ISZERO PUSH2 0x1A38 JUMPI PUSH2 0x1A2D PUSH1 0x0 DUP3 PUSH2 0x1A01 JUMP JUMPDEST PUSH1 0x1 DUP2 ADD SWAP1 POP PUSH2 0x1A1A JUMP JUMPDEST POP POP JUMP JUMPDEST PUSH1 0x1F DUP3 GT ISZERO PUSH2 0x1A7D JUMPI PUSH2 0x1A4E DUP2 PUSH2 0x1927 JUMP JUMPDEST PUSH2 0x1A57 DUP5 PUSH2 0x193C JUMP JUMPDEST DUP2 ADD PUSH1 0x20 DUP6 LT ISZERO PUSH2 0x1A66 JUMPI DUP2 SWAP1 POP JUMPDEST PUSH2 0x1A7A PUSH2 0x1A72 DUP6 PUSH2 0x193C JUMP JUMPDEST DUP4 ADD DUP3 PUSH2 0x1A19 JUMP JUMPDEST POP POP JUMPDEST POP POP POP JUMP JUMPDEST PUSH1 0x0 DUP3 DUP3 SHR SWAP1 POP SWAP3 SWAP2 POP POP JUMP JUMPDEST PUSH1 0x0 PUSH2 0x1AA0 PUSH1 0x0 NOT DUP5 PUSH1 0x8 MUL PUSH2 0x1A82 JUMP JUMPDEST NOT DUP1 DUP4 AND SWAP2 POP POP SWAP3 SWAP2 POP POP JUMP JUMPDEST PUSH1 0x0 PUSH2 0x1AB9 DUP4 DUP4 PUSH2 0x1A8F JUMP JUMPDEST SWAP2 POP DUP3 PUSH1 0x2 MUL DUP3 OR SWAP1 POP SWAP3 SWAP2 POP POP JUMP JUMPDEST PUSH2 0x1AD3 DUP4 DUP4 PUSH2 0x18ED JUMP JUMPDEST PUSH8 0xFFFFFFFFFFFFFFFF DUP2 GT ISZERO PUSH2 0x1AEC JUMPI PUSH2 0x1AEB PUSH2 0x18F8 JUMP JUMPDEST JUMPDEST PUSH2 0x1AF6 DUP3 SLOAD PUSH2 0x131C JUMP JUMPDEST PUSH2 0x1B01 DUP3 DUP3 DUP6 PUSH2 0x1A3C JUMP JUMPDEST PUSH1 0x0 PUSH1 0x1F DUP4 GT PUSH1 0x1 DUP2 EQ PUSH2 0x1B30 JUMPI PUSH1 0x0 DUP5 ISZERO PUSH2 0x1B1E JUMPI DUP3 DUP8 ADD CALLDATALOAD SWAP1 POP JUMPDEST PUSH2 0x1B28 DUP6 DUP3 PUSH2 0x1AAD JUMP JUMPDEST DUP7 SSTORE POP PUSH2 0x1B90 JUMP JUMPDEST PUSH1 0x1F NOT DUP5 AND PUSH2 0x1B3E DUP7 PUSH2 0x1927 JUMP JUMPDEST PUSH1 0x0 JUMPDEST DUP3 DUP2 LT ISZERO PUSH2 0x1B66 JUMPI DUP5 DUP10 ADD CALLDATALOAD DUP3 SSTORE PUSH1 0x1 DUP3 ADD SWAP2 POP PUSH1 0x20 DUP6 ADD SWAP5 POP PUSH1 0x20 DUP2 ADD SWAP1 POP PUSH2 0x1B41 JUMP JUMPDEST DUP7 DUP4 LT ISZERO PUSH2 0x1B83 JUMPI DUP5 DUP10 ADD CALLDATALOAD PUSH2 0x1B7F PUSH1 0x1F DUP10 AND DUP3 PUSH2 0x1A8F JUMP JUMPDEST DUP4 SSTORE POP JUMPDEST PUSH1 0x1 PUSH1 0x2 DUP9 MUL ADD DUP9 SSTORE POP POP POP JUMPDEST POP POP POP POP POP POP POP JUMP JUMPDEST PUSH2 0x1BA4 DUP4 DUP4 DUP4 PUSH2 0x1AC9 JUMP JUMPDEST POP POP POP JUMP JUMPDEST PUSH1 0x0 DUP2 ADD PUSH1 0x0 DUP4 ADD DUP1 PUSH2 0x1BBB DUP2 PUSH2 0x171F JUMP JUMPDEST SWAP1 POP PUSH2 0x1BC7 DUP2 DUP5 PUSH2 0x1781 JUMP JUMPDEST POP POP POP PUSH1 0x0 DUP2 ADD PUSH1 0x20 DUP4 ADD DUP1 PUSH2 0x1BDC DUP2 PUSH2 0x17A4 JUMP JUMPDEST SWAP1 POP PUSH2 0x1BE8 DUP2 DUP5 PUSH2 0x1858 JUMP JUMPDEST POP POP POP PUSH1 0x1 DUP2 ADD PUSH1 0x40 DUP4 ADD PUSH2 0x1BFD DUP2 DUP6 PUSH2 0x188A JUMP JUMPDEST PUSH2 0x1C08 DUP2 DUP4 DUP7 PUSH2 0x1B99 JUMP JUMPDEST POP POP POP POP POP POP JUMP JUMPDEST PUSH2 0x1C1A DUP3 DUP3 PUSH2 0x1BA9 JUMP JUMPDEST POP POP JUMP JUMPDEST PUSH32 0x45786365656473206465706F736974656420616D6F756E740000000000000000 PUSH1 0x0 DUP3 ADD MSTORE POP JUMP JUMPDEST PUSH1 0x0 PUSH2 0x1C54 PUSH1 0x18 DUP4 PUSH2 0xF42 JUMP JUMPDEST SWAP2 POP PUSH2 0x1C5F DUP3 PUSH2 0x1C1E JUMP JUMPDEST PUSH1 0x20 DUP3 ADD SWAP1 POP SWAP2 SWAP1 POP JUMP JUMPDEST PUSH1 0x0 PUSH1 0x20 DUP3 ADD SWAP1 POP DUP2 DUP2 SUB PUSH1 0x0 DUP4 ADD MSTORE PUSH2 0x1C83 DUP2 PUSH2 0x1C47 JUMP JUMPDEST SWAP1 POP SWAP2 SWAP1 POP JUMP INVALID LOG2 PUSH5 0x6970667358 0x22 SLT KECCAK256 CALLCODE PUSH26 0x4433BE31ED546A9FDB7B115973C0D1CB61523427154A6EA61280 SWAP4 LOG0 DIV PUSH19 0x64736F6C634300080A00330000000000000000 "
		},
		"gasEstimates": {
			"creation": {
				"codeDepositCost": "1472000",
				"executionCost": "infinite",
				"totalCost": "infinite"
			},
			"external": {
				"AddingProtocol((uint8,address,string))": "infinite",
				"Invests(address,uint256)": "infinite",
				"ProtocolsInvestment(uint256)": "infinite",
				"WithdrawFromProtocol(address,uint256,uint256)": "infinite",
				"adjustRatio(uint256)": "24714",
				"allocateFundsInvest(address,uint256)": "infinite",
				"deposit(address,uint256)": "infinite",
				"owner()": "2577",
				"protocolRatio()": "2518",
				"userDepositIndexs(address)": "2858",
				"userDeposits(address,address)": "infinite",
				"withdraw(address,uint256)": "infinite"
			},
			"internal": {
				"getDepositTokens(address,uint256)": "infinite"
			}
		},
		"methodIdentifiers": {
			"AddingProtocol((uint8,address,string))": "7da5af32",
			"Invests(address,uint256)": "9cec004d",
			"ProtocolsInvestment(uint256)": "3aa4c538",
			"WithdrawFromProtocol(address,uint256,uint256)": "715ec5da",
			"adjustRatio(uint256)": "37a7a334",
			"allocateFundsInvest(address,uint256)": "7690cbeb",
			"deposit(address,uint256)": "47e7ef24",
			"owner()": "8da5cb5b",
			"protocolRatio()": "61d92f2c",
			"userDepositIndexs(address)": "83c36433",
			"userDeposits(address,address)": "436d8039",
			"withdraw(address,uint256)": "f3fef3a3"
		}
	},
	"abi": [
		{
			"inputs": [
				{
					"internalType": "uint256",
					"name": "initialRatio",
					"type": "uint256"
				}
			],
			"stateMutability": "nonpayable",
			"type": "constructor"
		},
		{
			"inputs": [
				{
					"components": [
						{
							"internalType": "enum TreasurySmartContract.ProtocolType",
							"name": "Type",
							"type": "uint8"
						},
						{
							"internalType": "address",
							"name": "Gateway",
							"type": "address"
						},
						{
							"internalType": "string",
							"name": "ProtocolName",
							"type": "string"
						}
					],
					"internalType": "struct TreasurySmartContract.Protocol",
					"name": "_protocol",
					"type": "tuple"
				}
			],
			"name": "AddingProtocol",
			"outputs": [],
			"stateMutability": "nonpayable",
			"type": "function"
		},
		{
			"inputs": [
				{
					"internalType": "address",
					"name": "",
					"type": "address"
				},
				{
					"internalType": "uint256",
					"name": "",
					"type": "uint256"
				}
			],
			"name": "Invests",
			"outputs": [
				{
					"internalType": "uint256",
					"name": "",
					"type": "uint256"
				}
			],
			"stateMutability": "view",
			"type": "function"
		},
		{
			"inputs": [
				{
					"internalType": "uint256",
					"name": "",
					"type": "uint256"
				}
			],
			"name": "ProtocolsInvestment",
			"outputs": [
				{
					"internalType": "enum TreasurySmartContract.ProtocolType",
					"name": "Type",
					"type": "uint8"
				},
				{
					"internalType": "address",
					"name": "Gateway",
					"type": "address"
				},
				{
					"internalType": "string",
					"name": "ProtocolName",
					"type": "string"
				}
			],
			"stateMutability": "view",
			"type": "function"
		},
		{
			"inputs": [
				{
					"internalType": "address",
					"name": "_tokenAddress",
					"type": "address"
				},
				{
					"internalType": "uint256",
					"name": "amount",
					"type": "uint256"
				},
				{
					"internalType": "uint256",
					"name": "indexProtocol",
					"type": "uint256"
				}
			],
			"name": "WithdrawFromProtocol",
			"outputs": [],
			"stateMutability": "nonpayable",
			"type": "function"
		},
		{
			"inputs": [
				{
					"internalType": "uint256",
					"name": "_protocolRatio",
					"type": "uint256"
				}
			],
			"name": "adjustRatio",
			"outputs": [],
			"stateMutability": "nonpayable",
			"type": "function"
		},
		{
			"inputs": [
				{
					"internalType": "address",
					"name": "_tokenAddress",
					"type": "address"
				},
				{
					"internalType": "uint256",
					"name": "indexProtocol",
					"type": "uint256"
				}
			],
			"name": "allocateFundsInvest",
			"outputs": [],
			"stateMutability": "nonpayable",
			"type": "function"
		},
		{
			"inputs": [
				{
					"internalType": "address",
					"name": "_tokenAddress",
					"type": "address"
				},
				{
					"internalType": "uint256",
					"name": "_amount",
					"type": "uint256"
				}
			],
			"name": "deposit",
			"outputs": [],
			"stateMutability": "nonpayable",
			"type": "function"
		},
		{
			"inputs": [],
			"name": "owner",
			"outputs": [
				{
					"internalType": "address",
					"name": "",
					"type": "address"
				}
			],
			"stateMutability": "view",
			"type": "function"
		},
		{
			"inputs": [],
			"name": "protocolRatio",
			"outputs": [
				{
					"internalType": "uint256",
					"name": "",
					"type": "uint256"
				}
			],
			"stateMutability": "view",
			"type": "function"
		},
		{
			"inputs": [
				{
					"internalType": "address",
					"name": "",
					"type": "address"
				}
			],
			"name": "userDepositIndexs",
			"outputs": [
				{
					"internalType": "uint256",
					"name": "",
					"type": "uint256"
				}
			],
			"stateMutability": "view",
			"type": "function"
		},
		{
			"inputs": [
				{
					"internalType": "address",
					"name": "",
					"type": "address"
				},
				{
					"internalType": "address",
					"name": "",
					"type": "address"
				}
			],
			"name": "userDeposits",
			"outputs": [
				{
					"internalType": "uint256",
					"name": "depositAmount",
					"type": "uint256"
				},
				{
					"internalType": "uint256",
					"name": "lastDeposit",
					"type": "uint256"
				}
			],
			"stateMutability": "view",
			"type": "function"
		},
		{
			"inputs": [
				{
					"internalType": "address",
					"name": "_tokenAddress",
					"type": "address"
				},
				{
					"internalType": "uint256",
					"name": "_amount",
					"type": "uint256"
				}
			],
			"name": "withdraw",
			"outputs": [],
			"stateMutability": "nonpayable",
			"type": "function"
		}
	]
}